:020000040800F2
:1000000000800120BD4B010813D3000819D300085C
:100010001FD3000825D300082BD3000800000000E0
:1000200000000000000000000000000059A60008C9
:1000300031D300080000000015A6000845A50008FF
:100040000D4C01080D4C01080D4C01080D4C010828
:100050000D4C01080D4C01080D4C01080D4C010818
:100060000D4C01080D4C01080D4C01083FD3000850
:10007000212000080D4C01080D4C01080D4C010811
:100080004DD300085BD3000869D300080D4C01086C
:100090000D4C01080D4C01080D4C01080D4C0108D8
:1000A0000D4C010879D300080D4C01080D4C0108D6
:1000B0000D4C01080D4C01080D4C01080D4C0108B8
:1000C0000D4C01080D4C01080D4C01080D4C0108A8
:1000D0000D4C01080D4C01080D4C01080D4C010898
:1000E0000D4C01080D4C01080D4C01080D4C010888
:1000F0000D4C01080D4C01080D4C01080D4C010878
:100100000D4C01080D4C01080D4C01080D4C010867
:100110000D4C01080D4C01080D4C01080D4C010857
:100120000D4C01080D4C01080D4C01080D4C010847
:100130000D4C01080D4C01080D4C01080D4C010837
:100140000D4C01080D4C01080D4C01088DD3000821
:100150000D4C01080D4C01080D4C01080D4C010817
:100160000D4C01080D4C01080D4C01080D4C010807
:100170000D4C01080D4C01080D4C01080000000059
:080180000D4C01080D4C0108B3
:1001880010B5054C237833B9044B13B10448AFF3C9
:1001980000800123237010BD300300200000000000
:1001A8003852010808B5034B1BB103490348AFF3A4
:1001B800008008BD00000000340300203852010808
:1001C80081F0004102E000BF83F0004330B54FEA00
:1001D80041044FEA430594EA050F08BF90EA020F6D
:1001E8001FBF54EA000C55EA020C7FEA645C7FEA00
:1001F800655C00F0E2804FEA5454D4EB5555B8BF23
:100208006D420CDD2C4480EA020281EA030382EA93
:10021800000083EA010180EA020281EA0303362D25
:1002280088BF30BD11F0004F4FEA01314FF4801CF8
:100238004CEA113102D0404261EB410113F0004F0A
:100248004FEA03334CEA133302D0524263EB4303C1
:1002580094EA050F00F0A780A4F10104D5F1200E5F
:100268000DDB02FA0EFC22FA05F2801841F10001BA
:1002780003FA0EF2801843FA05F359410EE0A5F18E
:1002880020050EF1200E012A03FA0EFC28BF4CF0BF
:10029800020C43FA05F3C01851EBE37101F0004575
:1002A80007D54FF0000EDCF1000C7EEB00006EEB82
:1002B8000101B1F5801F1BD3B1F5001F0CD349080C
:1002C8005FEA30004FEA3C0C04F101044FEA445263
:1002D80012F5800F80F09A80BCF1004F08BF5FEAEA
:1002E800500C50F1000041EB045141EA050130BDCA
:1002F8005FEA4C0C404141EB0101013C28BFB1F5DC
:10030800801FE9D291F0000F04BF01460020B1FA26
:1003180081F308BF2033A3F10B03B3F120020CDAF9
:100328000C3208DD02F1140CC2F10C0201FA0CF0D7
:1003380021FA02F10CE002F11402D8BFC2F1200C3C
:1003480001FA02F120FA0CFCDCBF41EA0C019040F2
:10035800E41AA2BF01EB0451294330BD6FEA04043B
:100368001F3C1CDA0C340EDC04F11404C4F1200226
:1003780020FA04F001FA02F340EA030021FA04F338
:1003880045EA030130BDC4F10C04C4F1200220FA8F
:1003980002F001FA04F340EA0300294630BD21FACD
:1003A80004F0294630BD94F0000F83F4801306BF93
:1003B80081F480110134013D4EE77FEA645C18BF87
:1003C8007FEA655C29D094EA050F08BF90EA020F1E
:1003D80005D054EA000C04BF1946104630BD91EA16
:1003E800030F1EBF0021002030BD5FEA545C05D119
:1003F8004000494128BF41F0004130BD14F5800458
:100408003CBF01F5801130BD01F0004545F0FE41CB
:1004180041F470014FF0000030BD7FEA645C1ABF00
:10042800194610467FEA655C1CBF0B46024650EA37
:10043800013406BF52EA033591EA030F41F4002163
:1004480030BD00BF90F0000F04BF0021704730B5E9
:100458004FF4806404F132044FF000054FF00001BE
:1004680050E700BF90F0000F04BF0021704730B57F
:100478004FF4806404F1320410F0004548BF404254
:100488004FF000013EE700BF42004FEAE2014FEAA9
:1004980031014FEA02701FBF12F07F4393F07F4F84
:1004A80081F06051704732F07F4208BF704793F087
:1004B8007F4F04BF41F40021704730B54FF460749A
:1004C80001F0004521F000411CE700BF50EA01029D
:1004D80008BF704730B54FF000050AE050EA010246
:1004E80008BF704730B511F0004502D5404261EBB6
:1004F80041014FF4806404F132045FEA915C3FF4F7
:10050800D8AE4FF003025FEADC0C18BF03325FEA93
:10051800DC0C18BF033202EBDC02C2F1200300FA44
:1005280003FC20FA02F001FA03FE40EA0E0021FA69
:1005380002F11444BDE600BF70B54FF0FF0C4CF457
:10054800E06C1CEA11541DBF1CEA135594EA0C0F09
:1005580095EA0C0F00F0DEF82C4481EA030621EA44
:100568004C5123EA4C5350EA013518BF52EA03357F
:1005780041F4801143F4801338D0A0FB02CE4FF031
:100588000005E1FB02E506F00042E0FB03E54FF061
:100598000006E1FB03569CF0000F18BF4EF0010E59
:1005A800A4F1FF04B6F5007F64F5407404D25FEA55
:1005B8004E0E6D4146EB060642EAC62141EA555108
:1005C8004FEAC52040EA5E504FEACE2EB4F1FD0C4A
:1005D80088BFBCF5E06F1ED8BEF1004F08BF5FEAC8
:1005E800500E50F1000041EB045170BD06F000467A
:1005F80046EA010140EA020081EA0301B4EB5C0427
:10060800C2BFD4EB0C0541EA045170BD41F480111E
:100618004FF0000E013C00F3AB8014F1360FDEBF43
:10062800002001F0004170BDC4F10004203C35DA1F
:100638000C341BDC04F11404C4F1200500FA05F3A2
:1006480020FA04F001FA05F240EA020001F0004243
:1006580021F0004110EBD37021FA04F642EB0601B9
:100668005EEA430E08BF20EAD37070BDC4F10C04E3
:10067800C4F1200500FA04F320FA05F001FA04F2A7
:1006880040EA020001F0004110EBD37041F1000193
:100698005EEA430E08BF20EAD37070BDC4F120059E
:1006A80000FA05F24EEA020E20FA04F301FA05F206
:1006B80043EA020321FA04F001F0004121FA04F2AE
:1006C80020EA020000EBD3705EEA430E08BF20EA7E
:1006D800D37070BD94F0000F0FD101F000464000B8
:1006E80041EB010111F4801F08BF013CF7D041EA3A
:1006F800060195F0000F18BF704703F0004652003E
:1007080043EB030313F4801F08BF013DF7D043EA0E
:100718000603704794EA0C0F0CEA135518BF95EAC4
:100728000C0F0CD050EA410618BF52EA4306D1D14B
:1007380081EA030101F000414FF0000070BD50EA6A
:10074800410606BF1046194652EA430619D094EAF4
:100758000C0F02D150EA013613D195EA0C0F05D1DE
:1007680052EA03361CBF104619460AD181EA030132
:1007780001F0004141F0FE4141F470014FF00000EA
:1007880070BD41F0FE4141F4780170BD70B54FF085
:10079800FF0C4CF4E06C1CEA11541DBF1CEA135505
:1007A80094EA0C0F95EA0C0F00F0A7F8A4EB0504E7
:1007B80081EA030E52EA03354FEA013100F08880DE
:1007C8004FEA03334FF0805545EA131343EA1263A7
:1007D8004FEA022245EA111545EA10654FEA00265C
:1007E8000EF000419D4208BF964244F1FD0404F515
:1007F800407402D25B084FEA3202B61A65EB030571
:100808005B084FEA32024FF480104FF4002CB6EB2D
:10081800020E75EB030E22BFB61A754640EA0C00AD
:100828005B084FEA3202B6EB020E75EB030E22BFED
:10083800B61A754640EA5C005B084FEA3202B6EB2E
:10084800020E75EB030E22BFB61A754640EA9C00ED
:100858005B084FEA3202B6EB020E75EB030E22BFBD
:10086800B61A754640EADC0055EA060E18D04FEA7B
:10087800051545EA16754FEA06164FEAC30343EA1B
:1008880052734FEAC2025FEA1C1CC0D111F4801FE8
:100898000BD141EA00014FF000004FF0004CB6E7E1
:1008A80011F4801F04BF01430020B4F1FD0C88BF80
:1008B800BCF5E06F3FF6AFAEB5EB030C04BFB6EB8B
:1008C800020C5FEA500C50F1000041EB045170BD7E
:1008D8000EF0004E4EEA113114EB5C04C2BFD4EBAB
:1008E8000C0541EA045170BD41F480114FF0000E2F
:1008F800013C90E645EA060E8DE60CEA135594EAAB
:100908000C0F08BF95EA0C0F3FF43BAF94EA0C0FAD
:100918000AD150EA01347FF434AF95EA0C0F7FF422
:1009280025AF104619462CE795EA0C0F06D152EA76
:1009380003353FF4FDAE1046194622E750EA41065A
:1009480018BF52EA43067FF4C5AE50EA41047FF46B
:100958000DAF52EA43057FF4EBAE12E74FF0FF3CD0
:1009680006E000BF4FF0010C02E000BF4FF0010CA1
:100978004DF804CD4FEA410C7FEA6C5C4FEA430C1A
:1009880018BF7FEA6C5C1BD001B050EA410C0CBF69
:1009980052EA430C91EA030F02BF90EA020F0020CB
:1009A800704710F1000F91EA030F58BF994208BF32
:1009B80090422CBFD8176FEAE37040F001007047EF
:1009C8004FEA410C7FEA6C5C02D150EA013C07D146
:1009D8004FEA430C7FEA6C5CD6D152EA033CD3D091
:1009E8005DF8040B704700BF8446104662468C468B
:1009F8001946634600E000BF01B5FFF7B7FF0028BE
:100A080048BF10F1000F01BD4DF808EDFFF7F4FFE6
:100A18000CBF012000205DF808FB00BF4DF808ED71
:100A2800FFF7EAFF34BF012000205DF808FB00BF94
:100A38004DF808EDFFF7E0FF94BF012000205DF8B6
:100A480008FB00BF4DF808EDFFF7CEFF94BF01206B
:100A580000205DF808FB00BF4DF808EDFFF7C4FF64
:100A680034BF012000205DF808FB00BF4FEA410CAD
:100A78007FEA6C5C02D150EA013C0AD14FEA430C90
:100A88007FEA6C5C02D152EA033C02D14FF00000CD
:100A980070474FF0010070474FEA410212F500120B
:100AA80015D211D56FF47873B3EB625212D94FEAAD
:100AB800C12343F0004343EA505311F0004F23FA97
:100AC80002F018BF404270474FF00000704750EAEC
:100AD800013005D111F0004008BF6FF000407047A9
:100AE8004FF00000704700BF4A0011D212F5001203
:100AF80011D20DD56FF47873B3EB62520ED44FEA6E
:100B0800C12343F0004343EA505323FA02F07047ED
:100B18004FF00000704750EA013002D14FF0FF302B
:100B280070474FF0000070474FEA4102B2F1E043CE
:100B380024BFB3F5001CDCF1FE5C0DD901F0004CBC
:100B48004FEAC0024CEA5070B2F1004F40EB83000C
:100B580008BF20F00100704711F0804F21D113F138
:100B68003872BCBF01F00040704741F480114FEA71
:100B78005252C2F11802C2F1200C10FA0CF320FAFA
:100B880002F018BF40F001004FEAC1234FEAD32317
:100B980003FA0CFC40EA0C0023FA02F34FEA430381
:100BA800CCE77FEA625307D150EA01331EBF4FF00A
:100BB800FE4040F44000704701F0004040F0FE4025
:100BC80040F40000704700BF80B485B000AF786083
:100BD8007B681B6803F06003FB60FB68002B04D193
:100BE8007B681B6803F01003FB60FB68184614372A
:100BF800BD465DF8047B704780B483B000AF786071
:100C08007B681B6B18460C37BD465DF8047B704744
:100C180080B483B000AF786039607B681A6A3B683B
:100C28001A437B681A6200BF0C37BD465DF8047B27
:100C3800704780B483B000AF786039607B681A6A07
:100C48003B68DB431A407B681A6200BF0C37BD461D
:100C58005DF8047B704780B483B000AF78607B6830
:100C68005B6C43F400427B685A6400BF0C37BD4696
:100C78005DF8047B704780B483B000AF78607B6810
:100C8800DB6843F001027B68DA6000BF0C37BD46C1
:100C98005DF8047B704780B483B000AF78607B68F0
:100CA800DB6823F001027B68DA6000BF0C37BD46C1
:100CB8005DF8047B704780B483B000AF78607B68D0
:100CC800DB6803F00103012B01D1012300E00023BD
:100CD80018460C37BD465DF8047B704780B483B076
:100CE80000AF78607B68DB6843F002027B68DA60FB
:100CF80000BF0C37BD465DF8047B704780B483B0F5
:100D080000AF78607B68DB6823F002027B68DA60FA
:100D180000BF0C37BD465DF8047B704780B483B0D4
:100D280000AF78607B68DB6803F00203022B01D117
:100D3800012300E0002318460C37BD465DF8047B0C
:100D4800704780B483B000AF78607B68DB6843F09D
:100D580004027B68DA6000BF0C37BD465DF8047B8F
:100D6800704780B483B000AF78607B68DB6823F09D
:100D780004027B68DA6000BF0C37BD465DF8047B6F
:100D8800704780B483B000AF78607B68DB6803F09D
:100D98000403042B01D1012300E0002318460C377B
:100DA800BD465DF8047B704780B483B000AF7860BF
:100DB8007B68DB6843F008027B68DA6000BF0C37A9
:100DC800BD465DF8047B704780B483B000AF78609F
:100DD8007B68DB6823F008027B68DA6000BF0C37A9
:100DE800BD465DF8047B704780B483B000AF78607F
:100DF8007B68DB6803F00803082B01D1012300E0BE
:100E0800002318460C37BD465DF8047B704780B454
:100E180083B000AF78607B68DB6843F010027B68C2
:100E2800DA6000BF0C37BD465DF8047B704780B4BC
:100E380083B000AF78607B68DB6823F010027B68C2
:100E4800DA6000BF0C37BD465DF8047B704780B49C
:100E580083B000AF78607B68DB6803F01003102B69
:100E680001D1012300E0002318460C37BD465DF888
:100E7800047B704780B483B000AF78607B68DB6820
:100E880043F020027B68DA6000BF0C37BD465DF88E
:100E9800047B704780B483B000AF78607B68DB6800
:100EA80023F020027B68DA6000BF0C37BD465DF88E
:100EB800047B704780B483B000AF78607B68DB68E0
:100EC80003F02003202B01D1012300E00023184662
:100ED8000C37BD465DF8047B704780B483B000AF23
:100EE80078607B68DB6843F040027B68DA6000BFAB
:100EF8000C37BD465DF8047B704780B483B000AF03
:100F080078607B68DB6823F040027B68DA6000BFAA
:100F18000C37BD465DF8047B704780B483B000AFE2
:100F280078607B68DB6803F04003402B01D1012324
:100F380000E0002318460C37BD465DF8047B704777
:100F480080B483B000AF78607B68DB6843F08002D0
:100F58007B68DA6000BF0C37BD465DF8047B7047DC
:100F680080B483B000AF78607B68DB6823F08002D0
:100F78007B68DA6000BF0C37BD465DF8047B7047BC
:100F880080B483B000AF78607B68DB6803F08003CF
:100F9800802B01D1012300E0002318460C37BD4601
:100FA8005DF8047B704780B582B000AF78600B466F
:100FB8007B807B8803F00103002B0CD07B681B68C7
:100FC8001846FFF7AAFF0346012B04D07B681B686D
:100FD8001846FFF782FF7B8803F00203002B0CD032
:100FE8007B681B681846FFF799FE0346012B04D05F
:100FF8007B681B681846FFF771FE7B8803F00403C3
:10100800002B0CD07B681B681846FFF7BAFE034616
:10101800012B04D07B681B681846FFF792FE7B887B
:1010280003F00803002B0CD07B681B681846FFF7F9
:10103800DBFE0346012B04D07B681B681846FFF7CC
:10104800B3FE7B8803F01003002B0CD07B681B6871
:101058001846FFF7FCFE0346012B04D07B681B688B
:101068001846FFF7D4FE7B8803F02003002B0CD032
:101078007B681B681846FFF71EFE0346012B04D049
:101088007B681B681846FFF7F6FD7B8803F0400372
:10109800002B0CD07B681B681846FFF771FF0346CE
:1010A800012B04D07B681B681846FFF749FF7B8833
:1010B80003F08003002B0CD07B681B681846FFF7F1
:1010C800F9FE0346012B04D07B681B681846FFF71E
:1010D800D1FE00BF0837BD4680BD80B582B000AFE5
:1010E80078600B467B807B8803F00103002B0CD0D3
:1010F8007B681B681846FFF710FF0346012B04D1D5
:101108007B681B681846FFF7F8FE7B8803F002032C
:10111800002B0CD07B681B681846FFF7FFFD0346C1
:10112800012B04D17B681B681846FFF7E7FD7B8815
:1011380003F00403002B0CD07B681B681846FFF7EC
:1011480020FE0346012B04D17B681B681846FFF775
:1011580008FE7B8803F00803002B0CD07B681B6813
:101168001846FFF741FE0346012B04D17B681B6834
:101178001846FFF729FE7B8803F01003002B0CD0DC
:101188007B681B681846FFF762FE0346012B04D1F3
:101198007B681B681846FFF74AFE7B8803F020032C
:1011A800002B0CD07B681B681846FFF784FD0346AC
:1011B800012B04D07B681B681846FFF76CFD7B8801
:1011C80003F04003002B0CD07B681B681846FFF720
:1011D800D7FE0346012B04D17B681B681846FFF72E
:1011E800BFFE7B8803F08003002B0CD07B681B6854
:1011F8001846FFF75FFE0346012B04D17B681B6886
:101208001846FFF747FE00BF0837BD4680BD0000FF
:1012180080B582B000AF78600B46FB70FB78022B7C
:1012280006D17B681B6801211846FFF7F1FC31E005
:101238007B681B68194A934213D07B681B68184A5D
:1012480093420ED07B681B68164A934209D07B688C
:101258001B68154A934204D07B681B68134A934263
:1012680018D1FB78032B06D17B681B68042118462C
:10127800FFF7CEFC0EE0FB78042B0BD17B681B68D4
:1012880001211846FFF7C4FC7B681B680421184637
:10129800FFF7BEFC00BF0837BD4680BD002C0140EB
:1012A8000034014000400140004401400048014032
:1012B80080B582B000AF78600B46FB70FB78022BDC
:1012C80006D17B681B6801211846FFF7B2FC31E0A4
:1012D8007B681B68194A934213D07B681B68184ABD
:1012E80093420ED07B681B68164A934209D07B68EC
:1012F8001B68154A934204D07B681B68134A9342C3
:1013080018D1FB78032B06D17B681B68042118468B
:10131800FFF78FFC0EE0FB78042B0BD17B681B6872
:1013280001211846FFF785FC7B681B6804211846D5
:10133800FFF77FFC00BF0837BD4680BD002C014089
:101348000034014000400140004401400048014091
:1013580080B582B000AF78600B46FB70FB78022B3B
:1013680006D17B681B6810211846FFF751FC31E055
:101378007B681B68194A934213D07B681B68184A1C
:1013880093420ED07B681B68164A934209D07B684B
:101398001B68154A934204D07B681B68134A934222
:1013A80018D1FB78032B06D17B681B6840211846AF
:1013B800FFF72EFC0EE0FB78042B0BD17B681B6833
:1013C80010211846FFF724FC7B681B68402118464B
:1013D800FFF71EFC00BF0837BD4680BD002C01404A
:1013E80000340140004001400044014000480140F1
:1013F80080B582B000AF78600B46FB70FB78022B9B
:1014080006D17B681B6810211846FFF712FC31E0F3
:101418007B681B68194A934213D07B681B68184A7B
:1014280093420ED07B681B68164A934209D07B68AA
:101438001B68154A934204D07B681B68134A934281
:1014480018D1FB78032B06D17B681B68402118460E
:10145800FFF7EFFB0EE0FB78042B0BD17B681B68D2
:1014680010211846FFF7E5FB7B681B6840211846EA
:10147800FFF7DFFB00BF0837BD4680BD002C0140E9
:101488000034014000400140004401400048014050
:1014980080B582B000AF78600B46FB70FB78022BFA
:1014A80007D17B681B684FF480711846FFF7B0FBC3
:1014B80034E07B681B681B4A934213D07B681B6827
:1014C800194A93420ED07B681B68184A934209D088
:1014D8007B681B68164A934204D07B681B68154AD0
:1014E80093421BD1FB78032B07D17B681B684FF411
:1014F80080611846FFF78CFB10E0FB78042B0DD1B8
:101508007B681B684FF480711846FFF781FB7B6886
:101518001B684FF480611846FFF77AFB00BF083755
:10152800BD4680BD002C0140003401400040014010
:10153800004401400048014080B582B000AF7860A7
:101548000B46FB70FB78022B07D17B681B684FF4B6
:1015580080711846FFF76DFB34E07B681B681B4AF7
:10156800934213D07B681B68194A93420ED07B685C
:101578001B68184A934209D07B681B68164A934235
:1015880004D07B681B68154A93421BD1FB78032B58
:1015980007D17B681B684FF480611846FFF749FB49
:1015A80010E0FB78042B0DD17B681B684FF4807129
:1015B8001846FFF73EFB7B681B684FF480611846AE
:1015C800FFF737FB00BF0837BD4680BD002C014040
:1015D80000340140004001400044014000480140FF
:1015E80080B582B000AF78600B46FB70FB78022BA9
:1015F80006D17B681B684FF480511846FFF708FB3B
:1016080000BF0837BD4680BD80B582B000AF7860A6
:101618000B46FB70FB78022B06D17B681B684FF4E6
:1016280080511846FFF705FB00BF0837BD4680BD4F
:1016380080B584B000AF78600023FB607B681B68CE
:10164800304A934201D1304BFB607B681A68FB68D3
:101658001A60FB681B681846FFF7B6FAB860BB68E3
:10166800002B06D0BB68102B03D0FB6801221A712F
:1016780002E0FB6800221A71FB681B68234A934248
:1016880013D0FB681B68224A93420ED0FB681B6884
:10169800204A934209D0FB681B681F4A934204D032
:1016A800FB681B681D4A934204D1FB681B681846F7
:1016B800FFF7D1FAFB681B68144A934213D0FB6802
:1016C8001B68134A93420ED0FB681B68114A934269
:1016D80009D0FB681B68104A934204D0FB681B685A
:1016E8000E4A934208D17B681B681846FFF784FAB4
:1016F8000346DAB2FB685A71FB6818461037BD46D4
:1017080080BD00BF0004004090050020002C01406F
:1017180000340140004001400044014000480140BD
:1017280080B485B000AF786039603B68002B03D186
:101738007B684033FB6001E0044BFB60FB681846A4
:101748001437BD465DF8047B704700BF0C03045096
:1017580080B483B000AF78607B68DB6803F44063D3
:10176800002B01D1012300E0002318460C37BD46A9
:101778005DF8047B704780B483B000AF786039604F
:101788007B681B6B23F00F023B681A437B681A6364
:1017980000BF0C37BD465DF8047B704780B483B04A
:1017A80000AF786039607B68DB6823F003023B6830
:1017B8001A437B68DA6000BF0C37BD465DF8047BCE
:1017C800704780B483B000AF78607B68DB6C03F04F
:1017D800C003002B01D1012300E0002318460C3779
:1017E800BD465DF8047B704780B483B000AF786075
:1017F8007B689B6823F0004323F03F0343F001021A
:101808007B689A6000BF0C37BD465DF8047B704763
:1018180080B483B000AF78607B689B6823F0004396
:1018280023F03F0343F002027B689A6000BF0C3745
:10183800BD465DF8047B704780B483B000AF786024
:101848007B689B6803F00103012B01D1012300E0B1
:10185800002318460C37BD465DF8047B704780B4FA
:1018680083B000AF786039607B689B6823F04043A1
:1018780023F03F033A6802F08042134343F00042EA
:101888007B689A6000BF0C37BD465DF8047B7047E3
:1018980080B483B000AF78607B689B6803F0004336
:1018A800B3F1004F01D1012300E0002318460C37A3
:1018B800BD465DF8047B704780B483B000AF7860A4
:1018C8007B689B6823F0004323F03F0343F0040246
:1018D8007B689A6000BF0C37BD465DF8047B704793
:1018E80080B483B000AF78607B689B6823F00043C6
:1018F80023F03F0343F008027B689A6000BF0C376F
:10190800BD465DF8047B704780B483B000AF786053
:101918007B681B6803F00803082B01D1012300E052
:10192800002318460C37BD465DF8047B704780B429
:1019380083B000AF78607B681B6803F01003102B3E
:1019480001D1012300E0002318460C37BD465DF89D
:10195800047B704780B483B000AF78607B68102246
:101968001A6000BF0C37BD465DF8047B704780B431
:1019780083B000AF78607B685B6843F008027B68DF
:101988005A6000BF0C37BD465DF8047B704780B4D1
:1019980083B000AF78607B685B6843F040027B6887
:1019A8005A6000BF0C37BD465DF8047B704780B4B1
:1019B80083B000AF78607B685B6823F008027B68BF
:1019C8005A6000BF0C37BD465DF8047B704780B491
:1019D80083B000AF78607B685B6823F010027B6897
:1019E8005A6000BF0C37BD465DF8047B704780B471
:1019F80083B000AF78607B685B6823F040027B6847
:101A08005A6000BF0C37BD465DF8047B704780B450
:101A180083B000AF78607B685B6823F080027B68E6
:101A28005A6000BF0C37BD465DF8047B704780B430
:101A380083B000AF78607B685B6803F01003102BFD
:101A480001D1012300E0002318460C37BD465DF89C
:101A5800047B704780B483B000AF78607B685B68B4
:101A680003F08003802B01D1012300E000231846F6
:101A78000C37BD465DF8047B7047000080B485B024
:101A880000AF786039607B68FB600C4A3B681344A0
:101A98001B781A46FB6813441B6808493A680A44CD
:101AA80012781146FA680A4443F00103136000BF34
:101AB8001437BD465DF8047B704700BFA452010887
:101AC80080B485B000AF786039607B68FB600C4AF1
:101AD8003B6813441B781A46FB6813441B68084983
:101AE8003A680A4412781146FA680A4423F0010356
:101AF800136000BF1437BD465DF8047B704700BF14
:101B0800A452010880B485B000AF786039607B6862
:101B1800FB60084A3B6813441B781A46FB68134469
:101B28001B6803F0200318461437BD465DF8047B94
:101B3800704700BFA452010880B487B000AFF860B6
:101B4800B9607A60FB687B610D4ABB6813441B78F7
:101B58001A467B6913445B681B0C1B040849BA6866
:101B68000A44127811467A690A4411467A6813437E
:101B78004B6000BF1C37BD465DF8047B704700BF53
:101B8800A452010880B487B000AFF860B9607A60E9
:101B98003B60FB687B613B6A102B14D1174ABB681A
:101BA80013441B781A467B6913441A467B68D36032
:101BB800124ABB6813441B781A467B6913441A46B9
:101BC8003B68936013E00D4ABB6813441B781A46C0
:101BD8007B6913441A467B689360084ABB681344C0
:101BE8001B781A467B6913441A463B68D36000BFCA
:101BF8001C37BD465DF8047B704700BFA45201083E
:101C080080B487B000AFF860B9607A60FB687B6128
:101C1800074ABB6813441B781A467B6913441A4663
:101C28007B68936000BF1C37BD465DF8047B704736
:101C3800A452010880B483B000AF78607B681B6849
:101C480003F02003202B01D1012300E000231846D4
:101C58000C37BD465DF8047B704780B483B000AF95
:101C680078607B6820225A6000BF0C37BD465DF85B
:101C7800047B704780B485B000AF786039607B68BA
:101C8800FB600C4A3B6813441B781A46FB681344F4
:101C98001B6808493A680A4412781146FA680A44E7
:101CA80043F00203136000BF1437BD465DF8047BA0
:101CB800704700BFA452010880B485B000AF7860B7
:101CC80039607B68FB600C4A3B6813441B781A46F2
:101CD800FB6813441B6808493A680A44127811469D
:101CE800FA680A4443F00803136000BF1437BD467E
:101CF8005DF8047B704700BFA452010880B485B02A
:101D080000AF786039607B68FB600C4A3B6813441D
:101D18001B781A46FB6813441B6808493A680A444A
:101D280012781146FA680A4423F00203136000BFD0
:101D38001437BD465DF8047B704700BFA452010804
:101D480080B485B000AF786039607B68FB600C4A6E
:101D58003B6813441B781A46FB6813441B68084900
:101D68003A680A4412781146FA680A4423F00403D0
:101D7800136000BF1437BD465DF8047B704700BF91
:101D8800A452010880B485B000AF786039607B68E0
:101D9800FB600C4A3B6813441B781A46FB681344E3
:101DA8001B6808493A680A4412781146FA680A44D6
:101DB80023F00803136000BF1437BD465DF8047BA9
:101DC800704700BFA452010880B485B000AF7860A6
:101DD80039607B68FB600A4A3B6813441B781A46E3
:101DE800FB6813441B6803F00203022B01D1012393
:101DF80000E0002318461437BD465DF8047B7047A1
:101E0800A452010880B584B000AF78600123FB813B
:101E18007B681B691846FFF79BFC0346002B2FD0F5
:101E28007B685B7ADBB2022B11D07B685B7ADBB212
:101E3800042B0CD07B685B7ADBB2082B07D07B685D
:101E48001B691846FFF760FD0346012B18D1786817
:101E580000F0F2F80346002B12D17B685B7ADBB204
:101E6800082B03D17B6801225A7202E07B6820228A
:101E78005A727B681B691846FFF71EFD0023FB8119
:101E8800FB8918461037BD4680BD80B586B002AFC5
:101E9800F860B9607A603B600021F868FFF740FCA1
:101EA80003461A467968B868FFF7AAFE0021F86861
:101EB800FFF736FC02463B68002100917968B86854
:101EC800FFF760FEBA697968B868FFF735FE796888
:101ED800B868FFF7CFFE7968B868FFF7EDFE796854
:101EE800B868FFF7CBFD00BF1037BD4680BD80B591
:101EF80084B000AFF860B9607A607968B868FFF7B5
:101F0800DFFD7968B868FFF71BFF7968B868FFF7E5
:101F180039FF7968B868FFF7F1FE00227968B86878
:101F2800FFF70AFE00BF1037BD4680BD80B582B0FE
:101F380000AF786039607B68DB79012B0DD17B6855
:101F4800DA687B681B685B00D1187B681B685B00DC
:101F58001A46386813F056F908E07B68D9687B6838
:101F68001B685B001A46386813F04CF900BF083745
:101F7800BD4680BD80B586B000AFF860B9607A60B4
:101F8800FB685A69FB689B7919461046FFF71CFFE6
:101F98000346DBB2012B37D1FB685A69BB68104690
:101FA80098470346012B2FD1FB6804225A72FB681D
:101FB8005A697B6810469847FB685A69FB689B79A1
:101FC80019461046FFF79EFD0346002B19D1FB6802
:101FD8005A69FB689B7919461046FFF771FDFB6843
:101FE8005869FB689B791946FB681B681A46FFF716
:101FF800A3FDFB685A69FB689B7919461046FFF7F1
:102008003DFD0123FB7501E00023FB75FB7D1846B0
:102018001837BD4680BD000080B500AF034A0449AB
:102028000448FFF7A7FF00BF80BD00BF631C00087E
:102038003D1C00081C06002080B582B000AF786007
:102048007B681B691846FFF772FC0346DBB2012B5D
:1020580007D17B681B691846FFF77CFC7B68102258
:102068005A727B685B7ADBB2102B0CBF012300230A
:10207800DBB218460837BD4680BD80B582B000AFD8
:1020880078600B46FB70FB78012B0DD17B681B69D0
:102098001846FFF75DFB0346012B12D07B681B69CE
:1020A8001846FFF709FC0CE07B681B691846FFF728
:1020B80088FB0346012B04D07B681B691846FFF791
:1020C8000FFC00BF0837BD4680BD000090B589B041
:1020D80002AFF860084611461A4603467B810B4654
:1020E8003B811346FB8000237B61FB681B693C4AEC
:1020F800934201D13B4B7B617B69002B6BD0FB6822
:102108001A697B691A617B690022DA71FB88012BE5
:1021180061D03B89002B47D07B695B7ADBB2082B07
:1021280042D0FB68DA687B69DA60FB681A687B6909
:102138001A60FB685A697B695A61FB689A797B69FE
:102148009A71FB681A797B691A717B691B69B96A8C
:102158001846FFF710FB7B89012B21D07B89042BC4
:1021680016D17B691B6903211846FFF717FB7B69AA
:1021780018697B6959697B699B791C467B69DA68B0
:102188007B691B68009313462246FFF77EFE07E033
:102198007B89022B04D17B691B691846FFF7E7FB93
:1021A8007B6908225A7216E03B89002B13D17B69A0
:1021B8009B7ADBB2082B0ED0FB685A797B695A717F
:1021C8007B89022B04D17B691B691846FFF7DFFB6B
:1021D8007B6908229A727B6918461C37BD4690BDF8
:1021E800000104501C06002080B582B000AF786062
:1021F8007B681B691846FFF71FFB0346002B04D1B9
:102208007B681B691846FFF7EFFA00BF0837BD4621
:1022180080BD80B586B000AFF8600B467A607B81E0
:102228000123FB82FB681B69002B46D07B89012BAD
:1022380005D1F868FFF7E6FD0346FB823DE07B89A0
:10224800042B1FD1FB681B691846FFF781FA034668
:10225800002B32D0FB6801225A72FB681B691846B2
:10226800FFF72AFB00BFFB685B7ADBB2042BFAD1CD
:102278007968F868FFF75AFEFB6808225A7200234B
:10228800FB821AE07B89022B17D1FB685B7ADBB2F1
:10229800202B09D0FB685B7ADBB2042B04D0FB68E7
:1022A8005B7ADBB2102B08D1FB6808225A72796876
:1022B800F868FFF73BFE0023FB82FB8A18461837B5
:1022C800BD4680BD80B582B000AF78600B467B808C
:1022D80013463B807B681B691846FFF7ADFA034637
:1022E800002B04D07B681B691846FFF791FA7B68BE
:1022F8001B691846FFF7AEFB0346002B04D07B682A
:102308001B691846FFF783FB7B681B691846FFF7B4
:102318008EFB0346002B04D07B681B691846FFF729
:1023280056FB3B88002B35D07B680022DA607B683F
:1023380000221A607B6800225A617B6800229A7129
:102348007B6800221A717B681A697B681B791946B9
:102358001046FFF710FA7B88012B26D07B88022BCA
:1023680005D17B681B691846FFF721FB1DE07B88B8
:10237800042B1AD17B6818697B6859697B689B793B
:102388001A46FFF7B4FD7B681B6900211846FFF762
:1023980005FA0AE07B6800225A717B88022B04D177
:1023A8007B681B691846FFF722FB00BF0837BD464C
:1023B80080BD000080B584B000AF78600B46FB702C
:1023C8007B681B691846FFF737FA0346FB7397F9D2
:1023D8000F30012B04D17B681B691846FFF718FAE8
:1023E800FB78002B0FD17B681B697F211846FFF70C
:1023F80036FA00BF7B681B691846FFF749FA03469F
:10240800012BF7D040E0FB78012B0FD17B681B69CB
:102418002C491846FFF723FA00BF7B681B6918464A
:10242800FFF736FA0346012BF7D02DE07B681B69CE
:102438007F211846FFF713FA00BF7B681B6918460F
:10244800FFF726FA0346012BF7D00023BB8107E0EC
:1024580000BFBB891BB29BB201339BB21BB2BB81CD
:10246800BB891BB29BB2032BF2D97B681B69154948
:102478001846FFF7F4F900BF7B681B691846FFF799
:1024880007FA0346012BF7D00023BB8107E000BF02
:10249800BB891BB29BB201339BB21BB2BB81BB8908
:1024A8001BB29BB2032BF2D997F90F30012B04D141
:1024B8007B681B691846FFF797F900BF1037BD46C0
:1024C80080BD00BF00007F4080B483B000AF78605B
:1024D8007B681B6843F001027B681A6000BF0C37F9
:1024E800BD465DF8047B704780B483B000AF786068
:1024F8007B681B6823F001027B681A6000BF0C37F9
:10250800BD465DF8047B704780B483B000AF786047
:1025180039607B681B6823F004023B681A437B68B8
:102528001A6000BF0C37BD465DF8047B704780B465
:1025380083B000AF78607B681B6803F0040318461B
:102548000C37BD465DF8047B704780B483B000AF9C
:1025580078607B68DB6A18460C37BD465DF8047BFB
:10256800704780B483B000AF786039607B683A68A0
:102578001A6300BF0C37BD465DF8047B704780B412
:1025880083B000AF786039607B683A685A6300BFEF
:102598000C37BD465DF8047B704780B483B000AF4C
:1025A800786039607B683A689A6300BF0C37BD462B
:1025B8005DF8047B704780B483B000AF7860396001
:1025C8007B683A68DA6300BF0C37BD465DF8047B68
:1025D800704780B483B000AF786039607B683A6830
:1025E8001A6400BF0C37BD465DF8047B704780B4A1
:1025F80083B000AF78607B685B6B18460C37BD46CC
:102608005DF8047B704780B483B000AF78607B6866
:102618009B6B18460C37BD465DF8047B704780B449
:1026280083B000AF78607B68DB6B18460C37BD461B
:102638005DF8047B704780B483B000AF78607B6836
:102648001B6C18460C37BD465DF8047B704780B498
:1026580083B000AF78607B685B6943F001027B68F8
:102668005A6100BF0C37BD465DF8047B704780B4E3
:1026780083B000AF78607B681B6918460C37BD468D
:102688005DF8047B704780B483B000AF7860396030
:102698007B683A689A6100BF0C37BD465DF8047BD9
:1026A800704780B483B000AF786039607B683A685F
:1026B8009A6200BF0C37BD465DF8047B7047000086
:1026C80080B584B000AF786087ED000AD7ED007A56
:1026D800F5EEC07AF1EE10FA03D54FF000033B6037
:1026E8000AE0D7ED007A9FED167AF4EEC77AF1EE9C
:1026F80010FA01DD134B3B607B681B681846FFF737
:1027080024FFF8607B681B79002B0CBF0123002392
:10271800DBB21A46FB68134407EE903AB8EE677AC4
:10272800D7ED007A27EE277ADFED056AC7EE267A1D
:10273800FCEEE77A17EE903A18461037BD4680BD92
:102748000000C8420000C84280B582B000AF78607F
:1027580039607B681B681846FFF749FF02463B68EB
:10276800934205D07B681B6839681846FFF707FF56
:1027780000BF0837BD4680BD80B582B000AF786025
:1027880039607B681B681846FFF73DFF02463B68C7
:10279800934205D07B681B6839681846FFF7FDFE31
:1027A80000BF0837BD4680BD80B582B000AF7860F5
:1027B80039607B681B681846FFF731FF02463B68A3
:1027C800934205D07B681B6839681846FFF7F3FE0B
:1027D80000BF0837BD4680BD80B582B000AF7860C5
:1027E80039607B681B681846FFF725FF02463B687F
:1027F800934205D07B681B6839681846FFF7E9FEE5
:1028080000BF0837BD4680BD80B584B000AF786092
:1028180087ED000A97ED000A7868FFF751FFF86026
:10282800F9687868FFF790FF00BF1037BD4680BD94
:1028380080B584B000AF786087ED000A97ED000A94
:102848007868FFF73DFFF860F9687868FFF794FF4C
:1028580000BF1037BD4680BD80B584B000AF78603A
:1028680087ED000A97ED000A7868FFF729FFF860FE
:10287800F9687868FFF798FF00BF1037BD4680BD3C
:1028880080B584B000AF786087ED000A97ED000A44
:102898007868FFF715FFF860F9687868FFF79CFF1C
:1028A80000BF1037BD4680BD80B485B000AF7860EA
:1028B8007B681B689A68074B1340FB60FB68062B14
:1028C8000CBF01230023DBB218461437BD465DF860
:1028D800047B70470700010080B584B000AF7860C2
:1028E8000B46FB707B681B681846FFF720FEF860F4
:1028F800FB78002B1ED07B681B68324A934213D0AA
:102908007B681B68304A93420ED07B681B682F4A4D
:10291800934209D07B681B682D4A934204D07B6898
:102928001B682C4A934205D17B681B680021184616
:10293800FFF717FEFB68042B11D07B681B68042186
:102948001846FFF7E1FD7B681B681846FFF77FFE16
:102958007B681B68F9681846FFF7D6FD04E07B68BA
:102968001B681846FFF773FE7B681B681846FFF75D
:10297800ABFDFB78002B20D07B681B68114A934283
:1029880013D07B681B68104A93420ED07B681B6883
:102998000E4A934209D07B681B680D4A934204D0C3
:1029A8007B681B680B4A934207D17B681A687B686F
:1029B8005B7919461046FFF7D4FD00BF1037BD46B6
:1029C80080BD00BF002C01400034014000400140A0
:1029D800004401400048014080B582B000AF7860F3
:1029E8007B681B681846FFF77FFD00BF0837BD46A8
:1029F80080BD000080B483B000AF7860074B5B797E
:102A0800002B0CBF01230023DAB27B6801331A7054
:102A180000BF0C37BD465DF8047B70474C030020AF
:102A280080B400AF0C4B5B79002B0CBF0123002353
:102A3800DAB2094B9A71084B5A790132D2B25A71FB
:102A4800054B5B79092B02D9034B00225A7100BF51
:102A5800BD465DF8047B70474C03002080B485B008
:102A680000AF786039607B68012283F8D8203B6822
:102A7800D3E900237968C1E902237B6801221A603F
:102A88000023FB600CE07B68D3E902237868F968CF
:102A98000231C9000144C1E90023FB680133FB602E
:102AA800FB68182BEFDD00BF00BF1437BD465DF88B
:102AB800047B704780B586B000AF87ED040BF860E3
:102AC800B9607A60BB68D3E902017B68D3E9002367
:102AD800FDF79AFF0346002B05D17B68D3E9002355
:102AE800B968C1E90223F868BB681033C8221946DF
:102AF80012F088FBF968D7E90423C1E93223FB689F
:102B080003F1D000BB681033C022194612F07AFBDB
:102B1800BB6803F11000FB68C833C822194612F0DD
:102B280071FB00BF1837BD4680BD80B485B000AFCB
:102B3800786039607B68012283F860203B68D3E9BC
:102B480000237968C1E902237B6801221A60002307
:102B5800FB600CE07B68D3E902237868F9680231EE
:102B6800C9000144C1E90023FB680133FB60FB682D
:102B7800092BEFDD00BF00BF1437BD465DF8047BAD
:102B8800704780B586B000AF87ED040BF860B96078
:102B98007A60BB68D3E902017B68D3E90023FDF7BB
:102BA80033FF0346002B05D17B68D3E90023B968BE
:102BB800C1E90223F868BB6810335022194612F0A5
:102BC80021FBF968D7E90423C1E91423FB6803F161
:102BD8005800BB6810334822194612F013FBBB6833
:102BE80003F11000FB6850335022194612F00AFB1B
:102BF80000BF1837BD4680BD90B585B000AF002333
:102C0800FB601FE0FB685B0001337B600023BB6057
:102C180012E0BB685B005A1C13461B019A1A7B68BA
:102C280013443F4ADB00D1184FF000023D4BC1E985
:102C38000023BB680133BB60BB68062BE9DDFB687A
:102C48000133FB60FB68062BDCDD354B03F668239C
:102C5800D3E9000102460B46FDF7B8FA02460B46D7
:102C68004FF000003049FDF7AFFA02460B46104618
:102C78001946FDF711FF0446294B03F52663D3E9EE
:102C8800000102460B46FDF7A1FA02460B46104624
:102C98001946FDF701FF03465A1E13461B019B1AEE
:102CA8002344013B1E4ADB00D1184FF000024FF0CD
:102CB8000003C1E900230023FB600CE01B4BD3E9B0
:102CC80000231748F968E131C9000144C1E900232C
:102CD800FB680133FB60FB68632BEFDD104B03F5EA
:102CE8002663D3E900230E4901F5E161C1E9002318
:102CF8000B4B03F66823D3E90023094901F5E26188
:102D0800C1E90023064B03F530614FF000024FF094
:102D18008043C1E9002300BF1437BD4690BD00BF02
:102D28004819002000005940000030405041002060
:102D380080B586B000AFC34B03F67823D3E9000112
:102D480002460B46FDF742FA02460B464FF00000DA
:102D5800BD49FDF739FA02460B4610461946FDF7FC
:102D68009BFE03467B60B74B03F52763D3E900015D
:102D780002460B46FDF72AFA02460B46104619464C
:102D8800FDF78AFE03465A1E13461B019B1A3B6039
:102D98003A687B681344013BAA4ADB001344D3E931
:102DA8000023AA49C1E97223A64B03F52763D3E997
:102DB800000102460B46FDF709FA02460B4610468B
:102DC80019464FF00002A24BFDF700FA02460B46E7
:102DD80010461946FDF760FE03465A1E13461B01AE
:102DE8009A1A7B681344013B964ADB001344D3E9E3
:102DF80000014FF00002964BFDF706FE0346002B3C
:102E080006D092494FF00002924BC1E9742327E0A3
:102E18008C4B03F52763D3E900014FF000028C4B7C
:102E2800FDF7D4F902460B461046194602460B46F2
:102E3800FDF7CCF902460B4610461946FDF72CFE65
:102E480003465A1E13461B019A1A7B681344013B1A
:102E58007C4ADB001344D3E900237C49C1E974238D
:102E6800784B03F52763D3E9000102460B46FDF7CB
:102E7800ADF902460B46104619464FF00002744B56
:102E8800FDF7A2F902460B4610461946FDF704FE67
:102E980003465A1E13461B019A1A7B681344013BCA
:102EA800684ADB001344D3E900014FF00002684B85
:102EB800FDF7AAFD0346002B05D04FF00002654B35
:102EC800C7E9022326E05F4B03F52763D3E9000136
:102ED8004FF000025E4BFDF777F902460B461046AD
:102EE800194602460B46FDF771F902460B46104695
:102EF8001946FDF7D1FD03465A1E13461B019A1ABF
:102F08007B681344013B4F4ADB001344D3E9002399
:102F1800C7E902234B4B03F67823D3E900010246A5
:102F28000B46FDF753F902460B46104619464FF07B
:102F38000002474BFDF748F902460B464FF00000E8
:102F48004149FDF741F902460B4610461946FDF77F
:102F5800A3FD02463B681344013B3A4ADB00134495
:102F6800D3E900014FF00002394BFDF74DFD034650
:102F7800002B05D04FF00002364BC7E9042329E0A7
:102F8800304B03F67823D3E900014FF00002304BB1
:102F9800FDF71AF902460B461046194602460B463B
:102FA800FDF714F902460B464FF000002649FDF7DD
:102FB8000BF902460B4610461946FDF76DFD024611
:102FC8003B681344013B1F4ADB001344D3E9002349
:102FD800C7E904231B4B03F67823D3E90001024613
:102FE8000B46FDF7F3F802460B46104619464FF01C
:102FF8000002174BFDF7EAF802460B464FF00000B7
:103008001149FDF7E1F802460B4610461946FDF74F
:1030180043FD02463B681344013B0A4ADB00134464
:10302800D3E900014FF00002094BFDF7EDFC034620
:10303800002B11D005494FF00002064BC1E9762359
:1030480035E000BF4819002000003040700600201D
:103058000000F03F00005940B14B03F67823D3E954
:1030680000014FF00002AF4BFDF7B0F802460B46E7
:103078001046194602460B46FDF7A8F802460B46CD
:103088004FF00000A849FDF79FF802460B4610468E
:103098001946FDF701FD02463B681344013BA04A6F
:1030A800DB001344D3E90023A049C1E976234FF09C
:1030B800FF337B609A4B03F52D614FF000029C4B68
:1030C800C1E90023994BD3E97601984BD3E97223E0
:1030D800FDF7A4FC0346002B07D0944BD3E97623D5
:1030E8009249C1E9722300237B60904BD3E9722394
:1030F800D7E90401FDF792FC0346002B06D08B4963
:10310800D7E90423C1E9722302237B60874BD3E903
:103118007401864BD3E97223FDF780FC0346002B2C
:1031280007D0824BD3E974238049C1E97223012374
:103138007B607E4BD3E97223D7E90201FDF76EFC71
:103148000346002B01D003237B607B68002B71D1E1
:10315800734B03F67823D3E900014FF00002714B5B
:10316800FDF734F802460B466D4901F67821C1E9AE
:1031780000236B4B03F60833D3E900014FF000023C
:103188004FF00003FDF740FC0346002B07D0644BCB
:1031980003F52D614FF00002624BC1E90023604B3B
:1031A80003F60833D3E900014FF000025D4BFDF749
:1031B8002BFC0346002B08D0594B03F52D614FF02B
:1031C80000024FF00003C1E90023554B03F6083312
:1031D800D3E900014FF000024FF08043FDF714FCE3
:1031E8000346002B07D04E4B03F52D614FF000022C
:1031F800504BC1E900234A4B03F60833D3E90001D9
:103208004FF000024B4BFDF7FFFB0346002B08D0A5
:10321800434B03F52D614FF000024FF08043C1E9A5
:1032280000233F4B03F608314FF000024FF0000334
:10323800C1E900237B68012B7ED1394B03F5276355
:10324800D3E900014FF00002364BFCF7BFFF0246FE
:103258000B46334901F52761C1E90023304B03F6DA
:103268000833D3E900014FF000024FF00003FDF7E7
:10327800CBFB0346002B08D0294B03F52D614FF0FB
:1032880000024FF08043C1E90023254B03F60833C1
:10329800D3E900014FF00002224BFDF7B5FB0346CE
:1032A800002B07D01E4B03F52D614FF000021D4B7C
:1032B800C1E900231A4B03F60833D3E900014FF0A4
:1032C80000024FF08043FDF79FFB0346002B08D018
:1032D800134B03F52D614FF000024FF00003C1E9D5
:1032E80000230F4B03F60833D3E900014FF0000227
:1032F800104BFDF789FB0346002B07D0084B03F55D
:103308002D614FF000020B4BC1E90023044B03F67B
:1033180008314FF00002034BC1E900230CE000BF65
:10332800481900200000F03F0000304070060020DF
:103338000000F0BF000008407B68022B71D1754B7C
:1033480003F67823D3E900014FF00002724BFCF733
:103358003BFF02460B466F4901F67821C1E900237D
:103368006C4B03F60833D3E900014FF000024FF02D
:103378000003FDF749FB0346002B07D0654B03F517
:103388002D614FF00002654BC1E90023614B03F644
:103398000833D3E900014FF000025F4BFDF734FB1F
:1033A8000346002B08D05B4B03F52D614FF000025C
:1033B8004FF08043C1E90023564B03F60833D3E9A5
:1033C80000014FF000024FF08043FDF71DFB03465C
:1033D800002B07D04F4B03F52D614FF000024E4BE9
:1033E800C1E900234B4B03F60833D3E900014FF042
:1033F80000024A4BFDF708FB0346002B08D0454B5B
:1034080003F52D614FF000024FF00003C1E90023DE
:10341800404B03F608314FF000024FF08043C1E9FA
:1034280000237B68032B70D13A4B03F52763D3E95C
:1034380000014FF00002384BFCF7C6FE02460B466F
:10344800344901F52761C1E90023324B03F60833FB
:10345800D3E900014FF000024FF00003FDF7D4FA62
:103468000346002B08D02B4B03F52D614FF00002CB
:103478004FF00003C1E90023264B03F60833D3E9D4
:1034880000014FF00002244BFDF7BEFA0346002B63
:1034980007D0204B03F52D614FF000021F4BC1E907
:1034A80000231C4B03F60833D3E900014FF0000258
:1034B8004FF08043FDF7A8FA0346002B08D0154BC0
:1034C80003F52D614FF000024FF08043C1E900235E
:1034D800104B03F60833D3E900014FF000020F4BFD
:1034E800FDF792FA0346002B07D00A4B03F52D612E
:1034F8004FF00002084BC1E90023064B03F60831E0
:103508004FF00002054BC1E9002300BF1837BD4644
:1035180080BD00BF481900200000F03F00000840AF
:1035280090B58DB000AF2D4B93F8283B03F04003C6
:10353800DBB2002B08D0294A92F8283B102161F30E
:10354800040382F8283B71E3244B03F5E163D3E9D4
:103558000023C7E90623214B03F5E263D3E90023DF
:10356800C7E904231D4B03F5E263D3E900010246D2
:103578000B46FCF72BFE02460B464FF0000018499D
:10358800FCF722FE02460B46C7E90223134B03F55C
:10359800E163D3E9000102460B46FCF717FE024639
:1035A8000B4610461946FDF777FA03465A1E13468E
:1035B8001B019B1AFB62D7E90201FDF76DFA02466F
:1035C800FB6A1344013B054ADB001344D3E900239B
:1035D8000449C1E978230023BB622DE04819002083
:1035E8000000304070060020BB6A01335B007B603E
:1035F800BB6A5B003B60BB4A7B68E133DB0013447A
:10360800D3E90023B7483968E131C9000144C1E969
:1036180000237B6801333A68511CB24AE133DB006E
:103628001344D3E90023AF48E131C9000144C1E99B
:103638000023BB6A0133BB62BB6A302BD4DDAA4BC3
:10364800D3E90023A74901F61821C1E90023A64BB5
:10365800D3E90023A34901F52261C1E90023A14B65
:1036680003F53063D3E900014FF000029F4BFCF7EC
:10367800ABFD02460B469B4901F53061C1E90023C9
:10368800D7E9060102460B46FCF7A0FD02460B46A9
:10369800104619464FF00002944BFCF795FD024680
:1036A8000B4610461946FDF7F7F903465A1E13460E
:1036B8001B019C1AD7E90201FDF7EEF903462344E2
:1036C800013B884ADB001344D3E900014FF00002B4
:1036D800864BFDF799F90346002B77D14FF000028E
:1036E800824BD7E90601FCF76FFD02460B461046F0
:1036F800194602460B46FCF769FD02460B46104682
:103708001946FDF7C9F903465A1E13461B019C1AB0
:10371800D7E90201FDF7C0F903462344013BBB6228
:10372800704ABB6ADB001344D3E900014FF0000282
:103738006F4BFDF769F90346002B47D0694B03F53A
:103748003063D3E9002310461946FDF7A5F903466F
:10375800013B5B007B604FF00002644BD7E9060138
:10376800FCF732FD02460B465E487968E131C90034
:103778000144C1E900237B6801335A4AE133DB0085
:10378800D118D7E90423C1E90023564B03F5306368
:10379800D3E900014FF00002544BFCF717FD024635
:1037A8000B46504901F53061C1E90023514BD3E97B
:1037B80078014FF000024D4BFCF708FD02460B461E
:1037C8004848B96AC9000144C1E90023D7E906019C
:1037D80002460B46FCF7FAFC02460B461046194611
:1037E8004FF00002414BFCF7F1FC02460B46104635
:1037F8001946FDF751F903465A1E13461B019C1A38
:10380800D7E90201FDF748F903462344013B354A4D
:10381800DB001344D3E900014FF00002334BFDF7FE
:10382800F3F80346002B40F083804FF000022F4B43
:10383800D7E90601FCF7CAFC02460B4610461946B2
:1038480002460B46FCF7C2FC02460B4610461946D8
:10385800FDF722F903465A1E13461B019C1AD7E9A5
:103868000201FDF719F903462344013BBB621D4AD7
:10387800BB6ADB001344D3E900014FF000021C4B84
:10388800FDF7C2F80346002B52D0164B03F5306300
:10389800D3E9002310461946FDF7FEF80346013B1D
:1038A8005B007B604FF00002104BD7E90601FCF784
:1038B8008DFC02460B460B487968E131C90001448A
:1038C800C1E900237B680133064AE133DB00D118E4
:1038D800D7E90423C1E90023024B03F53063D3E998
:1038E800000109E048190020504100200000F03F85
:1038F80000005940700600204FF00002B84BFCF75A
:1039080065FC02460B46B74901F53061C1E9002361
:10391800B54BD3E978014FF00002B14BFCF756FCE8
:1039280002460B46AF48B96AC9000144C1E9002301
:103938004FF00002AA4BD7E90201FCF745FC02460A
:103948000B4610461946FDF7A7F80246FB6A1344D2
:10395800013BA44ADB001344D3E900014FF0000205
:103968009F4BFDF751F80346002B77D14FF000022B
:103978009B4BD7E90401FCF729FC02460B4610468D
:10398800194602460B46FCF721FC02460B464FF04F
:1039980000009649FCF718FC02460B4610461946EB
:1039A800FDF77AF80246FB6A1344013BBB628D4A75
:1039B800BB6ADB001344D3E900014FF000028C4BD3
:1039C800FDF722F80346002B48D0864B03F53063F9
:1039D800D3E9002310461946FDF75EF80346013B7C
:1039E8005B007B607F4A7B68E133DB00D118D7E955
:1039F8000623C1E900237B685C1C4FF00002784B6A
:103A0800D7E90401FCF7E2FB02460B46754804F1CE
:103A1800E101C9000144C1E90023724B03F5306399
:103A2800D3E900014FF000026D4BFCF7CFFB0246D3
:103A38000B466C4901F53061C1E900236A4BD3E9B3
:103A480078014FF00002664BFCF7C0FB02460B46BC
:103A58006448B96AC9000144C1E900234FF0000273
:103A68005F4BD7E90201FCF7B1FB02460B46104653
:103A78001946FDF711F80246FB6A1344013B594AFF
:103A8800DB001344D3E900014FF00002544BFCF76C
:103A9800BBFF0346002B77D14FF00002504BD7E90C
:103AA8000401FCF791FB02460B46104619460246F4
:103AB8000B46FCF78BFB02460B464FF000004B49C8
:103AC800FCF782FB02460B4610461946FCF7E4FF5A
:103AD8000246FB6A1344013BBB62424ABB6ADB00F5
:103AE8001344D3E900014FF00002414BFCF78CFF6F
:103AF8000346002B48D03B4B03F53063D3E9002342
:103B080010461946FCF7C8FF0346013B5B007B6083
:103B1800344A7B68E133DB00D118D7E90623C1E9D1
:103B280000237B685C1C4FF000022D4BD7E9040191
:103B3800FCF74AFB02460B462A4804F1E101C9009A
:103B48000144C1E90023274B03F53063D3E90001A1
:103B58004FF00002224BFCF739FB02460B46214985
:103B680001F53061C1E900231F4BD3E978014FF01B
:103B780000021B4BFCF72AFB02460B461948B96AA0
:103B8800C9000144C1E900230023FB6217E0154A7C
:103B9800FB6AE133DB00134493ED007BB0EE470A88
:103BA800F0EE670A06F044F8034619460E4AFB6A27
:103BB800134464330A461A70FB6A0133FB62FB6ADA
:103BC800632BE4DD074A92F8283B43F0400382F870
:103BD800283B0023FB62002387F827301FE000BF43
:103BE8000000F03F48190020700600200000304017
:103BF800000059400F4AFB6A134464331B78002BBA
:103C08000AD10D4A92F8283B6FF3861382F8283BB5
:103C1800012387F8273002E0FB6A0133FB6297F83B
:103C28002730002B02D1FB6A632BE3DD00BF34375A
:103C3800BD4690BD700600204819002090B587B099
:103C480000AF314B93F8283B03F04003DBB2002B65
:103C58000AD02D4A92F8283B032161F3040382F825
:103C6800283BFFF765F88EE3274B03F5E163D3E9BB
:103C780000232649C1E96C23234B03F5E263D3E90A
:103C880000232249C1E96E231F4B03F5E263D3E900
:103C9800000102460B46FCF799FA02460B464FF024
:103CA80000001B49FCF790FA02460B461749C1E988
:103CB8007023154B03F5E163D3E9000102460B4677
:103CC800FCF784FA02460B4610461946FCF7E4FE58
:103CD80003465A1E13461B019B1A7B610B4BD3E903
:103CE800702310461946FCF7D7FE02467B69134439
:103CF800013B054ADB001344D3E900230349C1E92A
:103D08006A2300233B612DE048190020700600203B
:103D1800000030403B6901335B00BB603B695B00DE
:103D28007B60BB4ABB68E133DB001344D3E9002363
:103D3800B7487968E131C9000144C1E90023BB688B
:103D480001337A68511CB24AE133DB001344D3E9EA
:103D58000023AF48E131C9000144C1E900233B69B0
:103D680001333B613B69302BD4DDAA4BD3E90023F7
:103D7800A74901F61821C1E90023A64BD3E900237E
:103D8800A34901F52261C1E90023A14B03F5306382
:103D9800D3E900014FF000029F4BFCF715FA0246E9
:103DA8000B469B4901F53061C1E900239B4BD3E9E0
:103DB8006C0102460B46FCF709FA02460B46104610
:103DC80019464FF00002944BFCF7FEF902460B46E9
:103DD80010461946FCF760FE03465A1E13461B019F
:103DE8009C1A8E4BD3E9702310461946FCF754FEF3
:103DF80003462344013B864ADB001344D3E9000110
:103E08004FF00002844BFCF7FFFD0346002B7DD1E9
:103E1800824BD3E96C014FF000027F4BFCF7D4F9D9
:103E280002460B461046194602460B46FCF7CEF9E9
:103E380002460B4610461946FCF72EFE03465A1E4C
:103E480013461B019C1A754BD3E97023104619467B
:103E5800FCF722FE03462344013B3B616C4A3B6965
:103E6800DB001344D3E900014FF000026C4BFCF770
:103E7800CBFD0346002B49D0654B03F53063D3E9EE
:103E8800002310461946FCF707FE0346013B5B007A
:103E9800BB60624BD3E96C014FF000025E4BFCF74C
:103EA80093F902460B465A48B968E131C900014402
:103EB800C1E90023BB68591C584BD3E96E23544809
:103EC800E131C9000144C1E90023514B03F53063D6
:103ED800D3E900014FF000024F4BFCF777F9024697
:103EE8000B464B4901F53061C1E900234B4BD3E93F
:103EF8006A014FF00002484BFCF768F902460B468E
:103F080043483969C9000144C1E90023434BD3E957
:103F18006C0102460B46FCF759F902460B4610465F
:103F280019464FF000023C4BFCF750F902460B468D
:103F380010461946FCF7B0FD03465A1E13461B01EE
:103F48009C1A364BD3E9702310461946FCF7A4FD9A
:103F580003462344013B2E4ADB001344D3E9000106
:103F68004FF000022C4BFCF74FFD0346002B40F0AE
:103F780089802A4BD3E96C014FF00002264BFCF7ED
:103F880025F902460B461046194602460B46FCF731
:103F98001DF902460B4610461946FCF77DFD0346FF
:103FA8005A1E13461B019C1A1C4BD3E9702310465A
:103FB8001946FCF771FD03462344013B3B61144A53
:103FC8003B69DB001344D3E900014FF00002144BB6
:103FD800FCF71AFD0346002B54D00D4B03F5306354
:103FE800D3E9002310461946FCF756FD0346013B6A
:103FF8005B00BB60094BD3E96C014FF00002064B34
:10400800FCF7E4F802460B460148B968E13109E0DB
:1040180048190020504100200000F03F70060020A1
:1040280000005940C9000144C1E90023BB68591C7C
:10403800B04BD3E96E23B048E131C9000144C1E96E
:104048000023AD4B03F53063D3E900014FF00002C4
:10405800AA4BFCF7BBF802460B46A74901F53061AD
:10406800C1E90023A34BD3E96A014FF00002A34B37
:10407800FCF7ACF802460B469F483969C900014471
:10408800C1E900239B4BD3E970014FF000029B4B21
:10409800FCF79AF802460B4610461946FCF7FCFC5A
:1040A80002467B691344013B934ADB001344D3E97E
:1040B80000014FF00002914BFCF7A6FC0346002BD1
:1040C8007AD18C4BD3E96E014FF000028B4BFCF791
:1040D8007DF802460B461046194602460B46FCF789
:1040E80075F802460B464FF000008549FCF76CF85E
:1040F80002460B4610461946FCF7CEFC02467B6981
:104108001344013B3B617C4A3B69DB001344D3E920
:1041180000014FF000027B4BFCF776FC0346002BB6
:104128004AD0754B03F53063D3E90023104619468E
:10413800FCF7B2FC0346013B5B00BB606D4BD3E967
:104148006C236D48B968E131C9000144C1E9002315
:10415800684BD3E96E01BB685C1C4FF00002674BEB
:10416800FCF734F802460B46634804F1E101C90044
:104178000144C1E90023604B03F53063D3E9000132
:104188004FF000025D4BFCF721F802460B465A49F6
:1041980001F53061C1E90023564BD3E96A014FF0BC
:1041A8000002564BFCF712F802460B465248396992
:1041B800C9000144C1E900234E4BD3E970014FF017
:1041C80000024E4BFCF702F802460B461046194611
:1041D800FCF762FC02467B691344013B464ADB005C
:1041E8001344D3E900014FF00002444BFCF70CFCE8
:1041F8000346002B7AD13F4BD3E96E014FF0000202
:104208003E4BFBF7E1FF02460B46104619460246B5
:104218000B46FBF7DBFF02460B464FF00000384920
:10422800FBF7D2FF02460B4610461946FCF734FC52
:1042380002467B691344013B3B612F4A3B69DB0023
:104248001344D3E900014FF000022E4BFCF7DCFBCE
:104258000346002B4AD0284B03F53063D3E90023EB
:1042680010461946FCF718FC0346013B5B00BB608F
:10427800204BD3E96C232048B968E131C9000144D7
:10428800C1E900231B4BD3E96E01BB685C1C4FF0EE
:1042980000021A4BFBF798FF02460B46164804F13A
:1042A800E101C9000144C1E90023134B03F5306360
:1042B800D3E900014FF00002104BFBF787FF0246DD
:1042C8000B460D4901F53061C1E90023094BD3E9DB
:1042D8006A014FF00002094BFBF778FF02460B46D4
:1042E80005483969C9000144C1E9002300237B61FD
:1042F80021E000BF70060020481900200000F03FB0
:104308000000304000005940214A7B69E133DB005E
:10431800134493ED007BB0EE470AF0EE670A05F010
:1043280087FC034619461B4A7B6913440A461A70E0
:104338007B6901337B617B69632BE5DD144A92F865
:10434800283B43F0400382F8283B00237B6100238D
:10435800FB7312E00F4A7B6913441B78002B09D1C9
:104368000B4A92F8283B6FF3861382F8283B012307
:10437800FB7302E07B6901337B61FB7B002B02D17D
:104388007B69632BE6DD00BF1C37BD4690BD00BFCF
:10439800481900207006002090B585B000AF644B26
:1043A80003F52C63D3E900014FF00002614BFCF7E1
:1043B80053FB0346002B00F03D845D4A92F8283BEE
:1043C8000F2161F3040382F8283B00237B6000235C
:1043D800BB600023FB6058494FF000024FF0000318
:1043E800C1E9442354494FF000024FF00003C1E9EA
:1043F800462351494FF000024FF00003C1E94E2314
:104408004D494FF000024FF00003C1E95023484BDB
:10441800B3F8463B1A46464BB3F8443BD31A3B60C5
:10442800434BB3F8463B1A463B68934201D90023F5
:104438003B603B681846FCF715F83D4B03F52E63C7
:10444800D3E90023FCF708FB0346002B07D0012320
:10445800BB6039494FF00002384BC1E94623344B61
:10446800B3F8423B1A46324BB3F8403BD31A3B6091
:104478002F4BB3F8423B1A463B68934201D90023BD
:104488003B603B681846FBF7EDFF294B03F6E82332
:10449800D3E90023FCF7E0FA0346002B07D00123F9
:1044A8007B6025494FF00002244BC1E95023204B83
:1044B800B3F8483B1A461E4BB3F84A3BD31A3B6045
:1044C8001B4BB3F8483B1A463B68934201D900237B
:1044D8003B603B681846FBF7C5FF154B03F6D8232E
:1044E800D3E90023FCF7B8FA0346002B07D00123D1
:1044F800FB6011494FF00002104BC1E94E230C4BF1
:1045080003F60833D3E9002310461946FCF7C4FA2A
:104518000346032B00F2178401A252F823F000BFD0
:104528004945000809470008C9480008894A0008A1
:104538004819002000805140700600200000F03F1C
:104548006C4B93F8293B03F00403DBB2002B3FD0FC
:10455800684B03F67823D3E9000102460B46FBF7C4
:1045680035FE02460B464FF000006349FBF72CFE70
:1045780002460B4610461946FCF78EFA04465D4B78
:1045880003F52763D3E9000102460B46FBF71EFE3D
:1045980002460B46104619464FF00002574BFBF7F0
:1045A80013FE02460B4610461946FCF775FA0346F9
:1045B8005A1E13461B019B1A23445C1EB868FBF75E
:1045C80051FF02460B464B48E1000144C1E9002374
:1045D800484B93F8283B23F07F03DBB2002B3FD0F6
:1045E800444B03F67823D3E9000102460B46FBF758
:1045F800EDFD02460B464FF000003F49FBF7E4FD96
:1046080002460B4610461946FCF746FA0446394B53
:1046180003F52763D3E9000102460B46FBF7D6FDF5
:1046280002460B46104619464FF00002334BFBF783
:10463800CDFD02460B4610461946FCF72DFA0346F7
:104648005A1E13461B019B1A23445C1E7868FBF70D
:1046580009FF02460B462748E1000144C1E900234F
:10466800244B93F8293B03F00103DBB2002B00F045
:104678006383204B03F67823D3E9000102460B46F7
:10468800FBF7A4FD02460B46104619464FF0000200
:104698001A4BFBF79BFD02460B464FF000001649EC
:1046A800FBF792FD02460B4610461946FCF7F4F953
:1046B8000446104B03F52763D3E9000102460B4675
:1046C800FBF784FD02460B4610461946FCF7E4F951
:1046D80003465A1E13461B019B1A23445C1EF868A6
:1046E800FBF7C0FE02460B460248E1000144C1E95F
:1046F800002321E348190020000030400000F03F6B
:104708006C4B93F8283B23F07F03DBB2002B3FD0A0
:10471800684B03F67823D3E9000102460B46FBF702
:1047280055FD02460B464FF000006349FBF74CFD70
:1047380002460B4610461946FCF7AEF904465D4B97
:1047480003F52763D3E9000102460B46FBF73EFD5C
:1047580002460B46104619464FF00002574BFBF72E
:1047680035FD02460B4610461946FCF795F90346F7
:104778005A1E13461B019B1A23445C1EF868FBF75C
:1047880071FE02460B464B48E1000144C1E9002393
:10479800484B93F8293B03F00103DBB2002B3FD0D1
:1047A800444B03F67823D3E9000102460B46FBF796
:1047B8000DFD02460B46104619464FF000023F4BCE
:1047C800FBF704FD02460B464FF000003A49FBF7A1
:1047D800FBFC02460B4610461946FCF75DF90446F9
:1047E800344B03F52763D3E9000102460B46FBF778
:1047F800EDFC02460B4610461946FCF74DF90346F8
:104808005A1E13461B019B1A23445C1EB868FBF70B
:1048180029FE02460B462748E1000144C1E900236E
:10482800244B93F8293B03F00203DBB2002B00F082
:104838008582204B03F67823D3E9000102460B4614
:10484800FBF7C4FC02460B46104619464FF000021F
:104858001A4BFBF7B9FC02460B464FF0000016490D
:10486800FBF7B2FC02460B4610461946FCF714F952
:104878000446104B03F52763D3E9000102460B46B3
:10488800FBF7A4FC02460B4610461946FCF704F950
:1048980003465A1E13461B019B1A23445C1E786864
:1048A800FBF7E0FD02460B460248E1000144C1E97E
:1048B800002343E248190020000030400000F03F88
:1048C8006C4B93F8293B03F00203DBB2002B3FD07B
:1048D800684B03F67823D3E9000102460B46FBF741
:1048E80075FC02460B46104619464FF00002624B13
:1048F800FBF76AFC02460B464FF000005F49FBF7E6
:1049080063FC02460B4610461946FCF7C5F80446F8
:10491800584B03F52763D3E9000102460B46FBF722
:1049280055FC02460B4610461946FCF7B5F80346F7
:104938005A1E13461B019B1A23445C1EF868FBF79A
:1049480091FD02460B464B48E1000144C1E90023B2
:10495800484B93F8283B23F07F03DBB2002B3FD072
:10496800444B03F67823D3E9000102460B46FBF7D4
:104978002DFC02460B464FF000004049FBF724FC93
:1049880002460B4610461946FCF786F80446394B92
:1049980003F52763D3E9000102460B46FBF716FC33
:1049A80002460B46104619464FF00002324BFBF701
:1049B8000DFC02460B4610461946FCF76DF80346F7
:1049C8005A1E13461B019B1A23445C1EB868FBF74A
:1049D80049FD02460B462748E1000144C1E900238E
:1049E800244B93F8293B03F00403DBB2002B00F0BF
:1049F800A781204B03F67823D3E9000102460B4632
:104A0800FBF7E4FB02460B464FF000001B49FBF79F
:104A1800DBFB02460B4610461946FCF73DF80446F8
:104A2800144B03F52763D3E9000102460B46FBF755
:104A3800CDFB02460B46104619464FF000020E4BBE
:104A4800FBF7C2FB02460B4610461946FCF724F852
:104A580003465A1E13461B019B1A23445C1E7868A2
:104A6800FBF700FD02460B460248E1000144C1E99C
:104A7800002365E1481900200000F03F00003040A5
:104A8800B34B93F8293B03F00403DBB2002B3FD070
:104A9800AF4B03F67823D3E9000102460B46FBF738
:104AA80095FB02460B464FF00000AA49FBF78CFB2A
:104AB80002460B4610461946FBF7EEFF0446A44B88
:104AC80003F52763D3E9000102460B46FBF77EFB9B
:104AD80002460B46104619464FF000029E4BFBF764
:104AE80073FB02460B4610461946FBF7D5FF0346F3
:104AF8005A1E13461B019B1A23445C1EF868FBF7D9
:104B0800B1FC02460B469248E1000144C1E900238A
:104B18008F4B93F8293B03F00103DBB2002B3FD006
:104B28008B4B03F67823D3E9000102460B46FBF7CB
:104B38004DFB02460B46104619464FF00002864BC5
:104B4800FBF744FB02460B464FF000008149FBF798
:104B58003BFB02460B4610461946FBF79DFF0446F1
:104B68007B4B03F52763D3E9000102460B46FBF7AD
:104B78002DFB02460B4610461946FBF78DFF0346F0
:104B88005A1E13461B019B1A23445C1E7868FBF7C8
:104B980069FC02460B466E48E1000144C1E9002366
:104BA8006B4B93F8293B03F00203DBB2002B00F0B8
:104BB800C980674B03F67823D3E9000102460B4608
:104BC800FBF704FB02460B46104619464FF000025D
:104BD800614BFBF7F9FA02460B464FF000005D49BE
:104BE800FBF7F2FA02460B4610461946FBF754FF4C
:104BF8000446574B03F52763D3E9000102460B46E9
:104C0800FBF7E4FA02460B4610461946FBF744FF49
:104C180003465A1E13461B019B1A23445C1EB868A0
:104C2800FBF720FC02460B464948E1000144C1E974
:104C3800002387E0494BB3F84E21454BB3F8463B78
:104C48009A4205D3454BB3F84E21414BA3F8462B66
:104C5800424BB3F850213E4BB3F8423B9A4205D33E
:104C68003E4BB3F850213A4BA3F8422B3B4BB3F8D9
:104C78004E21374BB3F8443B9A4205D8374BB3F82B
:104C88004E21334BA3F8442B344BB3F85021304B0F
:104C9800B3F8403B9A4205D8304BB3F850212C4B1F
:104CA800A3F8402B2D4BB3F84A21294BB3F8483BC6
:104CB8009A4205D3294BB3F84A21254BA3F8482B30
:104CC800264BB3F85421224BB3F84C3B9A4205D3F8
:104CD800224BB3F854211E4BA3F84C2B1F4BB3F8AF
:104CE8004A211B4BB3F84A3B9A4205D81B4BB3F8F1
:104CF8004A21174BA3F84A2B184BB3F85421144BED
:104D0800B3F84E3B9A4205D8144BB3F85421104BD4
:104D1800A3F84E2B0E4B03F52C63D3E900014FF09B
:104D280000020D4BFBF752FA02460B46084901F503
:104D38002C61C1E9002306E000BF04E000BF02E0E7
:104D480000BF00E000BF00BF1437BD4690BD00BFE4
:104D580048190020000030400000F03F7006002095
:104D680080B584B000AF87ED000B38687B6823F00E
:104D780000414FF000022F4BFBF750FE0346002B7B
:104D880048D04FF000022C4BD7E90001FBF75AFE40
:104D98000346002B13D04FF00002274BD7E9000140
:104DA800FBF714FA02460B4643EC172BB0EE470A02
:104DB800F0EE670A0FF0F4FF87ED020B2EE04FF0DC
:104DC80000021E4BD7E90001FBF746FE0346002B05
:104DD8000CD04FF000024FF00003D7E90001FBF7B9
:104DE800ABFB02460B46C7E9022317E04FF000026F
:104DF800114BD7E90001FBF7E7F902460B4643ECF4
:104E0800172BB0EE470AF0EE670A0FF049FF87ED5F
:104E1800020B03E0D7E90023C7E90223D7E90223FD
:104E280043EC172BB0EE470AF0EE670A1037BD4681
:104E380080BD00BF000030430000E03F0000E0BF3D
:104E4800B0B586B000AF7860B34B03F6C823D3E99A
:104E580000014FF00002B14BFBF7D6FD0346002BD3
:104E680000F06481AC4A92F8283B062161F3040300
:104E780082F8283BAA494FF000024FF00003C1E92D
:104E88004C23A54B03F531614FF000024FF00003AE
:104E9800C1E90023A04A92F8283B6FF3C71382F8B0
:104EA800283B9D4A92F8293B6FF3820382F8293BFD
:104EB800994A92F8293B6FF3000382F8293B964AF6
:104EC80092F8293B6FF3410382F8293B924B03F692
:104ED8007823D3E9000102460B46FBF777F902462F
:104EE8000B464FF000008F49FBF76EF902460B4660
:104EF80010461946FBF7D0FD0346BB60864B03F509
:104F08002763D3E9000102460B46FBF75FF9024627
:104F18000B46104619464FF00002804BFBF754F938
:104F280002460B4610461946FBF7B6FD03465A1EC5
:104F380013461B019A1ABB681344013B764ADB00EF
:104F48001344D3E900014FF00002774BFBF75CFDF7
:104F58000346002B0ED0704A92F8293B43F0040315
:104F680082F8293B6C4B03F531614FF000026B4B23
:104F7800C1E90023684B03F52763D3E90001024622
:104F88000B46FBF723F902460B46104619464FF02D
:104F98000002624BFBF71AF902460B461046194607
:104FA800FBF77AFD03465A1E13461B019A1ABB6883
:104FB8001344013B584ADB001344D3E900014FF086
:104FC8000002594BFBF720FD0346002B0ED0524A36
:104FD80092F8283B43F0800382F8283B4E4B03F5B8
:104FE80031614FF000024D4BC1E900234A4B03F5F4
:104FF8002763D3E9000102460B46FBF7E7F80246B0
:105008000B4610461946FBF747FD03465A1E134642
:105018001B019B1ABB60404B03F67823D3E90001C0
:1050280002460B46FBF7D2F802460B4610461946D5
:105038004FF00002394BFBF7C9F802460B464FF018
:1050480000003849FBF7C0F802460B4610461946DF
:10505800FBF722FD0246BB681344013B2E4ADB00E6
:105068001344D3E900014FF000022F4BFBF7CCFCAF
:105078000346002B0ED0284A92F8293B43F001033F
:1050880082F8293B244B03F531614FF00002234B92
:10509800C1E90023204B03F67823D3E90001024637
:1050A8000B46FBF793F802460B46104619464FF09D
:1050B80000021A4BFBF788F802460B464FF0000037
:1050C8001849FBF781F802460B4610461946FBF7CC
:1050D800E3FC0246BB681344013B0F4ADB00134460
:1050E800D3E900014FF000020F4BFBF78DFC03469C
:1050F800002B00D161E1084A92F8293B43F00203F2
:1051080082F8293B044B03F531614FF00002034B51
:10511800C1E9002351E100BF481900200000F03F19
:1051280070060020000030400000F0BF7B681B883C
:10513800012B17D1AC4BB3F85221AC4BA3F83A2B47
:10514800A94BB3F84C21A94BA3F8362BA64BB3F8BF
:105158005621A64BA3F83E2BA34BB3F84821A34BEB
:10516800A3F83C2B7B681B88022B05D19E4BB3F818
:1051780052219E4BA3F8382B7B681B88032B05D143
:10518800994BB3F84C21994BA3F8342B7B681B88B7
:10519800002B40F00181954BB3F8343B1A46934BF2
:1051A800B3F8363BD31A3B61904BB3F8343B1A46FD
:1051B8003B69934201D900233B613B699AB28A4B10
:1051C800A3F8F221894BB3F8383B1A46874BB3F85A
:1051D8003A3BD31A3B61854BB3F8383B1A463B69D7
:1051E800934201D900233B613B69643B7B613B6986
:1051F800632B01D800237B617B691846FBF732F9E2
:1052080071A3D3E90023FBF797F902460B4643EC59
:10521800172BB0EE470AF0EE670AFFF7A1FD53EC33
:10522800102B10461946FBF737FC0346BB60BB68DA
:10523800B3F5803F02DABB68FB8102E04FF6FF73EB
:10524800FB81FB8903F58C733B61BB68B3F5803F39
:1052580002DABB68FB8102E04FF6FF73FB81FB8932
:1052680003F58C73B3F5803F02D34FF6FF733B61B0
:105278003B699AB25C4BA3F8F0215B4BB3F8F2316F
:105288001A46594BB3F8F031D31A1846FBF7EAF827
:105298004FA3D3E90023FBF74FF902460B46144608
:1052A8001D46514BD3E94C014BA3D3E90023FBF72F
:1052B80043F902460B4620462946FAF787FF02467D
:1052C8000B464949C1E94C23474BB3F848311A46C4
:1052D800464BB3F83C3BD31A3B61434BB3F84831D8
:1052E8001A463B69934201D900233B613E4BB3F810
:1052F80056311A463D4BB3F83E3BD31A7B613A4BC5
:10530800B3F856311A467B69934201D900237B6171
:105318007B691846FBF7A6F831A3D3E90023FBF70E
:105328000BF902460B4643EC172BB0EE470AF0EE9A
:10533800670AFFF715FD53EC102B10461946FBF7CB
:10534800ABFB0346BB60BB68B3F5803F02DABB68C2
:10535800FB8102E04FF6FF73FB813B6940F2A362D9
:10536800934219DCFB8940F2A362934214D81F4B85
:1053780003F6B823D3E900014FF000021C4BFBF7FA
:105388006BFB0346002B07D0184B03F6C8214FF0E0
:105398000002184BC1E90023144B03F6B823D3E9E4
:1053A80000014FF00002134BFAF710FF02460B46BC
:1053B8000E4901F6B821C1E9002300BF1837BD46E0
:1053C800B0BD00BFAFF300800AD7A3703D0A054007
:1053D8009A9999999999A93F666666666666EE3FB5
:1053E800CDCCCCCCCCCCFC3F70060020481900209A
:1053F80000003E400000F03F80B500AF404B93F8FE
:10540800523B132B51D93E4B03F6F823D3E9000145
:105418004FF000024FF00003FBF7F6FA0346002BAB
:1054280043D0374A92F8283B122161F3040382F8EB
:10543800283B34494FF000024FF00003C1E94A23EA
:1054480030494FF000024FF00003C1E948232C4BCC
:1054580003F52C614FF000024FF00003C1E900236F
:10546800274B4FF47A62A3F8442B254B0022A3F86C
:10547800462B234B4FF47A62A3F8402B204B002293
:10548800A3F8422B1E4B4FF47A62A3F84A2B1C4B0D
:105498000022A3F8482B1A4B4FF47A62A3F84E2B3C
:1054A800174B0022A3F84C2B28E0154B03F6F823E2
:1054B800D3E900014FF00002134BFBF7A5FA0346AE
:1054C800002B00D11AE00E4B93F8523B132B15D941
:1054D8000B4A92F8283B142161F3040382F8283B15
:1054E80008494FF000024FF00003C1E94A2305497B
:1054F8004FF000024FF00003C1E9482300BF80BD10
:1055080048190020700600200000F03F000000004D
:1055180080B586B000AFF860B9607A603B60F96822
:105528004FF00002C24BC1E90023C24B93F8283B5D
:10553800C3F30403DBB2013B1A2B00F2988501A2E6
:1055480052F823F0B9550008175600085B560008B2
:10555800F35700080B58000859580008EB58000882
:10556800F3580008FB580008275900086559000837
:10557800A3590008DF5900081D5A00085B5A0008A3
:10558800715A0008D15A00080B5B0008255B000817
:10559800555D0008855E00089B5E0008CB5F00082B
:1055A8000960000849600008516000085760000859
:1055B800A04B93F8523B092B1AD99E4A92F8283BE4
:1055C800182161F3040382F8283B9A4B002283F8E0
:1055D800522B99494FF000024FF00003C1E94623CE
:1055E80095494FF00002924BC1E94E2300F099BD56
:1055F80091494FF000028E4BC1E946238E494FF086
:1056080000024FF00003C1E9502300F08ABD894B26
:1056180093F8523B012B40F26D85864A92F8283B5D
:105628001A2161F3040382F8283B824B002283F895
:10563800522B81494FF000024FF00003C1E9482383
:105648007D494FF000024FF00003C1E94A2300F002
:1056580051BD784B03F52D63D3E900014FF00002EB
:10566800764BFBF7D1F90346002B1AD0714A92F812
:10567800283B162161F3040382F8283B6D4B03F69F
:105688001833D3E900014FF00002694BFAF79EFD89
:1056980002460B46674901F61831C1E9002300F0BC
:1056A80040BD644B03F52D63D3E900014FF00002C0
:1056B800634BFBF7A9F90346002B19D05D4A92F812
:1056C800283B0B2161F3040382F8283B594B002245
:1056D80083F8522B58494FF000025A4BC1E948232E
:1056E80055494FF00002584BC1E94A2300F019BD53
:1056F800504B03F52D63D3E900014FF000024FF042
:105708000003FBF781F90346002B19D0494A92F8A8
:10571800283B0D2161F3040382F8283B454B002206
:1057280083F8522B44494FF00002474BC1E9482304
:1057380041493DA3D3E90023C1E94A2300F0F1BC64
:105748003C4B03F52D63D3E900014FF00002384BC1
:10575800FBF75AF90346002B1DD0364A92F8283B2E
:10576800092161F3040382F8283B324B002283F8B5
:10577800522B304B03F53263D3E900232E49C1E99C
:1057880048232C4B03F53263D3E900232A49C1E9A6
:105798004A2300F0C6BC274B03F52D63D3E900016B
:1057A8004FF000024FF08043FBF72EF90346002B21
:1057B80001D100F0B6BC1F4A92F8283B0E2161F3D4
:1057C800040382F8283B1B4B002283F8522B1A490A
:1057D8004FF000021D4BC1E9482317494FF0000262
:1057E800194BC1E94A2300F09CBC124A92F8283BA5
:1057F800052161F3040382F8283BFDF7FDF900F069
:1058080090BC0C4A92F8283B082161F3040382F803
:10581800283B084A92F8283B6FF3861382F8283B06
:1058280000F07FBCAFF3008000000000004053C0D0
:105838000000F03F48190020700600200000F0BF6B
:1058480000000840000059C000005940008053C0C3
:10585800AD4B03F53163D3E900014FF00002AB4BC8
:10586800FBF7D2F80346002B1FD0A74A92F8283B33
:10587800022161F3040382F8283BA34B002283F83A
:10588800522BA3494FF00002A24BC1E94A23A04979
:105898004FF00002A04BC1E948239D494FF0000298
:1058A8009A4BC1E9442300F03CBC974B03F53163A4
:1058B800D3E900014FF000024FF00003FBF7A4F812
:1058C8000346002B01D100F02CBC8F4A92F8283BEC
:1058D800032161F3040382F8283BFDF729FA00F05D
:1058E80020BCFDF71DFE00F01CBCFEF7A7F900F078
:1058F80018BC854B93F8523B092B40F2FD83824A32
:1059080092F8283B1C2161F3040382F8283B804964
:105918004FF000024FF00003C1E94423ECE37A4B57
:1059280093F8523B4A2B40F2E983774A92F8283B96
:105938001B2161F3040382F8283B734B03F53263A0
:10594800D3E900237249C1E948236F4B03F5326359
:10595800D3E900236E49C1E94A23CFE36A4B93F8A0
:10596800523B482B40F2CC83674A92F8283B1B21D4
:1059780061F3040382F8283B634B03F53263D3E9F0
:1059880000236349C1E948235F4B03F53263D3E938
:1059980000235F49C1E94A23B2E37B681B78002BE7
:1059A80000F0B083584A92F8283B1B2161F30403A6
:1059B80082F8283B544B03F53263D3E9002354495A
:1059C800C1E94823504B03F53263D3E9002350491A
:1059D800C1E94A2396E34C4B93F8523B322B40F2F1
:1059E8009383494A92F8283B1B2161F3040382F808
:1059F800283B454B03F53263D3E900234449C1E909
:105A08004823414B03F53263D3E900234049C1E9F8
:105A18004A2379E33C4B93F8523B332B40F276838D
:105A2800394A92F8283B1B2161F3040382F8283B8A
:105A3800354B03F53263D3E900233549C1E94823DF
:105A4800314B03F53263D3E900233149C1E94A23D5
:105A58005CE32D4A92F8283B052161F3040382F8A0
:105A6800283BFDF7C9F85CE33B681B78002B00F086
:105A78004F83254A92F8283B192161F3040382F8E1
:105A8800283B214B03F53263D3E900232049C1E9C0
:105A98004A231D4B03F53263D3E900231C49C1E9AE
:105AA8004823194B03F6B8214FF000024FF00003CA
:105AB800C1E90023144B03F6C8214FF000024FF050
:105AC8000003C1E9002323E30F4B93F8523B442B17
