:020000040800F2
:1000000000800120D9FB00082F83000835830008F9
:100010003B8300084183000847830008000000007C
:1000200000000000000000000000000075560008FD
:100030004D8300080000000031560008615500089B
:1000400029FC000829FC000829FC000829FC0008FC
:1000500029FC000829FC000829FC000829FC0008EC
:1000600029FC000829FC000829FC00085B83000823
:100070002120000829FC000829FC000829FC0008B0
:1000800069830008778300088583000829FC00083D
:1000900029FC000829FC000829FC000829FC0008AC
:1000A00029FC00089583000829FC000829FC0008A9
:1000B00029FC000829FC000829FC000829FC00088C
:1000C00029FC000829FC000829FC000829FC00087C
:1000D00029FC000829FC000829FC000829FC00086C
:1000E00029FC000829FC000829FC000829FC00085C
:1000F00029FC000829FC000829FC000829FC00084C
:1001000029FC000829FC000829FC000829FC00083B
:1001100029FC000829FC000829FC000829FC00082B
:1001200029FC000829FC000829FC000829FC00081B
:1001300029FC000829FC000829FC000829FC00080B
:1001400029FC000829FC000829FC0008A9830008F4
:1001500029FC000829FC000829FC000829FC0008EB
:1001600029FC000829FC000829FC000829FC0008DB
:1001700029FC000829FC000829FC000800000000F8
:0801800029FC000829FC00081D
:1001880010B5054C237833B9044B13B10448AFF3C9
:1001980000800123237010BDE80200200000000049
:1001A8005802010808B5034B1BB103490348AFF3D4
:1001B800008008BD00000000EC0200205802010881
:1001C80081F0004102E000BF83F0004330B54FEA00
:1001D80041044FEA430594EA050F08BF90EA020F6D
:1001E8001FBF54EA000C55EA020C7FEA645C7FEA00
:1001F800655C00F0E2804FEA5454D4EB5555B8BF23
:100208006D420CDD2C4480EA020281EA030382EA93
:10021800000083EA010180EA020281EA0303362D25
:1002280088BF30BD11F0004F4FEA01314FF4801CF8
:100238004CEA113102D0404261EB410113F0004F0A
:100248004FEA03334CEA133302D0524263EB4303C1
:1002580094EA050F00F0A780A4F10104D5F1200E5F
:100268000DDB02FA0EFC22FA05F2801841F10001BA
:1002780003FA0EF2801843FA05F359410EE0A5F18E
:1002880020050EF1200E012A03FA0EFC28BF4CF0BF
:10029800020C43FA05F3C01851EBE37101F0004575
:1002A80007D54FF0000EDCF1000C7EEB00006EEB82
:1002B8000101B1F5801F1BD3B1F5001F0CD349080C
:1002C8005FEA30004FEA3C0C04F101044FEA445263
:1002D80012F5800F80F09A80BCF1004F08BF5FEAEA
:1002E800500C50F1000041EB045141EA050130BDCA
:1002F8005FEA4C0C404141EB0101013C28BFB1F5DC
:10030800801FE9D291F0000F04BF01460020B1FA26
:1003180081F308BF2033A3F10B03B3F120020CDAF9
:100328000C3208DD02F1140CC2F10C0201FA0CF0D7
:1003380021FA02F10CE002F11402D8BFC2F1200C3C
:1003480001FA02F120FA0CFCDCBF41EA0C019040F2
:10035800E41AA2BF01EB0451294330BD6FEA04043B
:100368001F3C1CDA0C340EDC04F11404C4F1200226
:1003780020FA04F001FA02F340EA030021FA04F338
:1003880045EA030130BDC4F10C04C4F1200220FA8F
:1003980002F001FA04F340EA0300294630BD21FACD
:1003A80004F0294630BD94F0000F83F4801306BF93
:1003B80081F480110134013D4EE77FEA645C18BF87
:1003C8007FEA655C29D094EA050F08BF90EA020F1E
:1003D80005D054EA000C04BF1946104630BD91EA16
:1003E800030F1EBF0021002030BD5FEA545C05D119
:1003F8004000494128BF41F0004130BD14F5800458
:100408003CBF01F5801130BD01F0004545F0FE41CB
:1004180041F470014FF0000030BD7FEA645C1ABF00
:10042800194610467FEA655C1CBF0B46024650EA37
:10043800013406BF52EA033591EA030F41F4002163
:1004480030BD00BF90F0000F04BF0021704730B5E9
:100458004FF4806404F132044FF000054FF00001BE
:1004680050E700BF90F0000F04BF0021704730B57F
:100478004FF4806404F1320410F0004548BF404254
:100488004FF000013EE700BF42004FEAE2014FEAA9
:1004980031014FEA02701FBF12F07F4393F07F4F84
:1004A80081F06051704732F07F4208BF704793F087
:1004B8007F4F04BF41F40021704730B54FF460749A
:1004C80001F0004521F000411CE700BF50EA01029D
:1004D80008BF704730B54FF000050AE050EA010246
:1004E80008BF704730B511F0004502D5404261EBB6
:1004F80041014FF4806404F132045FEA915C3FF4F7
:10050800D8AE4FF003025FEADC0C18BF03325FEA93
:10051800DC0C18BF033202EBDC02C2F1200300FA44
:1005280003FC20FA02F001FA03FE40EA0E0021FA69
:1005380002F11444BDE600BF70B54FF0FF0C4CF457
:10054800E06C1CEA11541DBF1CEA135594EA0C0F09
:1005580095EA0C0F00F0DEF82C4481EA030621EA44
:100568004C5123EA4C5350EA013518BF52EA03357F
:1005780041F4801143F4801338D0A0FB02CE4FF031
:100588000005E1FB02E506F00042E0FB03E54FF061
:100598000006E1FB03569CF0000F18BF4EF0010E59
:1005A800A4F1FF04B6F5007F64F5407404D25FEA55
:1005B8004E0E6D4146EB060642EAC62141EA555108
:1005C8004FEAC52040EA5E504FEACE2EB4F1FD0C4A
:1005D80088BFBCF5E06F1ED8BEF1004F08BF5FEAC8
:1005E800500E50F1000041EB045170BD06F000467A
:1005F80046EA010140EA020081EA0301B4EB5C0427
:10060800C2BFD4EB0C0541EA045170BD41F480111E
:100618004FF0000E013C00F3AB8014F1360FDEBF43
:10062800002001F0004170BDC4F10004203C35DA1F
:100638000C341BDC04F11404C4F1200500FA05F3A2
:1006480020FA04F001FA05F240EA020001F0004243
:1006580021F0004110EBD37021FA04F642EB0601B9
:100668005EEA430E08BF20EAD37070BDC4F10C04E3
:10067800C4F1200500FA04F320FA05F001FA04F2A7
:1006880040EA020001F0004110EBD37041F1000193
:100698005EEA430E08BF20EAD37070BDC4F120059E
:1006A80000FA05F24EEA020E20FA04F301FA05F206
:1006B80043EA020321FA04F001F0004121FA04F2AE
:1006C80020EA020000EBD3705EEA430E08BF20EA7E
:1006D800D37070BD94F0000F0FD101F000464000B8
:1006E80041EB010111F4801F08BF013CF7D041EA3A
:1006F800060195F0000F18BF704703F0004652003E
:1007080043EB030313F4801F08BF013DF7D043EA0E
:100718000603704794EA0C0F0CEA135518BF95EAC4
:100728000C0F0CD050EA410618BF52EA4306D1D14B
:1007380081EA030101F000414FF0000070BD50EA6A
:10074800410606BF1046194652EA430619D094EAF4
:100758000C0F02D150EA013613D195EA0C0F05D1DE
:1007680052EA03361CBF104619460AD181EA030132
:1007780001F0004141F0FE4141F470014FF00000EA
:1007880070BD41F0FE4141F4780170BD70B54FF085
:10079800FF0C4CF4E06C1CEA11541DBF1CEA135505
:1007A80094EA0C0F95EA0C0F00F0A7F8A4EB0504E7
:1007B80081EA030E52EA03354FEA013100F08880DE
:1007C8004FEA03334FF0805545EA131343EA1263A7
:1007D8004FEA022245EA111545EA10654FEA00265C
:1007E8000EF000419D4208BF964244F1FD0404F515
:1007F800407402D25B084FEA3202B61A65EB030571
:100808005B084FEA32024FF480104FF4002CB6EB2D
:10081800020E75EB030E22BFB61A754640EA0C00AD
:100828005B084FEA3202B6EB020E75EB030E22BFED
:10083800B61A754640EA5C005B084FEA3202B6EB2E
:10084800020E75EB030E22BFB61A754640EA9C00ED
:100858005B084FEA3202B6EB020E75EB030E22BFBD
:10086800B61A754640EADC0055EA060E18D04FEA7B
:10087800051545EA16754FEA06164FEAC30343EA1B
:1008880052734FEAC2025FEA1C1CC0D111F4801FE8
:100898000BD141EA00014FF000004FF0004CB6E7E1
:1008A80011F4801F04BF01430020B4F1FD0C88BF80
:1008B800BCF5E06F3FF6AFAEB5EB030C04BFB6EB8B
:1008C800020C5FEA500C50F1000041EB045170BD7E
:1008D8000EF0004E4EEA113114EB5C04C2BFD4EBAB
:1008E8000C0541EA045170BD41F480114FF0000E2F
:1008F800013C90E645EA060E8DE60CEA135594EAAB
:100908000C0F08BF95EA0C0F3FF43BAF94EA0C0FAD
:100918000AD150EA01347FF434AF95EA0C0F7FF422
:1009280025AF104619462CE795EA0C0F06D152EA76
:1009380003353FF4FDAE1046194622E750EA41065A
:1009480018BF52EA43067FF4C5AE50EA41047FF46B
:100958000DAF52EA43057FF4EBAE12E74FF0FF3CD0
:1009680006E000BF4FF0010C02E000BF4FF0010CA1
:100978004DF804CD4FEA410C7FEA6C5C4FEA430C1A
:1009880018BF7FEA6C5C1BD001B050EA410C0CBF69
:1009980052EA430C91EA030F02BF90EA020F0020CB
:1009A800704710F1000F91EA030F58BF994208BF32
:1009B80090422CBFD8176FEAE37040F001007047EF
:1009C8004FEA410C7FEA6C5C02D150EA013C07D146
:1009D8004FEA430C7FEA6C5CD6D152EA033CD3D091
:1009E8005DF8040B704700BF8446104662468C468B
:1009F8001946634600E000BF01B5FFF7B7FF0028BE
:100A080048BF10F1000F01BD4DF808EDFFF7F4FFE6
:100A18000CBF012000205DF808FB00BF4DF808ED71
:100A2800FFF7EAFF34BF012000205DF808FB00BF94
:100A38004DF808EDFFF7E0FF94BF012000205DF8B6
:100A480008FB00BF4DF808EDFFF7CEFF94BF01206B
:100A580000205DF808FB00BF4DF808EDFFF7C4FF64
:100A680034BF012000205DF808FB00BF4FEA410CAD
:100A78007FEA6C5C02D150EA013C0AD14FEA430C90
:100A88007FEA6C5C02D152EA033C02D14FF00000CD
:100A980070474FF0010070474FEA410212F500120B
:100AA80015D211D56FF47873B3EB625212D94FEAAD
:100AB800C12343F0004343EA505311F0004F23FA97
:100AC80002F018BF404270474FF00000704750EAEC
:100AD800013005D111F0004008BF6FF000407047A9
:100AE8004FF00000704700BF4A0011D212F5001203
:100AF80011D20DD56FF47873B3EB62520ED44FEA6E
:100B0800C12343F0004343EA505323FA02F07047ED
:100B18004FF00000704750EA013002D14FF0FF302B
:100B280070474FF0000070474FEA4102B2F1E043CE
:100B380024BFB3F5001CDCF1FE5C0DD901F0004CBC
:100B48004FEAC0024CEA5070B2F1004F40EB83000C
:100B580008BF20F00100704711F0804F21D113F138
:100B68003872BCBF01F00040704741F480114FEA71
:100B78005252C2F11802C2F1200C10FA0CF320FAFA
:100B880002F018BF40F001004FEAC1234FEAD32317
:100B980003FA0CFC40EA0C0023FA02F34FEA430381
:100BA800CCE77FEA625307D150EA01331EBF4FF00A
:100BB800FE4040F44000704701F0004040F0FE4025
:100BC80040F40000704700BF80B485B000AF786083
:100BD8007B681B6803F06003FB60FB68002B04D193
:100BE8007B681B6803F01003FB60FB68184614372A
:100BF800BD465DF8047B704780B483B000AF786071
:100C08007B681B6B18460C37BD465DF8047B704744
:100C180080B483B000AF786039607B681A6A3B683B
:100C28001A437B681A6200BF0C37BD465DF8047B27
:100C3800704780B483B000AF786039607B681A6A07
:100C48003B68DB431A407B681A6200BF0C37BD461D
:100C58005DF8047B704780B483B000AF78607B6830
:100C68005B6C43F400427B685A6400BF0C37BD4696
:100C78005DF8047B704780B483B000AF78607B6810
:100C8800DB6843F001027B68DA6000BF0C37BD46C1
:100C98005DF8047B704780B483B000AF78607B68F0
:100CA800DB6823F001027B68DA6000BF0C37BD46C1
:100CB8005DF8047B704780B483B000AF78607B68D0
:100CC800DB6803F00103012B01D1012300E00023BD
:100CD80018460C37BD465DF8047B704780B483B076
:100CE80000AF78607B68DB6843F002027B68DA60FB
:100CF80000BF0C37BD465DF8047B704780B483B0F5
:100D080000AF78607B68DB6823F002027B68DA60FA
:100D180000BF0C37BD465DF8047B704780B483B0D4
:100D280000AF78607B68DB6803F00203022B01D117
:100D3800012300E0002318460C37BD465DF8047B0C
:100D4800704780B483B000AF78607B68DB6843F09D
:100D580004027B68DA6000BF0C37BD465DF8047B8F
:100D6800704780B483B000AF78607B68DB6823F09D
:100D780004027B68DA6000BF0C37BD465DF8047B6F
:100D8800704780B483B000AF78607B68DB6803F09D
:100D98000403042B01D1012300E0002318460C377B
:100DA800BD465DF8047B704780B483B000AF7860BF
:100DB8007B68DB6843F008027B68DA6000BF0C37A9
:100DC800BD465DF8047B704780B483B000AF78609F
:100DD8007B68DB6823F008027B68DA6000BF0C37A9
:100DE800BD465DF8047B704780B483B000AF78607F
:100DF8007B68DB6803F00803082B01D1012300E0BE
:100E0800002318460C37BD465DF8047B704780B454
:100E180083B000AF78607B68DB6843F010027B68C2
:100E2800DA6000BF0C37BD465DF8047B704780B4BC
:100E380083B000AF78607B68DB6823F010027B68C2
:100E4800DA6000BF0C37BD465DF8047B704780B49C
:100E580083B000AF78607B68DB6803F01003102B69
:100E680001D1012300E0002318460C37BD465DF888
:100E7800047B704780B483B000AF78607B68DB6820
:100E880043F020027B68DA6000BF0C37BD465DF88E
:100E9800047B704780B483B000AF78607B68DB6800
:100EA80023F020027B68DA6000BF0C37BD465DF88E
:100EB800047B704780B483B000AF78607B68DB68E0
:100EC80003F02003202B01D1012300E00023184662
:100ED8000C37BD465DF8047B704780B483B000AF23
:100EE80078607B68DB6843F040027B68DA6000BFAB
:100EF8000C37BD465DF8047B704780B483B000AF03
:100F080078607B68DB6823F040027B68DA6000BFAA
:100F18000C37BD465DF8047B704780B483B000AFE2
:100F280078607B68DB6803F04003402B01D1012324
:100F380000E0002318460C37BD465DF8047B704777
:100F480080B483B000AF78607B68DB6843F08002D0
:100F58007B68DA6000BF0C37BD465DF8047B7047DC
:100F680080B483B000AF78607B68DB6823F08002D0
:100F78007B68DA6000BF0C37BD465DF8047B7047BC
:100F880080B483B000AF78607B68DB6803F08003CF
:100F9800802B01D1012300E0002318460C37BD4601
:100FA8005DF8047B704780B582B000AF78600B466F
:100FB8007B807B8803F00103002B0CD07B681B68C7
:100FC8001846FFF7AAFF0346012B04D07B681B686D
:100FD8001846FFF782FF7B8803F00203002B0CD032
:100FE8007B681B681846FFF799FE0346012B04D05F
:100FF8007B681B681846FFF771FE7B8803F00403C3
:10100800002B0CD07B681B681846FFF7BAFE034616
:10101800012B04D07B681B681846FFF792FE7B887B
:1010280003F00803002B0CD07B681B681846FFF7F9
:10103800DBFE0346012B04D07B681B681846FFF7CC
:10104800B3FE7B8803F01003002B0CD07B681B6871
:101058001846FFF7FCFE0346012B04D07B681B688B
:101068001846FFF7D4FE7B8803F02003002B0CD032
:101078007B681B681846FFF71EFE0346012B04D049
:101088007B681B681846FFF7F6FD7B8803F0400372
:10109800002B0CD07B681B681846FFF771FF0346CE
:1010A800012B04D07B681B681846FFF749FF7B8833
:1010B80003F08003002B0CD07B681B681846FFF7F1
:1010C800F9FE0346012B04D07B681B681846FFF71E
:1010D800D1FE00BF0837BD4680BD80B582B000AFE5
:1010E80078600B467B807B8803F00103002B0CD0D3
:1010F8007B681B681846FFF710FF0346012B04D1D5
:101108007B681B681846FFF7F8FE7B8803F002032C
:10111800002B0CD07B681B681846FFF7FFFD0346C1
:10112800012B04D17B681B681846FFF7E7FD7B8815
:1011380003F00403002B0CD07B681B681846FFF7EC
:1011480020FE0346012B04D17B681B681846FFF775
:1011580008FE7B8803F00803002B0CD07B681B6813
:101168001846FFF741FE0346012B04D17B681B6834
:101178001846FFF729FE7B8803F01003002B0CD0DC
:101188007B681B681846FFF762FE0346012B04D1F3
:101198007B681B681846FFF74AFE7B8803F020032C
:1011A800002B0CD07B681B681846FFF784FD0346AC
:1011B800012B04D07B681B681846FFF76CFD7B8801
:1011C80003F04003002B0CD07B681B681846FFF720
:1011D800D7FE0346012B04D17B681B681846FFF72E
:1011E800BFFE7B8803F08003002B0CD07B681B6854
:1011F8001846FFF75FFE0346012B04D17B681B6886
:101208001846FFF747FE00BF0837BD4680BD0000FF
:1012180080B582B000AF78600B46FB70FB78022B7C
:1012280006D17B681B6801211846FFF7F1FC31E005
:101238007B681B68194A934213D07B681B68184A5D
:1012480093420ED07B681B68164A934209D07B688C
:101258001B68154A934204D07B681B68134A934263
:1012680018D1FB78032B06D17B681B68042118462C
:10127800FFF7CEFC0EE0FB78042B0BD17B681B68D4
:1012880001211846FFF7C4FC7B681B680421184637
:10129800FFF7BEFC00BF0837BD4680BD002C0140EB
:1012A8000034014000400140004401400048014032
:1012B80080B582B000AF78600B46FB70FB78022BDC
:1012C80006D17B681B6801211846FFF7B2FC31E0A4
:1012D8007B681B68194A934213D07B681B68184ABD
:1012E80093420ED07B681B68164A934209D07B68EC
:1012F8001B68154A934204D07B681B68134A9342C3
:1013080018D1FB78032B06D17B681B68042118468B
:10131800FFF78FFC0EE0FB78042B0BD17B681B6872
:1013280001211846FFF785FC7B681B6804211846D5
:10133800FFF77FFC00BF0837BD4680BD002C014089
:101348000034014000400140004401400048014091
:1013580080B582B000AF78600B46FB70FB78022B3B
:1013680006D17B681B6810211846FFF751FC31E055
:101378007B681B68194A934213D07B681B68184A1C
:1013880093420ED07B681B68164A934209D07B684B
:101398001B68154A934204D07B681B68134A934222
:1013A80018D1FB78032B06D17B681B6840211846AF
:1013B800FFF72EFC0EE0FB78042B0BD17B681B6833
:1013C80010211846FFF724FC7B681B68402118464B
:1013D800FFF71EFC00BF0837BD4680BD002C01404A
:1013E80000340140004001400044014000480140F1
:1013F80080B582B000AF78600B46FB70FB78022B9B
:1014080006D17B681B6810211846FFF712FC31E0F3
:101418007B681B68194A934213D07B681B68184A7B
:1014280093420ED07B681B68164A934209D07B68AA
:101438001B68154A934204D07B681B68134A934281
:1014480018D1FB78032B06D17B681B68402118460E
:10145800FFF7EFFB0EE0FB78042B0BD17B681B68D2
:1014680010211846FFF7E5FB7B681B6840211846EA
:10147800FFF7DFFB00BF0837BD4680BD002C0140E9
:101488000034014000400140004401400048014050
:1014980080B582B000AF78600B46FB70FB78022BFA
:1014A80007D17B681B684FF480711846FFF7B0FBC3
:1014B80034E07B681B681B4A934213D07B681B6827
:1014C800194A93420ED07B681B68184A934209D088
:1014D8007B681B68164A934204D07B681B68154AD0
:1014E80093421BD1FB78032B07D17B681B684FF411
:1014F80080611846FFF78CFB10E0FB78042B0DD1B8
:101508007B681B684FF480711846FFF781FB7B6886
:101518001B684FF480611846FFF77AFB00BF083755
:10152800BD4680BD002C0140003401400040014010
:10153800004401400048014080B582B000AF7860A7
:101548000B46FB70FB78022B07D17B681B684FF4B6
:1015580080711846FFF76DFB34E07B681B681B4AF7
:10156800934213D07B681B68194A93420ED07B685C
:101578001B68184A934209D07B681B68164A934235
:1015880004D07B681B68154A93421BD1FB78032B58
:1015980007D17B681B684FF480611846FFF749FB49
:1015A80010E0FB78042B0DD17B681B684FF4807129
:1015B8001846FFF73EFB7B681B684FF480611846AE
:1015C800FFF737FB00BF0837BD4680BD002C014040
:1015D80000340140004001400044014000480140FF
:1015E80080B582B000AF78600B46FB70FB78022BA9
:1015F80006D17B681B684FF480511846FFF708FB3B
:1016080000BF0837BD4680BD80B582B000AF7860A6
:101618000B46FB70FB78022B06D17B681B684FF4E6
:1016280080511846FFF705FB00BF0837BD4680BD4F
:1016380080B584B000AF78600023FB607B681B68CE
:10164800304A934201D1304BFB607B681A68FB68D3
:101658001A60FB681B681846FFF7B6FAB860BB68E3
:10166800002B06D0BB68102B03D0FB6801221A712F
:1016780002E0FB6800221A71FB681B68234A934248
:1016880013D0FB681B68224A93420ED0FB681B6884
:10169800204A934209D0FB681B681F4A934204D032
:1016A800FB681B681D4A934204D1FB681B681846F7
:1016B800FFF7D1FAFB681B68144A934213D0FB6802
:1016C8001B68134A93420ED0FB681B68114A934269
:1016D80009D0FB681B68104A934204D0FB681B685A
:1016E8000E4A934208D17B681B681846FFF784FAB4
:1016F8000346DAB2FB685A71FB6818461037BD46D4
:1017080080BD00BF0004004048050020002C0140B7
:1017180000340140004001400044014000480140BD
:1017280080B485B000AF786039603B68002B03D186
:101738007B684033FB6001E0044BFB60FB681846A4
:101748001437BD465DF8047B704700BF0C03045096
:1017580080B483B000AF78607B68DB6803F44063D3
:10176800002B01D1012300E0002318460C37BD46A9
:101778005DF8047B704780B483B000AF786039604F
:101788007B681B6B23F00F023B681A437B681A6364
:1017980000BF0C37BD465DF8047B704780B483B04A
:1017A80000AF786039607B68DB6823F003023B6830
:1017B8001A437B68DA6000BF0C37BD465DF8047BCE
:1017C800704780B483B000AF78607B68DB6C03F04F
:1017D800C003002B01D1012300E0002318460C3779
:1017E800BD465DF8047B704780B483B000AF786075
:1017F8007B689B6823F0004323F03F0343F001021A
:101808007B689A6000BF0C37BD465DF8047B704763
:1018180080B483B000AF78607B689B6823F0004396
:1018280023F03F0343F002027B689A6000BF0C3745
:10183800BD465DF8047B704780B483B000AF786024
:101848007B689B6803F00103012B01D1012300E0B1
:10185800002318460C37BD465DF8047B704780B4FA
:1018680083B000AF786039607B689B6823F04043A1
:1018780023F03F033A6802F08042134343F00042EA
:101888007B689A6000BF0C37BD465DF8047B7047E3
:1018980080B483B000AF78607B689B6803F0004336
:1018A800B3F1004F01D1012300E0002318460C37A3
:1018B800BD465DF8047B704780B483B000AF7860A4
:1018C8007B689B6823F0004323F03F0343F0040246
:1018D8007B689A6000BF0C37BD465DF8047B704793
:1018E80080B483B000AF78607B689B6823F00043C6
:1018F80023F03F0343F008027B689A6000BF0C376F
:10190800BD465DF8047B704780B483B000AF786053
:101918007B681B6803F00803082B01D1012300E052
:10192800002318460C37BD465DF8047B704780B429
:1019380083B000AF78607B681B6803F01003102B3E
:1019480001D1012300E0002318460C37BD465DF89D
:10195800047B704780B483B000AF78607B68102246
:101968001A6000BF0C37BD465DF8047B704780B431
:1019780083B000AF78607B685B6843F008027B68DF
:101988005A6000BF0C37BD465DF8047B704780B4D1
:1019980083B000AF78607B685B6843F040027B6887
:1019A8005A6000BF0C37BD465DF8047B704780B4B1
:1019B80083B000AF78607B685B6823F008027B68BF
:1019C8005A6000BF0C37BD465DF8047B704780B491
:1019D80083B000AF78607B685B6823F010027B6897
:1019E8005A6000BF0C37BD465DF8047B704780B471
:1019F80083B000AF78607B685B6823F040027B6847
:101A08005A6000BF0C37BD465DF8047B704780B450
:101A180083B000AF78607B685B6823F080027B68E6
:101A28005A6000BF0C37BD465DF8047B704780B430
:101A380083B000AF78607B685B6803F01003102BFD
:101A480001D1012300E0002318460C37BD465DF89C
:101A5800047B704780B483B000AF78607B685B68B4
:101A680003F08003802B01D1012300E000231846F6
:101A78000C37BD465DF8047B7047000080B485B024
:101A880000AF786039607B68FB600C4A3B681344A0
:101A98001B781A46FB6813441B6808493A680A44CD
:101AA80012781146FA680A4443F00103136000BF34
:101AB8001437BD465DF8047B704700BFC4020108B7
:101AC80080B485B000AF786039607B68FB600C4AF1
:101AD8003B6813441B781A46FB6813441B68084983
:101AE8003A680A4412781146FA680A4423F0010356
:101AF800136000BF1437BD465DF8047B704700BF14
:101B0800C402010880B485B000AF786039607B6892
:101B1800FB60084A3B6813441B781A46FB68134469
:101B28001B6803F0200318461437BD465DF8047B94
:101B3800704700BFC402010880B487B000AFF860E6
:101B4800B9607A60FB687B610D4ABB6813441B78F7
:101B58001A467B6913445B681B0C1B040849BA6866
:101B68000A44127811467A690A4411467A6813437E
:101B78004B6000BF1C37BD465DF8047B704700BF53
:101B8800C402010880B487B000AFF860B9607A6019
:101B98003B60FB687B613B6A102B14D1174ABB681A
:101BA80013441B781A467B6913441A467B68D36032
:101BB800124ABB6813441B781A467B6913441A46B9
:101BC8003B68936013E00D4ABB6813441B781A46C0
:101BD8007B6913441A467B689360084ABB681344C0
:101BE8001B781A467B6913441A463B68D36000BFCA
:101BF8001C37BD465DF8047B704700BFC40201086E
:101C080080B487B000AFF860B9607A60FB687B6128
:101C1800074ABB6813441B781A467B6913441A4663
:101C28007B68936000BF1C37BD465DF8047B704736
:101C3800C402010880B483B000AF78607B681B6879
:101C480003F02003202B01D1012300E000231846D4
:101C58000C37BD465DF8047B704780B483B000AF95
:101C680078607B6820225A6000BF0C37BD465DF85B
:101C7800047B704780B485B000AF786039607B68BA
:101C8800FB600C4A3B6813441B781A46FB681344F4
:101C98001B6808493A680A4412781146FA680A44E7
:101CA80043F00203136000BF1437BD465DF8047BA0
:101CB800704700BFC402010880B485B000AF7860E7
:101CC80039607B68FB600C4A3B6813441B781A46F2
:101CD800FB6813441B6808493A680A44127811469D
:101CE800FA680A4443F00803136000BF1437BD467E
:101CF8005DF8047B704700BFC402010880B485B05A
:101D080000AF786039607B68FB600C4A3B6813441D
:101D18001B781A46FB6813441B6808493A680A444A
:101D280012781146FA680A4423F00203136000BFD0
:101D38001437BD465DF8047B704700BFC402010834
:101D480080B485B000AF786039607B68FB600C4A6E
:101D58003B6813441B781A46FB6813441B68084900
:101D68003A680A4412781146FA680A4423F00403D0
:101D7800136000BF1437BD465DF8047B704700BF91
:101D8800C402010880B485B000AF786039607B6810
:101D9800FB600C4A3B6813441B781A46FB681344E3
:101DA8001B6808493A680A4412781146FA680A44D6
:101DB80023F00803136000BF1437BD465DF8047BA9
:101DC800704700BFC402010880B485B000AF7860D6
:101DD80039607B68FB600A4A3B6813441B781A46E3
:101DE800FB6813441B6803F00203022B01D1012393
:101DF80000E0002318461437BD465DF8047B7047A1
:101E0800C402010880B584B000AF78600123FB816B
:101E18007B681B691846FFF79BFC0346002B2FD0F5
:101E28007B685B7ADBB2022B11D07B685B7ADBB212
:101E3800042B0CD07B685B7ADBB2082B07D07B685D
:101E48001B691846FFF760FD0346012B18D1786817
:101E580000F0F2F80346002B12D17B685B7ADBB204
:101E6800082B03D17B6801225A7202E07B6820228A
:101E78005A727B681B691846FFF71EFD0023FB8119
:101E8800FB8918461037BD4680BD80B586B002AFC5
:101E9800F860B9607A603B600021F868FFF740FCA1
:101EA80003461A467968B868FFF7AAFE0021F86861
:101EB800FFF736FC02463B68002100917968B86854
:101EC800FFF760FEBA697968B868FFF735FE796888
:101ED800B868FFF7CFFE7968B868FFF7EDFE796854
:101EE800B868FFF7CBFD00BF1037BD4680BD80B591
:101EF80084B000AFF860B9607A607968B868FFF7B5
:101F0800DFFD7968B868FFF71BFF7968B868FFF7E5
:101F180039FF7968B868FFF7F1FE00227968B86878
:101F2800FFF70AFE00BF1037BD4680BD80B582B0FE
:101F380000AF786039607B68DB79012B0DD17B6855
:101F4800DA687B681B685B00D1187B681B685B00DC
:101F58001A4638680EF066F908E07B68D9687B682D
:101F68001B685B001A4638680EF05CF900BF08373A
:101F7800BD4680BD80B586B000AFF860B9607A60B4
:101F8800FB685A69FB689B7919461046FFF71CFFE6
:101F98000346DBB2012B37D1FB685A69BB68104690
:101FA80098470346012B2FD1FB6804225A72FB681D
:101FB8005A697B6810469847FB685A69FB689B79A1
:101FC80019461046FFF79EFD0346002B19D1FB6802
:101FD8005A69FB689B7919461046FFF771FDFB6843
:101FE8005869FB689B791946FB681B681A46FFF716
:101FF800A3FDFB685A69FB689B7919461046FFF7F1
:102008003DFD0123FB7501E00023FB75FB7D1846B0
:102018001837BD4680BD000080B500AF034A0449AB
:102028000448FFF7A7FF00BF80BD00BF631C00087E
:102038003D1C0008D405002080B582B000AF786050
:102048007B681B691846FFF772FC0346DBB2012B5D
:1020580007D17B681B691846FFF77CFC7B68102258
:102068005A727B685B7ADBB2102B0CBF012300230A
:10207800DBB218460837BD4680BD80B582B000AFD8
:1020880078600B46FB70FB78012B0DD17B681B69D0
:102098001846FFF75DFB0346012B12D07B681B69CE
:1020A8001846FFF709FC0CE07B681B691846FFF728
:1020B80088FB0346012B04D07B681B691846FFF791
:1020C8000FFC00BF0837BD4680BD000090B589B041
:1020D80002AFF860084611461A4603467B810B4654
:1020E8003B811346FB8000237B61FB681B693C4AEC
:1020F800934201D13B4B7B617B69002B6BD0FB6822
:102108001A697B691A617B690022DA71FB88012BE5
:1021180061D03B89002B47D07B695B7ADBB2082B07
:1021280042D0FB68DA687B69DA60FB681A687B6909
:102138001A60FB685A697B695A61FB689A797B69FE
:102148009A71FB681A797B691A717B691B69B96A8C
:102158001846FFF710FB7B89012B21D07B89042BC4
:1021680016D17B691B6903211846FFF717FB7B69AA
:1021780018697B6959697B699B791C467B69DA68B0
:102188007B691B68009313462246FFF77EFE07E033
:102198007B89022B04D17B691B691846FFF7E7FB93
:1021A8007B6908225A7216E03B89002B13D17B69A0
:1021B8009B7ADBB2082B0ED0FB685A797B695A717F
:1021C8007B89022B04D17B691B691846FFF7DFFB6B
:1021D8007B6908229A727B6918461C37BD4690BDF8
:1021E80000010450D405002080B582B000AF7860AB
:1021F8007B681B691846FFF71FFB0346002B04D1B9
:102208007B681B691846FFF7EFFA00BF0837BD4621
:1022180080BD80B586B000AFF8600B467A607B81E0
:102228000123FB82FB681B69002B46D07B89012BAD
:1022380005D1F868FFF7E6FD0346FB823DE07B89A0
:10224800042B1FD1FB681B691846FFF781FA034668
:10225800002B32D0FB6801225A72FB681B691846B2
:10226800FFF72AFB00BFFB685B7ADBB2042BFAD1CD
:102278007968F868FFF75AFEFB6808225A7200234B
:10228800FB821AE07B89022B17D1FB685B7ADBB2F1
:10229800202B09D0FB685B7ADBB2042B04D0FB68E7
:1022A8005B7ADBB2102B08D1FB6808225A72796876
:1022B800F868FFF73BFE0023FB82FB8A18461837B5
:1022C800BD4680BD80B582B000AF78600B467B808C
:1022D80013463B807B681B691846FFF7ADFA034637
:1022E800002B04D07B681B691846FFF791FA7B68BE
:1022F8001B691846FFF7AEFB0346002B04D07B682A
:102308001B691846FFF783FB7B681B691846FFF7B4
:102318008EFB0346002B04D07B681B691846FFF729
:1023280056FB3B88002B35D07B680022DA607B683F
:1023380000221A607B6800225A617B6800229A7129
:102348007B6800221A717B681A697B681B791946B9
:102358001046FFF710FA7B88012B26D07B88022BCA
:1023680005D17B681B691846FFF721FB1DE07B88B8
:10237800042B1AD17B6818697B6859697B689B793B
:102388001A46FFF7B4FD7B681B6900211846FFF762
:1023980005FA0AE07B6800225A717B88022B04D177
:1023A8007B681B691846FFF722FB00BF0837BD464C
:1023B80080BD000080B584B000AF78600B46FB702C
:1023C8007B681B691846FFF737FA0346FB7397F9D2
:1023D8000F30012B04D17B681B691846FFF718FAE8
:1023E800FB78002B0FD17B681B697F211846FFF70C
:1023F80036FA00BF7B681B691846FFF749FA03469F
:10240800012BF7D040E0FB78012B0FD17B681B69CB
:102418002C491846FFF723FA00BF7B681B6918464A
:10242800FFF736FA0346012BF7D02DE07B681B69CE
:102438007F211846FFF713FA00BF7B681B6918460F
:10244800FFF726FA0346012BF7D00023BB8107E0EC
:1024580000BFBB891BB29BB201339BB21BB2BB81CD
:10246800BB891BB29BB2032BF2D97B681B69154948
:102478001846FFF7F4F900BF7B681B691846FFF799
:1024880007FA0346012BF7D00023BB8107E000BF02
:10249800BB891BB29BB201339BB21BB2BB81BB8908
:1024A8001BB29BB2032BF2D997F90F30012B04D141
:1024B8007B681B691846FFF797F900BF1037BD46C0
:1024C80080BD00BF00007F4080B483B000AF78605B
:1024D8007B681B6843F001027B681A6000BF0C37F9
:1024E800BD465DF8047B704780B483B000AF786068
:1024F8007B681B6823F001027B681A6000BF0C37F9
:10250800BD465DF8047B704780B483B000AF786047
:1025180039607B681B6823F004023B681A437B68B8
:102528001A6000BF0C37BD465DF8047B704780B465
:1025380083B000AF78607B681B6803F0040318461B
:102548000C37BD465DF8047B704780B483B000AF9C
:1025580078607B68DB6A18460C37BD465DF8047BFB
:10256800704780B483B000AF786039607B683A68A0
:102578001A6300BF0C37BD465DF8047B704780B412
:1025880083B000AF786039607B683A685A6300BFEF
:102598000C37BD465DF8047B704780B483B000AF4C
:1025A800786039607B683A689A6300BF0C37BD462B
:1025B8005DF8047B704780B483B000AF7860396001
:1025C8007B683A68DA6300BF0C37BD465DF8047B68
:1025D800704780B483B000AF786039607B683A6830
:1025E8001A6400BF0C37BD465DF8047B704780B4A1
:1025F80083B000AF78607B685B6B18460C37BD46CC
:102608005DF8047B704780B483B000AF78607B6866
:102618009B6B18460C37BD465DF8047B704780B449
:1026280083B000AF78607B68DB6B18460C37BD461B
:102638005DF8047B704780B483B000AF78607B6836
:102648001B6C18460C37BD465DF8047B704780B498
:1026580083B000AF78607B685B6943F001027B68F8
:102668005A6100BF0C37BD465DF8047B704780B4E3
:1026780083B000AF78607B681B6918460C37BD468D
:102688005DF8047B704780B483B000AF7860396030
:102698007B683A689A6100BF0C37BD465DF8047BD9
:1026A800704780B483B000AF786039607B683A685F
:1026B8009A6200BF0C37BD465DF8047B7047000086
:1026C80080B584B000AF786087ED000AD7ED007A56
:1026D800F5EEC07AF1EE10FA03D54FF000033B6037
:1026E8000AE0D7ED007A9FED167AF4EEC77AF1EE9C
:1026F80010FA01DD134B3B607B681B681846FFF737
:1027080024FFF8607B681B79002B0CBF0123002392
:10271800DBB21A46FB68134407EE903AB8EE677AC4
:10272800D7ED007A27EE277ADFED056AC7EE267A1D
:10273800FCEEE77A17EE903A18461037BD4680BD92
:102748000000C8420000C84280B582B000AF78607F
:1027580039607B681B681846FFF749FF02463B68EB
:10276800934205D07B681B6839681846FFF707FF56
:1027780000BF0837BD4680BD80B582B000AF786025
:1027880039607B681B681846FFF73DFF02463B68C7
:10279800934205D07B681B6839681846FFF7FDFE31
:1027A80000BF0837BD4680BD80B582B000AF7860F5
:1027B80039607B681B681846FFF731FF02463B68A3
:1027C800934205D07B681B6839681846FFF7F3FE0B
:1027D80000BF0837BD4680BD80B582B000AF7860C5
:1027E80039607B681B681846FFF725FF02463B687F
:1027F800934205D07B681B6839681846FFF7E9FEE5
:1028080000BF0837BD4680BD80B584B000AF786092
:1028180087ED000A97ED000A7868FFF751FFF86026
:10282800F9687868FFF790FF00BF1037BD4680BD94
:1028380080B584B000AF786087ED000A97ED000A94
:102848007868FFF73DFFF860F9687868FFF794FF4C
:1028580000BF1037BD4680BD80B584B000AF78603A
:1028680087ED000A97ED000A7868FFF729FFF860FE
:10287800F9687868FFF798FF00BF1037BD4680BD3C
:1028880080B584B000AF786087ED000A97ED000A44
:102898007868FFF715FFF860F9687868FFF79CFF1C
:1028A80000BF1037BD4680BD80B485B000AF7860EA
:1028B8007B681B689A68074B1340FB60FB68062B14
:1028C8000CBF01230023DBB218461437BD465DF860
:1028D800047B70470700010080B584B000AF7860C2
:1028E8000B46FB707B681B681846FFF720FEF860F4
:1028F800FB78002B1ED07B681B68324A934213D0AA
:102908007B681B68304A93420ED07B681B682F4A4D
:10291800934209D07B681B682D4A934204D07B6898
:102928001B682C4A934205D17B681B680021184616
:10293800FFF717FEFB68042B11D07B681B68042186
:102948001846FFF7E1FD7B681B681846FFF77FFE16
:102958007B681B68F9681846FFF7D6FD04E07B68BA
:102968001B681846FFF773FE7B681B681846FFF75D
:10297800ABFDFB78002B20D07B681B68114A934283
:1029880013D07B681B68104A93420ED07B681B6883
:102998000E4A934209D07B681B680D4A934204D0C3
:1029A8007B681B680B4A934207D17B681A687B686F
:1029B8005B7919461046FFF7D4FD00BF1037BD46B6
:1029C80080BD00BF002C01400034014000400140A0
:1029D800004401400048014080B582B000AF7860F3
:1029E8007B681B681846FFF77FFD00BF0837BD46A8
:1029F80080BD000080B483B000AF7860074B5B797E
:102A0800002B0CBF01230023DAB27B6801331A7054
:102A180000BF0C37BD465DF8047B704704030020F7
:102A280080B400AF0C4B5B79002B0CBF0123002353
:102A3800DAB2094B9A71084B5A790132D2B25A71FB
:102A4800054B5B79092B02D9034B00225A7100BF51
:102A5800BD465DF8047B70470403002080B485B050
:102A680000AF786039607B68012283F8D8203B6822
:102A7800D3E900237968C1E902237B6801221A603F
:102A88000023FB600CE07B68D3E902237868F968CF
:102A98000231C9000144C1E90023FB680133FB602E
:102AA800FB68182BEFDD00BF00BF1437BD465DF88B
:102AB800047B704780B586B000AF87ED040BF860E3
:102AC800B9607A60BB68D3E902017B68D3E9002367
:102AD800FDF79AFF0346002B05D17B68D3E9002355
:102AE800B968C1E90223F868BB681033C8221946DF
:102AF8000DF098FBF968D7E90423C1E93223FB6894
:102B080003F1D000BB681033C02219460DF08AFBD0
:102B1800BB6803F11000FB68C833C82219460DF0E2
:102B280081FB00BF1837BD4680BD80B485B000AFBB
:102B3800786039607B68012283F860203B68D3E9BC
:102B480000237968C1E902237B6801221A60002307
:102B5800FB600CE07B68D3E902237868F9680231EE
:102B6800C9000144C1E90023FB680133FB60FB682D
:102B7800092BEFDD00BF00BF1437BD465DF8047BAD
:102B8800704780B586B000AF87ED040BF860B96078
:102B98007A60BB68D3E902017B68D3E90023FDF7BB
:102BA80033FF0346002B05D17B68D3E90023B968BE
:102BB800C1E90223F868BB681033502219460DF0AA
:102BC80031FBF968D7E90423C1E91423FB6803F151
:102BD8005800BB681033482219460DF023FBBB6828
:102BE80003F11000FB685033502219460DF01AFB10
:102BF80000BF1837BD4680BD80B584B000AF87EDF3
:102C0800000B38687B6823F000414FF000022C4B22
:102C1800FDF704FF0346002B42D04FF00002294B7A
:102C2800D7E90001FDF70EFF0346002B13D04FF044
:102C38000002244BD7E90001FDF7C8FA02460B460B
:102C480043EC172BB0EE470AF0EE670A0DF0B8F820
:102C580087ED020B28E04FF000021B4BD7E900017B
:102C6800FDF7FAFE0346002B06D04FF000024FF0A6
:102C78000003C7E9022317E04FF00002114BD7E920
:102C88000001FDF7A1FA02460B4643EC172BB0EE04
:102C9800470AF0EE670A0DF013F887ED020B03E020
:102CA800D7E90023C7E90223D7E9022343EC172B0E
:102CB800B0EE470AF0EE670A1037BD4680BD00BF88
:102CC800000030430000E03F0000E0BF80B58CB05A
:102CD80002AF78607B6800221A727B6801225A6012
:102CE8000123BB731B4BFB617B6810337B611A4B61
:102CF800BB6100237B730923BB600423FB8404238B
:102D0800BB8408233B6209233B73BA8CF98C07F117
:102D180008003B6A009313460122FFF7D7F90246E1
:102D28007B68DA607B68DB6802211846FFF742FBA4
:102D38007B68DB681846FFF757FA7B68DB68012178
:102D48001846FFF79AF97B6801221A7200BF2837E4
:102D5800BD4680BD000002400001045080B5A6B009
:102D680000AF78607B6801225A60214BBB6000236A
:102D78003B7300237B7307F108031846FEF758FCE2
:102D880002467B68DA607B68DB6800211846FEF73C
:102D98000AF9022387F897307B68DB6897F8972051
:102DA80011461846FEF734FA022387F897307B68F5
:102DB800DB6897F8972011461846FEF7C9FA7B6832
:102DC800DB681846FFF770FD034687F8963097F8DA
:102DD8009630002B05D17B68DB6800211846FFF789
:102DE8007BFD7B6801221A7200BF9837BD4680BD03
:102DF8000004004080B5A6B000AF78607B6801226F
:102E08005A60214BBB6000233B7300237B7307F19F
:102E180008031846FEF70CFC02467B68DA607B68FC
:102E2800DB6800211846FEF7BEF8022387F89730C2
:102E38007B68DB6897F8972011461846FEF728FB51
:102E4800022387F897307B68DB6897F8972011464C
:102E58001846FEF7C5FB7B68DB681846FFF724FDBC
:102E6800034687F8963097F89630002B05D17B6893
:102E7800DB6800211846FFF72FFD7B6801221A72D4
:102E880000BF9837BD4680BD000400400000000028
:102E9800B0B5A6B000AFFFF7C3FD0023FB6607E09F
:102EA800954AFB6E1A4400231370FB6E0133FB66D0
:102EB800FB6E072BF4DD914A0423A2F84030904BB7
:102EC800D8688E4BB3F840308E4A1946FFF7A1F9FF
:102ED8008C4BDB89894AA2F860308A4B1B88874A69
:102EE800A2F86E30874B9B89844AA2F86230854BE2
:102EF8005B88824AA2F86C30824B5B897F4AA2F8D1
:102F08006430804B9B887D4AA2F86A307D4B1B89D0
:102F18007A4AA2F866307B4BDB88784AA2F8683098
:102F2800774B93F8703003F00403DBB2002B34D1F5
:102F3800734A92F8703043F0040382F870306F4A95
:102F4800AF23A2F89A306D4AAF23A2F89C306B4A9F
:102F58000223A2F898306A4A0023A2F87E30684A11
:102F68000023A2F88030664A0023A2F87C30634927
:102F78004FF000024FF00003C1E914235F494FF0FE
:102F880000024FF00003C1E912235D494FF000022F
:102F98004FF00003C1E91A2317E1584BB3F89830F2
:102FA80001337B66554BB3F898300133B3F5803F56
:102FB80002D34FF6FF737B667B6E9BB24F4AA2F833
:102FC80098304E4BB3F89830032B0FD14B4A00235F
:102FD800A2F89830494BB3F86A30494AA2F88030D1
:102FE800464BB3F86430464AA2F87C30434BB3F8FA
:102FF8009830012B05D1414BB3F86A30404AA2F80A
:103008007E303E4BB3F89830022B40F09D803B4B0E
:10301800B3F864301A463A4BB3F87C30D31A7B665F
:10302800364BB3F864301A467B6E934201D90023BD
:103038007B667B6E1846FDF715FA4FF00002324B9F
:10304800FDF77AFA02460B4643EC172BB0EE470A17
:10305800F0EE670AFFF7D0FD53EC102B1046194627
:10306800FDF71AFD0346FB66FB6EB3F5803F05DAF4
:10307800FB6E9BB2214AA2F89A3004E01F4A4FF631
:10308800FF73A2F89A301D4BB3F89A30AF2B03D9CF
:103098001A4AAF23A2F89A30184BB3F89A304A2B41
:1030A80003D8164A4B23A2F89A30154BB3F87E3052
:1030B8001A46134BB3F88030D31A7B66104BB3F81B
:1030C8007E301A467B6E934201D900237B667A6E66
:1030D8001346DB0013447B667B6EB3F5803F02D357
:1030E8004FF6FF737B667B6E9BB2AF2B0ED9034AFC
:1030F800AF23A2F89C300EE0C02100202806002053
:10310800A8170020CC2100200000F83F7B6E9BB25E
:103118008A4AA2F89C30894BB3F89C304A2B03D8D2
:10312800864A4B23A2F89C30844BB3F89A301A464F
:10313800824BB3F89C30D31A1846FDF793F9024630
:103148000B467E49C1E912237C4BB3F89C304F2BC8
:103158003BD87A4BB3F89A304F2B36D8784BD3E913
:103168001A014FF00002774BFDF730F802460B4684
:1031780010461946724BC3E91A01714BD3E91A017B
:103188004FF00002704BFDF767FC0346002B1CD084
:103198006A4BD3E914014FF000026A4BFDF734FC87
:1031A8000346002B03D14FF00000664903E04FF0BF
:1031B80000004FF00001614BC3E9140160494FF072
:1031C80000024FF00003C1E91A23604A002313806C
:1031D8005E4A002353805D4A002393805B4A0023A4
:1031E800D3805A4A00231381584A00235381534BF2
:1031F800B3F89C30554A9381504BB3F89A30534AF0
:10320800D381534A00231360524A002313604C4B66
:10321800B3F87430A7F862300023FB6610E0474A21
:10322800FB6E303332F813301846FDF70BF9434A7A
:10323800FB6EDB001344C3E90001FB6E0133FB6640
:10324800FB6E072BEBDD3D4B93ED027B424A434976
:103258004348B0EE470AF0EE670AFFF792FC374B97
:1032680003F55263D3E90023C7E924230023FB664F
:103278001AE0FB6E0133314A03F5D273DB001344C5
:10328800D3E90023C7E91C23D7E91C23D7E9240184
:10329800FDF7C4FB0346002B03D0D7E91C23C7E97D
:1032A8002423FB6E0133FB66FB6E082BE1DD2D4A00
:1032B8002D492E4897ED240BFFF7FCFB1F4B03F518
:1032C8007F63D3E90023C7E920230023FB661AE0C4
:1032D800FB6E0133194A03F5FF73DB001344D3E98E
:1032E8000023C7E91C23D7E91C23D7E92001FDF7F0
:1032F800B3FB0346002B03D0D7E91C23C7E92023DF
:10330800FB6E0133FB66FB6E172BE1DD0B4B93ED78
:10331800047B174A17491848B0EE470AF0EE670AC7
:10332800FFF7C8FB054B03F50763D3E900230349FF
:10333800C1E91C230023FB663DE000BF28060020EE
:10334800A81700200000F03F0000344004060020C9
:1033580014060020C8210020D0000020301F0020C3
:1033680048130020E8000020E02000201816002064
:10337800B8000020901C0020980E0020FB6E01333E
:10338800804A03F58773DB001344D3E90023C7E9B8
:103398001C237C4BD3E91C23D7E91C01FDF75CFBFC
:1033A8000346002B04D07749D7E91C23C1E91C2325
:1033B800FB6E0133FB66FB6E172BDFDD714B93ED64
:1033C800067B714A71497248B0EE470AF0EE670A07
:1033D800FFF770FB6B4B03F5AA63D3E90023694938
:1033E800C1E91E230023FB661BE0FB6E0133654A1F
:1033F800AA33DB001344D3E90023C7E91C23614B3C
:10340800D3E91E23D7E91C01FDF726FB0346002B51
:1034180004D05C49D7E91C23C1E91E23FB6E0133A4
:10342800FB66FB6E172BE0DD564B93ED087B594A84
:1034380059495A48B0EE470AF0EE670AFFF73AFBD7
:10344800504BD3E9F0234F49C1E920230023FB6601
:103458001BE0FB6E01334B4A7833DB001344D3E99E
:103468000023C7E91C23474BD3E92023D7E91C01D4
:10347800FDF7F2FA0346002B04D04249D7E91C2392
:10348800C1E92023FB6E0133FB66FB6E172BE0DDE1
:103498003C4B93ED0A7B424A42494348B0EE470A07
:1034A800F0EE670AFFF706FB364BD3E98C23354964
:1034B800C1E922230023FB661BE0FB6E0133314A7E
:1034C8004633DB001344D3E90023C7E91C232D4B03
:1034D800D3E92223D7E91C01FDF7BEFA0346002BE6
:1034E80004D02849D7E91C23C1E92223FB6E013304
:1034F800FB66FB6E172BE0DD224B93ED0C7B2B4A12
:103508002B492C48B0EE470AF0EE670AFFF739FB63
:103518001C4B03F55C63D3E90023C7E9222300238E
:10352800FB661AE0FB6E0133164A03F5DC73DB0019
:103538001344D3E90023C7E91C23D7E91C23D7E99F
:103548002201FDF76BFA0346002B03D0D7E91C23B1
:10355800C7E92223FB6E0133FB66FB6E082BE1DD16
:10356800154A1649164897ED220BFFF7A3FA054BA3
:1035780003F56663D3E90023C7E91E230023FB662E
:103588003BE000BF28060020A8000020D01A002039
:10359800780B0020A0000020F0190020E809002086
:1035A800980000201019002058080020D80000209A
:1035B800981F0020E8130020E000002000200020D1
:1035C80088140020FB6E0133B54A03F5E673DB006F
:1035D8001344D3E90023C7E91C23D7E91C23D7E9FF
:1035E8001E01FDF739FA0346002B03D0D7E91C2347
:1035F800C7E91E23FB6E0133FB66FB6E172BE1DD6B
:10360800A84BB3F87630A7F86030A74AB7F862300D
:10361800138097ED200B0CF0D3FBB0EE407AF0EE60
:10362800607A9FED9D1BB0EE470AF0EE670A0CF03A
:103638004BFC87ED1C0B4FF000024FF00003D7E95D
:103648001C01FDF7EBF90346002B0CD03C6F7B6F98
:1036580083F0004520462946FDF746FA03469BB20B
:103668005B429BB205E0D7E91C01FDF73DFA034632
:103678009BB28D4A53808A4B93ED1C7BB0EE470A70
:10368800F0EE670A0CF09CFBB0EE407AF0EE607A40
:103698009FED811BB0EE470AF0EE670A0CF014FCB0
:1036A80087ED1C0B4FF000024FF00003D7E91C0117
:1036B800FDF7B4F90346002B0ED03B6F3B657B6FDB
:1036C80083F000437B65D7E91401FDF70DFA034643
:1036D8009BB25B429BB205E0D7E91C01FDF704FAF7
:1036E80003469BB2704A93806D4B93ED1E7BB0EE00
:1036F800470AF0EE670A0CF063FBB0EE407AF0EE92
:10370800607A9FED651BB0EE470AF0EE670A0CF091
:10371800DBFB87ED1C0B4FF000024FF00003D7E9ED
:103728001C01FDF77BF90346002B0ED03B6FBB64F1
:103738007B6F83F00043FB64D7E91201FDF7D4F9EE
:1037480003469BB25B429BB205E0D7E91C01FDF73B
:10375800CBF903469BB2544AD380514B93ED207B5F
:10376800B0EE470AF0EE670A0CF02AFBB0EE407A9A
:10377800F0EE607A9FED481BB0EE470AF0EE670A5C
:103788000CF0A2FB87ED1C0B4FF000024FF000037A
:10379800D7E91C01FDF742F90346002B0ED03B6F19
:1037A8003B647B6F83F000437B64D7E91001FDF72E
:1037B8009BF903469BB25B429BB205E0D7E91C012B
:1037C800FDF792F903469BB2374A1381344B93EDC8
:1037D800227BB0EE470AF0EE670A0CF0F1FAB0EE81
:1037E800407AF0EE607A9FED2C1BB0EE470AF0EEBF
:1037F800670A0CF069FB87ED1C0B4FF000024FF0D5
:103808000003D7E91C01FDF709F90346002B0ED088
:103818003B6FBB637B6F83F00043FB63D7E90E010B
:10382800FDF762F903469BB25B429BB205E0D7E91C
:103838001C01FDF759F903469BB21B4A538197EDCA
:103848001E0B0CF0BDFAB0EE407AF0EE607A9FEDF8
:10385800121BB0EE470AF0EE670A0CF035FB87ED55
:103868001C0B4FF000024FF00003D7E91C01FDF7D5
:10387800D5F80346002B19D03B6F3B637B6F83F071
:1038880000437B63D7E90C01FDF72EF903469BB291
:103898005B429BB210E000BF000000000000F04057
:1038A80028060020A8170020F0050020D7E91C01F1
:1038B800FDF71AF903469BB27E4A93817D4AB7F811
:1038C8006030D3817C4BB3F87E307A4A13827B4BCD
:1038D800B3F87830A7F86230794B93ED027B794AD8
:1038E80079497A48B0EE470AF0EE670AFFF7E2F83E
:1038F800734B03F53963D3E90023C7E92023002379
:10390800FB661AE0FB6E01336D4A03F5B973DB0001
:103918001344D3E90023C7E91C23D7E91C23D7E9BB
:103928002001FDF799F80346002B03D0D7E91C23A3
:10393800C7E92023FB6E0133FB66FB6E172BE1DD25
:103948005F4B03F50763D3E90023C7E91E23002370
:10395800FB661AE0FB6E0133594A03F58773DB00F7
:103968001344D3E90023C7E91C23D7E91C23D7E96B
:103978001E01FDF771F80346002B03D0D7E91C237D
:10398800C7E91E23FB6E0133FB66FB6E172BE1DDD7
:103998004B4B03F5AA63D3E900234949C1E91C232A
:1039A8000023FB661BE0FB6E0133454AAA33DB00AC
:1039B8001344D3E90023C7E91C23414BD3E91C2353
:1039C800D7E91C01FDF72AF80346002B04D03C492F
:1039D800D7E91C23C1E91C23FB6E0133FB66FB6E90
:1039E800172BE0DD364BD3E9F0233549C1E91E2317
:1039F8000023FB661BE0FB6E0133314A7833DB00A2
:103A08001344D3E90023C7E91C232D4BD3E91E2314
:103A1800D7E91C01FDF702F80346002B04D028491A
:103A2800D7E91C23C1E91E23FB6E0133FB66FB6E3D
:103A3800172BE0DD224BD3E98C232149C1E9202350
:103A48000023FB661BE0FB6E01331D4A4633DB0097
:103A58001344D3E90023C7E91C23194BD3E92023D6
:103A6800D7E91C01FCF7DAFF0346002B04D0144900
:103A7800D7E91C23C1E92023FB6E0133FB66FB6EEB
:103A8800172BE0DD0E4B93ED0C7B114A11491248C0
:103A9800B0EE470AF0EE670AFFF70CF8084B03F59B
:103AA8002063D3E900230649C1E922230023FB66EA
:103AB80031E000BFF005002000000020A81700201A
:103AC80028060020C8000020501E0020B811002041
:103AD800C0000020701D002028100020FB6E01335C
:103AE800B74A03F5A073DB001344D3E90023C7E901
:103AF8001C23B34BD3E92223D7E91C01FCF78EFF23
:103B08000346002B04D0AE49D7E91C23C1E9222380
:103B1800FB6E0133FB66FB6E172BDFDDA94BB3F899
:103B28007A30A7F86030A84AB7F86230138097ED6A
:103B3800200B0CF045F9B0EE407AF0EE607A9FED7C
:103B48009E1BB0EE470AF0EE670A0CF0BDF987ED50
:103B58001C0B4FF000024FF00003D7E91C01FCF7E3
:103B68005DFF0346002B0ED03B6FBB627B6F83F07B
:103B78000043FB62D7E90A01FCF7B6FF03469BB294
:103B88005B429BB205E0D7E91C01FCF7ADFF034699
:103B98009BB28D4A538097ED1E0B0CF011F9B0EED5
:103BA800407AF0EE607A9FED841BB0EE470AF0EEA3
:103BB800670A0CF089F987ED1C0B4FF000024FF0F3
:103BC8000003D7E91C01FCF729FF0346002B0ED0A0
:103BD8003B6F3B627B6F83F000437B62D7E9080150
:103BE800FCF782FF03469BB25B429BB205E0D7E934
:103BF8001C01FCF779FF03469BB2734A9380704B14
:103C080093ED1C7BB0EE470AF0EE670A0CF0D8F88B
:103C1800B0EE407AF0EE607A9FED671BB0EE470A8F
:103C2800F0EE670A0CF050F987ED1C0B4FF000021C
:103C38004FF00003D7E91C01FCF7F0FE0346002B08
:103C48000ED03B6FBB617B6F83F00043FB61D7E90C
:103C58000601FCF749FF03469BB25B429BB205E0B5
:103C6800D7E91C01FCF740FF03469BB2564AD380B4
:103C7800534B93ED1E7BB0EE470AF0EE670A0CF04B
:103C88009FF8B0EE407AF0EE607A9FED4B1BB0EEF5
:103C9800470AF0EE670A0CF017F987ED1C0B4FF096
:103CA80000024FF00003D7E91C01FCF7B7FE0346FA
:103CB800002B0ED03B6F3B617B6F83F000437B6131
:103CC800D7E90401FCF710FF03469BB25B429BB2A5
:103CD80005E0D7E91C01FCF707FF03469BB23A4A07
:103CE8001381374B93ED207BB0EE470AF0EE670A5D
:103CF8000CF066F8B0EE407AF0EE607A9FED2E1B7D
:103D0800B0EE470AF0EE670A0CF0DEF887ED1C0B00
:103D18004FF000024FF00003D7E91C01FCF77EFECC
:103D28000346002B0ED03B6FBB607B6F83F00043D4
:103D3800FB60D7E90201FCF7D7FE03469BB25B4262
:103D48009BB205E0D7E91C01FCF7CEFE03469BB207
:103D58001D4A53811A4B93ED227BB0EE470AF0EED1
:103D6800670A0CF02DF8B0EE407AF0EE607A9FED1D
:103D7800121BB0EE470AF0EE670A0CF0A5F887EDC3
:103D88001C0B4FF000024FF00003D7E91C01FCF7B1
:103D980045FE0346002B19D03B6F3B607B6F83F0D9
:103DA80000437B60D7E90001FCF79EFE03469BB207
:103DB8005B429BB210E000BF000000000000F04032
:103DC80028060020A8170020EC210020D7E91C01B4
:103DD800FCF78AFE03469BB2954A9381944AB7F84A
:103DE8006030D381934BB3F88420914B1A82924B65
:103DF8009B79002B0BD0914BD3E900239049C1E963
:103E080016238E4BD3E90E238D49C1E918238D4B18
:103E1800FB65F86DFEF72BFC7866894B93F87030DC
:103E280003F00803DBB2002B0FD1854A92F87030FB
:103E380043F0080382F87030814A92F8703001210B
:103E480061F3010382F8703021E07D4B93F8703004
:103E580003F00303DBB2012B13D17B6E03F04003A5
:103E6800002B14D1764A92F87030022161F30103D5
:103E780082F8703071494FF00002734BC1E9162384
:103E880005E06E494FF000026F4BC1E916236F4BF6
:103E9800FB656A4BD3E916014FF000024FF00003AF
:103EA800FCF7B2FD0346002B02D18023BB6601E07C
:103EB8000023BB66BB6E1946F86DFEF7E4FBBB6ECC
:103EC800DB4303F080031946F86DFEF7EAFB594B14
:103ED800D3E90601594BD3E91223FCF72DFB02461F
:103EE8000B46C7E91E23534BD3E90401D7E91E2328
:103EF800FCF76AF902460B46C7E920234D4BD3E984
:103F08000823D7E92001FCF7A7FD0346002B05D0BD
:103F1800484BD3E90223C7E91C2303E0D7E9202350
:103F2800C7E91C23464B1C6CD7E91C01FCF7FCFDB8
:103F380007EE900AF0EEE77AB0EE670A2046FEF741
:103F480063FC3C4BD3E90A23D7E92001FCF770FD59
:103F58000346002B04D0374BD3E90223C7E92023BB
:103F6800374B1C6CD7E92001FCF7DEFD034600EE59
:103F7800103A2046FEF75CFC2E4BD3E90423D7E920
:103F88001E01FCF723F902460B46C7E91E23294BFD
:103F9800D3E90E23D7E91E01FCF75EFD0346002B8B
:103FA80004D0D7E91E23C7E91C2304E0214BD3E939
:103FB8000C23C7E91C23224B1C6DD7E91C01FCF715
:103FC800B3FD034600EE103A2046FEF745FC194BB8
:103FD800D3E91023D7E91E01FCF73EFD0346002B69
:103FE80004D0144BD3E90C23C7E91E23144B1C6DD2
:103FF800D7E91E01FCF798FD07EE900AF0EEE77A84
:10400800B0EE670A2046FEF73BFC114BFB650B4BF5
:10401800D3E914014FF000024FF00003FCF7F4FC61
:104028000346002B16D14FF40053BB6614E000BFC3
:10403800EC210020000000200403002028060020B6
:10404800A8170020001000480000F03F000C0048AE
:10405800000800480023BB66BB6E1946F86DFEF7E2
:1040680012FBBB6EDB4303F400531946F86DFEF7F1
:1040780018FBAD4BFB650021F86DFEF704FB4FF410
:104088008041F86DFEF70DFBA74BFB650021F86D2D
:10409800FEF7F9FA4FF40041F86DFEF702FBA34B67
:1040A800FB65A34BD3E912014FF000024FF0000368
:1040B800FCF7AAFC0346002B02D10823BB6601E0EB
:1040C8000023BB66BB6E1946F86DFEF7DCFABB6EC3
:1040D800DB4303F008031946F86DFEF7E2FA934B49
:1040E800FB65F86DFEF7C3FA924BFB65924B93F8AC
:1040F80082301A468E4B9B5CFB668D4BDB781A46EA
:10410800FB6E934205D18A4BD3E91623C7E91C23DA
:1041180004E0874BD3E91823C7E91C234FF00002BA
:104128004FF00003D7E91C01FCF76EFC0346002B97
:1041380003D14FF40073BB6601E00023BB66BB6E7E
:104148001946F86DFEF79FFABB6EDB4303F4007364
:104158001946F86DFEF7A5FA764BFB65744B1B798B
:104168001A46FB6E934205D1714BD3E91623C7E972
:104178001C2304E06E4BD3E91823C7E91C234FF036
:1041880000024FF00003D7E91C01FCF73DFC034691
:10419800002B03D14FF48043BB6601E00023BB66CC
:1041A800BB6E1946F86DFEF76EFABB6EDB4303F47F
:1041B80080431946F86DFEF774FA5E4BFB655C4B5D
:1041C800D3E914014FF000024FF00003FCF71CFC88
:1041D8000346002B03D14FF48073BB6601E0002334
:1041E800BB66BB6E1946F86DFEF74DFABB6EDB4336
:1041F80003F480731946F86DFEF753FA4D4BFB65CF
:104208004B4BD3E914014FF000024FF00003FCF7C9
:10421800FBFB0346002B03D14FF40043BB6601E0D0
:104228000023BB66BB6E1946F86DFEF72CFABB6E11
:10423800DB4303F400431946F86DFEF732FA3D4BB1
:10424800FB653B4BD3E914014FF000024FF000032C
:10425800FCF7DAFB0346002B03D14FF48053BB660F
:1042680001E00023BB66BB6E1946F86DFEF70BFA3A
:10427800BB6EDB4303F480531946F86DFEF711FA61
:104288002A4BFB652A4BD3E914014FF000024FF08B
:104298000003FCF7B9FB0346002B03D14FF480530E
:1042A800BB6601E00023BB66BB6E1946F86DFEF7DE
:1042B800EAF9BB6EDB4303F480531946F86DFEF749
:1042C800F0F91C4BFB651A4BD3E914014FF00002BF
:1042D8004FF00003FCF798FB0346002B03D14FF483
:1042E8000053BB6601E00023BB66BB6E1946F86D40
:1042F800FEF7C9F9BB6EDB4303F400531946F86DAA
:10430800FEF7CFF90B4BFB65094BD3E914014FF0CE
:1043180000024FF00003FCF777FB0346002B0DD19A
:104328004FF40063BB660BE0000800480004004837
:104338000000002000100048A81700200023BB66DA
:10434800BB6E1946F86DFEF79EF9BB6EDB4303F4AE
:1043580000631946F86DFEF7A4F9104B93F8822014
:104368000F4B93F88F301344DAB20C4B83F882204A
:104378000A4B93F882200A4B5B799A4205D9084B7D
:1043880093F88D20054B83F8822000F0F1FC00F0B3
:1043980005FE00BF9837BD46B0BD00BFA817002076
:1043A8000000002000000000B0B590B000AFA04BA6
:1043B800D3E91623C7E90A239E4A9F499F4897EDE8
:1043C8000A0BFEF777FB9E4B03F5DC63D3E900236A
:1043D800C7E90E2300237B6319E07B6B0133984AFE
:1043E800DC33DB001344D3E90023C7E90823D7E90A
:1043F8000823D7E90E01FCF711FB0346002B03D075
:10440800D7E90823C7E90E237B6B01337B637B6BFA
:10441800172BE2DD97ED0E0B0BF0D2FCB0EE407AD5
:10442800F0EE607A9FED801BB0EE470AF0EE670A67
:104438000BF04AFD87ED080B4FF000024FF0000328
:10444800D7E90801FCF7EAFA0346002B0ED03B6ACD
:104458003B617B6A83F000437B61D7E90401FCF789
:1044680043FB03469BB25B429BB205E0D7E90801D8
:10447800FCF73AFB03469BB2FB836D4BD3E9182349
:104488006F49C1E924236E4B93ED247B6D4A6E4935
:104498006E48B0EE470AF0EE670AFEF70BFB684B72
:1044A800D3E92823C7E90E2300237B6319E07B6B3C
:1044B8000133634A1433DB001344D3E90023C7E90B
:1044C8000823D7E90823D7E90E01FCF7A7FA034622
:1044D800002B03D0D7E90823C7E90E237B6B0133F0
:1044E8007B637B6B172BE2DD97ED0E0B0BF068FC03
:1044F800B0EE407AF0EE607A9FED4B1BB0EE470AC3
:10450800F0EE670A0BF0E0FC87ED080B4FF00002B5
:104518004FF00003D7E90801FCF780FA0346002BA7
:104528000ED03B6ABB607B6A83F00043FB60D7E92F
:104538000201FCF7D9FA03469BB25B429BB205E045
:10454800D7E90801FCF7D0FA03469BB2BB83384A87
:10455800BB8BA2F87630364AFB8BA2F87430384B06
:10456800D3E92823C7E90E2300237B6319E07B6B7B
:104578000133334A1433DB001344D3E90023C7E97A
:104588000823D7E90823D7E90E01FCF765FA0346A3
:10459800002B03D0D7E90823C7E90E237B6B01332F
:1045A8007B637B6B172BE2DD97ED0E0B0BF008FCA2
:1045B800B0EE407AF0EE607A9FED1B1BB0EE470A32
:1045C800F0EE670A0BF080FC87ED080B4FF0000255
:1045D8004FF00003D7E90801FCF720FA0346002B47
:1045E8000ED03B6A3B607B6A83F000437B60D7E96F
:1045F8000001FCF779FA03469BB25B429BB205E0E7
:10460800D7E90801FCF770FA03469BB2FB830C4B11
:1046180003F5DC63D3E90023C7E90E2300237B639A
:1046280030E000BFAFF30080000000000000F04061
:10463800A8170020B0000020B01B0020080D0020A3
:10464800280600209000002030180020C80600200E
:104658007B6B0133304ADC33DB001344D3E900239E
:10466800C7E90823D7E90823D7E90E01FCF7F4F9CD
:104678000346002B03D0D7E90823C7E90E237B6B39
:1046880001337B637B6B172BE2DD97ED0E0B0BF091
:1046980097FBB0EE407AF0EE607A9FED1D1BB0EE0E
:1046A800470AF0EE670A0BF00FFC87ED080B4FF096
:1046B80000024FF00003D7E90801FCF7AFF9034601
:1046C800002B0CD03C6A7B6A83F0004520462946C3
:1046D800FCF70AFA03469BB25B429BB205E0D7E9B6
:1046E8000801FCF701FA03469BB2BB830B4AFB8B1C
:1046F800A2F87A30094ABB8BA2F8783000F038FB70
:1047080000F04CFC00BF4037BD46B0BDAFF30080A1
:10471800000000000000F04028060020A817002034
:1047280080B582B000AF00237B6011E0614B93F845
:104738008C10614A7B6813440A461A705D4BB3F8C3
:1047480078105E4A7B6822F813107B6801337B601F
:104758007B68072BEADD574B9B6E594A1360554B14
:10476800DB6E584A136000237B6017E0514BB3F8A7
:104778008610554A7B6822F813104E4BB3F8881000
:10478800524A7B6822F813104A4BB3F88A10504AF1
:104798007B6822F813107B6801337B607B68082BE9
:1047A800E4DD444B1B6F4B4A1360424B5B6F4A4A34
:1047B8001360404B1B6F474A53603E4B5B6F464A42
:1047C80053603C4B1B6F434A93603A4B5B6F424AC2
:1047D800936000F061FB374BB3F87A203F4BA3F8A6
:1047E8007420344BB3F87C203C4BA3F87620314B33
:1047F800B3F88020394BA3F878202E4BB3F88220E9
:10480800364BA3F87A202B4B93F88E20334B83F842
:104818008220324B00225A60304B00221A702F48F7
:10482800FEF754FA2E492F48FEF77FF92E492F48F4
:10483800FEF714F92E492F48FEF710F92E492F4894
:10484800FEF70CF92E492F48FEF708F92E492F4894
:10485800FEF704F92E492F48FEF767F92E492F482D
:10486800FEF7FCF82E492F48FEF7F8F82E492F4896
:10487800FEF7F4F8194B00229A63184B002283F8CC
:1048880034202B48FEF76AFA144B00229A64134B23
:10489800002283F844202748FEF7ACFA2649274827
:1048A800FEF7DCF826492748FEF7D8F800BF083796
:1048B800BD4680BD00000020C02100200406002065
:1048C80014060020C8210020CC210020F00500207B
:1048D800EC210020E021002018060020A817002065
:1048E800D0000020301F0020E8000020E020002039
:1048F800B8000020901C0020A8000020D01A00203A
:10490800A0000020F01900209800002010190020B5
:10491800D8000020981F0020E00000200020002080
:10492800C8000020501E0020C0000020701D00207C
:10493800DC170020EC170020B0000020B01B00207E
:10494800900000203018002080B582B000AF3D4BA9
:104958001B78002B13D13B4B01221A70394B5B6833
:10496800012B0CD1374B1B7A002B08D00423FB807A
:10497800344BDB68F98801221846FDF7A3FC314B5C
:1049880093F83430002B29D12E4B012283F83420A0
:104998002C4B9B6B012B21D12A4B93F83C30002BDD
:1049A8001CD0284B1B6C1846FEF716F8254B1B6CC1
:1049B80000211846FCF791FB02237B71214B1B6CED
:1049C8007A7911461846FCF773FC02237B711D4B5C
:1049D8001B6C7A7911461846FCF70AFD194B93F8B7
:1049E8004430002B29D1174B012283F84420154B62
:1049F8009B6C012B21D1134B93F84C30002B1CD00E
:104A0800104B1B6D1846FDF7E7FF0E4B1B6D002181
:104A18001846FCF762FB02237B710A4B1B6D7A79FF
:104A280011461846FCF788FD02237B71054B1B6D68
:104A38007A7911461846FCF7E7FD00BF0837BD46EE
:104A480080BD00BFA817002080B489B000AFF8600F
:104A5800B9607A60FB68BB610023FB61BB689B0897
:104A68007B611B4B1B68B3F5C87F2AD00023FB6111
:104A780022E0174B1B6817497A6841F82320FB6925
:104A88009B00BA691A44124B1B681268114903F556
:104A9800C87341F823200E4B1B680F4A12680D4952
:104AA80003F5487341F82320094B1B680133084A72
:104AB8001360FB690133FB61FA697B699A42D8D3B9
:104AC80000E000BF2437BD465DF8047B704700BF97
:104AD8000C030020082200200422002080B584B0A6
:104AE80000AF786072B600BF00F0A6FC0346FB601A
:104AF80007F10C037A6804211846FFF7A5FF62B690
:104B080000BF00BF1037BD4680BD000080B582B031
:104B180000AF344B1B785A1CD1B2324A1170002BAB
:104B280009D0314B01221A602E4B1B78013BDAB2B7
:104B38002C4B1A7053E03B1D1846FDF75BFF62B61D
:104B480000BF02200BF0A3F8FEF7A2F902200BF039
:104B5800A9F872B600BF234B1B78013BDAB2214B90
:104B68001A707B79002B11D0204B5B785A1CD1B27C
:104B78001E4A5170002B09D01B4B01221A601B4B97
:104B88005B78013BDAB2194B5A7028E0174B5B7817
:104B9800002B24D0134B5B78002B1FD1114B5B7873
:104BA8000133DAB20F4B5A7062B600BF03200BF024
:104BB8006EF8FFF7F9FB03200BF074F800BF72B62C
:104BC80000BF0A4B5B78013BDAB2084B5A70054BC1
:104BD8005B78013BDAB2034B5A7000E000BF08373C
:104BE800BD4680BD140300201003002018030020D8
:104BF80080B584B000AF78603960374BFB60374BC5
:104C0800BB60374B00221A70364B00221A7001DF46
:104C180006F026FB00F0E0FE00F02EFF00F08EFF0D
:104C280001F054FF01F072FB02F09EF901F0BEFFA3
:104C380002F04AFA01F00EFD02F00EFD02F066FCE9
:104C4800294B1B6800221A6001200BF020F8FFF79F
:104C580067FD01200BF026F872B600BF97ED030A36
:104C680000F08AFC204B1B681B68002B0CBF01233B
:104C78000023DBB21A461B4B1A7062B600BF62B63D
:104C880000BF15E0184B1B681B68002B14BF0123DD
:104C98000023DBB21A46124B1A70114B1B78DBB299
:104CA800002B05D0114B1B68104A23F00103136039
:104CB8000C4B1B78DBB2002BE4D104200AF0E7FF91
:104CC800FFF742FE04200AF0EDFF72B600BF002392
:104CD80018461037BD4680BD0AD7233C0000A042C5
:104CE800C834002000220020CC02010810E000E0B7
:104CF80080B485B000AF0346FB80B7F90630002BBF
:104D080002DBFB88FB8101E0FB88FB81B7F90E30F1
:104D180018461437BD465DF8047B704780B588B0E7
:104D280004AF03460A46FB711346BB71FB799BB27D
:104D38005B009BB2013399B2BB799AB24FF0FF3353
:104D480002930223019307F10C0300930123074800
:104D580006F078FE3B7B1B021AB27B7B1BB2134327
:104D68001BB29BB218461037BD4680BDFC340020EC
:104D780080B500AF3B216920FFF7D0FF03461846F6
:104D8800FFF7B6FF03461A4613469B0013445B0021
:104D980007EE903AB8EEE77ADFED3B6AC7EE267A7F
:104DA8003A4BC3ED007A3D216920FFF7B7FF034670
:104DB8001846FFF79DFF03461A4613469B00134407
:104DC8005B0007EE903AB8EEE77ADFED2F6AC7EEA0
:104DD800267A2E4BC3ED017A3F216920FFF79EFF0B
:104DE80003461846FFF784FF03461A4613469B00FE
:104DF80013445B0007EE903AB8EEE77ADFED226ADB
:104E0800C7EE267A214BC3ED027A43216920FFF7CA
:104E180085FF03461846FFF76BFF034607EE903AF7
:104E2800B8EEE77ADFED1A6AC7EE267A194BC3EDBA
:104E3800007A45216920FFF771FF03461846FFF7FE
:104E480057FF034607EE903AB8EEE77ADFED106AAF
:104E5800C7EE267A0F4BC3ED017A47216920FFF789
:104E68005DFF03461846FFF743FF034607EE903AF7
:104E7800B8EEE77ADFED066AC7EE267A054BC3ED92
:104E8800027A00BF80BD00BF00008046E0210020FC
:104E9800000003431806002080B586B004AF002345
:104EA800FB714FF0FF33029301230193FB1D009325
:104EB80001236B22D2211D4806F0B0FC4FF0FF33CE
:104EC8000293012301930723009301231922D2217E
:104ED800164806F0A3FC4FF0FF3302930123019319
:104EE8000023009301231C22D221104806F096FCCF
:104EF8004FF0FF3302930123019300230093012312
:104F08001B22D221094806F089FC4FF0FF33029397
:104F180001230193064B009301237522D3210348F3
:104F280006F090FD00BF0837BD4680BDFC34002068
:104F3800D234002080B582B000AF00237B600FE040
:104F48007B68432B08D07B68052B05D07B685BB258
:104F5800184607F0E5FA00E000BF7B6801337B6084
:104F68007B68EF2BECD900BF00BF0837BD4680BD7A
:104F780080B582B000AF00237B6007E07B685BB23E
:104F8800184607F0BFFA7B6801337B607B68EF2B1C
:104F9800F4D900BF00BF0837BD4680BD80B500AF5B
:104FA8004021B44806F092FB0346002B14BF0123AE
:104FB8000023DAB2B04B1A700421B04806F086FB21
:104FC8000346002B14BF01230023DAB2AA4B5A7000
:104FD8004FF40051AA4806F079FB0346002B14BF92
:104FE80001230023DAB2A74B1A704FF48041A4487A
:104FF80006F06CFB0346002B14BF01230023DAB232
:10500800A04B5A704FF400419D4806F05FFB0346E1
:10501800002B14BF01230023DAB29A4B9A704FF485
:105028008051964806F052FB0346002B14BF01231B
:105038000023DAB2944B1A704FF480718D4806F051
:1050480045FB0346002B14BF01230023DAB28E4B25
:105058005A704FF40071874806F038FB0346002B5E
:1050680014BF01230023DAB2874B9A704FF48051A2
:10507800804806F02BFB0346002B14BF01230023B6
:10508800DAB2814BDA704FF400617A4806F01EFB01
:105098000346002B14BF01230023DAB27A4B1A719E
:1050A8004FF48041734806F011FB0346002B14BFF0
:1050B80001230023DAB2744B5A714FF400416D4852
:1050C80006F004FB0346002B14BF01230023DAB2C9
:1050D8006D4B9A714FF40051664806F0F7FA034693
:1050E800002B14BF01230023DAB2674BDA71674B38
:1050F8005B6B9AB2664B1A80644B9B6B9AB2644B9B
:105108005A80624BDB6B9AB2624B1A805F4B1B6C06
:105118009AB2604B5A80FFF70DFF08E04FF4007118
:105128004FF0904006F0D2FA0346012B07D1032135
:10513800594803F0C1F80346002BEFD10AE000BF3D
:1051480008E04FF400714FF0904006F0BFFA0346B4
:10515800012B07D10221484803F0AEF80346002B83
:10516800EFD10AE000BF08E04FF400714FF0904023
:1051780006F0ACFA0346012B07D10321414803F09E
:105188009BF80346002BEFD10AE000BF08E04FF47C
:1051980000714FF0904006F099FA0346012B07D1B1
:1051A8000C213E4803F088F80346002BEFD10AE0B3
:1051B80000BF08E04FF400714FF0904006F086FA07
:1051C8000346012B07D10C21354803F075F8034637
:1051D800002BEFD10AE000BF08E04FF400714FF058
:1051E800904006F073FA0346012B07D112212D488F
:1051F80003F062F80346002BEFD10AE000BF08E095
:105208004FF400714FF0904006F060FA0346012B0E
:1052180007D11221244803F04FF80346002BEFD1A1
:105228000AE000BF08E04FF400714FF0904006F02C
:105238004DFA0346012B07D112211C4803F03CF814
:105248000346002BEFD10AE000BF08E04FF40071DD
:105258004FF0904006F03AFA0346012B07D1082197
:10526800094803F029F80346002BEFD129E000BFD5
:1052780027E000BF00100048DC340020000400488C
:1052880000080048E8340020E03400200004004012
:10529800200300201C03002070020108E0210020E8
:1052A80018060020CC210020F0050020EC21002069
:1052B8004FF400714FF0904006F008FA0346012BB6
:1052C80007D10421484802F0F7FF0346002BEFD12D
:1052D8000AE000BF08E04FF400714FF0904006F07C
:1052E800F5F90346012B07D10421404802F0E4FFF9
:1052F8000346002BEFD10AE000BF08E04FF400712D
:105308004FF0904006F0E2F90346012B07D1042143
:10531800374802F0D1FF0346002BEFD10AE000BF67
:1053280008E04FF400714FF0904006F0CFF90346C3
:10533800012B07D108212F4802F0BEFF0346002B9E
:10534800EFD10AE000BF08E04FF400714FF0904041
:1053580006F0BCF90346012B07D11021264802F0BC
:10536800ABFF0346002BEFD10AE000BF08E04FF483
:1053780000714FF0904006F0A9F90346012B07D1C0
:1053880004211E4802F098FF0346002BEFD10AE0E3
:1053980000BF08E04FF400714FF0904006F096F916
:1053A8000346012B07D10421154802F085FF034667
:1053B800002BEFD10AE000BF08E04FF400714FF076
:1053C800904006F083F90346012B07D104210D48CC
:1053D80002F072FF0346002BEFD100E000BFFFF799
:1053E800C7FD00BF80BD00BFEC3400201C030020B7
:1053F80020030020C021002004060020C82100202E
:10540800140600207402010880B584B000AF7860EB
:1054180005F052FFF8607B68BB6000BF05F04CFFE9
:105428000246FB68D31ABA689A42F7D800BF00BF91
:105438001037BD4680BD000010B50E4C82B0636ABF
:10544800019305F039FF0090626A019B9A4207D3E5
:105458000098019B4FF47A7202FB003002B010BD35
:1054680005F02AFF636A4FF47A7202FB003002B03B
:1054780010BD00BF002C014080B483B000AF0346CC
:105488003960FB7197F90730002B0ADB3B68DAB209
:105498000C4997F907301201D2B20B4483F8002364
:1054A8000AE03B68DAB20849FB7903F00F03043BD2
:1054B8001201D2B20B441A7600BF0C37BD465DF814
:1054C800047B704700E100E000ED00E080B582B0A9
:1054D80000AF78607B68013BB3F1807F01D3012383
:1054E8000FE00A4A7B68013B53600F214FF0FF3001
:1054F800FFF7C2FF054B00229A60044B07221A608F
:10550800002318460837BD4680BD00BF10E000E004
:1055180080B500AFBFF34F8F00BFBFF36F8F00BFE1
:105528000B4B1A680B4B1B689A4202D3084B00229C
:105538001A60074B1B685A1C05490A60002B05D1E5
:1055480072B600BFFFF7E2FA62B600BF00BF80BDC7
:10555800F4340020F034002080B400AF054B5B68C1
:10556800044A43F08053536000BFBD465DF8047B96
:10557800704700BF00ED00E080B584B000AF87ED54
:10558800010A234B1B6807EE903AB8EE677AD7ED0D
:10559800017A67EE277AFCEEE77A17EE903AFB601D
:1055A800FB68B3F1807F18D3FB6807EE903AB8EE3A
:1055B800677ADFED186AC7EE267AFCEEE77A17EE0F
:1055C800903A0133144A1360134B1B68FA68B2FB14
:1055D800F3F31846FFF77AFF05E00F4B00221A6035
:1055E800F868FFF773FF0D4B00221A600C4A0D4B49
:1055F8001A600F216FF00400FFF73EFF0F216FF0D4
:105608000100FFF739FF00BF1037BD4680BD00BF5E
:105618007C020020FFFF7F4BF0340020F434002090
:1056280019550008F8340020EFF3008001B5EFF3B6
:10563800118003B41EF0100F08BFB0EE400A0A48EC
:10564800006803B488B004A006904FF080700790FB
:105658006FF006008646704703BC8047BFF36F8F24
:1056680000DFFEE700BF0000F83400201EF0100F36
:1056780008BFB0EE400A1EF0040F0CBFEFF308801D
:10568800EFF30980816911F8020C10B101280DD0DF
:105698000BE01EF0100F0CBF1AB008B003BC80F36B
:1056A800118803BC80F300880847FEE74EF61451C2
:1056B800CEF200010A6842F001020A607047F4E77E
:1056C80000BF00BF80B400AF054B1B68044A43F419
:1056D8000023136000BFBD465DF8047B704700BF20
:1056E8000010024080B400AF054B1B68044A43F425
:1056F8008033136000BFBD465DF8047B704700BF70
:105708000010024080B400AF074B1B6803F400335D
:10571800B3F5003F01D1012300E000231846BD4640
:105728005DF8047B704700BF0010024080B483B06E
:1057380000AF7860064B9B6823F0030204497B683E
:1057480013438B6000BF0C37BD465DF8047B704780
:105758000010024080B400AF044B9B6803F00C03B8
:105768001846BD465DF8047B704700BF0010024034
:1057780080B483B000AF7860064B9B6823F0F002DA
:1057880004497B6813438B6000BF0C37BD465DF846
:10579800047B70470010024080B483B000AF78608B
:1057A800064B9B6823F4E06204497B6813438B60D3
:1057B80000BF0C37BD465DF8047B704700100240FF
:1057C80080B483B000AF7860064B9B6823F46052C6
:1057D80004497B6813438B6000BF0C37BD465DF8F6
:1057E800047B70470010024080B400AF054B1B6873
:1057F800044A43F08073136000BFBD465DF8047B24
:10580800704700BF0010024080B400AF074B1B6810
:1058180003F00073B3F1007F01D1012300E00023FE
:105828001846BD465DF8047B704700BF0010024073
:1058380080B485B000AFF860B9607A603B600A4B0D
:10584800DA680A4B1340F968BA6811437A68120299
:1058580011433A680A4304491343CB6000BF143725
:10586800BD465DF8047B7047001002408C80FFF94C
:1058780080B400AF054BDB68044A43F08073D36003
:1058880000BFBD465DF8047B704700BF00100240B2
:1058980080B400AF054B1B68044A43F08063136073
:1058A80000BFBD465DF8047B704700BF0010024092
:1058B80080B400AF074B1B6803F00063B3F1006FBF
:1058C80001D1012300E000231846BD465DF8047BA2
:1058D800704700BF0010024080B485B000AFF86088
:1058E800B9607A603B600E4BDB6823F07302F9689D
:1058F800BB680B430A491343CB60094B1B6923F46C
:10590800C00323F4FE437A6811023A680A43044943
:1059180013430B6100BF1437BD465DF8047B704725
:105928000010024080B400AF054B1B69044A43F4E1
:105938008013136100BFBD465DF8047B704700BF4C
:105948000010024080B483B000AF7860064B1B683B
:1059580023F0070204497B6813430B6000BF0C3730
:10596800BD465DF8047B70470020024080B400AF5C
:10597800044B1B6803F007031846BD465DF8047B1B
:10598800704700BF0020024080B483B000AF786049
:10599800064B1B6823F4C06204497B6813430B6001
:1059A80000BF0C37BD465DF8047B704700700040AF
:1059B80080B400AF074B5B6903F48063B3F5806F75
:1059C80001D1012300E000231846BD465DF8047BA1
:1059D800704700BF0070004080B500AF0420FFF79B
:1059E800B1FF00BFFFF7C2FF0346042BFAD14FF403
:1059F8000070FFF7C9FF00BFFFF7DAFF0346002B6F
:105A0800FAD1FFF76FFE00BFFFF77CFE0346012BBC
:105A1800FAD1FFF757FE0023142200210320FFF7D5
:105A280007FFFFF725FFFFF7DFFE00BFFFF7ECFEDC
:105A38000346012BFAD10320FFF778FE00BFFFF7DA
:105A480089FE03460C2BFAD10020FFF791FE0020B7
:105A5800FFF7A2FE0020FFF7B3FE064802F03CFD68
:105A68000F2002F0CBFC0346002B01D000F02CF8ED
:105A780000BF80BD00B4C40480B500AF00230C2271
:105A880000210320FFF728FFFFF74CFFFFF700FF77
:105A980000BFFFF70DFF0346012BFAD100BF00BF7F
:105AA80080BD000080B582B000AF78607B681B685D
:105AB800044A934201D105F0EBFB00BF0837BD460D
:105AC80080BD00BF002C014080B400AF72B600BF9B
