:020000040800F2
:1000000000800120CD42010823CA000829CA000847
:100010002FCA000835CA00083BCA000800000000CB
:10002000000000000000000000000000699D0008C2
:1000300041CA000800000000259D0008559C0008EA
:100040001D4301081D4301081D4301081D4301080C
:100050001D4301081D4301081D4301081D430108FC
:100060001D4301081D4301081D4301084FCA000834
:10007000212000081D4301081D4301081D430108FC
:100080005DCA00086BCA000879CA00081D43010850
:100090001D4301081D4301081D4301081D430108BC
:1000A0001D43010889CA00081D4301081D430108BA
:1000B0001D4301081D4301081D4301081D4301089C
:1000C0001D4301081D4301081D4301081D4301088C
:1000D0001D4301081D4301081D4301081D4301087C
:1000E0001D4301081D4301081D4301081D4301086C
:1000F0001D4301081D4301081D4301081D4301085C
:100100001D4301081D4301081D4301081D4301084B
:100110001D4301081D4301081D4301081D4301083B
:100120001D4301081D4301081D4301081D4301082B
:100130001D4301081D4301081D4301081D4301081B
:100140001D4301081D4301081D4301089DCA000805
:100150001D4301081D4301081D4301081D430108FB
:100160001D4301081D4301081D4301081D430108EB
:100170001D4301081D4301081D4301080000000044
:080180001D4301081D430108A5
:1001880010B5054C237833B9044B13B10448AFF3C9
:1001980000800123237010BD300300200000000000
:1001A8004849010808B5034B1BB103490348AFF39D
:1001B800008008BD00000000340300204849010801
:1001C80081F0004102E000BF83F0004330B54FEA00
:1001D80041044FEA430594EA050F08BF90EA020F6D
:1001E8001FBF54EA000C55EA020C7FEA645C7FEA00
:1001F800655C00F0E2804FEA5454D4EB5555B8BF23
:100208006D420CDD2C4480EA020281EA030382EA93
:10021800000083EA010180EA020281EA0303362D25
:1002280088BF30BD11F0004F4FEA01314FF4801CF8
:100238004CEA113102D0404261EB410113F0004F0A
:100248004FEA03334CEA133302D0524263EB4303C1
:1002580094EA050F00F0A780A4F10104D5F1200E5F
:100268000DDB02FA0EFC22FA05F2801841F10001BA
:1002780003FA0EF2801843FA05F359410EE0A5F18E
:1002880020050EF1200E012A03FA0EFC28BF4CF0BF
:10029800020C43FA05F3C01851EBE37101F0004575
:1002A80007D54FF0000EDCF1000C7EEB00006EEB82
:1002B8000101B1F5801F1BD3B1F5001F0CD349080C
:1002C8005FEA30004FEA3C0C04F101044FEA445263
:1002D80012F5800F80F09A80BCF1004F08BF5FEAEA
:1002E800500C50F1000041EB045141EA050130BDCA
:1002F8005FEA4C0C404141EB0101013C28BFB1F5DC
:10030800801FE9D291F0000F04BF01460020B1FA26
:1003180081F308BF2033A3F10B03B3F120020CDAF9
:100328000C3208DD02F1140CC2F10C0201FA0CF0D7
:1003380021FA02F10CE002F11402D8BFC2F1200C3C
:1003480001FA02F120FA0CFCDCBF41EA0C019040F2
:10035800E41AA2BF01EB0451294330BD6FEA04043B
:100368001F3C1CDA0C340EDC04F11404C4F1200226
:1003780020FA04F001FA02F340EA030021FA04F338
:1003880045EA030130BDC4F10C04C4F1200220FA8F
:1003980002F001FA04F340EA0300294630BD21FACD
:1003A80004F0294630BD94F0000F83F4801306BF93
:1003B80081F480110134013D4EE77FEA645C18BF87
:1003C8007FEA655C29D094EA050F08BF90EA020F1E
:1003D80005D054EA000C04BF1946104630BD91EA16
:1003E800030F1EBF0021002030BD5FEA545C05D119
:1003F8004000494128BF41F0004130BD14F5800458
:100408003CBF01F5801130BD01F0004545F0FE41CB
:1004180041F470014FF0000030BD7FEA645C1ABF00
:10042800194610467FEA655C1CBF0B46024650EA37
:10043800013406BF52EA033591EA030F41F4002163
:1004480030BD00BF90F0000F04BF0021704730B5E9
:100458004FF4806404F132044FF000054FF00001BE
:1004680050E700BF90F0000F04BF0021704730B57F
:100478004FF4806404F1320410F0004548BF404254
:100488004FF000013EE700BF42004FEAE2014FEAA9
:1004980031014FEA02701FBF12F07F4393F07F4F84
:1004A80081F06051704732F07F4208BF704793F087
:1004B8007F4F04BF41F40021704730B54FF460749A
:1004C80001F0004521F000411CE700BF50EA01029D
:1004D80008BF704730B54FF000050AE050EA010246
:1004E80008BF704730B511F0004502D5404261EBB6
:1004F80041014FF4806404F132045FEA915C3FF4F7
:10050800D8AE4FF003025FEADC0C18BF03325FEA93
:10051800DC0C18BF033202EBDC02C2F1200300FA44
:1005280003FC20FA02F001FA03FE40EA0E0021FA69
:1005380002F11444BDE600BF70B54FF0FF0C4CF457
:10054800E06C1CEA11541DBF1CEA135594EA0C0F09
:1005580095EA0C0F00F0DEF82C4481EA030621EA44
:100568004C5123EA4C5350EA013518BF52EA03357F
:1005780041F4801143F4801338D0A0FB02CE4FF031
:100588000005E1FB02E506F00042E0FB03E54FF061
:100598000006E1FB03569CF0000F18BF4EF0010E59
:1005A800A4F1FF04B6F5007F64F5407404D25FEA55
:1005B8004E0E6D4146EB060642EAC62141EA555108
:1005C8004FEAC52040EA5E504FEACE2EB4F1FD0C4A
:1005D80088BFBCF5E06F1ED8BEF1004F08BF5FEAC8
:1005E800500E50F1000041EB045170BD06F000467A
:1005F80046EA010140EA020081EA0301B4EB5C0427
:10060800C2BFD4EB0C0541EA045170BD41F480111E
:100618004FF0000E013C00F3AB8014F1360FDEBF43
:10062800002001F0004170BDC4F10004203C35DA1F
:100638000C341BDC04F11404C4F1200500FA05F3A2
:1006480020FA04F001FA05F240EA020001F0004243
:1006580021F0004110EBD37021FA04F642EB0601B9
:100668005EEA430E08BF20EAD37070BDC4F10C04E3
:10067800C4F1200500FA04F320FA05F001FA04F2A7
:1006880040EA020001F0004110EBD37041F1000193
:100698005EEA430E08BF20EAD37070BDC4F120059E
:1006A80000FA05F24EEA020E20FA04F301FA05F206
:1006B80043EA020321FA04F001F0004121FA04F2AE
:1006C80020EA020000EBD3705EEA430E08BF20EA7E
:1006D800D37070BD94F0000F0FD101F000464000B8
:1006E80041EB010111F4801F08BF013CF7D041EA3A
:1006F800060195F0000F18BF704703F0004652003E
:1007080043EB030313F4801F08BF013DF7D043EA0E
:100718000603704794EA0C0F0CEA135518BF95EAC4
:100728000C0F0CD050EA410618BF52EA4306D1D14B
:1007380081EA030101F000414FF0000070BD50EA6A
:10074800410606BF1046194652EA430619D094EAF4
:100758000C0F02D150EA013613D195EA0C0F05D1DE
:1007680052EA03361CBF104619460AD181EA030132
:1007780001F0004141F0FE4141F470014FF00000EA
:1007880070BD41F0FE4141F4780170BD70B54FF085
:10079800FF0C4CF4E06C1CEA11541DBF1CEA135505
:1007A80094EA0C0F95EA0C0F00F0A7F8A4EB0504E7
:1007B80081EA030E52EA03354FEA013100F08880DE
:1007C8004FEA03334FF0805545EA131343EA1263A7
:1007D8004FEA022245EA111545EA10654FEA00265C
:1007E8000EF000419D4208BF964244F1FD0404F515
:1007F800407402D25B084FEA3202B61A65EB030571
:100808005B084FEA32024FF480104FF4002CB6EB2D
:10081800020E75EB030E22BFB61A754640EA0C00AD
:100828005B084FEA3202B6EB020E75EB030E22BFED
:10083800B61A754640EA5C005B084FEA3202B6EB2E
:10084800020E75EB030E22BFB61A754640EA9C00ED
:100858005B084FEA3202B6EB020E75EB030E22BFBD
:10086800B61A754640EADC0055EA060E18D04FEA7B
:10087800051545EA16754FEA06164FEAC30343EA1B
:1008880052734FEAC2025FEA1C1CC0D111F4801FE8
:100898000BD141EA00014FF000004FF0004CB6E7E1
:1008A80011F4801F04BF01430020B4F1FD0C88BF80
:1008B800BCF5E06F3FF6AFAEB5EB030C04BFB6EB8B
:1008C800020C5FEA500C50F1000041EB045170BD7E
:1008D8000EF0004E4EEA113114EB5C04C2BFD4EBAB
:1008E8000C0541EA045170BD41F480114FF0000E2F
:1008F800013C90E645EA060E8DE60CEA135594EAAB
:100908000C0F08BF95EA0C0F3FF43BAF94EA0C0FAD
:100918000AD150EA01347FF434AF95EA0C0F7FF422
:1009280025AF104619462CE795EA0C0F06D152EA76
:1009380003353FF4FDAE1046194622E750EA41065A
:1009480018BF52EA43067FF4C5AE50EA41047FF46B
:100958000DAF52EA43057FF4EBAE12E74FF0FF3CD0
:1009680006E000BF4FF0010C02E000BF4FF0010CA1
:100978004DF804CD4FEA410C7FEA6C5C4FEA430C1A
:1009880018BF7FEA6C5C1BD001B050EA410C0CBF69
:1009980052EA430C91EA030F02BF90EA020F0020CB
:1009A800704710F1000F91EA030F58BF994208BF32
:1009B80090422CBFD8176FEAE37040F001007047EF
:1009C8004FEA410C7FEA6C5C02D150EA013C07D146
:1009D8004FEA430C7FEA6C5CD6D152EA033CD3D091
:1009E8005DF8040B704700BF8446104662468C468B
:1009F8001946634600E000BF01B5FFF7B7FF0028BE
:100A080048BF10F1000F01BD4DF808EDFFF7F4FFE6
:100A18000CBF012000205DF808FB00BF4DF808ED71
:100A2800FFF7EAFF34BF012000205DF808FB00BF94
:100A38004DF808EDFFF7E0FF94BF012000205DF8B6
:100A480008FB00BF4DF808EDFFF7CEFF94BF01206B
:100A580000205DF808FB00BF4DF808EDFFF7C4FF64
:100A680034BF012000205DF808FB00BF4FEA410CAD
:100A78007FEA6C5C02D150EA013C0AD14FEA430C90
:100A88007FEA6C5C02D152EA033C02D14FF00000CD
:100A980070474FF0010070474FEA410212F500120B
:100AA80015D211D56FF47873B3EB625212D94FEAAD
:100AB800C12343F0004343EA505311F0004F23FA97
:100AC80002F018BF404270474FF00000704750EAEC
:100AD800013005D111F0004008BF6FF000407047A9
:100AE8004FF00000704700BF4A0011D212F5001203
:100AF80011D20DD56FF47873B3EB62520ED44FEA6E
:100B0800C12343F0004343EA505323FA02F07047ED
:100B18004FF00000704750EA013002D14FF0FF302B
:100B280070474FF0000070474FEA4102B2F1E043CE
:100B380024BFB3F5001CDCF1FE5C0DD901F0004CBC
:100B48004FEAC0024CEA5070B2F1004F40EB83000C
:100B580008BF20F00100704711F0804F21D113F138
:100B68003872BCBF01F00040704741F480114FEA71
:100B78005252C2F11802C2F1200C10FA0CF320FAFA
:100B880002F018BF40F001004FEAC1234FEAD32317
:100B980003FA0CFC40EA0C0023FA02F34FEA430381
:100BA800CCE77FEA625307D150EA01331EBF4FF00A
:100BB800FE4040F44000704701F0004040F0FE4025
:100BC80040F40000704700BF80B485B000AF786083
:100BD8007B681B6803F06003FB60FB68002B04D193
:100BE8007B681B6803F01003FB60FB68184614372A
:100BF800BD465DF8047B704780B483B000AF786071
:100C08007B681B6B18460C37BD465DF8047B704744
:100C180080B483B000AF786039607B681A6A3B683B
:100C28001A437B681A6200BF0C37BD465DF8047B27
:100C3800704780B483B000AF786039607B681A6A07
:100C48003B68DB431A407B681A6200BF0C37BD461D
:100C58005DF8047B704780B483B000AF78607B6830
:100C68005B6C43F400427B685A6400BF0C37BD4696
:100C78005DF8047B704780B483B000AF78607B6810
:100C8800DB6843F001027B68DA6000BF0C37BD46C1
:100C98005DF8047B704780B483B000AF78607B68F0
:100CA800DB6823F001027B68DA6000BF0C37BD46C1
:100CB8005DF8047B704780B483B000AF78607B68D0
:100CC800DB6803F00103012B01D1012300E00023BD
:100CD80018460C37BD465DF8047B704780B483B076
:100CE80000AF78607B68DB6843F002027B68DA60FB
:100CF80000BF0C37BD465DF8047B704780B483B0F5
:100D080000AF78607B68DB6823F002027B68DA60FA
:100D180000BF0C37BD465DF8047B704780B483B0D4
:100D280000AF78607B68DB6803F00203022B01D117
:100D3800012300E0002318460C37BD465DF8047B0C
:100D4800704780B483B000AF78607B68DB6843F09D
:100D580004027B68DA6000BF0C37BD465DF8047B8F
:100D6800704780B483B000AF78607B68DB6823F09D
:100D780004027B68DA6000BF0C37BD465DF8047B6F
:100D8800704780B483B000AF78607B68DB6803F09D
:100D98000403042B01D1012300E0002318460C377B
:100DA800BD465DF8047B704780B483B000AF7860BF
:100DB8007B68DB6843F008027B68DA6000BF0C37A9
:100DC800BD465DF8047B704780B483B000AF78609F
:100DD8007B68DB6823F008027B68DA6000BF0C37A9
:100DE800BD465DF8047B704780B483B000AF78607F
:100DF8007B68DB6803F00803082B01D1012300E0BE
:100E0800002318460C37BD465DF8047B704780B454
:100E180083B000AF78607B68DB6843F010027B68C2
:100E2800DA6000BF0C37BD465DF8047B704780B4BC
:100E380083B000AF78607B68DB6823F010027B68C2
:100E4800DA6000BF0C37BD465DF8047B704780B49C
:100E580083B000AF78607B68DB6803F01003102B69
:100E680001D1012300E0002318460C37BD465DF888
:100E7800047B704780B483B000AF78607B68DB6820
:100E880043F020027B68DA6000BF0C37BD465DF88E
:100E9800047B704780B483B000AF78607B68DB6800
:100EA80023F020027B68DA6000BF0C37BD465DF88E
:100EB800047B704780B483B000AF78607B68DB68E0
:100EC80003F02003202B01D1012300E00023184662
:100ED8000C37BD465DF8047B704780B483B000AF23
:100EE80078607B68DB6843F040027B68DA6000BFAB
:100EF8000C37BD465DF8047B704780B483B000AF03
:100F080078607B68DB6823F040027B68DA6000BFAA
:100F18000C37BD465DF8047B704780B483B000AFE2
:100F280078607B68DB6803F04003402B01D1012324
:100F380000E0002318460C37BD465DF8047B704777
:100F480080B483B000AF78607B68DB6843F08002D0
:100F58007B68DA6000BF0C37BD465DF8047B7047DC
:100F680080B483B000AF78607B68DB6823F08002D0
:100F78007B68DA6000BF0C37BD465DF8047B7047BC
:100F880080B483B000AF78607B68DB6803F08003CF
:100F9800802B01D1012300E0002318460C37BD4601
:100FA8005DF8047B704780B582B000AF78600B466F
:100FB8007B807B8803F00103002B0CD07B681B68C7
:100FC8001846FFF7AAFF0346012B04D07B681B686D
:100FD8001846FFF782FF7B8803F00203002B0CD032
:100FE8007B681B681846FFF799FE0346012B04D05F
:100FF8007B681B681846FFF771FE7B8803F00403C3
:10100800002B0CD07B681B681846FFF7BAFE034616
:10101800012B04D07B681B681846FFF792FE7B887B
:1010280003F00803002B0CD07B681B681846FFF7F9
:10103800DBFE0346012B04D07B681B681846FFF7CC
:10104800B3FE7B8803F01003002B0CD07B681B6871
:101058001846FFF7FCFE0346012B04D07B681B688B
:101068001846FFF7D4FE7B8803F02003002B0CD032
:101078007B681B681846FFF71EFE0346012B04D049
:101088007B681B681846FFF7F6FD7B8803F0400372
:10109800002B0CD07B681B681846FFF771FF0346CE
:1010A800012B04D07B681B681846FFF749FF7B8833
:1010B80003F08003002B0CD07B681B681846FFF7F1
:1010C800F9FE0346012B04D07B681B681846FFF71E
:1010D800D1FE00BF0837BD4680BD80B582B000AFE5
:1010E80078600B467B807B8803F00103002B0CD0D3
:1010F8007B681B681846FFF710FF0346012B04D1D5
:101108007B681B681846FFF7F8FE7B8803F002032C
:10111800002B0CD07B681B681846FFF7FFFD0346C1
:10112800012B04D17B681B681846FFF7E7FD7B8815
:1011380003F00403002B0CD07B681B681846FFF7EC
:1011480020FE0346012B04D17B681B681846FFF775
:1011580008FE7B8803F00803002B0CD07B681B6813
:101168001846FFF741FE0346012B04D17B681B6834
:101178001846FFF729FE7B8803F01003002B0CD0DC
:101188007B681B681846FFF762FE0346012B04D1F3
:101198007B681B681846FFF74AFE7B8803F020032C
:1011A800002B0CD07B681B681846FFF784FD0346AC
:1011B800012B04D07B681B681846FFF76CFD7B8801
:1011C80003F04003002B0CD07B681B681846FFF720
:1011D800D7FE0346012B04D17B681B681846FFF72E
:1011E800BFFE7B8803F08003002B0CD07B681B6854
:1011F8001846FFF75FFE0346012B04D17B681B6886
:101208001846FFF747FE00BF0837BD4680BD0000FF
:1012180080B582B000AF78600B46FB70FB78022B7C
:1012280006D17B681B6801211846FFF7F1FC31E005
:101238007B681B68194A934213D07B681B68184A5D
:1012480093420ED07B681B68164A934209D07B688C
:101258001B68154A934204D07B681B68134A934263
:1012680018D1FB78032B06D17B681B68042118462C
:10127800FFF7CEFC0EE0FB78042B0BD17B681B68D4
:1012880001211846FFF7C4FC7B681B680421184637
:10129800FFF7BEFC00BF0837BD4680BD002C0140EB
:1012A8000034014000400140004401400048014032
:1012B80080B582B000AF78600B46FB70FB78022BDC
:1012C80006D17B681B6801211846FFF7B2FC31E0A4
:1012D8007B681B68194A934213D07B681B68184ABD
:1012E80093420ED07B681B68164A934209D07B68EC
:1012F8001B68154A934204D07B681B68134A9342C3
:1013080018D1FB78032B06D17B681B68042118468B
:10131800FFF78FFC0EE0FB78042B0BD17B681B6872
:1013280001211846FFF785FC7B681B6804211846D5
:10133800FFF77FFC00BF0837BD4680BD002C014089
:101348000034014000400140004401400048014091
:1013580080B582B000AF78600B46FB70FB78022B3B
:1013680006D17B681B6810211846FFF751FC31E055
:101378007B681B68194A934213D07B681B68184A1C
:1013880093420ED07B681B68164A934209D07B684B
:101398001B68154A934204D07B681B68134A934222
:1013A80018D1FB78032B06D17B681B6840211846AF
:1013B800FFF72EFC0EE0FB78042B0BD17B681B6833
:1013C80010211846FFF724FC7B681B68402118464B
:1013D800FFF71EFC00BF0837BD4680BD002C01404A
:1013E80000340140004001400044014000480140F1
:1013F80080B582B000AF78600B46FB70FB78022B9B
:1014080006D17B681B6810211846FFF712FC31E0F3
:101418007B681B68194A934213D07B681B68184A7B
:1014280093420ED07B681B68164A934209D07B68AA
:101438001B68154A934204D07B681B68134A934281
:1014480018D1FB78032B06D17B681B68402118460E
:10145800FFF7EFFB0EE0FB78042B0BD17B681B68D2
:1014680010211846FFF7E5FB7B681B6840211846EA
:10147800FFF7DFFB00BF0837BD4680BD002C0140E9
:101488000034014000400140004401400048014050
:1014980080B582B000AF78600B46FB70FB78022BFA
:1014A80007D17B681B684FF480711846FFF7B0FBC3
:1014B80034E07B681B681B4A934213D07B681B6827
:1014C800194A93420ED07B681B68184A934209D088
:1014D8007B681B68164A934204D07B681B68154AD0
:1014E80093421BD1FB78032B07D17B681B684FF411
:1014F80080611846FFF78CFB10E0FB78042B0DD1B8
:101508007B681B684FF480711846FFF781FB7B6886
:101518001B684FF480611846FFF77AFB00BF083755
:10152800BD4680BD002C0140003401400040014010
:10153800004401400048014080B582B000AF7860A7
:101548000B46FB70FB78022B07D17B681B684FF4B6
:1015580080711846FFF76DFB34E07B681B681B4AF7
:10156800934213D07B681B68194A93420ED07B685C
:101578001B68184A934209D07B681B68164A934235
:1015880004D07B681B68154A93421BD1FB78032B58
:1015980007D17B681B684FF480611846FFF749FB49
:1015A80010E0FB78042B0DD17B681B684FF4807129
:1015B8001846FFF73EFB7B681B684FF480611846AE
:1015C800FFF737FB00BF0837BD4680BD002C014040
:1015D80000340140004001400044014000480140FF
:1015E80080B582B000AF78600B46FB70FB78022BA9
:1015F80006D17B681B684FF480511846FFF708FB3B
:1016080000BF0837BD4680BD80B582B000AF7860A6
:101618000B46FB70FB78022B06D17B681B684FF4E6
:1016280080511846FFF705FB00BF0837BD4680BD4F
:1016380080B584B000AF78600023FB607B681B68CE
:10164800304A934201D1304BFB607B681A68FB68D3
:101658001A60FB681B681846FFF7B6FAB860BB68E3
:10166800002B06D0BB68102B03D0FB6801221A712F
:1016780002E0FB6800221A71FB681B68234A934248
:1016880013D0FB681B68224A93420ED0FB681B6884
:10169800204A934209D0FB681B681F4A934204D032
:1016A800FB681B681D4A934204D1FB681B681846F7
:1016B800FFF7D1FAFB681B68144A934213D0FB6802
:1016C8001B68134A93420ED0FB681B68114A934269
:1016D80009D0FB681B68104A934204D0FB681B685A
:1016E8000E4A934208D17B681B681846FFF784FAB4
:1016F8000346DAB2FB685A71FB6818461037BD46D4
:1017080080BD00BF0004004090050020002C01406F
:1017180000340140004001400044014000480140BD
:1017280080B485B000AF786039603B68002B03D186
:101738007B684033FB6001E0044BFB60FB681846A4
:101748001437BD465DF8047B704700BF0C03045096
:1017580080B483B000AF78607B68DB6803F44063D3
:10176800002B01D1012300E0002318460C37BD46A9
:101778005DF8047B704780B483B000AF786039604F
:101788007B681B6B23F00F023B681A437B681A6364
:1017980000BF0C37BD465DF8047B704780B483B04A
:1017A80000AF786039607B68DB6823F003023B6830
:1017B8001A437B68DA6000BF0C37BD465DF8047BCE
:1017C800704780B483B000AF78607B68DB6C03F04F
:1017D800C003002B01D1012300E0002318460C3779
:1017E800BD465DF8047B704780B483B000AF786075
:1017F8007B689B6823F0004323F03F0343F001021A
:101808007B689A6000BF0C37BD465DF8047B704763
:1018180080B483B000AF78607B689B6823F0004396
:1018280023F03F0343F002027B689A6000BF0C3745
:10183800BD465DF8047B704780B483B000AF786024
:101848007B689B6803F00103012B01D1012300E0B1
:10185800002318460C37BD465DF8047B704780B4FA
:1018680083B000AF786039607B689B6823F04043A1
:1018780023F03F033A6802F08042134343F00042EA
:101888007B689A6000BF0C37BD465DF8047B7047E3
:1018980080B483B000AF78607B689B6803F0004336
:1018A800B3F1004F01D1012300E0002318460C37A3
:1018B800BD465DF8047B704780B483B000AF7860A4
:1018C8007B689B6823F0004323F03F0343F0040246
:1018D8007B689A6000BF0C37BD465DF8047B704793
:1018E80080B483B000AF78607B689B6823F00043C6
:1018F80023F03F0343F008027B689A6000BF0C376F
:10190800BD465DF8047B704780B483B000AF786053
:101918007B681B6803F00803082B01D1012300E052
:10192800002318460C37BD465DF8047B704780B429
:1019380083B000AF78607B681B6803F01003102B3E
:1019480001D1012300E0002318460C37BD465DF89D
:10195800047B704780B483B000AF78607B68102246
:101968001A6000BF0C37BD465DF8047B704780B431
:1019780083B000AF78607B685B6843F008027B68DF
:101988005A6000BF0C37BD465DF8047B704780B4D1
:1019980083B000AF78607B685B6843F040027B6887
:1019A8005A6000BF0C37BD465DF8047B704780B4B1
:1019B80083B000AF78607B685B6823F008027B68BF
:1019C8005A6000BF0C37BD465DF8047B704780B491
:1019D80083B000AF78607B685B6823F010027B6897
:1019E8005A6000BF0C37BD465DF8047B704780B471
:1019F80083B000AF78607B685B6823F040027B6847
:101A08005A6000BF0C37BD465DF8047B704780B450
:101A180083B000AF78607B685B6823F080027B68E6
:101A28005A6000BF0C37BD465DF8047B704780B430
:101A380083B000AF78607B685B6803F01003102BFD
:101A480001D1012300E0002318460C37BD465DF89C
:101A5800047B704780B483B000AF78607B685B68B4
:101A680003F08003802B01D1012300E000231846F6
:101A78000C37BD465DF8047B7047000080B485B024
:101A880000AF786039607B68FB600C4A3B681344A0
:101A98001B781A46FB6813441B6808493A680A44CD
:101AA80012781146FA680A4443F00103136000BF34
:101AB8001437BD465DF8047B704700BFB449010880
:101AC80080B485B000AF786039607B68FB600C4AF1
:101AD8003B6813441B781A46FB6813441B68084983
:101AE8003A680A4412781146FA680A4423F0010356
:101AF800136000BF1437BD465DF8047B704700BF14
:101B0800B449010880B485B000AF786039607B685B
:101B1800FB60084A3B6813441B781A46FB68134469
:101B28001B6803F0200318461437BD465DF8047B94
:101B3800704700BFB449010880B487B000AFF860AF
:101B4800B9607A60FB687B610D4ABB6813441B78F7
:101B58001A467B6913445B681B0C1B040849BA6866
:101B68000A44127811467A690A4411467A6813437E
:101B78004B6000BF1C37BD465DF8047B704700BF53
:101B8800B449010880B487B000AFF860B9607A60E2
:101B98003B60FB687B613B6A102B14D1174ABB681A
:101BA80013441B781A467B6913441A467B68D36032
:101BB800124ABB6813441B781A467B6913441A46B9
:101BC8003B68936013E00D4ABB6813441B781A46C0
:101BD8007B6913441A467B689360084ABB681344C0
:101BE8001B781A467B6913441A463B68D36000BFCA
:101BF8001C37BD465DF8047B704700BFB449010837
:101C080080B487B000AFF860B9607A60FB687B6128
:101C1800074ABB6813441B781A467B6913441A4663
:101C28007B68936000BF1C37BD465DF8047B704736
:101C3800B449010880B483B000AF78607B681B6842
:101C480003F02003202B01D1012300E000231846D4
:101C58000C37BD465DF8047B704780B483B000AF95
:101C680078607B6820225A6000BF0C37BD465DF85B
:101C7800047B704780B485B000AF786039607B68BA
:101C8800FB600C4A3B6813441B781A46FB681344F4
:101C98001B6808493A680A4412781146FA680A44E7
:101CA80043F00203136000BF1437BD465DF8047BA0
:101CB800704700BFB449010880B485B000AF7860B0
:101CC80039607B68FB600C4A3B6813441B781A46F2
:101CD800FB6813441B6808493A680A44127811469D
:101CE800FA680A4443F00803136000BF1437BD467E
:101CF8005DF8047B704700BFB449010880B485B023
:101D080000AF786039607B68FB600C4A3B6813441D
:101D18001B781A46FB6813441B6808493A680A444A
:101D280012781146FA680A4423F00203136000BFD0
:101D38001437BD465DF8047B704700BFB4490108FD
:101D480080B485B000AF786039607B68FB600C4A6E
:101D58003B6813441B781A46FB6813441B68084900
:101D68003A680A4412781146FA680A4423F00403D0
:101D7800136000BF1437BD465DF8047B704700BF91
:101D8800B449010880B485B000AF786039607B68D9
:101D9800FB600C4A3B6813441B781A46FB681344E3
:101DA8001B6808493A680A4412781146FA680A44D6
:101DB80023F00803136000BF1437BD465DF8047BA9
:101DC800704700BFB449010880B485B000AF78609F
:101DD80039607B68FB600A4A3B6813441B781A46E3
:101DE800FB6813441B6803F00203022B01D1012393
:101DF80000E0002318461437BD465DF8047B7047A1
:101E0800B449010880B584B000AF78600123FB8134
:101E18007B681B691846FFF79BFC0346002B2FD0F5
:101E28007B685B7ADBB2022B11D07B685B7ADBB212
:101E3800042B0CD07B685B7ADBB2082B07D07B685D
:101E48001B691846FFF760FD0346012B18D1786817
:101E580000F0F2F80346002B12D17B685B7ADBB204
:101E6800082B03D17B6801225A7202E07B6820228A
:101E78005A727B681B691846FFF71EFD0023FB8119
:101E8800FB8918461037BD4680BD80B586B002AFC5
:101E9800F860B9607A603B600021F868FFF740FCA1
:101EA80003461A467968B868FFF7AAFE0021F86861
:101EB800FFF736FC02463B68002100917968B86854
:101EC800FFF760FEBA697968B868FFF735FE796888
:101ED800B868FFF7CFFE7968B868FFF7EDFE796854
:101EE800B868FFF7CBFD00BF1037BD4680BD80B591
:101EF80084B000AFF860B9607A607968B868FFF7B5
:101F0800DFFD7968B868FFF71BFF7968B868FFF7E5
:101F180039FF7968B868FFF7F1FE00227968B86878
:101F2800FFF70AFE00BF1037BD4680BD80B582B0FE
:101F380000AF786039607B68DB79012B0DD17B6855
:101F4800DA687B681B685B00D1187B681B685B00DC
:101F58001A46386812F0DEFC08E07B68D9687B68AE
:101F68001B685B001A46386812F0D4FC00BF0837BB
:101F7800BD4680BD80B586B000AFF860B9607A60B4
:101F8800FB685A69FB689B7919461046FFF71CFFE6
:101F98000346DBB2012B37D1FB685A69BB68104690
:101FA80098470346012B2FD1FB6804225A72FB681D
:101FB8005A697B6810469847FB685A69FB689B79A1
:101FC80019461046FFF79EFD0346002B19D1FB6802
:101FD8005A69FB689B7919461046FFF771FDFB6843
:101FE8005869FB689B791946FB681B681A46FFF716
:101FF800A3FDFB685A69FB689B7919461046FFF7F1
:102008003DFD0123FB7501E00023FB75FB7D1846B0
:102018001837BD4680BD000080B500AF034A0449AB
:102028000448FFF7A7FF00BF80BD00BF631C00087E
:102038003D1C00081C06002080B582B000AF786007
:102048007B681B691846FFF772FC0346DBB2012B5D
:1020580007D17B681B691846FFF77CFC7B68102258
:102068005A727B685B7ADBB2102B0CBF012300230A
:10207800DBB218460837BD4680BD80B582B000AFD8
:1020880078600B46FB70FB78012B0DD17B681B69D0
:102098001846FFF75DFB0346012B12D07B681B69CE
:1020A8001846FFF709FC0CE07B681B691846FFF728
:1020B80088FB0346012B04D07B681B691846FFF791
:1020C8000FFC00BF0837BD4680BD000090B589B041
:1020D80002AFF860084611461A4603467B810B4654
:1020E8003B811346FB8000237B61FB681B693C4AEC
:1020F800934201D13B4B7B617B69002B6BD0FB6822
:102108001A697B691A617B690022DA71FB88012BE5
:1021180061D03B89002B47D07B695B7ADBB2082B07
:1021280042D0FB68DA687B69DA60FB681A687B6909
:102138001A60FB685A697B695A61FB689A797B69FE
:102148009A71FB681A797B691A717B691B69B96A8C
:102158001846FFF710FB7B89012B21D07B89042BC4
:1021680016D17B691B6903211846FFF717FB7B69AA
:1021780018697B6959697B699B791C467B69DA68B0
:102188007B691B68009313462246FFF77EFE07E033
:102198007B89022B04D17B691B691846FFF7E7FB93
:1021A8007B6908225A7216E03B89002B13D17B69A0
:1021B8009B7ADBB2082B0ED0FB685A797B695A717F
:1021C8007B89022B04D17B691B691846FFF7DFFB6B
:1021D8007B6908229A727B6918461C37BD4690BDF8
:1021E800000104501C06002080B582B000AF786062
:1021F8007B681B691846FFF71FFB0346002B04D1B9
:102208007B681B691846FFF7EFFA00BF0837BD4621
:1022180080BD80B586B000AFF8600B467A607B81E0
:102228000123FB82FB681B69002B46D07B89012BAD
:1022380005D1F868FFF7E6FD0346FB823DE07B89A0
:10224800042B1FD1FB681B691846FFF781FA034668
:10225800002B32D0FB6801225A72FB681B691846B2
:10226800FFF72AFB00BFFB685B7ADBB2042BFAD1CD
:102278007968F868FFF75AFEFB6808225A7200234B
:10228800FB821AE07B89022B17D1FB685B7ADBB2F1
:10229800202B09D0FB685B7ADBB2042B04D0FB68E7
:1022A8005B7ADBB2102B08D1FB6808225A72796876
:1022B800F868FFF73BFE0023FB82FB8A18461837B5
:1022C800BD4680BD80B582B000AF78600B467B808C
:1022D80013463B807B681B691846FFF7ADFA034637
:1022E800002B04D07B681B691846FFF791FA7B68BE
:1022F8001B691846FFF7AEFB0346002B04D07B682A
:102308001B691846FFF783FB7B681B691846FFF7B4
:102318008EFB0346002B04D07B681B691846FFF729
:1023280056FB3B88002B35D07B680022DA607B683F
:1023380000221A607B6800225A617B6800229A7129
:102348007B6800221A717B681A697B681B791946B9
:102358001046FFF710FA7B88012B26D07B88022BCA
:1023680005D17B681B691846FFF721FB1DE07B88B8
:10237800042B1AD17B6818697B6859697B689B793B
:102388001A46FFF7B4FD7B681B6900211846FFF762
:1023980005FA0AE07B6800225A717B88022B04D177
:1023A8007B681B691846FFF722FB00BF0837BD464C
:1023B80080BD000080B584B000AF78600B46FB702C
:1023C8007B681B691846FFF737FA0346FB7397F9D2
:1023D8000F30012B04D17B681B691846FFF718FAE8
:1023E800FB78002B0FD17B681B697F211846FFF70C
:1023F80036FA00BF7B681B691846FFF749FA03469F
:10240800012BF7D040E0FB78012B0FD17B681B69CB
:102418002C491846FFF723FA00BF7B681B6918464A
:10242800FFF736FA0346012BF7D02DE07B681B69CE
:102438007F211846FFF713FA00BF7B681B6918460F
:10244800FFF726FA0346012BF7D00023BB8107E0EC
:1024580000BFBB891BB29BB201339BB21BB2BB81CD
:10246800BB891BB29BB2032BF2D97B681B69154948
:102478001846FFF7F4F900BF7B681B691846FFF799
:1024880007FA0346012BF7D00023BB8107E000BF02
:10249800BB891BB29BB201339BB21BB2BB81BB8908
:1024A8001BB29BB2032BF2D997F90F30012B04D141
:1024B8007B681B691846FFF797F900BF1037BD46C0
:1024C80080BD00BF00007F4080B483B000AF78605B
:1024D8007B681B6843F001027B681A6000BF0C37F9
:1024E800BD465DF8047B704780B483B000AF786068
:1024F8007B681B6823F001027B681A6000BF0C37F9
:10250800BD465DF8047B704780B483B000AF786047
:1025180039607B681B6823F004023B681A437B68B8
:102528001A6000BF0C37BD465DF8047B704780B465
:1025380083B000AF78607B681B6803F0040318461B
:102548000C37BD465DF8047B704780B483B000AF9C
:1025580078607B68DB6A18460C37BD465DF8047BFB
:10256800704780B483B000AF786039607B683A68A0
:102578001A6300BF0C37BD465DF8047B704780B412
:1025880083B000AF786039607B683A685A6300BFEF
:102598000C37BD465DF8047B704780B483B000AF4C
:1025A800786039607B683A689A6300BF0C37BD462B
:1025B8005DF8047B704780B483B000AF7860396001
:1025C8007B683A68DA6300BF0C37BD465DF8047B68
:1025D800704780B483B000AF786039607B683A6830
:1025E8001A6400BF0C37BD465DF8047B704780B4A1
:1025F80083B000AF78607B685B6B18460C37BD46CC
:102608005DF8047B704780B483B000AF78607B6866
:102618009B6B18460C37BD465DF8047B704780B449
:1026280083B000AF78607B68DB6B18460C37BD461B
:102638005DF8047B704780B483B000AF78607B6836
:102648001B6C18460C37BD465DF8047B704780B498
:1026580083B000AF78607B685B6943F001027B68F8
:102668005A6100BF0C37BD465DF8047B704780B4E3
:1026780083B000AF78607B681B6918460C37BD468D
:102688005DF8047B704780B483B000AF7860396030
:102698007B683A689A6100BF0C37BD465DF8047BD9
:1026A800704780B483B000AF786039607B683A685F
:1026B8009A6200BF0C37BD465DF8047B7047000086
:1026C80080B584B000AF786087ED000AD7ED007A56
:1026D800F5EEC07AF1EE10FA03D54FF000033B6037
:1026E8000AE0D7ED007A9FED167AF4EEC77AF1EE9C
:1026F80010FA01DD134B3B607B681B681846FFF737
:1027080024FFF8607B681B79002B0CBF0123002392
:10271800DBB21A46FB68134407EE903AB8EE677AC4
:10272800D7ED007A27EE277ADFED056AC7EE267A1D
:10273800FCEEE77A17EE903A18461037BD4680BD92
:102748000000C8420000C84280B582B000AF78607F
:1027580039607B681B681846FFF749FF02463B68EB
:10276800934205D07B681B6839681846FFF707FF56
:1027780000BF0837BD4680BD80B582B000AF786025
:1027880039607B681B681846FFF73DFF02463B68C7
:10279800934205D07B681B6839681846FFF7FDFE31
:1027A80000BF0837BD4680BD80B582B000AF7860F5
:1027B80039607B681B681846FFF731FF02463B68A3
:1027C800934205D07B681B6839681846FFF7F3FE0B
:1027D80000BF0837BD4680BD80B582B000AF7860C5
:1027E80039607B681B681846FFF725FF02463B687F
:1027F800934205D07B681B6839681846FFF7E9FEE5
:1028080000BF0837BD4680BD80B584B000AF786092
:1028180087ED000A97ED000A7868FFF751FFF86026
:10282800F9687868FFF790FF00BF1037BD4680BD94
:1028380080B584B000AF786087ED000A97ED000A94
:102848007868FFF73DFFF860F9687868FFF794FF4C
:1028580000BF1037BD4680BD80B584B000AF78603A
:1028680087ED000A97ED000A7868FFF729FFF860FE
:10287800F9687868FFF798FF00BF1037BD4680BD3C
:1028880080B584B000AF786087ED000A97ED000A44
:102898007868FFF715FFF860F9687868FFF79CFF1C
:1028A80000BF1037BD4680BD80B485B000AF7860EA
:1028B8007B681B689A68074B1340FB60FB68062B14
:1028C8000CBF01230023DBB218461437BD465DF860
:1028D800047B70470700010080B584B000AF7860C2
:1028E8000B46FB707B681B681846FFF720FEF860F4
:1028F800FB78002B1ED07B681B68324A934213D0AA
:102908007B681B68304A93420ED07B681B682F4A4D
:10291800934209D07B681B682D4A934204D07B6898
:102928001B682C4A934205D17B681B680021184616
:10293800FFF717FEFB68042B11D07B681B68042186
:102948001846FFF7E1FD7B681B681846FFF77FFE16
:102958007B681B68F9681846FFF7D6FD04E07B68BA
:102968001B681846FFF773FE7B681B681846FFF75D
:10297800ABFDFB78002B20D07B681B68114A934283
:1029880013D07B681B68104A93420ED07B681B6883
:102998000E4A934209D07B681B680D4A934204D0C3
:1029A8007B681B680B4A934207D17B681A687B686F
:1029B8005B7919461046FFF7D4FD00BF1037BD46B6
:1029C80080BD00BF002C01400034014000400140A0
:1029D800004401400048014080B582B000AF7860F3
:1029E8007B681B681846FFF77FFD00BF0837BD46A8
:1029F80080BD000080B483B000AF7860074B5B797E
:102A0800002B0CBF01230023DAB27B6801331A7054
:102A180000BF0C37BD465DF8047B70474C030020AF
:102A280080B400AF0C4B5B79002B0CBF0123002353
:102A3800DAB2094B9A71084B5A790132D2B25A71FB
:102A4800054B5B79092B02D9034B00225A7100BF51
:102A5800BD465DF8047B70474C03002080B485B008
:102A680000AF786039607B68012283F8D8203B6822
:102A7800D3E900237968C1E902237B6801221A603F
:102A88000023FB600CE07B68D3E902237868F968CF
:102A98000231C9000144C1E90023FB680133FB602E
:102AA800FB68182BEFDD00BF00BF1437BD465DF88B
:102AB800047B704780B586B000AF87ED040BF860E3
:102AC800B9607A60BB68D3E902017B68D3E9002367
:102AD800FDF79AFF0346002B05D17B68D3E9002355
:102AE800B968C1E90223F868BB681033C8221946DF
:102AF80011F010FFF968D7E90423C1E93223FB6814
:102B080003F1D000BB681033C022194611F002FF50
:102B1800BB6803F11000FB68C833C822194611F0DE
:102B2800F9FE00BF1837BD4680BD80B485B000AF40
:102B3800786039607B68012283F860203B68D3E9BC
:102B480000237968C1E902237B6801221A60002307
:102B5800FB600CE07B68D3E902237868F9680231EE
:102B6800C9000144C1E90023FB680133FB60FB682D
:102B7800092BEFDD00BF00BF1437BD465DF8047BAD
:102B8800704780B586B000AF87ED040BF860B96078
:102B98007A60BB68D3E902017B68D3E90023FDF7BB
:102BA80033FF0346002B05D17B68D3E90023B968BE
:102BB800C1E90223F868BB6810335022194611F0A6
:102BC800A9FEF968D7E90423C1E91423FB6803F1D6
:102BD8005800BB6810334822194611F09BFEBB68A9
:102BE80003F11000FB6850335022194611F092FE91
:102BF80000BF1837BD4680BD90B585B000AF002333
:102C0800FB601FE0FB685B0001337B600023BB6057
:102C180012E0BB685B005A1C13461B019A1A7B68BA
:102C280013443F4ADB00D1184FF000023D4BC1E985
:102C38000023BB680133BB60BB68062BE9DDFB687A
:102C48000133FB60FB68062BDCDD354B03F668239C
:102C5800D3E9000102460B46FDF7B8FA02460B46D7
:102C68004FF000003049FDF7AFFA02460B46104618
:102C78001946FDF711FF0446294B03F52663D3E9EE
:102C8800000102460B46FDF7A1FA02460B46104624
:102C98001946FDF701FF03465A1E13461B019B1AEE
:102CA8002344013B1E4ADB00D1184FF000024FF0CD
:102CB8000003C1E900230023FB600CE01B4BD3E9B0
:102CC80000231748F968E131C9000144C1E900232C
:102CD800FB680133FB60FB68632BEFDD104B03F5EA
:102CE8002663D3E900230E4901F5E161C1E9002318
:102CF8000B4B03F66823D3E90023094901F5E26188
:102D0800C1E90023064B03F530614FF000024FF094
:102D18008043C1E9002300BF1437BD4690BD00BF02
:102D280018190020000059400000304010410020D0
:102D380090B58DB000AF2D4B93F8183B03F04003CE
:102D4800DBB2002B08D0294A92F8183B0E2161F318
:102D5800040382F8183B71E3244B03F5E163D3E9DC
:102D68000023C7E90623214B03F5E263D3E90023D7
:102D7800C7E904231D4B03F5E263D3E900010246CA
:102D88000B46FDF723FA02460B464FF000001849A0
:102D9800FDF71AFA02460B46C7E90223134B03F55F
:102DA800E163D3E9000102460B46FDF70FFA02463C
:102DB8000B4610461946FDF76FFE03465A1E13468A
:102DC8001B019B1AFB62D7E90201FDF765FE02466B
:102DD800FB6A1344013B054ADB001344D3E9002393
:102DE8000449C1E96C230023BB622DE018190020B7
:102DF8000000304070060020BB6A01335B007B6036
:102E0800BB6A5B003B60BB4A7B68E133DB00134471
:102E1800D3E90023B7483968E131C9000144C1E961
:102E280000237B6801333A68511CB24AE133DB0066
:102E38001344D3E90023AF48E131C9000144C1E993
:102E48000023BB6A0133BB62BB6A302BD4DDAA4BBB
:102E5800D3E90023A74901F61821C1E90023A64BAD
:102E6800D3E90023A34901F52261C1E90023A14B5D
:102E780003F53063D3E900014FF000029F4BFDF7E3
:102E8800A3F902460B469B4901F53061C1E90023CD
:102E9800D7E9060102460B46FDF798F902460B46AC
:102EA800104619464FF00002944BFDF78DF9024683
:102EB8000B4610461946FDF7EFFD03465A1E13460A
:102EC8001B019C1AD7E90201FDF7E6FD03462344DE
:102ED800013B884ADB001344D3E900014FF00002AC
:102EE800864BFDF791FD0346002B77D14FF000028A
:102EF800824BD7E90601FDF767F902460B461046F3
:102F0800194602460B46FDF761F902460B46104684
:102F18001946FDF7C1FD03465A1E13461B019C1AAC
:102F2800D7E90201FDF7B8FD03462344013BBB6224
:102F3800704ABB6ADB001344D3E900014FF000027A
:102F48006F4BFDF761FD0346002B47D0694B03F536
:102F58003063D3E9002310461946FDF79DFD03466B
:102F6800013B5B007B604FF00002644BD7E9060130
:102F7800FDF72AF902460B465E487968E131C90037
:102F88000144C1E900237B6801335A4AE133DB007D
:102F9800D118D7E90423C1E90023564B03F5306360
:102FA800D3E900014FF00002544BFDF70FF9024638
:102FB8000B46504901F53061C1E90023514BD3E973
:102FC8006C014FF000024D4BFDF700F902460B462D
:102FD8004848B96AC9000144C1E90023D7E9060194
:102FE80002460B46FDF7F2F802460B461046194614
:102FF8004FF00002414BFDF7E9F802460B46104638
:103008001946FDF749FD03465A1E13461B019C1A33
:10301800D7E90201FDF740FD03462344013B354A49
:10302800DB001344D3E900014FF00002334BFDF7F6
:10303800EBFC0346002B40F083804FF000022F4B3F
:10304800D7E90601FDF7C2F802460B4610461946B5
:1030580002460B46FDF7BAF802460B4610461946DB
:10306800FDF71AFD03465A1E13461B019C1AD7E9A1
:103078000201FDF711FD03462344013BBB621D4AD3
:10308800BB6ADB001344D3E900014FF000021C4B7C
:10309800FDF7BAFC0346002B52D0164B03F53063FC
:1030A800D3E9002310461946FDF7F6FC0346013B19
:1030B8005B007B604FF00002104BD7E90601FDF77B
:1030C80085F802460B460B487968E131C90001448E
:1030D800C1E900237B680133064AE133DB00D118DC
:1030E800D7E90423C1E90023024B03F53063D3E990
:1030F800000109E018190020104100200000F03FED
:1031080000005940700600204FF00002B84BFDF750
:103118005DF802460B46B74901F53061C1E9002365
:10312800B54BD3E96C014FF00002B14BFDF74EF8F7
:1031380002460B46AF48B96AC9000144C1E90023F9
:103148004FF00002AA4BD7E90201FDF73DF802460D
:103158000B4610461946FDF79FFC0246FB6A1344CE
:10316800013BA44ADB001344D3E900014FF00002FD
:103178009F4BFDF749FC0346002B77D14FF0000227
:103188009B4BD7E90401FDF721F802460B46104690
:10319800194602460B46FDF719F802460B464FF052
:1031A80000009649FDF710F802460B4610461946EE
:1031B800FDF772FC0246FB6A1344013BBB628D4A71
:1031C800BB6ADB001344D3E900014FF000028C4BCB
:1031D800FDF71AFC0346002B48D0864B03F53063F5
:1031E800D3E9002310461946FDF756FC0346013B78
:1031F8005B007B607F4A7B68E133DB00D118D7E94D
:103208000623C1E900237B685C1C4FF00002784B61
:10321800D7E90401FCF7DAFF02460B46754804F1CA
:10322800E101C9000144C1E90023724B03F5306391
:10323800D3E900014FF000026D4BFCF7C7FF0246CF
:103248000B466C4901F53061C1E900236A4BD3E9AB
:103258006C014FF00002664BFCF7B8FF02460B46C4
:103268006448B96AC9000144C1E900234FF000026B
:103278005F4BD7E90201FCF7A9FF02460B4610464F
:103288001946FDF709FC0246FB6A1344013B594AFB
:10329800DB001344D3E900014FF00002544BFDF763
:1032A800B3FB0346002B77D14FF00002504BD7E910
:1032B8000401FCF789FF02460B46104619460246F0
:1032C8000B46FCF783FF02460B464FF000004B49C4
:1032D800FCF77AFF02460B4610461946FDF7DCFB61
:1032E8000246FB6A1344013BBB62424ABB6ADB00ED
:1032F8001344D3E900014FF00002414BFDF784FB72
:103308000346002B48D03B4B03F53063D3E9002339
:1033180010461946FDF7C0FB0346013B5B007B6086
:10332800344A7B68E133DB00D118D7E90623C1E9C9
:1033380000237B685C1C4FF000022D4BD7E9040189
:10334800FCF742FF02460B462A4804F1E101C90096
:103358000144C1E90023274B03F53063D3E9000199
:103368004FF00002224BFCF731FF02460B46214981
:1033780001F53061C1E900231F4BD3E96C014FF01F
:1033880000021B4BFCF722FF02460B461948B96A9C
:10339800C9000144C1E900230023FB6217E0154A74
:1033A800FB6AE133DB00134493ED007BB0EE470A80
:1033B800F0EE670A05F0C4FF034619460E4AFB6A99
:1033C800134464330A461A70FB6A0133FB62FB6AD2
:1033D800632BE4DD074A92F8183B43F0400382F878
:1033E800183B0023FB62002387F827301FE000BF4B
:1033F8000000F03F1819002070060020000030403F
:10340800000059400F4AFB6A134464331B78002BB1
:103418000AD10D4A92F8183B6FF3861382F8183BCD
:10342800012387F8273002E0FB6A0133FB6297F833
:103438002730002B02D1FB6A632BE3DD00BF343752
:10344800BD4690BD700600201819002090B58DB0BB
:1034580000AF9B4B93F8183B03F04003DBB2002B03
:1034680000F00F84964A92F8183B022161F3040396
:1034780082F8183B924B03F67823D3E90001024601
:103488000B46FCF7A3FE02460B464FF000008D49A1
:10349800FCF79AFE02460B4610461946FDF7FCFA61
:1034A80003467B61864B03F52763D3E90001024697
:1034B8000B46FCF78BFE02460B4610461946FDF7F5
:1034C800EBFA03465A1E13461B019B1A3B613A69E5
:1034D8007B691344013B7A4ADB001344D3E9002398
:1034E800774901F53161C1E90023754B03F527637D
:1034F800D3E9000102460B46FCF768FE02460B467C
:10350800104619464FF000026F4BFCF75FFE02466B
:103518000B4610461946FDF7BFFA03465A1E1346D6
:103528001B019A1A7B691344013B654ADB0013446B
:10353800D3E900014FF00002634BFDF765FA03463B
:10354800002B05D04FF00002604BC7E90A2326E0A4
:103558005B4B03F52763D3E900014FF000025A4B98
:10356800FCF734FE02460B461046194602460B4647
:10357800FCF72CFE02460B4610461946FDF78CFA5E
:1035880003465A1E13461B019A1A7B691344013BD2
:103598004B4ADB001344D3E90023C7E90A23484B0D
:1035A80003F52763D3E9000102460B46FCF70EFE3C
:1035B80002460B46104619464FF00002424BFCF7F4
:1035C80003FE02460B4610461946FDF765FA034608
:1035D8005A1E13461B019A1A7B691344013B384A49
:1035E800DB001344D3E900014FF00002364BFDF72E
:1035F8000BFA0346002B05D04FF00002334BC7E906
:10360800082326E02E4B03F52763D3E900014FF08A
:1036180000022D4BFCF7D8FD02460B461046194612
:1036280002460B46FCF7D2FD02460B4610461946E9
:10363800FDF732FA03465A1E13461B019A1A7B6994
:103648001344013B1E4ADB001344D3E90023C7E9B6
:1036580008231B4B03F67823D3E9000102460B46E7
:10366800FCF7B4FD02460B46104619464FF000021F
:10367800154BFCF7A9FD02460B464FF00000114917
:10368800FCF7A2FD02460B4610461946FDF704FA60
:1036980002463B691344013B094ADB001344D3E962
:1036A80000014FF00002084BFDF7AEF90346002B6E
:1036B8000ED04FF00002054BC7E9062332E000BFE9
:1036C80018190020000030400000F03F0000594069
:1036D800304B03F67823D3E900014FF000022E4B5C
:1036E800FCF772FD02460B461046194602460B4689
:1036F800FCF76CFD02460B464FF000002749FCF72B
:1037080063FD02460B4610461946FDF7C5F9024609
:103718003B691344013B1F4ADB001344D3E90023F0
:10372800C7E906231B4B03F67823D3E900010246B9
:103738000B46FCF74BFD02460B46104619464FF068
:103748000002154BFCF742FD02460B464FF0000005
:103758001249FCF739FD02460B4610461946FDF79B
:103768009BF902463B691344013B0A4ADB001344B8
:10377800D3E900014FF00002074BFDF745F9034676
:10378800002B11D006494FF00002064BC1E96A230D
:1037980035E000BF181900200000F03F000030405D
:1037A8007006002000005940B24B03F67823D3E995
:1037B80000014FF00002B04BFCF708FD02460B4633
:1037C8001046194602460B46FCF700FD02460B461A
:1037D8004FF00000A949FCF7F7FC02460B461046DB
:1037E8001946FDF759F902463B691344013BA14AC2
:1037F800DB001344D3E90023A149C1E96A234FF050
:10380800FF337B619B4B03F52D614FF000029D4B0D
:10381800C1E900239A4BD3E96A01964B03F531635A
:10382800D3E90023FDF7FAF80346002B09D0944B9F
:10383800D3E96A238F4901F53161C1E900230023E7
:103848007B618C4B03F53163D3E90023D7E906018B
:10385800FDF7E4F80346002B08D0864B03F53161E9
:10386800D7E90623C1E9002302237B61814B03F5D5
:103878003163D3E90023D7E90A01FDF7CFF80346FE
:10388800002B08D07B4B03F53161D7E90A23C1E946
:10389800002301237B61774B03F53163D3E90023D0
:1038A800D7E90801FDF7BAF80346002B08D0714B99
:1038B80003F53161D7E90823C1E9002303237B61BC
:1038C8007B69002B71D16B4B03F67823D3E9000198
:1038D8004FF00002684BFCF779FC02460B4665493D
:1038E80001F67821C1E90023624B03F60833D3E9D6
:1038F80000014FF000024FF00003FDF785F8034682
:10390800002B07D05B4B03F52D614FF000025A4B9B
:10391800C1E90023574B03F60833D3E900014FF000
:103928000002554BFDF770F80346002B08D0514BA9
:1039380003F52D614FF000024FF00003C1E90023A9
:103948004C4B03F60833D3E900014FF000024FF067
:103958008043FDF759F80346002B07D0454B03F584
:103968002D614FF00002484BC1E90023414B03F69B
:103978000833D3E900014FF00002434BFDF744F848
:103988000346002B08D03B4B03F52D614FF0000296
:103998004FF08043C1E90023364B03F608314FF05E
:1039A80000024FF00003C1E900237B69012B7DD1A0
:1039B800304B03F52763D3E900014FF000022E4B8B
:1039C800FCF704FC02460B462A4901F52761C1E9C8
:1039D8000023284B03F60833D3E900014FF0000217
:1039E8004FF00003FDF710F80346002B08D0214BD9
:1039F80003F52D614FF000024FF08043C1E9002329
:103A08001C4B03F60833D3E900014FF000021A4BB0
:103A1800FCF7FAFF0346002B07D0164B03F52D6180
:103A28004FF00002144BC1E90023124B03F6083390
:103A3800D3E900014FF000024FF08043FCF7E4FFA8
:103A48000346002B08D00B4B03F52D614FF0000205
:103A58004FF00003C1E90023064B03F60833D3E90E
:103A680000014FF00002084BFCF7CEFF0346002B85
:103A780014D00BE0181900200000F03F000030407F
:103A8800700600200000F0BF00000840A24B03F5BC
:103A98002D614FF00002A14BC1E900239E4B03F6B4
:103AA80008314FF000029E4BC1E900237B69022BCD
:103AB80071D1994B03F67823D3E900014FF0000246
:103AC800974BFCF781FB02460B46934901F6782198
:103AD800C1E90023904B03F60833D3E900014FF006
:103AE80000024FF00003FCF78FFF0346002B07D0BE
:103AF800894B03F52D614FF00002884BC1E9002383
:103B0800854B03F60833D3E900014FF00002844BDC
:103B1800FCF77AFF0346002B08D07F4B03F52D6195
:103B28004FF000024FF08043C1E900237A4B03F6BF
:103B38000833D3E900014FF000024FF08043FCF74F
:103B480063FF0346002B07D0734B03F52D614FF03D
:103B58000002734BC1E900236F4B03F60833D3E926
:103B680000014FF000026D4BFCF74EFF0346002B9F
:103B780008D0694B03F52D614FF000024FF00003A8
:103B8800C1E90023644B03F608314FF000024FF0FF
:103B98008043C1E900237B69032B40F0E4835E4B3B
:103BA80003F52763D3E900014FF000025C4BFCF7F3
:103BB8000BFB02460B46584901F52761C1E9002372
:103BC800554B03F60833D3E900014FF000024FF0DC
:103BD8000003FCF719FF0346002B08D04E4B03F5F2
:103BE8002D614FF000024FF00003C1E900234A4B5A
:103BF80003F60833D3E900014FF00002484BFCF705
:103C080003FF0346002B07D0434B03F52D614FF00C
:103C18000002424BC1E900233F4B03F60833D3E9C6
:103C280000014FF000024FF08043FCF7EDFE034621
:103C3800002B08D0384B03F52D614FF000024FF0F0
:103C48008043C1E90023344B03F60833D3E900016C
:103C58004FF00002314BFCF7D7FE0346002B07D08C
:103C68002D4B03F52D614FF000022D4BC1E90023C8
:103C7800294B03F608314FF00002284BC1E9002315
:103C880071E3254B03F5E163D3E90023C7E90A2370
:103C9800214B03F5E263D3E90023C7E908231E4B50
:103CA80003F5E263D3E9000102460B46FCF78EFAFE
:103CB80002460B464FF000001A49FCF785FA024607
:103CC8000B46C7E90623144B03F5E163D3E900016A
:103CD80002460B46FCF77AFA02460B46104619468E
:103CE800FCF7DAFE03465A1E13461B019B1A7B613A
:103CF800D7E90601FCF7D0FE02467B691344013B75
:103D0800054ADB001344D3E900230749C1E96A23C4
:103D180000233B6132E000BF181900200000084072
:103D28000000F03F00003040700600203B6901337E
:103D38005B00BB603B695B007B60BB4ABB68E133EF
:103D4800DB001344D3E90023B7487968E131C9009F
:103D58000144C1E90023BB6801337A68511CB24AA7
:103D6800E133DB001344D3E90023AF48E131C90054
:103D78000144C1E900233B6901333B613B69302BB6
:103D8800D4DDAA4BD3E90023A74901F61821C1E9DC
:103D98000023A64BD3E90023A34901F52261C1E919
:103DA8000023A14B03F53063D3E900014FF0000273
:103DB8009F4BFCF709FA02460B469B4901F5306117
:103DC800C1E90023D7E90A0102460B46FCF7FEF9D0
:103DD80002460B46104619464FF00002944BFCF77A
:103DE800F3F902460B4610461946FCF755FE034602
:103DF8005A1E13461B019C1AD7E90601FCF74CFE14
:103E080003462344013B884ADB001344D3E90001FD
:103E18004FF00002864BFCF7F7FD0346002B77D1E5
:103E28004FF00002824BD7E90A01FCF7CDF90246B0
:103E38000B461046194602460B46FCF7C7F90246E0
:103E48000B4610461946FCF727FE03465A1E134632
:103E58001B019C1AD7E90601FCF71EFE0346234402
:103E6800013B3B61704A3B69DB001344D3E9000125
:103E78004FF000026F4BFCF7C7FD0346002B47D0FD
:103E8800694B03F53063D3E9002310461946FCF764
:103E980003FE0346013B5B00BB604FF00002644B2E
:103EA800D7E90A01FCF790F902460B465E48B96863
:103EB800E131C9000144C1E90023BB6801335A4A12
:103EC800E133DB00D118D7E90823C1E90023564BB9
:103ED80003F53063D3E900014FF00002544BFCF7BF
:103EE80075F902460B46504901F53061C1E90023D6
:103EF800514BD3E96A014FF000024D4BFCF766F9CC
:103F080002460B4648483969C9000144C1E9002303
:103F1800D7E90A0102460B46FCF758F902460B4658
:103F2800104619464FF00002414BFCF74FF9024684
:103F38000B4610461946FCF7AFFD03465A1E1346BA
:103F48001B019C1AD7E90601FCF7A6FD034623448A
:103F5800013B354ADB001344D3E900014FF000026E
:103F6800334BFCF751FD0346002B40F083804FF0A4
:103F780000022F4BD7E90A01FCF728F902460B4645
:103F88001046194602460B46FCF720F902460B4636
:103F980010461946FCF780FD03465A1E13461B01BE
:103FA8009C1AD7E90601FCF777FD03462344013B39
:103FB8003B611D4A3B69DB001344D3E900014FF024
:103FC80000021C4BFCF720FD0346002B52D0164B79
:103FD80003F53063D3E9002310461946FCF75CFD6E
:103FE8000346013B5B00BB604FF00002104BD7E972
:103FF8000A01FCF7EBF802460B460B48B968E131B9
:10400800C9000144C1E90023BB680133064AE13312
:10401800DB00D118D7E90823C1E90023024B03F5D7
:104028003063D3E9000109E018190020104100208D
:104038000000F03F00005940700600204FF00002D9
:10404800B74BFCF7C3F802460B46B64901F5306199
:10405800C1E90023B44BD3E96A014FF00002B04B29
:10406800FCF7B4F802460B46AE483969C90001446A
:10407800C1E900234FF00002A94BD7E90601FCF77C
:10408800A3F802460B4610461946FCF705FD024602
:104098007B691344013BA34ADB001344D3E90001C5
:1040A8004FF000029E4BFCF7AFFC0346002B77D184
:1040B8004FF000029A4BD7E90801FCF787F802464F
:1040C8000B461046194602460B46FCF77FF8024697
:1040D8000B464FF000009549FCF776F802460B4670
:1040E80010461946FCF7D8FC02467B691344013B8D
:1040F8003B618C4A3B69DB001344D3E900014FF074
:1041080000028B4BFCF780FC0346002B48D0854B04
:1041180003F53063D3E9002310461946FCF7BCFCCD
:104128000346013B5B00BB607E4ABB68E133DB00B2
:10413800D118D7E90A23C1E90023BB685C1C4FF0FA
:104148000002774BD7E90801FCF740F802460B4616
:10415800744804F1E101C9000144C1E90023714B2D
:1041680003F53063D3E900014FF000026C4BFCF714
:104178002DF802460B466B4901F53061C1E9002371
:10418800694BD3E96A014FF00002654BFCF71EF852
:1041980002460B4663483969C9000144C1E9002356
:1041A8004FF000025E4BD7E90601FCF70FF8024614
:1041B8000B4610461946FCF76FFC02467B69134410
:1041C800013B584ADB001344D3E900014FF00002D9
:1041D800534BFCF719FC0346002B77D14FF0000234
:1041E8004F4BD7E90801FBF7EFFF02460B46104695
:1041F800194602460B46FBF7E9FF02460B464FF00D
:1042080000004A49FBF7E0FF02460B4610461946F4
:10421800FCF742FC02467B691344013B3B61414A7F
:104228003B69DB001344D3E900014FF00002404B27
:10423800FCF7EAFB0346002B48D03A4B03F5306302
:10424800D3E9002310461946FCF726FC0346013B38
:104258005B00BB60334ABB68E133DB00D118D7E9A8
:104268000A23C1E90023BB685C1C4FF000022C4BF9
:10427800D7E90801FBF7A8FF02460B46294804F1D5
:10428800E101C9000144C1E90023264B03F530636D
:10429800D3E900014FF00002214BFBF797FF0246DC
:1042A8000B46204901F53061C1E900231E4BD3E9D3
:1042B8006A014FF000021A4BFBF788FF02460B46D3
:1042C80018483969C9000144C1E9002300237B610A
:1042D80016E0144A7B69E133DB00134493ED007B5D
:1042E800B0EE470AF0EE670A05F02AF803461946C9
:1042F8000D4A7B6913440A461A707B6901337B6156
:104308007B69632BE5DD074A92F8183B43F04003CD
:1043180082F8183B00237B610023FB731DE000BF7C
:104328000000F03F181900207006002000003040FF
:10433800000059400E4A7B6913441B78002B09D1B1
:104348000C4A92F8183B6FF3861382F8183B012346
:10435800FB7302E07B6901337B61FB7B002B02D19D
:104368007B69632BE6DD00BF3437BD4690BD00BFD7
:10437800700600201819002090B58BB000AFBE4B16
:1043880003F52C63D3E900014FF00002BB4BFCF7A7
:1043980063FB0346002B00F0B382B74A92F8183B40
:1043A8000D2161F3040382F8183B0023FB6100230D
:1043B8003B6200237B62B2494FF000024FF00003DA
:1043C800C1E94423AE494FF000024FF00003C1E9B0
:1043D8004623AB494FF000024FF00003C1E94E23DA
:1043E800A7494FF000024FF00003C1E95023A24B48
:1043F800B3F8363B1A46A04BB3F8343BD31ABB612B
:104408009D4BB3F8363B1A46BB69934201D900234A
:10441800BB61BB699AB29A4BA3F8C221964BB3F819
:10442800323B1A46944BB3F8303BD31ABB61924BDC
:10443800B3F8323B1A46BB69934201D90023BB61EA
:10444800BB699AB28E4BA3F8C6218B4BB3F8383BA5
:104458001A46894BB3F83A3BD31ABB61864BB3F87B
:10446800383B1A46BB69934201D90023BB61BB693B
:104478009AB2834BA3F8C0217F4BB3F83C3B1A4652
:104488007D4BB3F83E3BD31ABB617B4BB3F83C3B47
:104498001A46BB69934201D90023BB61BB699AB232
:1044A800774BA3F8C421764BB3F8C2311846FBF713
:1044B800D9FF714B03F52E63D3E90023FCF7CCFA3F
:1044C8000346002B07D001233B626D494FF00002E1
:1044D8006C4BC1E946236A4BB3F8C6311846FBF763
:1044E800C1FF654B03F6E823D3E90023FCF7B4FAD0
:1044F8000346002B07D00123FB6161494FF00002FE
:10450800604BC1E950235E4BB3F8C0311846FBF746
:10451800A9FF594B03F6D823D3E90023FCF79CFAEB
:104528000346002B07D001237B6255494FF0000258
:10453800544BC1E94E23504B03F67823D3E90001CD
:1045480002460B46FBF742FE02460B464FF00000C0
:104558004D49FBF739FE02460B4610461946FCF753
:104568009BFA03467B61444B03F52763D3E90001BB
:1045780002460B46FBF72AFE02460B461046194632
:104588004FF000023F4BFBF71FFE02460B4610465A
:104598001946FCF781FA03465A1E13461B019A1A5C
:1045A8007B691344013B3B61334A3B69DB0013449D
:1045B800D3E9000101231C464FF00002334BFCF7FE
:1045C80023FA0346002B01D100231C46E3B2FB73F8
:1045D800294B03F52763D3E9000102460B46FBF795
:1045E800F5FD02460B46104619464FF00002254BD2
:1045F800FBF7ECFD02460B4610461946FCF74CFA51
:1046080003465A1E13461B019A1A7B691344013B41
:104618007B61194A7B69DB001344D3E9000101235C
:104628001C464FF00002194BFCF7EEF90346002B2D
:1046380001D100231C46E3B2BB730F4B03F527637C
:10464800D3E9000102460B46FBF7C0FD02460B46C4
:1046580010461946FCF720FA03465A1E13461B015A
:104668009B1ABB60044B03F67823D3E9000102468A
:104678000B46FBF7ABFD0BE01819002000805140FA
:10468800700600200000F03F000030400000F0BF3E
:1046980002460B46104619464FF00002944BFBF7B2
:1046A80095FD02460B464FF000009249FBF78CFD42
:1046B80002460B4610461946FCF7EEF90246BB685F
:1046C8001344013B7B608C4A7B68DB001344D3E9CD
:1046D800000101231C464FF00002884BFCF794F9B7
:1046E8000346002B01D100231C46E3B2FB70824B2A
:1046F80003F67823D3E9000102460B46FBF766FD73
:1047080002460B46104619464FF00002784BFBF75D
:104718005BFD02460B464FF000007649FBF754FD5F
:1047280002460B4610461946FCF7B6F90246BB6826
:104738001344013BBB60704ABB68DB001344D3E9F8
:10474800000101231C464FF000026C4BFCF75CF99A
:104758000346002B01D100231C46E3B2BB70664B15
:1047680003F60833D3E9002310461946FCF794F9F9
:104778000346032B00F24D8101A252F823F000BF3B
:1047880099470008F147000849480008A14800086F
:10479800FB7B002B0AD0386AFBF764FE02460B4607
:1047A80055483969C9000144C1E90023BB7B002B86
:1047B8000AD0F869FBF756FE02460B464E4879695F
:1047C800C9000144C1E90023FB78002B00F01A81DD
:1047D800786AFBF747FE02460B4647487968C900E6
:1047E8000144C1E900230DE1BB7B002B0AD0786AA4
:1047F800FBF738FE02460B463F487969C900014479
:10480800C1E90023FB78002B0AD0386AFBF72AFE9F
:1048180002460B4638487968C9000144C1E90023BB
:10482800BB78002B00F0F080F869FBF71BFE02460E
:104838000B463148B968C9000144C1E90023E3E0E7
:10484800BB78002B0AD0786AFBF70CFE02460B46B1
:104858002948B968C9000144C1E90023BB7B002B82
:104868000AD0386AFBF7FEFD02460B4622487969F2
:10487800C9000144C1E90023FB7B002B00F0C6807E
:10488800F869FBF7EFFD02460B461B483969C9007A
:104898000144C1E90023B9E0FB7B002B0AD0786A08
:1048A800FBF7E0FD02460B4613483969C90001448D
:1048B800C1E90023FB78002B0AD0F869FBF7D2FD89
:1048C80002460B460C487968C9000144C1E9002337
:1048D800BB78002B00F09C80386AFBF7C3FD0246CA
:1048E8000B460548B968C9000144C1E900238FE0B7
:1048F8000000F03F00003040181900200000F0BF11
:10490800464BB3F84E21464BB3F8363B9A4205D393
:10491800424BB3F84E21424BA3F8362B3F4BB3F82A
:1049280050213F4BB3F8323B9A4205D33B4BB3F887
:1049380050213B4BA3F8322B384BB3F84E21384B60
:10494800B3F8343B9A4205D8344BB3F84E21344B74
:10495800A3F8342B314BB3F85021314BB3F8303B2B
:104968009A4205D82D4BB3F850212D4BA3F8302B84
:104978002A4BB3F84A212A4BB3F8383B9A4205D35D
:10498800264BB3F84A21264BA3F8382B234BB3F810
:104998005421234BB3F83C3B9A4205D31F4BB3F841
:1049A80054211F4BA3F83C2B1C4BB3F84A211C4B3A
:1049B800B3F83A3B9A4205D8184BB3F84A21184B3A
:1049C800A3F83A2B154BB3F85421154BB3F83E3BDB
:1049D8009A4205D8114BB3F85421114BA3F83E2B3A
:1049E8000F4B03F52C63D3E900014FF000020D4B88
:1049F800FBF7ECFB02460B46094901F52C61C1E9BE
:104A0800002306E000BF04E000BF02E000BF00E0B2
:104A180000BF00BF2C37BD4690BD00BF7006002008
:104A2800181900200000F03F80B584B000AF87ED72
:104A3800000B38687B6823F000414FF000022F4BD1
:104A4800FBF7ECFF0346002B48D04FF000022C4B3D
:104A5800D7E90001FBF7F6FF0346002B13D04FF010
:104A68000002274BD7E90001FBF7B0FB02460B46D3
:104A780043EC172BB0EE470AF0EE670A0FF018FD6B
:104A880087ED020B2EE04FF000021E4BD7E9000124
:104A9800FBF7E2FF0346002B0CD04FF000024FF06B
:104AA8000003D7E90001FBF747FD02460B46C7E9BB
:104AB800022317E04FF00002114BD7E90001FBF782
:104AC80083FB02460B4643EC172BB0EE470AF0EE89
:104AD800670A0FF06DFC87ED020B03E0D7E90023AE
:104AE800C7E90223D7E9022343EC172BB0EE470AA4
:104AF800F0EE670A1037BD4680BD00BF00003043A6
:104B08000000E03F0000E0BFB0B586B000AF7860BD
:104B1800AF4B03F6C823D3E900014FF00002AD4BB9
:104B2800FBF772FF0346002B25D0A94A92F8183BE1
:104B3800012161F3040382F8183BA54B002283F896
:104B4800422BA5494FF00002A44BC1E94A23A249D0
:104B58004FF00002A24BC1E948239F494FF00002E1
:104B68004FF00003C1E94C239B494FF00002994BD9
:104B7800C1E9442318E17B681B88012B17D1964BA8
:104B8800B3F85221924BA3F82A2B934BB3F84C213C
:104B98008F4BA3F8262B904BB3F856218C4BA3F8D8
:104BA8002E2B8D4BB3F84821894BA3F82C2B7B680F
:104BB8001B88022B05D1884BB3F85221844BA3F8EC
:104BC800282B7B681B88032B05D1834BB3F84C211A
:104BD8007F4BA3F8242B7B681B88002B40F0D380E5
:104BE8007B4BB3F8243B1A46794BB3F8263BD31AD0
:104BF8007B61774BB3F8243B1A467B69934201D912
:104C080000237B61724BB3F8283B1A46704BB3F80C
:104C18002A3BD31A3B616E4BB3F8283B1A463B69D3
:104C2800934201D900233B613B691846FBF71AFC04
:104C38005FA3D3E90023FBF77FFC02460B4643EC56
:104C4800172BB0EE470AF0EE670AFFF7EDFE53ECBC
:104C5800102B10461946FBF71FFF0346BB60BB68C5
:104C6800B3F5803F02DABB68FB8102E04FF6FF73C1
:104C7800FB817A69FB89D31A1846FBF7F3FB4EA32D
:104C8800D3E90023FBF758FC02460B4614461D46A1
:104C9800514BD3E94C014AA3D3E90023FBF74CFC61
:104CA80002460B4620462946FBF790FA02460B4679
:104CB8004949C1E94C23484BB3F848311A46444B9B
:104CC800B3F82C3BD31A7B61434BB3F848311A46EF
:104CD8007B69934201D900237B613F4BB3F856317E
:104CE8001A463B4BB3F82E3BD31A3B613A4BB3F809
:104CF80056311A463B69934201D900233B613B690F
:104D08001846FBF7AFFB30A3D3E90023FBF714FCED
:104D180002460B4643EC172BB0EE470AF0EE670A43
:104D2800FFF782FE53EC102B10461946FBF7B4FE32
:104D38000346BB60BB68B3F5803F02DABB68FB8102
:104D480002E04FF6FF73FB817B6940F2A362934256
:104D580019DCFB8940F2A362934214D81C4B03F67A
:104D6800B823D3E900014FF000021E4BFBF774FE95
:104D78000346002B07D0164B03F6C8214FF000025C
:104D8800144BC1E90023124B03F6B823D3E9000101
:104D98004FF000020F4BFBF719FA02460B460C497D
:104DA80001F6B821C1E9002300BF1837BD46B0BDE0
:104DB800666666666666FE3F9A9999999999A93FCB
:104DC800666666666666EE3FCDCCCCCCCCCCFC3F46
:104DD800181900200000F03F7006002000C057C0DE
:104DE80000C052C000003E4080B586B000AFF860F9
:104DF800B9607A603B60F9684FF00002B64BC1E9D0
:104E08000023B64B93F8183BC3F30403DBB2013B12
:104E1800132B00F2CC8401A252F823F0754E00083F
:104E2800B94E0008475000085D5000087D50000842
:104E380083500008895000080151000851510008AA
:104E4800A1510008EF5100083F5200088F52000896
:104E5800A5520008FD5200083753000849530008BE
:104E680079550008AD560008B55600089B4B93F8D5
:104E7800423B002B00F0CB84984A92F8183B14214F
:104E880061F3040382F8183B944B002283F8422B09
:104E980093494FF000024FF00003C1E948239049BD
:104EA8004FF000024FF00003C1E94A2300F0AFBC05
:104EB8008A4B03F52D63D3E900014FF00002894BBB
:104EC800FBF7A2FD0346002B19D0844A92F8183B41
:104ED800092161F3040382F8183B804B002283F810
:104EE800422B7F494FF000027F4BC1E948237C49A0
:104EF8004FF000027D4BC1E94A2300F09DBC774B7F
:104F080003F52D63D3E900014FF000024FF00003D1
:104F1800FBF77AFD0346002B19D0704A92F8183B2C
:104F28000B2161F3040382F8183B6C4B002283F8D1
:104F3800422B6B494FF000026C4BC1E9482368498A
:104F48004FF000026A4BC1E94A2300F075BC634B7D
:104F580003F52D63D3E900014FF000025E4BFBF728
:104F680053FD0346002B19D05C4A92F8183B0721E1
:104F780061F3040382F8183B584B002283F8422B54
:104F8800574953A3D3E90023C1E94823544950A3FF
:104F9800D3E90023C1E94A2300F04EBC4F4B03F587
:104FA8002D63D3E900014FF000024FF08043FBF777
:104FB8002BFD0346002B19D0484A92F8183B0C21C8
:104FC80061F3040382F8183B444B002283F8422B18
:104FD80043494FF00002474BC1E9482340494FF08D
:104FE8000002424BC1E94A2300F026BC3B4B03F5C3
:104FF8003163D3E900014FF000024FF00003FBF7E3
:1050080003FD0346002B01D100F016BC334A92F889
:10501800183B032161F3040382F8183B2F4B03F577
:1050280026614FF000022C4BC1E900232B4B03F6FD
:1050380068214FF00002284BC1E90023FCE3274A0E
:1050480092F8183B042161F3040382F8183BFDF73A
:10505800D3FDF1E3214A92F8183B062161F30403DA
:1050680082F8183B1D4A92F8183B6FF3861382F8B2
:10507800183BE1E3FDF75CFEDEE3FEF7E7F9DBE36F
:10508800164B93F8423B092B40F2C383134A92F81C
:10509800183B152161F3040382F8183B0F4B0022DB
:1050A80083F8422B0E494FF000024FF00003C1E98C
:1050B80044230B494FF000024FF00003C1E94A2393
:1050C80007494FF000024FF00003C1E94823A0E36D
:1050D8000000000000C052400000F03F18190020F6
:1050E8007006002000000840000059C00000594028
:1050F800000054C0008053C08E4B93F8423B3E2BB7
:1051080040F289838B4A92F8183B152161F3040316
:1051180082F8183B874B002283F8422B86494FF0D0
:1051280000024FF00003C1E9442383494FF0000215
:105138004FF00003C1E94A237F494FF000024FF0C6
:105148000003C1E9482366E37A4B93F8423B432BBB
:1051580040F26383774A92F8183B152161F3040300
:1051680082F8183B734B002283F8422B72494FF0A8
:1051780000024FF00003C1E944236F494FF00002D9
:105188004FF00003C1E94A236B494FF000024FF08A
:105198000003C1E9482340E37B681B78002B00F03B
:1051A8003E83644A92F8183B152161F3040382F8A0
:1051B800183B604B002283F8422B5F494FF00002F6
:1051C8004FF00003C1E944235B494FF000024FF060
:1051D8000003C1E94A2358494FF000024FF0000389
:1051E800C1E948231BE3534B93F8423B312B40F270
:1051F8001883504A92F8183B152161F3040382F88A
:10520800183B4C4B002283F8422B4B494FF00002CD
:105218004FF00003C1E9442347494FF000024FF023
:105228000003C1E94A2344494FF000024FF000034C
:10523800C1E94823F5E23F4B93F8423B332B40F258
:10524800F2823C4A92F8183B152161F3040382F874
:10525800183B384B002283F8422B37494FF00002A5
:105268004FF00003C1E9442333494FF000024FF0E7
:105278000003C1E94A2330494FF000024FF0000310
:10528800C1E94823CFE22B4A92F8183B042161F385
:10529800040382F8183BFDF7AFFCCDE23B681B78AE
:1052A800002B00F0C282234A92F8183B132161F3C5
:1052B800040382F8183B20494FF000021F4BC1E954
:1052C8004A231D494FF000021C4BC1E94823194BE2
:1052D80003F6B8214FF000024FF00003C1E90023A4
:1052E800144B03F6C8214FF000024FF00003C1E948
:1052F80000239AE20F4B93F8423B442B40F29782EB
:105308000C4A92F8183B0A2161F3040382F8183B0F
:1053180009494FF000024FF00003C1E94A2306494A
:105328004FF000024FF00003C1E948237FE2FFF786
:1053380023F881E2181900207006002000805640EA
:10534800AF4B03F52C63D3E900014FF00002AD4BDE
:10535800FBF782FB0346002B00F08880A84A92F8EE
:10536800183B0F2161F3040382F8183BA44B002279
:1053780083F8422BA24B03F6F8214FF000024FF0BE
:105388000003C1E900239E4BB3F8383B1A469C4BF7
:10539800B3F83A3BD31A7B61994BB3F8383B1A46BA
:1053A8007B69934201D900237B617B691846FBF72F
:1053B80059F88FA3D3E90023FBF7BEF802460B4642
:1053C8008F4901F6D821C1E900238D4BB3F8323B50
:1053D8001A468B4BB3F8303BD31A7B61884BB3F832
:1053E800323B1A467B69934201D900237B617B6972
:1053F8001846FBF737F880A3D3E90023FBF79CF89E
:1054080002460B467E4901F6E821C1E900237C4BA0
:10541800B3F8363B1A467A4BB3F8343BD31A7B6160
:10542800774BB3F8363B1A467B69934201D9002380
:105438007B617B691846FBF715F84FF00002724B49
:10544800FBF77AF802460B466D4901F52E61C1E972
:1054580000236E494FF000026D4BC1E948236B49A8
:105468004FF000026B4BC1E94A23E5E1674BB3F803
:105478004E21634BB3F8363B9A4205D3634BB3F8DE
:105488004E215F4BA3F8362B604BB3F850215C4B91
:10549800B3F8323B9A4205D35C4BB3F85021584BD2
:1054A800A3F8322B594BB3F84E21554BB3F8343B84
:1054B8009A4205D8554BB3F84E21514BA3F8342BDB
:1054C800524BB3F850214E4BB3F8303B9A4205D8B3
:1054D8004E4BB3F850214A4BA3F8302B4B4BB3F843
:1054E8004A21474BB3F8383B9A4205D3474BB3F8A8
:1054F8004A21434BA3F8382B444BB3F85421404B73
:10550800B3F83C3B9A4205D3404BB3F854213C4B8B
:10551800A3F83C2B3D4BB3F84A21394BB3F83A3B3F
:105528009A4205D8394BB3F84A21354BA3F83A2BA0
:10553800364BB3F85421324BB3F83E3B9A4205D868
:10554800324BB3F854212E4BA3F83E2B2C4B03F5CA
:105558002C63D3E900014FF000022F4BFAF736FE17
:1055680002460B46264901F52C61C1E9002363E197
:10557800234B03F52F63D3E900014FF000024FF0EE
:105588000003FBF741FA0346002B20D01C4B03F520
:105598002F614FF00002204BC1E90023184A92F80E
:1055A800183B082161F3040382F8183B144B0022CE
:1055B80083F8422B15494FF00002154BC1E94823E7
:1055C80012494FF00002134BC1E94A2334E10C4B56
:1055D80003F52F63D3E900014FF000020E4BFBF7F0
:1055E80013FA0346002B19D126E100BFAFF3008060
:1055F8009A9999999999E93F333333333333EB3F88
:1056080018190020008051400000E83F7006002073
:10561800000059C0000059400000F03F884A92F845
:10562800183B112161F3040382F8183B85494FF0B8
:1056380000024FF00003C1E94A2382494FF00002FB
:105648004FF00003C1E948237D4B03F52C614FF06F
:1056580000024FF00003C1E90023794B4FF47A624E
:10566800A3F8342B764B0022A3F8362B744B4FF457
:105678007A62A3F8302B724B0022A3F8322B704BBE
:105688004FF47A62A3F83A2B6D4B0022A3F8382B1B
:105698006B4B4FF47A62A3F83E2B694B0022A3F8B8
:1056A8003C2BC9E0B868FFF72FFAC5E0644B93F8C4
:1056B800423B132B51D9624B03F6F823D3E900017F
:1056C8004FF000024FF00003FBF79EF90346002B52
:1056D80043D05B4A92F8183B102161F3040382F827
:1056E800183B58494FF000024FF00003C1E94A2324
:1056F80054494FF000024FF00003C1E94823504BD2
:1057080003F52C614FF000024FF00003C1E90023BC
:105718004B4B4FF47A62A3F8342B494B0022A3F881
:10572800362B474B4FF47A62A3F8302B444B0022B8
:10573800A3F8322B424B4FF47A62A3F83A2B404B32
:105748000022A3F8382B3E4B4FF47A62A3F83E2B85
:105758003B4B0022A3F83C2B6BE0394B03F6F823B4
:10576800D3E900014FF00002374BFBF74DF9034630
:10577800002B00D15DE0324B93F8423B132B58D9F4
:105788002F4A92F8183B122161F3040382F8183B60
:105798002C494FF000024FF00003C1E94A23294980
:1057A8004FF000024FF00003C1E9482341E0244BC9
:1057B80093F8423B092B3ED9BB681B88012B3AD191
:1057C8001F4A92F8183B132161F3040382F8183B2F
:1057D8001C494FF000021D4BC1E94A2319494FF0FB
:1057E80000021A4BC1E94823154B03F6B8214FF0C4
:1057F80000024FF00003C1E90023114B03F6C82152
:105808004FF000024FF00003C1E9002313E000BF8E
:1058180012E000BF10E000BF0EE000BF0CE000BFC8
:105828000AE000BF08E000BF06E000BF04E000BFD8
:1058380002E000BF00E000BF00BF1837BD4680BDD2
:1058480018190020700600200000F03F0080564024
:1058580080B58CB002AF78607B6800221A727B68D2
:1058680001225A600123BB731B4BFB617B68103319
:105878007B611A4BBB6100237B730923BB60042344
:10588800FB840423BB8408233B6209233B73BA8C43
:10589800F98C07F108003B6A009313460122FCF7D4
:1058A80015FC02467B68DA607B68DB6802211846D3
:1058B800FCF780FD7B68DB681846FCF795FC7B6885
:1058C800DB6801211846FCF7D8FB7B6801221A72B5
:1058D80000BF2837BD4680BD0000024000010450CB
:1058E80080B5A6B000AF78607B6801225A60214B72
:1058F800BB6000233B7300237B7307F10803184642
:10590800FBF796FE02467B68DA607B68DB6800215D
:105918001846FBF748FB022387F897307B68DB685B
:1059280097F8972011461846FBF772FC022387F870
:1059380097307B68DB6897F8972011461846FBF785
:1059480007FD7B68DB681846FCF7AEFF034687F85F
:10595800963097F89630002B05D17B68DB680021DC
:105968001846FCF7B9FF7B6801221A7200BF983706
:10597800BD4680BD0004004080B5A6B000AF786089
:105988007B6801225A60214BBB6000233B730023D4
:105998007B7307F108031846FBF74AFE02467B684B
:1059A800DA607B68DB6800211846FBF7FCFA022303
:1059B80087F897307B68DB6897F897201146184678
:1059C800FBF766FD022387F897307B68DB6897F85A
:1059D800972011461846FBF703FE7B68DB681846DC
:1059E800FCF762FF034687F8963097F89630002B4D
:1059F80005D17B68DB6800211846FCF76DFF7B68E2
:105A080001221A7200BF9837BD4680BD00040040CD
:105A18002DE9F04F97B000AFFDF702F800237B6542
:105A280007E0B04A7B6D1A44002313707B6D013385
:105A38007B657B6D072BF4DDAB4AAC4BC2F80831B4
:105A4800A94BD3F808311846FCF711FE38653B6DB1
:105A580003F04003002B0CBF01230023DBB287F8BF
:105A68004930A14AA24BC2F808319F4BD3F80831FC
:105A78001846FCF7FCFD38653B6D03F00403002B6A
:105A88000CBF01230023DBB287F84830994B93F809
:105A9800403B1A46984B13441B7E9BB2A7F84A30EA
:105AA800914A0423A2F80C31924BD3F8340A8E4B56
:105AB800B3F80C31914A1946FCF7ABFB8F4BDB89E5
:105AC800894AA2F848318D4B1B88874AA2F856317B
