:020000040800F2
:1000000000800120390101088F88000895880008C8
:100010009B880008A1880008A7880008000000004D
:10002000000000000000000000000000D55B000898
:10003000AD88000800000000915B0008C15A00086C
:100040008901010889010108890101088901010864
:100050008901010889010108890101088901010854
:10006000890101088901010889010108BB8800088C
:10007000212000088901010889010108890101087E
:10008000C9880008D7880008E588000889010108A8
:100090008901010889010108890101088901010814
:1000A00089010108F5880008890101088901010812
:1000B00089010108890101088901010889010108F4
:1000C00089010108890101088901010889010108E4
:1000D00089010108890101088901010889010108D4
:1000E00089010108890101088901010889010108C4
:1000F00089010108890101088901010889010108B4
:1001000089010108890101088901010889010108A3
:100110008901010889010108890101088901010893
:100120008901010889010108890101088901010883
:100130008901010889010108890101088901010873
:10014000890101088901010889010108098900085C
:100150008901010889010108890101088901010853
:100160008901010889010108890101088901010843
:1001700089010108890101088901010800000000C6
:08018000890101088901010851
:1001880010B5054C237833B9044B13B10448AFF3C9
:1001980000800123237010BD180300200000000018
:1001A800B807010808B5034B1BB103490348AFF36F
:1001B800008008BD000000001C030020B8070108EB
:1001C80081F0004102E000BF83F0004330B54FEA00
:1001D80041044FEA430594EA050F08BF90EA020F6D
:1001E8001FBF54EA000C55EA020C7FEA645C7FEA00
:1001F800655C00F0E2804FEA5454D4EB5555B8BF23
:100208006D420CDD2C4480EA020281EA030382EA93
:10021800000083EA010180EA020281EA0303362D25
:1002280088BF30BD11F0004F4FEA01314FF4801CF8
:100238004CEA113102D0404261EB410113F0004F0A
:100248004FEA03334CEA133302D0524263EB4303C1
:1002580094EA050F00F0A780A4F10104D5F1200E5F
:100268000DDB02FA0EFC22FA05F2801841F10001BA
:1002780003FA0EF2801843FA05F359410EE0A5F18E
:1002880020050EF1200E012A03FA0EFC28BF4CF0BF
:10029800020C43FA05F3C01851EBE37101F0004575
:1002A80007D54FF0000EDCF1000C7EEB00006EEB82
:1002B8000101B1F5801F1BD3B1F5001F0CD349080C
:1002C8005FEA30004FEA3C0C04F101044FEA445263
:1002D80012F5800F80F09A80BCF1004F08BF5FEAEA
:1002E800500C50F1000041EB045141EA050130BDCA
:1002F8005FEA4C0C404141EB0101013C28BFB1F5DC
:10030800801FE9D291F0000F04BF01460020B1FA26
:1003180081F308BF2033A3F10B03B3F120020CDAF9
:100328000C3208DD02F1140CC2F10C0201FA0CF0D7
:1003380021FA02F10CE002F11402D8BFC2F1200C3C
:1003480001FA02F120FA0CFCDCBF41EA0C019040F2
:10035800E41AA2BF01EB0451294330BD6FEA04043B
:100368001F3C1CDA0C340EDC04F11404C4F1200226
:1003780020FA04F001FA02F340EA030021FA04F338
:1003880045EA030130BDC4F10C04C4F1200220FA8F
:1003980002F001FA04F340EA0300294630BD21FACD
:1003A80004F0294630BD94F0000F83F4801306BF93
:1003B80081F480110134013D4EE77FEA645C18BF87
:1003C8007FEA655C29D094EA050F08BF90EA020F1E
:1003D80005D054EA000C04BF1946104630BD91EA16
:1003E800030F1EBF0021002030BD5FEA545C05D119
:1003F8004000494128BF41F0004130BD14F5800458
:100408003CBF01F5801130BD01F0004545F0FE41CB
:1004180041F470014FF0000030BD7FEA645C1ABF00
:10042800194610467FEA655C1CBF0B46024650EA37
:10043800013406BF52EA033591EA030F41F4002163
:1004480030BD00BF90F0000F04BF0021704730B5E9
:100458004FF4806404F132044FF000054FF00001BE
:1004680050E700BF90F0000F04BF0021704730B57F
:100478004FF4806404F1320410F0004548BF404254
:100488004FF000013EE700BF42004FEAE2014FEAA9
:1004980031014FEA02701FBF12F07F4393F07F4F84
:1004A80081F06051704732F07F4208BF704793F087
:1004B8007F4F04BF41F40021704730B54FF460749A
:1004C80001F0004521F000411CE700BF50EA01029D
:1004D80008BF704730B54FF000050AE050EA010246
:1004E80008BF704730B511F0004502D5404261EBB6
:1004F80041014FF4806404F132045FEA915C3FF4F7
:10050800D8AE4FF003025FEADC0C18BF03325FEA93
:10051800DC0C18BF033202EBDC02C2F1200300FA44
:1005280003FC20FA02F001FA03FE40EA0E0021FA69
:1005380002F11444BDE600BF70B54FF0FF0C4CF457
:10054800E06C1CEA11541DBF1CEA135594EA0C0F09
:1005580095EA0C0F00F0DEF82C4481EA030621EA44
:100568004C5123EA4C5350EA013518BF52EA03357F
:1005780041F4801143F4801338D0A0FB02CE4FF031
:100588000005E1FB02E506F00042E0FB03E54FF061
:100598000006E1FB03569CF0000F18BF4EF0010E59
:1005A800A4F1FF04B6F5007F64F5407404D25FEA55
:1005B8004E0E6D4146EB060642EAC62141EA555108
:1005C8004FEAC52040EA5E504FEACE2EB4F1FD0C4A
:1005D80088BFBCF5E06F1ED8BEF1004F08BF5FEAC8
:1005E800500E50F1000041EB045170BD06F000467A
:1005F80046EA010140EA020081EA0301B4EB5C0427
:10060800C2BFD4EB0C0541EA045170BD41F480111E
:100618004FF0000E013C00F3AB8014F1360FDEBF43
:10062800002001F0004170BDC4F10004203C35DA1F
:100638000C341BDC04F11404C4F1200500FA05F3A2
:1006480020FA04F001FA05F240EA020001F0004243
:1006580021F0004110EBD37021FA04F642EB0601B9
:100668005EEA430E08BF20EAD37070BDC4F10C04E3
:10067800C4F1200500FA04F320FA05F001FA04F2A7
:1006880040EA020001F0004110EBD37041F1000193
:100698005EEA430E08BF20EAD37070BDC4F120059E
:1006A80000FA05F24EEA020E20FA04F301FA05F206
:1006B80043EA020321FA04F001F0004121FA04F2AE
:1006C80020EA020000EBD3705EEA430E08BF20EA7E
:1006D800D37070BD94F0000F0FD101F000464000B8
:1006E80041EB010111F4801F08BF013CF7D041EA3A
:1006F800060195F0000F18BF704703F0004652003E
:1007080043EB030313F4801F08BF013DF7D043EA0E
:100718000603704794EA0C0F0CEA135518BF95EAC4
:100728000C0F0CD050EA410618BF52EA4306D1D14B
:1007380081EA030101F000414FF0000070BD50EA6A
:10074800410606BF1046194652EA430619D094EAF4
:100758000C0F02D150EA013613D195EA0C0F05D1DE
:1007680052EA03361CBF104619460AD181EA030132
:1007780001F0004141F0FE4141F470014FF00000EA
:1007880070BD41F0FE4141F4780170BD70B54FF085
:10079800FF0C4CF4E06C1CEA11541DBF1CEA135505
:1007A80094EA0C0F95EA0C0F00F0A7F8A4EB0504E7
:1007B80081EA030E52EA03354FEA013100F08880DE
:1007C8004FEA03334FF0805545EA131343EA1263A7
:1007D8004FEA022245EA111545EA10654FEA00265C
:1007E8000EF000419D4208BF964244F1FD0404F515
:1007F800407402D25B084FEA3202B61A65EB030571
:100808005B084FEA32024FF480104FF4002CB6EB2D
:10081800020E75EB030E22BFB61A754640EA0C00AD
:100828005B084FEA3202B6EB020E75EB030E22BFED
:10083800B61A754640EA5C005B084FEA3202B6EB2E
:10084800020E75EB030E22BFB61A754640EA9C00ED
:100858005B084FEA3202B6EB020E75EB030E22BFBD
:10086800B61A754640EADC0055EA060E18D04FEA7B
:10087800051545EA16754FEA06164FEAC30343EA1B
:1008880052734FEAC2025FEA1C1CC0D111F4801FE8
:100898000BD141EA00014FF000004FF0004CB6E7E1
:1008A80011F4801F04BF01430020B4F1FD0C88BF80
:1008B800BCF5E06F3FF6AFAEB5EB030C04BFB6EB8B
:1008C800020C5FEA500C50F1000041EB045170BD7E
:1008D8000EF0004E4EEA113114EB5C04C2BFD4EBAB
:1008E8000C0541EA045170BD41F480114FF0000E2F
:1008F800013C90E645EA060E8DE60CEA135594EAAB
:100908000C0F08BF95EA0C0F3FF43BAF94EA0C0FAD
:100918000AD150EA01347FF434AF95EA0C0F7FF422
:1009280025AF104619462CE795EA0C0F06D152EA76
:1009380003353FF4FDAE1046194622E750EA41065A
:1009480018BF52EA43067FF4C5AE50EA41047FF46B
:100958000DAF52EA43057FF4EBAE12E74FF0FF3CD0
:1009680006E000BF4FF0010C02E000BF4FF0010CA1
:100978004DF804CD4FEA410C7FEA6C5C4FEA430C1A
:1009880018BF7FEA6C5C1BD001B050EA410C0CBF69
:1009980052EA430C91EA030F02BF90EA020F0020CB
:1009A800704710F1000F91EA030F58BF994208BF32
:1009B80090422CBFD8176FEAE37040F001007047EF
:1009C8004FEA410C7FEA6C5C02D150EA013C07D146
:1009D8004FEA430C7FEA6C5CD6D152EA033CD3D091
:1009E8005DF8040B704700BF8446104662468C468B
:1009F8001946634600E000BF01B5FFF7B7FF0028BE
:100A080048BF10F1000F01BD4DF808EDFFF7F4FFE6
:100A18000CBF012000205DF808FB00BF4DF808ED71
:100A2800FFF7EAFF34BF012000205DF808FB00BF94
:100A38004DF808EDFFF7E0FF94BF012000205DF8B6
:100A480008FB00BF4DF808EDFFF7CEFF94BF01206B
:100A580000205DF808FB00BF4DF808EDFFF7C4FF64
:100A680034BF012000205DF808FB00BF4FEA410CAD
:100A78007FEA6C5C02D150EA013C0AD14FEA430C90
:100A88007FEA6C5C02D152EA033C02D14FF00000CD
:100A980070474FF0010070474FEA410212F500120B
:100AA80015D211D56FF47873B3EB625212D94FEAAD
:100AB800C12343F0004343EA505311F0004F23FA97
:100AC80002F018BF404270474FF00000704750EAEC
:100AD800013005D111F0004008BF6FF000407047A9
:100AE8004FF00000704700BF4A0011D212F5001203
:100AF80011D20DD56FF47873B3EB62520ED44FEA6E
:100B0800C12343F0004343EA505323FA02F07047ED
:100B18004FF00000704750EA013002D14FF0FF302B
:100B280070474FF0000070474FEA4102B2F1E043CE
:100B380024BFB3F5001CDCF1FE5C0DD901F0004CBC
:100B48004FEAC0024CEA5070B2F1004F40EB83000C
:100B580008BF20F00100704711F0804F21D113F138
:100B68003872BCBF01F00040704741F480114FEA71
:100B78005252C2F11802C2F1200C10FA0CF320FAFA
:100B880002F018BF40F001004FEAC1234FEAD32317
:100B980003FA0CFC40EA0C0023FA02F34FEA430381
:100BA800CCE77FEA625307D150EA01331EBF4FF00A
:100BB800FE4040F44000704701F0004040F0FE4025
:100BC80040F40000704700BF80B485B000AF786083
:100BD8007B681B6803F06003FB60FB68002B04D193
:100BE8007B681B6803F01003FB60FB68184614372A
:100BF800BD465DF8047B704780B483B000AF786071
:100C08007B681B6B18460C37BD465DF8047B704744
:100C180080B483B000AF786039607B681A6A3B683B
:100C28001A437B681A6200BF0C37BD465DF8047B27
:100C3800704780B483B000AF786039607B681A6A07
:100C48003B68DB431A407B681A6200BF0C37BD461D
:100C58005DF8047B704780B483B000AF78607B6830
:100C68005B6C43F400427B685A6400BF0C37BD4696
:100C78005DF8047B704780B483B000AF78607B6810
:100C8800DB6843F001027B68DA6000BF0C37BD46C1
:100C98005DF8047B704780B483B000AF78607B68F0
:100CA800DB6823F001027B68DA6000BF0C37BD46C1
:100CB8005DF8047B704780B483B000AF78607B68D0
:100CC800DB6803F00103012B01D1012300E00023BD
:100CD80018460C37BD465DF8047B704780B483B076
:100CE80000AF78607B68DB6843F002027B68DA60FB
:100CF80000BF0C37BD465DF8047B704780B483B0F5
:100D080000AF78607B68DB6823F002027B68DA60FA
:100D180000BF0C37BD465DF8047B704780B483B0D4
:100D280000AF78607B68DB6803F00203022B01D117
:100D3800012300E0002318460C37BD465DF8047B0C
:100D4800704780B483B000AF78607B68DB6843F09D
:100D580004027B68DA6000BF0C37BD465DF8047B8F
:100D6800704780B483B000AF78607B68DB6823F09D
:100D780004027B68DA6000BF0C37BD465DF8047B6F
:100D8800704780B483B000AF78607B68DB6803F09D
:100D98000403042B01D1012300E0002318460C377B
:100DA800BD465DF8047B704780B483B000AF7860BF
:100DB8007B68DB6843F008027B68DA6000BF0C37A9
:100DC800BD465DF8047B704780B483B000AF78609F
:100DD8007B68DB6823F008027B68DA6000BF0C37A9
:100DE800BD465DF8047B704780B483B000AF78607F
:100DF8007B68DB6803F00803082B01D1012300E0BE
:100E0800002318460C37BD465DF8047B704780B454
:100E180083B000AF78607B68DB6843F010027B68C2
:100E2800DA6000BF0C37BD465DF8047B704780B4BC
:100E380083B000AF78607B68DB6823F010027B68C2
:100E4800DA6000BF0C37BD465DF8047B704780B49C
:100E580083B000AF78607B68DB6803F01003102B69
:100E680001D1012300E0002318460C37BD465DF888
:100E7800047B704780B483B000AF78607B68DB6820
:100E880043F020027B68DA6000BF0C37BD465DF88E
:100E9800047B704780B483B000AF78607B68DB6800
:100EA80023F020027B68DA6000BF0C37BD465DF88E
:100EB800047B704780B483B000AF78607B68DB68E0
:100EC80003F02003202B01D1012300E00023184662
:100ED8000C37BD465DF8047B704780B483B000AF23
:100EE80078607B68DB6843F040027B68DA6000BFAB
:100EF8000C37BD465DF8047B704780B483B000AF03
:100F080078607B68DB6823F040027B68DA6000BFAA
:100F18000C37BD465DF8047B704780B483B000AFE2
:100F280078607B68DB6803F04003402B01D1012324
:100F380000E0002318460C37BD465DF8047B704777
:100F480080B483B000AF78607B68DB6843F08002D0
:100F58007B68DA6000BF0C37BD465DF8047B7047DC
:100F680080B483B000AF78607B68DB6823F08002D0
:100F78007B68DA6000BF0C37BD465DF8047B7047BC
:100F880080B483B000AF78607B68DB6803F08003CF
:100F9800802B01D1012300E0002318460C37BD4601
:100FA8005DF8047B704780B582B000AF78600B466F
:100FB8007B807B8803F00103002B0CD07B681B68C7
:100FC8001846FFF7AAFF0346012B04D07B681B686D
:100FD8001846FFF782FF7B8803F00203002B0CD032
:100FE8007B681B681846FFF799FE0346012B04D05F
:100FF8007B681B681846FFF771FE7B8803F00403C3
:10100800002B0CD07B681B681846FFF7BAFE034616
:10101800012B04D07B681B681846FFF792FE7B887B
:1010280003F00803002B0CD07B681B681846FFF7F9
:10103800DBFE0346012B04D07B681B681846FFF7CC
:10104800B3FE7B8803F01003002B0CD07B681B6871
:101058001846FFF7FCFE0346012B04D07B681B688B
:101068001846FFF7D4FE7B8803F02003002B0CD032
:101078007B681B681846FFF71EFE0346012B04D049
:101088007B681B681846FFF7F6FD7B8803F0400372
:10109800002B0CD07B681B681846FFF771FF0346CE
:1010A800012B04D07B681B681846FFF749FF7B8833
:1010B80003F08003002B0CD07B681B681846FFF7F1
:1010C800F9FE0346012B04D07B681B681846FFF71E
:1010D800D1FE00BF0837BD4680BD80B582B000AFE5
:1010E80078600B467B807B8803F00103002B0CD0D3
:1010F8007B681B681846FFF710FF0346012B04D1D5
:101108007B681B681846FFF7F8FE7B8803F002032C
:10111800002B0CD07B681B681846FFF7FFFD0346C1
:10112800012B04D17B681B681846FFF7E7FD7B8815
:1011380003F00403002B0CD07B681B681846FFF7EC
:1011480020FE0346012B04D17B681B681846FFF775
:1011580008FE7B8803F00803002B0CD07B681B6813
:101168001846FFF741FE0346012B04D17B681B6834
:101178001846FFF729FE7B8803F01003002B0CD0DC
:101188007B681B681846FFF762FE0346012B04D1F3
:101198007B681B681846FFF74AFE7B8803F020032C
:1011A800002B0CD07B681B681846FFF784FD0346AC
:1011B800012B04D07B681B681846FFF76CFD7B8801
:1011C80003F04003002B0CD07B681B681846FFF720
:1011D800D7FE0346012B04D17B681B681846FFF72E
:1011E800BFFE7B8803F08003002B0CD07B681B6854
:1011F8001846FFF75FFE0346012B04D17B681B6886
:101208001846FFF747FE00BF0837BD4680BD0000FF
:1012180080B582B000AF78600B46FB70FB78022B7C
:1012280006D17B681B6801211846FFF7F1FC31E005
:101238007B681B68194A934213D07B681B68184A5D
:1012480093420ED07B681B68164A934209D07B688C
:101258001B68154A934204D07B681B68134A934263
:1012680018D1FB78032B06D17B681B68042118462C
:10127800FFF7CEFC0EE0FB78042B0BD17B681B68D4
:1012880001211846FFF7C4FC7B681B680421184637
:10129800FFF7BEFC00BF0837BD4680BD002C0140EB
:1012A8000034014000400140004401400048014032
:1012B80080B582B000AF78600B46FB70FB78022BDC
:1012C80006D17B681B6801211846FFF7B2FC31E0A4
:1012D8007B681B68194A934213D07B681B68184ABD
:1012E80093420ED07B681B68164A934209D07B68EC
:1012F8001B68154A934204D07B681B68134A9342C3
:1013080018D1FB78032B06D17B681B68042118468B
:10131800FFF78FFC0EE0FB78042B0BD17B681B6872
:1013280001211846FFF785FC7B681B6804211846D5
:10133800FFF77FFC00BF0837BD4680BD002C014089
:101348000034014000400140004401400048014091
:1013580080B582B000AF78600B46FB70FB78022B3B
:1013680006D17B681B6810211846FFF751FC31E055
:101378007B681B68194A934213D07B681B68184A1C
:1013880093420ED07B681B68164A934209D07B684B
:101398001B68154A934204D07B681B68134A934222
:1013A80018D1FB78032B06D17B681B6840211846AF
:1013B800FFF72EFC0EE0FB78042B0BD17B681B6833
:1013C80010211846FFF724FC7B681B68402118464B
:1013D800FFF71EFC00BF0837BD4680BD002C01404A
:1013E80000340140004001400044014000480140F1
:1013F80080B582B000AF78600B46FB70FB78022B9B
:1014080006D17B681B6810211846FFF712FC31E0F3
:101418007B681B68194A934213D07B681B68184A7B
:1014280093420ED07B681B68164A934209D07B68AA
:101438001B68154A934204D07B681B68134A934281
:1014480018D1FB78032B06D17B681B68402118460E
:10145800FFF7EFFB0EE0FB78042B0BD17B681B68D2
:1014680010211846FFF7E5FB7B681B6840211846EA
:10147800FFF7DFFB00BF0837BD4680BD002C0140E9
:101488000034014000400140004401400048014050
:1014980080B582B000AF78600B46FB70FB78022BFA
:1014A80007D17B681B684FF480711846FFF7B0FBC3
:1014B80034E07B681B681B4A934213D07B681B6827
:1014C800194A93420ED07B681B68184A934209D088
:1014D8007B681B68164A934204D07B681B68154AD0
:1014E80093421BD1FB78032B07D17B681B684FF411
:1014F80080611846FFF78CFB10E0FB78042B0DD1B8
:101508007B681B684FF480711846FFF781FB7B6886
:101518001B684FF480611846FFF77AFB00BF083755
:10152800BD4680BD002C0140003401400040014010
:10153800004401400048014080B582B000AF7860A7
:101548000B46FB70FB78022B07D17B681B684FF4B6
:1015580080711846FFF76DFB34E07B681B681B4AF7
:10156800934213D07B681B68194A93420ED07B685C
:101578001B68184A934209D07B681B68164A934235
:1015880004D07B681B68154A93421BD1FB78032B58
:1015980007D17B681B684FF480611846FFF749FB49
:1015A80010E0FB78042B0DD17B681B684FF4807129
:1015B8001846FFF73EFB7B681B684FF480611846AE
:1015C800FFF737FB00BF0837BD4680BD002C014040
:1015D80000340140004001400044014000480140FF
:1015E80080B582B000AF78600B46FB70FB78022BA9
:1015F80006D17B681B684FF480511846FFF708FB3B
:1016080000BF0837BD4680BD80B582B000AF7860A6
:101618000B46FB70FB78022B06D17B681B684FF4E6
:1016280080511846FFF705FB00BF0837BD4680BD4F
:1016380080B584B000AF78600023FB607B681B68CE
:10164800304A934201D1304BFB607B681A68FB68D3
:101658001A60FB681B681846FFF7B6FAB860BB68E3
:10166800002B06D0BB68102B03D0FB6801221A712F
:1016780002E0FB6800221A71FB681B68234A934248
:1016880013D0FB681B68224A93420ED0FB681B6884
:10169800204A934209D0FB681B681F4A934204D032
:1016A800FB681B681D4A934204D1FB681B681846F7
:1016B800FFF7D1FAFB681B68144A934213D0FB6802
:1016C8001B68134A93420ED0FB681B68114A934269
:1016D80009D0FB681B68104A934204D0FB681B685A
:1016E8000E4A934208D17B681B681846FFF784FAB4
:1016F8000346DAB2FB685A71FB6818461037BD46D4
:1017080080BD00BF0004004078050020002C014087
:1017180000340140004001400044014000480140BD
:1017280080B485B000AF786039603B68002B03D186
:101738007B684033FB6001E0044BFB60FB681846A4
:101748001437BD465DF8047B704700BF0C03045096
:1017580080B483B000AF78607B68DB6803F44063D3
:10176800002B01D1012300E0002318460C37BD46A9
:101778005DF8047B704780B483B000AF786039604F
:101788007B681B6B23F00F023B681A437B681A6364
:1017980000BF0C37BD465DF8047B704780B483B04A
:1017A80000AF786039607B68DB6823F003023B6830
:1017B8001A437B68DA6000BF0C37BD465DF8047BCE
:1017C800704780B483B000AF78607B68DB6C03F04F
:1017D800C003002B01D1012300E0002318460C3779
:1017E800BD465DF8047B704780B483B000AF786075
:1017F8007B689B6823F0004323F03F0343F001021A
:101808007B689A6000BF0C37BD465DF8047B704763
:1018180080B483B000AF78607B689B6823F0004396
:1018280023F03F0343F002027B689A6000BF0C3745
:10183800BD465DF8047B704780B483B000AF786024
:101848007B689B6803F00103012B01D1012300E0B1
:10185800002318460C37BD465DF8047B704780B4FA
:1018680083B000AF786039607B689B6823F04043A1
:1018780023F03F033A6802F08042134343F00042EA
:101888007B689A6000BF0C37BD465DF8047B7047E3
:1018980080B483B000AF78607B689B6803F0004336
:1018A800B3F1004F01D1012300E0002318460C37A3
:1018B800BD465DF8047B704780B483B000AF7860A4
:1018C8007B689B6823F0004323F03F0343F0040246
:1018D8007B689A6000BF0C37BD465DF8047B704793
:1018E80080B483B000AF78607B689B6823F00043C6
:1018F80023F03F0343F008027B689A6000BF0C376F
:10190800BD465DF8047B704780B483B000AF786053
:101918007B681B6803F00803082B01D1012300E052
:10192800002318460C37BD465DF8047B704780B429
:1019380083B000AF78607B681B6803F01003102B3E
:1019480001D1012300E0002318460C37BD465DF89D
:10195800047B704780B483B000AF78607B68102246
:101968001A6000BF0C37BD465DF8047B704780B431
:1019780083B000AF78607B685B6843F008027B68DF
:101988005A6000BF0C37BD465DF8047B704780B4D1
:1019980083B000AF78607B685B6843F040027B6887
:1019A8005A6000BF0C37BD465DF8047B704780B4B1
:1019B80083B000AF78607B685B6823F008027B68BF
:1019C8005A6000BF0C37BD465DF8047B704780B491
:1019D80083B000AF78607B685B6823F010027B6897
:1019E8005A6000BF0C37BD465DF8047B704780B471
:1019F80083B000AF78607B685B6823F040027B6847
:101A08005A6000BF0C37BD465DF8047B704780B450
:101A180083B000AF78607B685B6823F080027B68E6
:101A28005A6000BF0C37BD465DF8047B704780B430
:101A380083B000AF78607B685B6803F01003102BFD
:101A480001D1012300E0002318460C37BD465DF89C
:101A5800047B704780B483B000AF78607B685B68B4
:101A680003F08003802B01D1012300E000231846F6
:101A78000C37BD465DF8047B7047000080B485B024
:101A880000AF786039607B68FB600C4A3B681344A0
:101A98001B781A46FB6813441B6808493A680A44CD
:101AA80012781146FA680A4443F00103136000BF34
:101AB8001437BD465DF8047B704700BF2408010851
:101AC80080B485B000AF786039607B68FB600C4AF1
:101AD8003B6813441B781A46FB6813441B68084983
:101AE8003A680A4412781146FA680A4423F0010356
:101AF800136000BF1437BD465DF8047B704700BF14
:101B08002408010880B485B000AF786039607B682C
:101B1800FB60084A3B6813441B781A46FB68134469
:101B28001B6803F0200318461437BD465DF8047B94
:101B3800704700BF2408010880B487B000AFF86080
:101B4800B9607A60FB687B610D4ABB6813441B78F7
:101B58001A467B6913445B681B0C1B040849BA6866
:101B68000A44127811467A690A4411467A6813437E
:101B78004B6000BF1C37BD465DF8047B704700BF53
:101B88002408010880B487B000AFF860B9607A60B3
:101B98003B60FB687B613B6A102B14D1174ABB681A
:101BA80013441B781A467B6913441A467B68D36032
:101BB800124ABB6813441B781A467B6913441A46B9
:101BC8003B68936013E00D4ABB6813441B781A46C0
:101BD8007B6913441A467B689360084ABB681344C0
:101BE8001B781A467B6913441A463B68D36000BFCA
:101BF8001C37BD465DF8047B704700BF2408010808
:101C080080B487B000AFF860B9607A60FB687B6128
:101C1800074ABB6813441B781A467B6913441A4663
:101C28007B68936000BF1C37BD465DF8047B704736
:101C38002408010880B483B000AF78607B681B6813
:101C480003F02003202B01D1012300E000231846D4
:101C58000C37BD465DF8047B704780B483B000AF95
:101C680078607B6820225A6000BF0C37BD465DF85B
:101C7800047B704780B485B000AF786039607B68BA
:101C8800FB600C4A3B6813441B781A46FB681344F4
:101C98001B6808493A680A4412781146FA680A44E7
:101CA80043F00203136000BF1437BD465DF8047BA0
:101CB800704700BF2408010880B485B000AF786081
:101CC80039607B68FB600C4A3B6813441B781A46F2
:101CD800FB6813441B6808493A680A44127811469D
:101CE800FA680A4443F00803136000BF1437BD467E
:101CF8005DF8047B704700BF2408010880B485B0F4
:101D080000AF786039607B68FB600C4A3B6813441D
:101D18001B781A46FB6813441B6808493A680A444A
:101D280012781146FA680A4423F00203136000BFD0
:101D38001437BD465DF8047B704700BF24080108CE
:101D480080B485B000AF786039607B68FB600C4A6E
:101D58003B6813441B781A46FB6813441B68084900
:101D68003A680A4412781146FA680A4423F00403D0
:101D7800136000BF1437BD465DF8047B704700BF91
:101D88002408010880B485B000AF786039607B68AA
:101D9800FB600C4A3B6813441B781A46FB681344E3
:101DA8001B6808493A680A4412781146FA680A44D6
:101DB80023F00803136000BF1437BD465DF8047BA9
:101DC800704700BF2408010880B485B000AF786070
:101DD80039607B68FB600A4A3B6813441B781A46E3
:101DE800FB6813441B6803F00203022B01D1012393
:101DF80000E0002318461437BD465DF8047B7047A1
:101E08002408010880B584B000AF78600123FB8105
:101E18007B681B691846FFF79BFC0346002B2FD0F5
:101E28007B685B7ADBB2022B11D07B685B7ADBB212
:101E3800042B0CD07B685B7ADBB2082B07D07B685D
:101E48001B691846FFF760FD0346012B18D1786817
:101E580000F0F2F80346002B12D17B685B7ADBB204
:101E6800082B03D17B6801225A7202E07B6820228A
:101E78005A727B681B691846FFF71EFD0023FB8119
:101E8800FB8918461037BD4680BD80B586B002AFC5
:101E9800F860B9607A603B600021F868FFF740FCA1
:101EA80003461A467968B868FFF7AAFE0021F86861
:101EB800FFF736FC02463B68002100917968B86854
:101EC800FFF760FEBA697968B868FFF735FE796888
:101ED800B868FFF7CFFE7968B868FFF7EDFE796854
:101EE800B868FFF7CBFD00BF1037BD4680BD80B591
:101EF80084B000AFF860B9607A607968B868FFF7B5
:101F0800DFFD7968B868FFF71BFF7968B868FFF7E5
:101F180039FF7968B868FFF7F1FE00227968B86878
:101F2800FFF70AFE00BF1037BD4680BD80B582B0FE
:101F380000AF786039607B68DB79012B0DD17B6855
:101F4800DA687B681B685B00D1187B681B685B00DC
:101F58001A4638680EF016FC08E07B68D9687B687A
:101F68001B685B001A4638680EF00CFC00BF083787
:101F7800BD4680BD80B586B000AFF860B9607A60B4
:101F8800FB685A69FB689B7919461046FFF71CFFE6
:101F98000346DBB2012B37D1FB685A69BB68104690
:101FA80098470346012B2FD1FB6804225A72FB681D
:101FB8005A697B6810469847FB685A69FB689B79A1
:101FC80019461046FFF79EFD0346002B19D1FB6802
:101FD8005A69FB689B7919461046FFF771FDFB6843
:101FE8005869FB689B791946FB681B681A46FFF716
:101FF800A3FDFB685A69FB689B7919461046FFF7F1
:102008003DFD0123FB7501E00023FB75FB7D1846B0
:102018001837BD4680BD000080B500AF034A0449AB
:102028000448FFF7A7FF00BF80BD00BF631C00087E
:102038003D1C00080406002080B582B000AF78601F
:102048007B681B691846FFF772FC0346DBB2012B5D
:1020580007D17B681B691846FFF77CFC7B68102258
:102068005A727B685B7ADBB2102B0CBF012300230A
:10207800DBB218460837BD4680BD80B582B000AFD8
:1020880078600B46FB70FB78012B0DD17B681B69D0
:102098001846FFF75DFB0346012B12D07B681B69CE
:1020A8001846FFF709FC0CE07B681B691846FFF728
:1020B80088FB0346012B04D07B681B691846FFF791
:1020C8000FFC00BF0837BD4680BD000090B589B041
:1020D80002AFF860084611461A4603467B810B4654
:1020E8003B811346FB8000237B61FB681B693C4AEC
:1020F800934201D13B4B7B617B69002B6BD0FB6822
:102108001A697B691A617B690022DA71FB88012BE5
:1021180061D03B89002B47D07B695B7ADBB2082B07
:1021280042D0FB68DA687B69DA60FB681A687B6909
:102138001A60FB685A697B695A61FB689A797B69FE
:102148009A71FB681A797B691A717B691B69B96A8C
:102158001846FFF710FB7B89012B21D07B89042BC4
:1021680016D17B691B6903211846FFF717FB7B69AA
:1021780018697B6959697B699B791C467B69DA68B0
:102188007B691B68009313462246FFF77EFE07E033
:102198007B89022B04D17B691B691846FFF7E7FB93
:1021A8007B6908225A7216E03B89002B13D17B69A0
:1021B8009B7ADBB2082B0ED0FB685A797B695A717F
:1021C8007B89022B04D17B691B691846FFF7DFFB6B
:1021D8007B6908229A727B6918461C37BD4690BDF8
:1021E800000104500406002080B582B000AF78607A
:1021F8007B681B691846FFF71FFB0346002B04D1B9
:102208007B681B691846FFF7EFFA00BF0837BD4621
:1022180080BD80B586B000AFF8600B467A607B81E0
:102228000123FB82FB681B69002B46D07B89012BAD
:1022380005D1F868FFF7E6FD0346FB823DE07B89A0
:10224800042B1FD1FB681B691846FFF781FA034668
:10225800002B32D0FB6801225A72FB681B691846B2
:10226800FFF72AFB00BFFB685B7ADBB2042BFAD1CD
:102278007968F868FFF75AFEFB6808225A7200234B
:10228800FB821AE07B89022B17D1FB685B7ADBB2F1
:10229800202B09D0FB685B7ADBB2042B04D0FB68E7
:1022A8005B7ADBB2102B08D1FB6808225A72796876
:1022B800F868FFF73BFE0023FB82FB8A18461837B5
:1022C800BD4680BD80B582B000AF78600B467B808C
:1022D80013463B807B681B691846FFF7ADFA034637
:1022E800002B04D07B681B691846FFF791FA7B68BE
:1022F8001B691846FFF7AEFB0346002B04D07B682A
:102308001B691846FFF783FB7B681B691846FFF7B4
:102318008EFB0346002B04D07B681B691846FFF729
:1023280056FB3B88002B35D07B680022DA607B683F
:1023380000221A607B6800225A617B6800229A7129
:102348007B6800221A717B681A697B681B791946B9
:102358001046FFF710FA7B88012B26D07B88022BCA
:1023680005D17B681B691846FFF721FB1DE07B88B8
:10237800042B1AD17B6818697B6859697B689B793B
:102388001A46FFF7B4FD7B681B6900211846FFF762
:1023980005FA0AE07B6800225A717B88022B04D177
:1023A8007B681B691846FFF722FB00BF0837BD464C
:1023B80080BD000080B584B000AF78600B46FB702C
:1023C8007B681B691846FFF737FA0346FB7397F9D2
:1023D8000F30012B04D17B681B691846FFF718FAE8
:1023E800FB78002B0FD17B681B697F211846FFF70C
:1023F80036FA00BF7B681B691846FFF749FA03469F
:10240800012BF7D040E0FB78012B0FD17B681B69CB
:102418002C491846FFF723FA00BF7B681B6918464A
:10242800FFF736FA0346012BF7D02DE07B681B69CE
:102438007F211846FFF713FA00BF7B681B6918460F
:10244800FFF726FA0346012BF7D00023BB8107E0EC
:1024580000BFBB891BB29BB201339BB21BB2BB81CD
:10246800BB891BB29BB2032BF2D97B681B69154948
:102478001846FFF7F4F900BF7B681B691846FFF799
:1024880007FA0346012BF7D00023BB8107E000BF02
:10249800BB891BB29BB201339BB21BB2BB81BB8908
:1024A8001BB29BB2032BF2D997F90F30012B04D141
:1024B8007B681B691846FFF797F900BF1037BD46C0
:1024C80080BD00BF00007F4080B483B000AF78605B
:1024D8007B681B6843F001027B681A6000BF0C37F9
:1024E800BD465DF8047B704780B483B000AF786068
:1024F8007B681B6823F001027B681A6000BF0C37F9
:10250800BD465DF8047B704780B483B000AF786047
:1025180039607B681B6823F004023B681A437B68B8
:102528001A6000BF0C37BD465DF8047B704780B465
:1025380083B000AF78607B681B6803F0040318461B
:102548000C37BD465DF8047B704780B483B000AF9C
:1025580078607B68DB6A18460C37BD465DF8047BFB
:10256800704780B483B000AF786039607B683A68A0
:102578001A6300BF0C37BD465DF8047B704780B412
:1025880083B000AF786039607B683A685A6300BFEF
:102598000C37BD465DF8047B704780B483B000AF4C
:1025A800786039607B683A689A6300BF0C37BD462B
:1025B8005DF8047B704780B483B000AF7860396001
:1025C8007B683A68DA6300BF0C37BD465DF8047B68
:1025D800704780B483B000AF786039607B683A6830
:1025E8001A6400BF0C37BD465DF8047B704780B4A1
:1025F80083B000AF78607B685B6B18460C37BD46CC
:102608005DF8047B704780B483B000AF78607B6866
:102618009B6B18460C37BD465DF8047B704780B449
:1026280083B000AF78607B68DB6B18460C37BD461B
:102638005DF8047B704780B483B000AF78607B6836
:102648001B6C18460C37BD465DF8047B704780B498
:1026580083B000AF78607B685B6943F001027B68F8
:102668005A6100BF0C37BD465DF8047B704780B4E3
:1026780083B000AF78607B681B6918460C37BD468D
:102688005DF8047B704780B483B000AF7860396030
:102698007B683A689A6100BF0C37BD465DF8047BD9
:1026A800704780B483B000AF786039607B683A685F
:1026B8009A6200BF0C37BD465DF8047B7047000086
:1026C80080B584B000AF786087ED000AD7ED007A56
:1026D800F5EEC07AF1EE10FA03D54FF000033B6037
:1026E8000AE0D7ED007A9FED167AF4EEC77AF1EE9C
:1026F80010FA01DD134B3B607B681B681846FFF737
:1027080024FFF8607B681B79002B0CBF0123002392
:10271800DBB21A46FB68134407EE903AB8EE677AC4
:10272800D7ED007A27EE277ADFED056AC7EE267A1D
:10273800FCEEE77A17EE903A18461037BD4680BD92
:102748000000C8420000C84280B582B000AF78607F
:1027580039607B681B681846FFF749FF02463B68EB
:10276800934205D07B681B6839681846FFF707FF56
:1027780000BF0837BD4680BD80B582B000AF786025
:1027880039607B681B681846FFF73DFF02463B68C7
:10279800934205D07B681B6839681846FFF7FDFE31
:1027A80000BF0837BD4680BD80B582B000AF7860F5
:1027B80039607B681B681846FFF731FF02463B68A3
:1027C800934205D07B681B6839681846FFF7F3FE0B
:1027D80000BF0837BD4680BD80B582B000AF7860C5
:1027E80039607B681B681846FFF725FF02463B687F
:1027F800934205D07B681B6839681846FFF7E9FEE5
:1028080000BF0837BD4680BD80B584B000AF786092
:1028180087ED000A97ED000A7868FFF751FFF86026
:10282800F9687868FFF790FF00BF1037BD4680BD94
:1028380080B584B000AF786087ED000A97ED000A94
:102848007868FFF73DFFF860F9687868FFF794FF4C
:1028580000BF1037BD4680BD80B584B000AF78603A
:1028680087ED000A97ED000A7868FFF729FFF860FE
:10287800F9687868FFF798FF00BF1037BD4680BD3C
:1028880080B584B000AF786087ED000A97ED000A44
:102898007868FFF715FFF860F9687868FFF79CFF1C
:1028A80000BF1037BD4680BD80B485B000AF7860EA
:1028B8007B681B689A68074B1340FB60FB68062B14
:1028C8000CBF01230023DBB218461437BD465DF860
:1028D800047B70470700010080B584B000AF7860C2
:1028E8000B46FB707B681B681846FFF720FEF860F4
:1028F800FB78002B1ED07B681B68324A934213D0AA
:102908007B681B68304A93420ED07B681B682F4A4D
:10291800934209D07B681B682D4A934204D07B6898
:102928001B682C4A934205D17B681B680021184616
:10293800FFF717FEFB68042B11D07B681B68042186
:102948001846FFF7E1FD7B681B681846FFF77FFE16
:102958007B681B68F9681846FFF7D6FD04E07B68BA
:102968001B681846FFF773FE7B681B681846FFF75D
:10297800ABFDFB78002B20D07B681B68114A934283
:1029880013D07B681B68104A93420ED07B681B6883
:102998000E4A934209D07B681B680D4A934204D0C3
:1029A8007B681B680B4A934207D17B681A687B686F
:1029B8005B7919461046FFF7D4FD00BF1037BD46B6
:1029C80080BD00BF002C01400034014000400140A0
:1029D800004401400048014080B582B000AF7860F3
:1029E8007B681B681846FFF77FFD00BF0837BD46A8
:1029F80080BD000080B483B000AF7860074B5B797E
:102A0800002B0CBF01230023DAB27B6801331A7054
:102A180000BF0C37BD465DF8047B704734030020C7
:102A280080B400AF0C4B5B79002B0CBF0123002353
:102A3800DAB2094B9A71084B5A790132D2B25A71FB
:102A4800054B5B79012B02D9034B00225A7100BF59
:102A5800BD465DF8047B70473403002080B485B020
:102A680000AF786039607B68012283F8D8203B6822
:102A7800D3E900237968C1E902237B6801221A603F
:102A88000023FB600CE07B68D3E902237868F968CF
:102A98000231C9000144C1E90023FB680133FB602E
:102AA800FB68182BEFDD00BF00BF1437BD465DF88B
:102AB800047B704780B586B000AF87ED040BF860E3
:102AC800B9607A60BB68D3E902017B68D3E9002367
:102AD800FDF79AFF0346002B05D17B68D3E9002355
:102AE800B968C1E90223F868BB681033C8221946DF
:102AF8000DF048FEF968D7E90423C1E93223FB68E1
:102B080003F1D000BB681033C02219460DF03AFE1D
:102B1800BB6803F11000FB68C833C82219460DF0E2
:102B280031FE00BF1837BD4680BD80B485B000AF08
:102B3800786039607B68012283F860203B68D3E9BC
:102B480000237968C1E902237B6801221A60002307
:102B5800FB600CE07B68D3E902237868F9680231EE
:102B6800C9000144C1E90023FB680133FB60FB682D
:102B7800092BEFDD00BF00BF1437BD465DF8047BAD
:102B8800704780B586B000AF87ED040BF860B96078
:102B98007A60BB68D3E902017B68D3E90023FDF7BB
:102BA80033FF0346002B05D17B68D3E90023B968BE
:102BB800C1E90223F868BB681033502219460DF0AA
:102BC800E1FDF968D7E90423C1E91423FB6803F19F
:102BD8005800BB681033482219460DF0D3FDBB6876
:102BE80003F11000FB685033502219460DF0CAFD5E
:102BF80000BF1837BD4680BD80B584B000AF87EDF3
:102C0800000B38687B6823F000414FF000022C4B22
:102C1800FDF704FF0346002B42D04FF00002294B7A
:102C2800D7E90001FDF70EFF0346002B13D04FF044
:102C38000002244BD7E90001FDF7C8FA02460B460B
:102C480043EC172BB0EE470AF0EE670A0DF068FB6D
:102C580087ED020B28E04FF000021B4BD7E900017B
:102C6800FDF7FAFE0346002B06D04FF000024FF0A6
:102C78000003C7E9022317E04FF00002114BD7E920
:102C88000001FDF7A1FA02460B4643EC172BB0EE04
:102C9800470AF0EE670A0DF0C3FA87ED020B03E06E
:102CA800D7E90023C7E90223D7E9022343EC172B0E
:102CB800B0EE470AF0EE670A1037BD4680BD00BF88
:102CC800000030430000E03F0000E0BF80B58CB05A
:102CD80002AF78607B6800221A727B6801225A6012
:102CE8000123BB731B4BFB617B6810337B611A4B61
:102CF800BB6100237B730923BB600423FB8404238B
:102D0800BB8408233B6209233B73BA8CF98C07F117
:102D180008003B6A009313460122FFF7D7F90246E1
:102D28007B68DA607B68DB6802211846FFF742FBA4
:102D38007B68DB681846FFF757FA7B68DB68012178
:102D48001846FFF79AF97B6801221A7200BF2837E4
:102D5800BD4680BD000002400001045080B5A6B009
:102D680000AF78607B6801225A60214BBB6000236A
:102D78003B7300237B7307F108031846FEF758FCE2
:102D880002467B68DA607B68DB6800211846FEF73C
:102D98000AF9022387F897307B68DB6897F8972051
:102DA80011461846FEF734FA022387F897307B68F5
:102DB800DB6897F8972011461846FEF7C9FA7B6832
:102DC800DB681846FFF770FD034687F8963097F8DA
:102DD8009630002B05D17B68DB6800211846FFF789
:102DE8007BFD7B6801221A7200BF9837BD4680BD03
:102DF8000004004080B5A6B000AF78607B6801226F
:102E08005A60214BBB6000233B7300237B7307F19F
:102E180008031846FEF70CFC02467B68DA607B68FC
:102E2800DB6800211846FEF7BEF8022387F89730C2
:102E38007B68DB6897F8972011461846FEF728FB51
:102E4800022387F897307B68DB6897F8972011464C
:102E58001846FEF7C5FB7B68DB681846FFF724FDBC
:102E6800034687F8963097F89630002B05D17B6893
:102E7800DB6800211846FFF72FFD7B6801221A72D4
:102E880000BF9837BD4680BD000400400000000028
:102E98002DE9B04FA2B000AFFFF7C2FD00237B655C
:102EA80007E09C4A7B6D1A44002313707B6D013345
:102EB8007B657B6D072BF4DD974A0423A2F840302D
:102EC800964BD868944BB3F84030954A1946FFF7AB
:102ED800A0F9934BDB89904AA2F86030904B1B888D
:102EE8008D4AA2F86E308E4B9B898B4AA2F86230CD
:102EF8008B4B5B88884AA2F86C30894B5B89864A81
:102F0800A2F86430864B9B88834AA2F86A30844BC7
:102F18001B89814AA2F86630814BDB887E4AA2F879
:102F280068307E4B93F8703003F00403DBB2002B5B
:102F380059D17A4A92F8703043F0040382F870301D
:102F4800754A0323A2F89030734A0023A2F89230FE
:102F5800714A0023A2F896306F4A0023A2F89430F1
:102F68006D4A0023A2F898306C4A0023A2F88030FA
:102F78006A4A0023A2F87C30684A0023A2F88C3001
:102F8800664A0023A2F89230644A0023A2F88230ED
:102F9800624A0023A2F87E30604A0023A2F88430F7
:102FA8005E4A0023A2F886305C4A0023A2F88830E3
:102FB8005A4A0023A2F88E30584A0023A2F88A30D1
:102FC800564A0023A2F8903053494FF000024FF0C0
:102FD8000003C1E9122350494FF000024FF00003EB
:102FE800C1E91423D3E14C4BB3F8903001333B656E
:102FF800494BB3F890300133B3F5803F02D34FF615
:10300800FF733B653B6D9BB2434AA2F89030424B3D
:10301800B3F89030042B40D13F4A0023A2F89030F7
:10302800404BD3E902014FF000024FF00003FDF7D7
:10303800EBFC0346002B18D0374BB3F86A30374AFD
:10304800A2F88230344BB3F86430344AA2F87E30A8
:10305800314BB3F86E30314AA2F886302E4BB3F8B4
:1030680060302E4AA2F8843017E02B4BB3F8623058
:103078002A4AA2F88830284BB3F86C30274AA2F8BD
:103088008E30254BB3F86630244AA2F88A30224B9A
:10309800B3F86830214AA2F890301F4BB3F890304B
:1030A800012B1ED11F4BD3E902014FF000024FF054
:1030B8000003FDF7A9FC0346002B06D0164BB3F816
:1030C8006A30164AA2F880300BE0134BB3F8683028
:1030D800124AA2F89230104BB3F866300F4AA2F8A1
:1030E8008C300D4BB3F89030022B79D10D4BD3E9CE
:1030F80002014FF000024FF00003FDF785FC034684
:10310800002B11D0044BB3F86430044AA2F87C3089
:1031180066E000BF0022002058060020D8170020D3
:103128000C22002000000020B54BB3F88C301A4662
:10313800B34BB3F88A30D31A3B65B14BB3F88C3034
:103148001A463B6D934201D900233B653B6D9BB208
:10315800AC4AA2F89430AA4BB3F892301A46A84B5E
:10316800B3F89030D31A3B65A54BB3F892301A46A2
:103178003B6D934201D900233B653B6D9BB2A14A4D
:10318800A2F898309F4BB3F86C301A469C4BB3F8B2
:103198008E30D31A3B659B4BB3F86C301A463B6DA7
:1031A800934201D900233B653B6D9BB2954AA2F837
:1031B8009630944BB3F862301A46914BB3F8883086
:1031C800D31A3B658F4BB3F862301A463B6D934276
:1031D80001D900233B653B6D9BB28A4AA2F8923025
:1031E800884BB3F89030032B40F0D180864BD3E95D
:1031F80002014FF000024FF00003FDF705FC034603
:10320800002B00F0C4807E4BB3F87C301A467C4B10
:10321800B3F87E30D31A3B65794BB3F87C301A4645
:103228003B6D934201D900233B653B6D1846FDF782
:1032380019F96FA3D3E90023FDF77EF902460B467F
:1032480043EC172BB0EE470AF0EE670AFFF7D4FC01
:1032580053EC102B10461946FDF71EFC03467B6500
:10326800674BB3F880301A46654BB3F88230D31AEF
:103278003B65634BB3F880301A463B6D934201D9E6
:1032880000233B653A6D1346DB0013443B653B6DF9
:10329800B3F5803F02D34FF6FF733B657B6DB3F503
:1032A800803F03DA7B6DA7F84A3003E04FF6FF73DF
:1032B800A7F84A30B7F84A203B6DD31A1846FDF7ED
:1032C800D1F802460B464F49C1E912234D4BB3F8DA
:1032D80060301A464A4BB3F88430D31A3B65494BE1
:1032E800B3F860301A463B6D934201D900233B6521
:1032F800444BB3F86E301A46414BB3F88630D31AB4
:10330800FB64404BB3F86E301A46FB6C934201D90C
:103318000023FB64FB6C1846FDF7A4F836A3D3E939
:103328000023FDF709F902460B4643EC172BB0EED4
:10333800470AF0EE670AFFF75FFC53EC102B1046C4
:103348001946FDF7A9FB03467B657B6DB3F5803F06
:1033580003DA7B6DA7F84A3003E04FF6FF73A7F84E
:103368004A303A6D40F2A3639A4207DCB7F84A2024
:1033780040F2A3639A4201D8012300E000231846D3
:10338800FDF770F802460B461E49C1E914231F4A8F
:10339800002313801D4A002353801C4A0023938076
:1033A8001A4A0023D380174BB3F89830174A138171
:1033B800144BB3F89630154A5381124BB3F8943036
:1033C800124A93810F4BB3F89230104AD381104AB6
:1033D800002313600F4A00231360094BB3F87430BD
:1033E800A7F84A3000237B6527E000BFAFF30080D1
:1033F8009A99999999990140CDCCCCCCCCCCFC3FE9
:10340800D8170020580600200000002034060020AD
:1034180044060020082200209A4A7B6D303332F897
:1034280013301846FDF70EF8964A7B6DDB001344FF
:10343800C3E900017B6D01337B657B6D072BEBDDF9
:10344800904B93ED027B904A90499148B0EE470A21
:10345800F0EE670AFFF795FB8A4B03F55263D3E951
:103468000023C7E9202300237B651DE07B6D013322
:10347800844A03F5D273DB001344D3E9002381495E
:10348800C1E920237F4BD3E92023D7E92001FDF7A9
:10349800C5FA0346002B04D07A4BD3E92023C7E9A9
:1034A80020237B6D01337B657B6D082BDEDD794A3C
:1034B80079497A4897ED200BFFF7FCFA714B03F531
:1034C8007F63D3E90023C7E9162300237B651DE04A
:1034D8007B6D01336B4A03F5FF73DB001344D3E9BB
:1034E80000236849C1E92023664BD3E92023D7E9A3
:1034F8001601FDF7B1FA0346002B04D0614BD3E95E
:103508002023C7E916237B6D01337B657B6D172B61
:10351800DEDD5C4B93ED047B614A62496248B0EEA4
:10352800470AF0EE670AFFF7C5FA564B03F507633B
:10353800D3E90023C7E9182300237B651DE07B6DD1
:103548000133504A03F58773DB001344D3E90023A2
:103558004C49C1E920234B4BD3E92023D7E9180173
:10356800FDF75CFA0346002B04D0464BD3E9202331
:10357800C7E918237B6D01337B657B6D172BDEDD77
:10358800404B93ED067B494A49494A48B0EE470A01
:10359800F0EE670AFFF78EFA3A4B03F5AA63D3E910
:1035A8000023C7E91A2300237B651CE07B6D0133E8
:1035B800344AAA33DB001344D3E900233149C1E973
:1035C8002023304BD3E92023D7E91A01FDF726FA47
:1035D8000346002B04D02B4BD3E92023C7E91A2339
:1035E8007B6D01337B657B6D172BDFDD254B93ED01
:1035F800087B314A31493248B0EE470AF0EE670A93
:10360800FFF758FA1F4BD3E9F0231E49C1E91C23E1
:1036180000237B651EE07B6D01331A4A7833DB009B
:103628001344D3E900231749C1E92023154BD3E9F3
:103638001C01144BD3E92023FDF7F0F90346002BB6
:1036480005D0104BD3E920230E49C1E91C237B6D1B
:1036580001337B657B6D172BDDDD0A4B93ED0A7B10
:10366800184A19491948B0EE470AF0EE670AFFF7F9
:1036780021FA044BD3E98C230249C1E91E23002314
:103688007B6544E05806002000010020701F0020E0
:10369800781300201801002020210020481600205F
:1036A800E8000020D01C0020C80E0020D800002010
:1036B800101B0020A80B0020D0000020301A00208A
:1036C800180A0020C800002050190020880800208F
:1036D8007B6D0133A04A4633DB001344D3E9002352
:1036E8009D49C1E920239C4BD3E91E019A4BD3E99C
:1036F8002023FDF793F90346002B05D0964BD3E919
:1037080020239549C1E91E237B6D01337B657B6DC1
:10371800172BDDDD904B93ED0C7B904A9049914837
:10372800B0EE470AF0EE670AFFF72BFA8A4B03F56B
:103738005C63D3E90023C7E91E2300237B651DE0F2
:103748007B6D0133844A03F5DC73DB001344D3E952
:1037580000238149C1E920237F4BD3E92023D7E9FE
:103768001E01FDF75BF90346002B04D07A4BD3E921
:103778002023C7E91E237B6D01337B657B6D082BF6
:10378800DEDD794A79497A4897ED1E0BFFF792F901
:10379800714B03F56663D3E90023C7E91C230023B3
:1037A8007B651DE07B6D01336B4A03F5E673DB0037
:1037B8001344D3E900236849C1E92023664BD3E9C0
:1037C8002023D7E91C01FDF747F90346002B04D055
:1037D800614BD3E92023C7E91C237B6D01337B654B
:1037E8007B6D172BDEDD634BB3F87630A7F84830D6
:1037F800614AB7F84A30138097ED160B0CF090FD2C
:10380800B0EE407AF0EE607A9FED511BB0EE470AB9
:10381800F0EE670A0CF008FEB0EE407AF0EE607A3F
:103828004D4B83ED207B4C4BD3E920014FF0000238
:103838004FF00003FDF7F2F80346002B0ED0464B7D
:10384800D3E92023144683F0004520462946FDF796
:103858004BF903469BB25B429BB208E03E4BD3E96F
:10386800202310461946FDF73FF903469BB2424A0A
:10387800538097ED180B0CF053FDB0EE407AF0EE44
:10388800607A9FED331BB0EE470AF0EE670A0CF042
:10389800CBFDB0EE407AF0EE607A2F4B83ED207BC3
:1038A8002D4BD3E920014FF000024FF00003FDF744
:1038B800B5F80346002B0ED0274BD3E920239046BA
:1038C80083F0004940464946FDF70EF903469BB28E
:1038D8005B429BB208E0204BD3E9202310461946EF
:1038E800FDF702F903469BB2234A938097ED1A0B22
:1038F8000CF016FDB0EE407AF0EE607A9FED141BE6
:10390800B0EE470AF0EE670A0CF08EFDB0EE407A92
:10391800F0EE607A104B83ED207B0F4BD3E920014A
:103928004FF000024FF00003FDF778F80346002B34
:1039380024D0094BD3E92023924683F0004B50460C
:103948005946FDF7D1F803469BB25B429BB21EE095
:10395800000000000000F040580600200801002088
:10396800D81F00201814002010010020402000203B
:10397800B8140020D817002020060020A64BD3E951
:10398800202310461946FDF7AFF803469BB2A34A19
:10399800D380A14B93ED1C7BB0EE470AF0EE670A8B
:1039A8000CF0BEFCB0EE407AF0EE607A9FED981B0A
:1039B800B0EE470AF0EE670A0CF036FDB0EE407A3A
:1039C800F0EE607A944B83ED207B934BD3E9200192
:1039D8004FF000024FF00003FDF720F80346002BDC
:1039E8000FD08D4BD3E920233A6483F000437B64E6
:1039F800D7E91001FDF778F803469BB25B429BB20A
:103A080008E0854BD3E9202310461946FDF76CF8EA
:103A180003469BB2814A13817F4B93ED1E7BB0EE28
:103A2800470AF0EE670A0CF07BFCB0EE407AF0EE45
:103A3800607A9FED771BB0EE470AF0EE670A0CF04C
:103A4800F3FCB0EE407AF0EE607A734B83ED207BA6
:103A5800714BD3E920014FF000024FF00003FCF74F
:103A6800DDFF0346002B0FD06B4BD3E92023BA634D
:103A780083F00043FB63D7E90E01FDF735F80346F1
:103A88009BB25B429BB208E0634BD3E9202310460C
:103A98001946FDF729F803469BB2604A538197ED12
:103AA8001C0B0CF03DFCB0EE407AF0EE607A9FED16
:103AB800581BB0EE470AF0EE670A0CF0B5FCB0EE02
:103AC800407AF0EE607A544B83ED207B524BD3E979
:103AD80020014FF000024FF00003FCF79FFF034660
:103AE800002B0FD04C4BD3E920233A6383F00043DB
:103AF8007B63D7E90C01FCF7F7FF03469BB25B42F7
:103B08009BB208E0444BD3E9202310461946FCF742
:103B1800EBFF03469BB2414A9381404AB7F84830CD
:103B2800D3813F4BB3F8AE303C4A13823D4BB3F8D8
:103B38007830A7F84A30384B93ED027B3A4A3B4934
:103B48003B48B0EE470AF0EE670AFEF7B3FF324B88
:103B580003F53963D3E90023C7E9162300237B65FE
:103B68001DE07B6D01332C4A03F5B973DB00134468
:103B7800D3E900232849C1E92023274BD3E920238F
:103B8800D7E91601FCF768FF0346002B04D0224B47
:103B9800D3E92023C7E916237B6D01337B657B6D51
:103BA800172BDEDD1C4B03F50763D3E90023C7E9B8
:103BB8001C2300237B651DE07B6D0133164A03F54A
:103BC8008773DB001344D3E900231349C1E9202399
:103BD800114BD3E92023D7E91C01FCF73DFF03462D
:103BE800002B04D00C4BD3E92023C7E91C237B6DA1
:103BF80001337B657B6D172BDEDD074B03F5AA636D
:103C0800D3E90023C7E9182300237B652FE000BF11
:103C1800000000000000F0405806002020060020A8
:103C280000000020D8170020F8000020901E002077
:103C3800E81100207B6D0133954AAA33DB00134459
:103C4800D3E900239249C1E92023914BD3E92023EA
:103C5800D7E91801FCF700FF0346002B04D08C4B72
:103C6800D3E92023C7E918237B6D01337B657B6D7E
:103C7800172BDFDD864BD3E9F023C7E91A2300238E
:103C88007B651CE07B6D0133814A7833DB0013448C
:103C9800D3E900237E49C1E920237D4BD3E92023C2
:103CA800D7E91A01FCF7D8FE0346002B04D0784B5D
:103CB800D3E92023C7E91A237B6D01337B657B6D2C
:103CC800172BDFDD724BD3E98C237149C1E91C2323
:103CD80000237B651EE07B6D01336D4A4633DB00B4
:103CE8001344D3E900236A49C1E92023684BD3E987
:103CF8001C01674BD3E92023FCF7AEFE0346002BDB
:103D080005D0634BD3E920236149C1E91C237B6DAE
:103D180001337B657B6D172BDDDD5D4B93ED0C7BF4
:103D28005C4A5D495D48B0EE470AF0EE670AFEF767
:103D3800C1FE574B03F52063D3E900235449C1E979
:103D48001E2300237B651FE07B6D0133504A03F57A
:103D5800A073DB001344D3E900234D49C1E92023B4
:103D68004B4BD3E91E014A4BD3E92023FCF774FEE1
:103D78000346002B05D0464BD3E920234449C1E92B
:103D88001E237B6D01337B657B6D172BDCDD444B7C
:103D9800B3F87A30A7F84830424AB7F84A30138067
:103DA80097ED160B0CF0BCFAB0EE407AF0EE607AA4
:103DB8009FED351BB0EE470AF0EE670A0CF034FBB6
:103DC800B0EE407AF0EE607A314B83ED207B304BD9
:103DD800D3E920014FF000024FF00003FCF71EFE6C
:103DE8000346002B0FD02A4BD3E92023BA6283F075
:103DF8000043FB62D7E90A01FCF776FE03469BB253
:103E08005B429BB208E0224BD3E9202310461946B7
:103E1800FCF76AFE03469BB2224A538097ED1C0BBF
:103E28000CF07EFAB0EE407AF0EE607A9FED161B49
:103E3800B0EE470AF0EE670A0CF0F6FAB0EE407AF8
:103E4800F0EE607A124B83ED207B114BD3E9200111
:103E58004FF000024FF00003FCF7E0FD0346002B93
:103E680022D00B4BD3E920233A6283F000437B62D4
:103E7800D7E90801FCF738FE03469BB25B429BB2C8
:103E88001BE000BFAFF30080000000000000F0401E
:103E980058060020F0000020B01D00205810002017
:103EA800D81700202C220020A74BD3E92023104646
:103EB8001946FCF719FE03469BB2A44A938097ED76
:103EC800180B0CF02DFAB0EE407AF0EE607A9FED08
:103ED8009C1BB0EE470AF0EE670A0CF0A5FAB0EEAC
:103EE800407AF0EE607A984B83ED207B964BD3E9CD
:103EF80020014FF000024FF00003FCF78FFD03464E
:103F0800002B0FD0904BD3E92023BA6183F00043F4
:103F1800FB61D7E90601FCF7E7FD03469BB25B426C
:103F28009BB208E0884BD3E9202310461946FCF7DA
:103F3800DBFD03469BB2854AD38097ED1A0B0CF044
:103F4800EFF9B0EE407AF0EE607A9FED7D1BB0EEAF
:103F5800470AF0EE670A0CF067FAB0EE407AF0EE26
:103F6800607A794B83ED207B774BD3E920014FF0C2
:103F780000024FF00003FCF751FD0346002B0FD061
:103F8800714BD3E920233A6183F000437B61D7E981
:103F98000401FCF7A9FD03469BB25B429BB208E013
:103FA800694BD3E9202310461946FCF79DFD0346CB
:103FB8009BB2664A1381644B93ED1C7BB0EE470AB3
:103FC800F0EE670A0CF0ACF9B0EE407AF0EE607AE9
:103FD8009FED5B1BB0EE470AF0EE670A0CF024FA7F
:103FE800B0EE407AF0EE607A574B83ED207B564B6B
:103FF800D3E920014FF000024FF00003FCF70EFD5B
:104008000346002B0FD0504BD3E92023BA6083F02E
:104018000043FB60D7E90201FCF766FD03469BB24B
:104028005B429BB208E0484BD3E92023104619466F
:10403800FCF75AFD03469BB2444A5381424B93ED29
:104048001E7BB0EE470AF0EE670A0CF069F9B0EE95
:10405800407AF0EE607A9FED3A1BB0EE470AF0EE38
:10406800670A0CF0E1F9B0EE407AF0EE607A364B70
:1040780083ED207B344BD3E920014FF000024FF051
:104088000003FCF7CBFC0346002B0FD02E4BD3E9E3
:1040980020233A6083F000437B60D7E90001FCF7F6
:1040A80023FD03469BB25B429BB208E0264BD3E953
:1040B800202310461946FCF717FD03469BB2234AF6
:1040C8009381224AB7F84830D381214BB3F8B42002
:1040D8001E4B1A821F4B9B79002B0BD01A4BD3E92E
:1040E80000231D49C1E91623174BD3E90E231A49AA
:1040F800C1E91823164BD3E90201154BD3E90A236A
:10410800FCF7AAFC0346002B06D0114BD3E9042385
:104118000D49C1E9202327E00F4B93F894301A4644
:104128000B4B9A5C0A4B1B799A4217D1084BD3E97F
:1041380006230549C1E9202316E000BFAFF300803C
:10414800000000000000F040580600202C2200204B
:104158000000002034030020D8170020914BD3E939
:1041680008239149C1E92023904B93F894301A46CB
:104178008C4B9B5C7B658B4B5B791A467B6D9342C2
:1041880005D1884BD3E90623C7E91C2304E0854BF6
:10419800D3E90823C7E91C23824BD3E90201814BE9
:1041A800D3E90C23FCF758FC0346002B04D0D7E9CD
:1041B8001C23C7E9162304E07A4BD3E90423C7E993
:1041C8001623784BD3E90201764BD3E90E23FCF78B
:1041D80043FC0346002B05D0724BD3E90423C7E9FF
:1041E800182303E0D7E91C23C7E918236D4B9B79F3
:1041F8001A467B6D934205D16A4BD3E90623C7E97A
:104208001C2304E0674BD3E90823C7E91C23654B4B
:10421800D3E90201634BD3E91023FCF71DFC0346E5
:10422800002B04D0D7E91C23C7E91A2304E05D4B0F
:10423800D3E90423C7E91A235B4B5D4A5A644FF05C
:1042480000024FF00003D7E91801FCF7DDFB034635
:10425800002B03D14FF400737B6501E000237B65DD
:10426800514B5B6C7A6D11461846FEF70CFA4E4BB3
:104278005A6C7B6DDB4303F4007319461046FEF756
:1042880010FA494B4A4A5A64464BD3E90201454B56
:10429800D3E91223FCF7E0FB0346002B04D0414B83
:1042A800D3E90423C7E91C234FF000024FF00003B1
:1042B800D7E91C01FCF7A8FB0346002B03D14FF4F8
:1042C80080437B6501E000237B65374B5B6C7A6D2F
:1042D80011461846FEF7D7F9334B5A6C7B6DDB4312
:1042E80003F4804319461046FEF7DBF92E4B304A9B
:1042F8005A644FF000024FF00003D7E91601FCF7AB
:1043080083FB0346002B03D14FF480737B6501E0E8
:1043180000237B65244B5B6C7A6D11461846FEF7CB
:10432800B2F9214B5A6C7B6DDB4303F48073194659
:104338001046FEF7B6F91C4B1D4A5A644FF00002AE
:104348004FF00003D7E91601FCF75EFB0346002B8C
:1043580003D14FF400437B6501E000237B65124BDA
:104368005B6C7A6D11461846FEF78DF90E4B5A6C48
:104378007B6DDB4303F4004319461046FEF791F9C1
:10438800094B0B4A5A644FF000024FF00003D7E97B
:104398001A01FCF739FB0346002B0BD14FF480536D
:1043A8007B6509E00000002058060020D81700208F
:1043B8000010004800237B65A74B5B6C7A6D1146A3
:1043C8001846FEF760F9A44B5A6C7B6DDB4303F487
:1043D800805319461046FEF764F99F4B9F4A5A646A
:1043E8009D4BD3E920014FF000024FF00003FCF78A
:1043F8000BFB0346002B03D14FF480537B6501E090
:1044080000237B65944B5B6C7A6D11461846FEF76A
:104418003AF9914B5A6C7B6DDB4303F48053194690
:104428001046FEF73EF98C4B8D4A5A648A4BD3E905
:1044380020014FF000024FF00003FCF7E5FA0346B5
:10444800002B03D14FF400537B6501E000237B650B
:10445800814B5B6C7A6D11461846FEF714F97E4B5A
:104468005A6C7B6DDB4303F4005319461046FEF784
:1044780018F9794B7A4A5A644FF000024FF000035A
:10448800D7E91A01FCF7C0FA0346002B03D14FF411
:1044980000637B6501E000237B656F4B5B6C7A6D85
:1044A80011461846FEF7EFF86B4B5A6C7B6DDB43F1
:1044B80003F4006319461046FEF7F3F8664B684AA2
:1044C8005A64654B5B6C1846FEF7D1F83865654B46
:1044D80093F895301E2B07D8624B93F8953001332B
:1044E800DAB2604B83F895205E4B93F8703003F096
:1044F8000803DBB2002B16D15A4A92F8703043F009
:10450800080382F87030574A92F87030012161F33D
:10451800010382F8703053494FF000024FF0000356
:10452800C1E91A237FE04F4B93F87030C3F30103BE
:10453800DBB2012B02D0022B13D02CE03B6D03F031
:104548004003002B6CD1474A92F8703043F00303C4
:1045580082F8703040494FF00002434BC1E91623FE
:104568005EE03D494FF000024FF00003C1E9162319
:104578003C4B93F89530132B54D93A4A92F8703043
:1045880043F0030382F8703033494FF00002364B92
:10459800C1E9162346E030494FF00002324BC1E929
:1045A80016232D4BD3E914014FF000022E4BFCF7D4
:1045B8002BFA0346002B25D02A4BD3E91A0124A352
:1045C800D3E90023FCF748FA0346002B1AD0254A02
:1045D80092F87030022161F3010382F87030214BA8
:1045E800002283F895201C494FF000024FF0000389
:1045F800C1E916231B494FF000024FF00003C1E93F
:104608001A2310E0174BD3E91A014FF00002164B9A
:10461800FBF7DCFD02460B461249C1E91A2302E00A
:1046280000BF00E000BF0C4B104A5A640A4BD3E9A4
:1046380016014FF000024FF00003FCF7E5F90346BE
:10464800002B15D180237B6514E000BFAFF30080F9
:104658000000000000C05240580600200004004836
:1046680000100048D81700200000F03F000C004858
:1046780000237B659B4B5B6C7A6D11461846FEF7F1
:1046880002F8984B5A6C7B6DDB4303F080031946A4
:104698001046FEF706F8944BD3E91801914BD3E97D
:1046A8001223FBF749FF02460B46C7E91C238E4B32
:1046B800D3E91601D7E91C23FBF786FD02460B4612
:1046C800C7E91623884BD3E91A23D7E91601FCF763
:1046D800C3F90346002B06D0834BD3E91423814941
:1046E800C1E9202304E07F49D7E91623C1E9202343
:1046F8007E4B1C6C7B4BD3E9202310461946FCF7F4
:1047080013FA07EE900AF0EEE77AB0EE670A204651
:10471800FEF77AF8744BD3E91C23D7E91601FCF7A6
:1047280087F90346002B04D06F4BD3E91423C7E95C
:1047380016236E4B1C6CD7E91601FCF7F5F90346F6
:1047480000EE103A2046FEF773F8674BD3E91623BC
:10475800D7E91C01FBF73AFD02460B46C7E91C23C3
:10476800614BD3E92023D7E91C01FCF775F903460F
:10477800002B05D05B49D7E91C23C1E9202305E0BC
:10478800594BD3E91E235749C1E92023574B1C6DC8
:10479800544BD3E9202310461946FCF7C5F90346C4
:1047A80000EE103A2046FEF757F84F4BD3E9222384
:1047B800D7E91C01FCF750F90346002B04D04A4BFB
:1047C800D3E91E23C7E91C23484B1C6DD7E91C01FC
:1047D800FCF7AAF907EE900AF0EEE77AB0EE670A5E
:1047E8002046FEF74DF83F4B414A5A643D4B5B6CFF
:1047F80000211846FDF747FF3A4B5B6C4FF4005118
:104808001846FDF74EFF374B394A5A64354B5B6CF7
:1048180000211846FDF737FF324B5B6C4FF480419F
:104828001846FDF73EFF2F4B314A5A642D4B5B6CFF
:1048380000211846FDF727FF2A4B5B6C4FF4004117
:104848001846FDF72EFF274B2A4A5A64264BD3E910
:1048580024014FF000024FF00003FCF7D5F803469F
:10486800002B02D108237B6501E000237B651D4BEB
:104878005B6C7A6D11461846FDF705FF194B5A6CAB
:104888007B6DDB4303F0080319461046FDF709FF6B
:10489800164B93F89420144B93F8BF301344DAB2B4
:1048A800124B83F89420114B93F894200E4BDB792C
:1048B8009A4205D90C4B93F8BD200C4B83F89420F1
:1048C800084B0C4A5A64074B5B6C1846FDF7CFFE41
:1048D80000F0FEFC00F012FE00BF8837BD46BDE8C0
:1048E800B08F00BF5806002000000020D817002015
:1048F8000008004800040048B0B590B000AFA04BD5
:10490800D3E91623C7E90A239E4A9F499F4897ED92
:104918000A0BFEF7CFF89E4B03F5DC63D3E90023BF
:10492800C7E90E2300237B6319E07B6B0133984AA8
:10493800DC33DB001344D3E90023C7E90823D7E9B4
:104948000823D7E90E01FCF769F80346002B03D0CA
:10495800D7E90823C7E90E237B6B01337B637B6BA5
:10496800172BE2DD97ED0E0B0BF0DAFCB0EE407A78
:10497800F0EE607A9FED801BB0EE470AF0EE670A12
:104988000BF052FD87ED080B4FF000024FF00003CB
:10499800D7E90801FCF742F80346002B0ED03B6A22
:1049A8003B617B6A83F000437B61D7E90401FCF734
:1049B8009BF803469BB25B429BB205E0D7E908012E
:1049C800FCF792F803469BB2FB836D4BD3E918239F
:1049D8006F49C1E922236E4B93ED227B6D4A6E49E4
:1049E8006E48B0EE470AF0EE670AFEF763F8684BC8
:1049F800D3E92823C7E90E2300237B6319E07B6BE7
:104A08000133634A1433DB001344D3E90023C7E9B5
:104A18000823D7E90823D7E90E01FBF7FFFF034670
:104A2800002B03D0D7E90823C7E90E237B6B01339A
:104A38007B637B6B172BE2DD97ED0E0B0BF070FCA5
:104A4800B0EE407AF0EE607A9FED4B1BB0EE470A6D
:104A5800F0EE670A0BF0E8FC87ED080B4FF0000258
:104A68004FF00003D7E90801FBF7D8FF0346002BF6
:104A78000ED03B6ABB607B6A83F00043FB60D7E9DA
:104A88000201FCF731F803469BB25B429BB205E09A
:104A9800D7E90801FCF728F803469BB2BB83384ADC
:104AA800BB8BA2F87630364AFB8BA2F87430384BB1
:104AB800D3E92823C7E90E2300237B6319E07B6B26
:104AC8000133334A1433DB001344D3E90023C7E925
:104AD8000823D7E90823D7E90E01FBF7BDFF0346F2
:104AE800002B03D0D7E90823C7E90E237B6B0133DA
:104AF8007B637B6B172BE2DD97ED0E0B0BF010FC45
:104B0800B0EE407AF0EE607A9FED1B1BB0EE470ADC
:104B1800F0EE670A0BF088FC87ED080B4FF00002F7
:104B28004FF00003D7E90801FBF778FF0346002B95
:104B38000ED03B6A3B607B6A83F000437B60D7E919
:104B48000001FBF7D1FF03469BB25B429BB205E035
:104B5800D7E90801FBF7C8FF03469BB2FB830C4B60
:104B680003F5DC63D3E90023C7E90E2300237B6345
:104B780030E000BFAFF30080000000000000F0400C
:104B8800D8170020E0000020F01B0020380D00207E
:104B980058060020C000002070180020F8060020E9
:104BA8007B6B0133304ADC33DB001344D3E9002349
:104BB800C7E90823D7E90823D7E90E01FBF74CFF1B
:104BC8000346002B03D0D7E90823C7E90E237B6BE4
:104BD80001337B637B6B172BE2DD97ED0E0B0BF03C
:104BE8009FFBB0EE407AF0EE607A9FED1D1BB0EEB1
:104BF800470AF0EE670A0BF017FC87ED080B4FF039
:104C080000024FF00003D7E90801FBF707FF03464E
:104C1800002B0CD03C6A7B6A83F00045204629466D
:104C2800FBF762FF03469BB25B429BB205E0D7E904
:104C38000801FBF759FF03469BB2BB830B4AFB8B6A
:104C4800A2F87A30094ABB8BA2F8783000F040FB12
:104C580000F054FC00BF4037BD46B0BDAFF3008044
:104C6800000000000000F04058060020D81700207F
:104C780080B582B000AF00237B6011E0654B93F8EC
:104C8800BC10654A7B6813440A461A70614BB3F836
:104C9800A810624A7B6822F813107B6801337B6096
:104CA8007B68072BEADD5B4BD3F898305C4A1360CE
:104CB800584BD3F89C305B4A136000237B6017E0A5
:104CC800544BB3F8B610584A7B6822F81310514B6E
:104CD800B3F8B810554A7B6822F813104D4BB3F857
:104CE800BA10534A7B6822F813107B6801337B6043
:104CF8007B68082BE4DD474BD3F8A0304D4A13609E
:104D0800444BD3F8A4304C4A1360424BD3F8A0303C
:104D1800484A53603F4BD3F8A430474A53603D4B51
:104D2800D3F8A030434A93603A4BD3F8A430424AB0
:104D3800936000F061FB374BB3F8AA203F4BA3F810
:104D48007420344BB3F8AC203C4BA3F87620314B9D
:104D5800B3F8B020394BA3F878202E4BB3F8B22023
:104D6800364BA3F87A202B4B93F8BE20334B83F8AD
:104D78009420324B00225A60304B00221A702F4880
:104D8800FDF7A4FF2E492F48FDF7CFFE2E492F48E7
:104D9800FDF764FE2E492F48FDF760FE2E492F4887
:104DA800FDF75CFE2E492F48FDF758FE2E492F4887
:104DB800FDF754FE2E492F48FDF7B7FE2E492F4820
:104DC800FDF74CFE2E492F48FDF748FE2E492F4887
:104DD800FDF744FE194B00229A63184B002283F812
:104DE80034202B48FDF7BAFF144B00229A64134B6A
:104DF800002283F844202748FDF7FCFF264927486E
:104E0800FDF72CFE26492748FDF728FE00BF083786
:104E1800BD4680BD0000002000220020340600208E
:104E280044060020082200200C2200202006002032
:104E38002C2200202022002048060020D81700201D
:104E480000010020701F00201801002020210020F0
:104E5800E8000020D01C0020D8000020101B0020F3
:104E6800D0000020301A0020C8000020501900206F
:104E780008010020D81F0020100100204020002039
:104E8800F8000020901E0020F0000020B01D002037
:104E98000C1800201C180020E0000020F01B002047
:104EA800C00000207018002080B582B000AF3D4BD4
:104EB8001B78002B13D13B4B01221A70394B5B68CE
:104EC800012B0CD1374B1B7A002B08D00423FB8015
:104ED800344BDB68F98801221846FDF7F3F9314BAA
:104EE80093F83430002B29D12E4B012283F834203B
:104EF8002C4B9B6B012B21D12A4B93F83C30002B78
:104F08001CD0284B1B6C1846FDF766FD254B1B6C07
:104F180000211846FCF7E1F802237B71214B1B6C3A
:104F28007A7911461846FCF7C3F902237B711D4BA9
:104F38001B6C7A7911461846FCF75AFA194B93F804
:104F48004430002B29D1174B012283F84420154BFC
:104F58009B6C012B21D1134B93F84C30002B1CD0A8
:104F6800104B1B6D1846FDF737FD0E4B1B6D0021CE
:104F78001846FCF7B2F802237B710A4B1B6D7A794D
:104F880011461846FCF7D8FA02237B71054B1B6DB6
:104F98007A7911461846FCF737FB00BF0837BD463B
:104FA80080BD00BFD817002080B489B000AFF8607A
:104FB800B9607A60FB68BB610023FB61BB689B0832
:104FC8007B611B4B1B68B3F5C87F2AD00023FB61AC
:104FD80022E0174B1B6817497A6841F82320FB69C0
:104FE8009B00BA691A44124B1B681268114903F5F1
:104FF800C87341F823200E4B1B680F4A12680D49ED
:1050080003F5487341F82320094B1B680133084A0C
:105018001360FB690133FB61FA697B699A42D8D353
:1050280000E000BF2437BD465DF8047B704700BF31
:105038003C030020482200204422002080B584B090
:1050480000AF786072B600BF00F0A6FC0346FB60B4
:1050580007F10C037A6804211846FFF7A5FF62B62A
:1050680000BF00BF1037BD4680BD000080B582B0CC
:1050780000AF344B1B785A1CD1B2324A1170002B46
:1050880009D0314B01221A602E4B1B78013BDAB252
:105098002C4B1A7053E03B1D1846FDF7ABFC62B66B
:1050A80000BF02200BF0A3F8FDF7F2FE02200BF080
:1050B800A9F872B600BF234B1B78013BDAB2214B2B
:1050C8001A707B79002B11D0204B5B785A1CD1B217
:1050D8001E4A5170002B09D01B4B01221A601B4B32
:1050E8005B78013BDAB2194B5A7028E0174B5B78B2
:1050F800002B24D0134B5B78002B1FD1114B5B780E
:105108000133DAB20F4B5A7062B600BF03200BF0BE
:105118006EF8FFF7F1FB03200BF074F800BF72B6CE
:1051280000BF0A4B5B78013BDAB2084B5A70054B5B
:105138005B78013BDAB2034B5A7000E000BF0837D6
:10514800BD4680BD440300204003002048030020E2
:1051580080B584B000AF78603960374BFB60374B5F
:10516800BB60374B00221A70364B00221A7001DFE1
:1051780006F026FB00F0E0FE00F02EFF00F08EFFA8
:1051880001F054FF01F072FB02F09EF901F0BEFF3E
:1051980002F04AFA01F00EFD02F00EFD02F066FC84
:1051A800294B1B6800221A6001200BF020F8FFF73A
:1051B8005FFD01200BF026F872B600BF97ED030AD9
:1051C80000F08AFC204B1B681B68002B0CBF0123D6
:1051D8000023DBB21A461B4B1A7062B600BF62B6D8
:1051E80000BF15E0184B1B681B68002B14BF012378
:1051F8000023DBB21A46124B1A70114B1B78DBB234
:10520800002B05D0114B1B68104A23F001031360D3
:105218000C4B1B78DBB2002BE4D104200AF0E7FF2B
:10522800FFF742FE04200AF0EDFF72B600BF00232C
:1052380018461037BD4680BDCDCC4C3D0000A0427D
:1052480008350020402200202C08010810E000E06A
:1052580080B485B000AF0346FB80B7F90630002B59
:1052680002DBFB88FB8101E0FB88FB81B7F90E308C
:1052780018461437BD465DF8047B704780B588B082
:1052880004AF03460A46FB711346BB71FB799BB218
:105298005B009BB2013399B2BB799AB24FF0FF33EE
:1052A80002930223019307F10C030093012307489B
:1052B80006F078FE3B7B1B021AB27B7B1BB21343C2
:1052C8001BB29BB218461037BD4680BD3C35002046
:1052D80080B500AF3B216920FFF7D0FF0346184691
:1052E800FFF7B6FF03461A4613469B0013445B00BC
:1052F80007EE903AB8EEE77ADFED3B6AC7EE267A1A
:105308003A4BC3ED007A3D216920FFF7B7FF03460A
:105318001846FFF79DFF03461A4613469B001344A1
:105328005B0007EE903AB8EEE77ADFED2F6AC7EE3A
:10533800267A2E4BC3ED017A3F216920FFF79EFFA5
:1053480003461846FFF784FF03461A4613469B0098
:1053580013445B0007EE903AB8EEE77ADFED226A75
:10536800C7EE267A214BC3ED027A43216920FFF765
:1053780085FF03461846FFF76BFF034607EE903A92
:10538800B8EEE77ADFED1A6AC7EE267A194BC3ED55
:10539800007A45216920FFF771FF03461846FFF799
:1053A80057FF034607EE903AB8EEE77ADFED106A4A
:1053B800C7EE267A0F4BC3ED017A47216920FFF724
:1053C8005DFF03461846FFF743FF034607EE903A92
:1053D800B8EEE77ADFED066AC7EE267A054BC3ED2D
:1053E800027A00BF80BD00BF000080462022002056
:1053F800000003434806002080B586B004AF0023B0
:10540800FB714FF0FF33029301230193FB1D0093BF
:1054180001236B22D2211D4806F0B0FC4FF0FF3368
:105428000293012301930723009301231922D22118
:10543800164806F0A3FC4FF0FF33029301230193B3
:105448000023009301231C22D221104806F096FC69
:105458004FF0FF33029301230193002300930123AC
:105468001B22D221094806F089FC4FF0FF33029332
:1054780001230193064B009301237522D32103488E
:1054880006F090FD00BF0837BD4680BD3C350020C2
:105498001235002080B582B000AF00237B600FE09A
:1054A8007B68432B08D07B68052B05D07B685BB2F3
:1054B800184607F0E5FA00E000BF7B6801337B601F
:1054C8007B68EF2BECD900BF00BF0837BD4680BD15
:1054D80080B582B000AF00237B6007E07B685BB2D9
:1054E800184607F0BFFA7B6801337B607B68EF2BB7
:1054F800F4D900BF00BF0837BD4680BD80B500AFF6
:105508004021B44806F092FB0346002B14BF012348
:105518000023DAB2B04B1A700421B04806F086FBBB
:105528000346002B14BF01230023DAB2AA4B5A709A
:105538004FF40051AA4806F079FB0346002B14BF2C
:1055480001230023DAB2A74B1A704FF48041A44814
:1055580006F06CFB0346002B14BF01230023DAB2CC
:10556800A04B5A704FF400419D4806F05FFB03467C
:10557800002B14BF01230023DAB29A4B9A704FF420
:105588008051964806F052FB0346002B14BF0123B6
:105598000023DAB2944B1A704FF480718D4806F0EC
:1055A80045FB0346002B14BF01230023DAB28E4BC0
:1055B8005A704FF40071874806F038FB0346002BF9
:1055C80014BF01230023DAB2874B9A704FF480513D
:1055D800804806F02BFB0346002B14BF0123002351
:1055E800DAB2814BDA704FF400617A4806F01EFB9C
:1055F8000346002B14BF01230023DAB27A4B1A7139
:105608004FF48041734806F011FB0346002B14BF8A
:1056180001230023DAB2744B5A714FF400416D48EC
:1056280006F004FB0346002B14BF01230023DAB263
:105638006D4B9A714FF40051664806F0F7FA03462D
:10564800002B14BF01230023DAB2674BDA71674BD2
:105658005B6B9AB2664B1A80644B9B6B9AB2644B35
:105668005A80624BDB6B9AB2624B1A805F4B1B6CA1
:105678009AB2604B5A80FFF70DFF08E04FF40071B3
:105688004FF0904006F0D2FA0346012B07D10321D0
:10569800594803F0C1F80346002BEFD10AE000BFD8
:1056A80008E04FF400714FF0904006F0BFFA03464F
:1056B800012B07D10221484803F0AEF80346002B1E
:1056C800EFD10AE000BF08E04FF400714FF09040BE
:1056D80006F0ACFA0346012B07D10321414803F039
:1056E8009BF80346002BEFD10AE000BF08E04FF417
:1056F80000714FF0904006F099FA0346012B07D14C
:105708000C213E4803F088F80346002BEFD10AE04D
:1057180000BF08E04FF400714FF0904006F086FAA1
:105728000346012B07D10C21354803F075F80346D1
:10573800002BEFD10AE000BF08E04FF400714FF0F2
:10574800904006F073FA0346012B07D112212D4829
:1057580003F062F80346002BEFD10AE000BF08E02F
:105768004FF400714FF0904006F060FA0346012BA9
:1057780007D11221244803F04FF80346002BEFD13C
:105788000AE000BF08E04FF400714FF0904006F0C7
:105798004DFA0346012B07D112211C4803F03CF8AF
:1057A8000346002BEFD10AE000BF08E04FF4007178
:1057B8004FF0904006F03AFA0346012B07D1082132
:1057C800094803F029F80346002BEFD129E000BF70
:1057D80027E000BF001000481C35002000040048E6
:1057E800000800482835002020350020000400402B
:1057F800500300204C030020D0070108202200207D
:10580800480600200C220020200600202C22002020
:105818004FF400714FF0904006F008FA0346012B50
:1058280007D10421484802F0F7FF0346002BEFD1C7
:105838000AE000BF08E04FF400714FF0904006F016
:10584800F5F90346012B07D10421404802F0E4FF93
:105858000346002BEFD10AE000BF08E04FF40071C7
:105868004FF0904006F0E2F90346012B07D10421DE
:10587800374802F0D1FF0346002BEFD10AE000BF02
:1058880008E04FF400714FF0904006F0CFF903465E
:10589800012B07D108212F4802F0BEFF0346002B39
:1058A800EFD10AE000BF08E04FF400714FF09040DC
:1058B80006F0BCF90346012B07D11021264802F057
:1058C800ABFF0346002BEFD10AE000BF08E04FF41E
:1058D80000714FF0904006F0A9F90346012B07D15B
:1058E80004211E4802F098FF0346002BEFD10AE07E
:1058F80000BF08E04FF400714FF0904006F096F9B1
:105908000346012B07D10421154802F085FF034601
:10591800002BEFD10AE000BF08E04FF400714FF010
:10592800904006F083F90346012B07D104210D4866
:1059380002F072FF0346002BEFD100E000BFFFF733
:10594800C7FD00BF80BD00BF2C3500204C030020E0
:1059580050030020002200203406002008220020E6
:1059680044060020D407010880B584B000AF7860F1
:1059780005F052FFF8607B68BB6000BF05F04CFF84
:105988000246FB68D31ABA689A42F7D800BF00BF2C
:105998001037BD4680BD000010B50E4C82B0636A5A
:1059A800019305F039FF0090626A019B9A4207D380
:1059B8000098019B4FF47A7202FB003002B010BDD0
:1059C80005F02AFF636A4FF47A7202FB003002B0D6
:1059D80010BD00BF002C014080B483B000AF034667
:1059E8003960FB7197F90730002B0ADB3B68DAB2A4
:1059F8000C4997F907301201D2B20B4483F80023FF
:105A08000AE03B68DAB20849FB7903F00F03043B6C
:105A18001201D2B20B441A7600BF0C37BD465DF8AE
:105A2800047B704700E100E000ED00E080B582B043
:105A380000AF78607B68013BB3F1807F01D301231D
:105A48000FE00A4A7B68013B53600F214FF0FF309B
:105A5800FFF7C2FF054B00229A60044B07221A6029
:105A6800002318460837BD4680BD00BF10E000E09F
:105A780080B500AFBFF34F8F00BFBFF36F8F00BF7C
:105A88000B4B1A680B4B1B689A4202D3084B002237
:105A98001A60074B1B685A1C05490A60002B05D180
:105AA80072B600BFFFF7E2FA62B600BF00BF80BD62
:105AB800343500203035002080B400AF054B5B68DA
:105AC800044A43F08053536000BFBD465DF8047B31
