:020000040800F2
:1000000000800120E90101083F89000845890008B6
:100010004B8900085189000857890008000000003A
:10002000000000000000000000000000855C0008E7
:100030005D89000800000000415C0008715B000859
:1000400039020108390201083902010839020108A0
:100050003902010839020108390201083902010890
:100060003902010839020108390201086B890008C8
:10007000212000083902010839020108390201086B
:1000800079890008878900089589000839020108E4
:100090003902010839020108390201083902010850
:1000A00039020108A589000839020108390201084E
:1000B0003902010839020108390201083902010830
:1000C0003902010839020108390201083902010820
:1000D0003902010839020108390201083902010810
:1000E0003902010839020108390201083902010800
:1000F00039020108390201083902010839020108F0
:1001000039020108390201083902010839020108DF
:1001100039020108390201083902010839020108CF
:1001200039020108390201083902010839020108BF
:1001300039020108390201083902010839020108AF
:10014000390201083902010839020108B989000899
:10015000390201083902010839020108390201088F
:10016000390201083902010839020108390201087F
:1001700039020108390201083902010800000000B3
:080180003902010839020108EF
:1001880010B5054C237833B9044B13B10448AFF3C9
:1001980000800123237010BD100300200000000020
:1001A8006808010808B5034B1BB103490348AFF3BE
:1001B800008008BD00000000140300206808010842
:1001C80081F0004102E000BF83F0004330B54FEA00
:1001D80041044FEA430594EA050F08BF90EA020F6D
:1001E8001FBF54EA000C55EA020C7FEA645C7FEA00
:1001F800655C00F0E2804FEA5454D4EB5555B8BF23
:100208006D420CDD2C4480EA020281EA030382EA93
:10021800000083EA010180EA020281EA0303362D25
:1002280088BF30BD11F0004F4FEA01314FF4801CF8
:100238004CEA113102D0404261EB410113F0004F0A
:100248004FEA03334CEA133302D0524263EB4303C1
:1002580094EA050F00F0A780A4F10104D5F1200E5F
:100268000DDB02FA0EFC22FA05F2801841F10001BA
:1002780003FA0EF2801843FA05F359410EE0A5F18E
:1002880020050EF1200E012A03FA0EFC28BF4CF0BF
:10029800020C43FA05F3C01851EBE37101F0004575
:1002A80007D54FF0000EDCF1000C7EEB00006EEB82
:1002B8000101B1F5801F1BD3B1F5001F0CD349080C
:1002C8005FEA30004FEA3C0C04F101044FEA445263
:1002D80012F5800F80F09A80BCF1004F08BF5FEAEA
:1002E800500C50F1000041EB045141EA050130BDCA
:1002F8005FEA4C0C404141EB0101013C28BFB1F5DC
:10030800801FE9D291F0000F04BF01460020B1FA26
:1003180081F308BF2033A3F10B03B3F120020CDAF9
:100328000C3208DD02F1140CC2F10C0201FA0CF0D7
:1003380021FA02F10CE002F11402D8BFC2F1200C3C
:1003480001FA02F120FA0CFCDCBF41EA0C019040F2
:10035800E41AA2BF01EB0451294330BD6FEA04043B
:100368001F3C1CDA0C340EDC04F11404C4F1200226
:1003780020FA04F001FA02F340EA030021FA04F338
:1003880045EA030130BDC4F10C04C4F1200220FA8F
:1003980002F001FA04F340EA0300294630BD21FACD
:1003A80004F0294630BD94F0000F83F4801306BF93
:1003B80081F480110134013D4EE77FEA645C18BF87
:1003C8007FEA655C29D094EA050F08BF90EA020F1E
:1003D80005D054EA000C04BF1946104630BD91EA16
:1003E800030F1EBF0021002030BD5FEA545C05D119
:1003F8004000494128BF41F0004130BD14F5800458
:100408003CBF01F5801130BD01F0004545F0FE41CB
:1004180041F470014FF0000030BD7FEA645C1ABF00
:10042800194610467FEA655C1CBF0B46024650EA37
:10043800013406BF52EA033591EA030F41F4002163
:1004480030BD00BF90F0000F04BF0021704730B5E9
:100458004FF4806404F132044FF000054FF00001BE
:1004680050E700BF90F0000F04BF0021704730B57F
:100478004FF4806404F1320410F0004548BF404254
:100488004FF000013EE700BF42004FEAE2014FEAA9
:1004980031014FEA02701FBF12F07F4393F07F4F84
:1004A80081F06051704732F07F4208BF704793F087
:1004B8007F4F04BF41F40021704730B54FF460749A
:1004C80001F0004521F000411CE700BF50EA01029D
:1004D80008BF704730B54FF000050AE050EA010246
:1004E80008BF704730B511F0004502D5404261EBB6
:1004F80041014FF4806404F132045FEA915C3FF4F7
:10050800D8AE4FF003025FEADC0C18BF03325FEA93
:10051800DC0C18BF033202EBDC02C2F1200300FA44
:1005280003FC20FA02F001FA03FE40EA0E0021FA69
:1005380002F11444BDE600BF70B54FF0FF0C4CF457
:10054800E06C1CEA11541DBF1CEA135594EA0C0F09
:1005580095EA0C0F00F0DEF82C4481EA030621EA44
:100568004C5123EA4C5350EA013518BF52EA03357F
:1005780041F4801143F4801338D0A0FB02CE4FF031
:100588000005E1FB02E506F00042E0FB03E54FF061
:100598000006E1FB03569CF0000F18BF4EF0010E59
:1005A800A4F1FF04B6F5007F64F5407404D25FEA55
:1005B8004E0E6D4146EB060642EAC62141EA555108
:1005C8004FEAC52040EA5E504FEACE2EB4F1FD0C4A
:1005D80088BFBCF5E06F1ED8BEF1004F08BF5FEAC8
:1005E800500E50F1000041EB045170BD06F000467A
:1005F80046EA010140EA020081EA0301B4EB5C0427
:10060800C2BFD4EB0C0541EA045170BD41F480111E
:100618004FF0000E013C00F3AB8014F1360FDEBF43
:10062800002001F0004170BDC4F10004203C35DA1F
:100638000C341BDC04F11404C4F1200500FA05F3A2
:1006480020FA04F001FA05F240EA020001F0004243
:1006580021F0004110EBD37021FA04F642EB0601B9
:100668005EEA430E08BF20EAD37070BDC4F10C04E3
:10067800C4F1200500FA04F320FA05F001FA04F2A7
:1006880040EA020001F0004110EBD37041F1000193
:100698005EEA430E08BF20EAD37070BDC4F120059E
:1006A80000FA05F24EEA020E20FA04F301FA05F206
:1006B80043EA020321FA04F001F0004121FA04F2AE
:1006C80020EA020000EBD3705EEA430E08BF20EA7E
:1006D800D37070BD94F0000F0FD101F000464000B8
:1006E80041EB010111F4801F08BF013CF7D041EA3A
:1006F800060195F0000F18BF704703F0004652003E
:1007080043EB030313F4801F08BF013DF7D043EA0E
:100718000603704794EA0C0F0CEA135518BF95EAC4
:100728000C0F0CD050EA410618BF52EA4306D1D14B
:1007380081EA030101F000414FF0000070BD50EA6A
:10074800410606BF1046194652EA430619D094EAF4
:100758000C0F02D150EA013613D195EA0C0F05D1DE
:1007680052EA03361CBF104619460AD181EA030132
:1007780001F0004141F0FE4141F470014FF00000EA
:1007880070BD41F0FE4141F4780170BD70B54FF085
:10079800FF0C4CF4E06C1CEA11541DBF1CEA135505
:1007A80094EA0C0F95EA0C0F00F0A7F8A4EB0504E7
:1007B80081EA030E52EA03354FEA013100F08880DE
:1007C8004FEA03334FF0805545EA131343EA1263A7
:1007D8004FEA022245EA111545EA10654FEA00265C
:1007E8000EF000419D4208BF964244F1FD0404F515
:1007F800407402D25B084FEA3202B61A65EB030571
:100808005B084FEA32024FF480104FF4002CB6EB2D
:10081800020E75EB030E22BFB61A754640EA0C00AD
:100828005B084FEA3202B6EB020E75EB030E22BFED
:10083800B61A754640EA5C005B084FEA3202B6EB2E
:10084800020E75EB030E22BFB61A754640EA9C00ED
:100858005B084FEA3202B6EB020E75EB030E22BFBD
:10086800B61A754640EADC0055EA060E18D04FEA7B
:10087800051545EA16754FEA06164FEAC30343EA1B
:1008880052734FEAC2025FEA1C1CC0D111F4801FE8
:100898000BD141EA00014FF000004FF0004CB6E7E1
:1008A80011F4801F04BF01430020B4F1FD0C88BF80
:1008B800BCF5E06F3FF6AFAEB5EB030C04BFB6EB8B
:1008C800020C5FEA500C50F1000041EB045170BD7E
:1008D8000EF0004E4EEA113114EB5C04C2BFD4EBAB
:1008E8000C0541EA045170BD41F480114FF0000E2F
:1008F800013C90E645EA060E8DE60CEA135594EAAB
:100908000C0F08BF95EA0C0F3FF43BAF94EA0C0FAD
:100918000AD150EA01347FF434AF95EA0C0F7FF422
:1009280025AF104619462CE795EA0C0F06D152EA76
:1009380003353FF4FDAE1046194622E750EA41065A
:1009480018BF52EA43067FF4C5AE50EA41047FF46B
:100958000DAF52EA43057FF4EBAE12E74FF0FF3CD0
:1009680006E000BF4FF0010C02E000BF4FF0010CA1
:100978004DF804CD4FEA410C7FEA6C5C4FEA430C1A
:1009880018BF7FEA6C5C1BD001B050EA410C0CBF69
:1009980052EA430C91EA030F02BF90EA020F0020CB
:1009A800704710F1000F91EA030F58BF994208BF32
:1009B80090422CBFD8176FEAE37040F001007047EF
:1009C8004FEA410C7FEA6C5C02D150EA013C07D146
:1009D8004FEA430C7FEA6C5CD6D152EA033CD3D091
:1009E8005DF8040B704700BF8446104662468C468B
:1009F8001946634600E000BF01B5FFF7B7FF0028BE
:100A080048BF10F1000F01BD4DF808EDFFF7F4FFE6
:100A18000CBF012000205DF808FB00BF4DF808ED71
:100A2800FFF7EAFF34BF012000205DF808FB00BF94
:100A38004DF808EDFFF7E0FF94BF012000205DF8B6
:100A480008FB00BF4DF808EDFFF7CEFF94BF01206B
:100A580000205DF808FB00BF4DF808EDFFF7C4FF64
:100A680034BF012000205DF808FB00BF4FEA410CAD
:100A78007FEA6C5C02D150EA013C0AD14FEA430C90
:100A88007FEA6C5C02D152EA033C02D14FF00000CD
:100A980070474FF0010070474FEA410212F500120B
:100AA80015D211D56FF47873B3EB625212D94FEAAD
:100AB800C12343F0004343EA505311F0004F23FA97
:100AC80002F018BF404270474FF00000704750EAEC
:100AD800013005D111F0004008BF6FF000407047A9
:100AE8004FF00000704700BF4A0011D212F5001203
:100AF80011D20DD56FF47873B3EB62520ED44FEA6E
:100B0800C12343F0004343EA505323FA02F07047ED
:100B18004FF00000704750EA013002D14FF0FF302B
:100B280070474FF0000070474FEA4102B2F1E043CE
:100B380024BFB3F5001CDCF1FE5C0DD901F0004CBC
:100B48004FEAC0024CEA5070B2F1004F40EB83000C
:100B580008BF20F00100704711F0804F21D113F138
:100B68003872BCBF01F00040704741F480114FEA71
:100B78005252C2F11802C2F1200C10FA0CF320FAFA
:100B880002F018BF40F001004FEAC1234FEAD32317
:100B980003FA0CFC40EA0C0023FA02F34FEA430381
:100BA800CCE77FEA625307D150EA01331EBF4FF00A
:100BB800FE4040F44000704701F0004040F0FE4025
:100BC80040F40000704700BF80B485B000AF786083
:100BD8007B681B6803F06003FB60FB68002B04D193
:100BE8007B681B6803F01003FB60FB68184614372A
:100BF800BD465DF8047B704780B483B000AF786071
:100C08007B681B6B18460C37BD465DF8047B704744
:100C180080B483B000AF786039607B681A6A3B683B
:100C28001A437B681A6200BF0C37BD465DF8047B27
:100C3800704780B483B000AF786039607B681A6A07
:100C48003B68DB431A407B681A6200BF0C37BD461D
:100C58005DF8047B704780B483B000AF78607B6830
:100C68005B6C43F400427B685A6400BF0C37BD4696
:100C78005DF8047B704780B483B000AF78607B6810
:100C8800DB6843F001027B68DA6000BF0C37BD46C1
:100C98005DF8047B704780B483B000AF78607B68F0
:100CA800DB6823F001027B68DA6000BF0C37BD46C1
:100CB8005DF8047B704780B483B000AF78607B68D0
:100CC800DB6803F00103012B01D1012300E00023BD
:100CD80018460C37BD465DF8047B704780B483B076
:100CE80000AF78607B68DB6843F002027B68DA60FB
:100CF80000BF0C37BD465DF8047B704780B483B0F5
:100D080000AF78607B68DB6823F002027B68DA60FA
:100D180000BF0C37BD465DF8047B704780B483B0D4
:100D280000AF78607B68DB6803F00203022B01D117
:100D3800012300E0002318460C37BD465DF8047B0C
:100D4800704780B483B000AF78607B68DB6843F09D
:100D580004027B68DA6000BF0C37BD465DF8047B8F
:100D6800704780B483B000AF78607B68DB6823F09D
:100D780004027B68DA6000BF0C37BD465DF8047B6F
:100D8800704780B483B000AF78607B68DB6803F09D
:100D98000403042B01D1012300E0002318460C377B
:100DA800BD465DF8047B704780B483B000AF7860BF
:100DB8007B68DB6843F008027B68DA6000BF0C37A9
:100DC800BD465DF8047B704780B483B000AF78609F
:100DD8007B68DB6823F008027B68DA6000BF0C37A9
:100DE800BD465DF8047B704780B483B000AF78607F
:100DF8007B68DB6803F00803082B01D1012300E0BE
:100E0800002318460C37BD465DF8047B704780B454
:100E180083B000AF78607B68DB6843F010027B68C2
:100E2800DA6000BF0C37BD465DF8047B704780B4BC
:100E380083B000AF78607B68DB6823F010027B68C2
:100E4800DA6000BF0C37BD465DF8047B704780B49C
:100E580083B000AF78607B68DB6803F01003102B69
:100E680001D1012300E0002318460C37BD465DF888
:100E7800047B704780B483B000AF78607B68DB6820
:100E880043F020027B68DA6000BF0C37BD465DF88E
:100E9800047B704780B483B000AF78607B68DB6800
:100EA80023F020027B68DA6000BF0C37BD465DF88E
:100EB800047B704780B483B000AF78607B68DB68E0
:100EC80003F02003202B01D1012300E00023184662
:100ED8000C37BD465DF8047B704780B483B000AF23
:100EE80078607B68DB6843F040027B68DA6000BFAB
:100EF8000C37BD465DF8047B704780B483B000AF03
:100F080078607B68DB6823F040027B68DA6000BFAA
:100F18000C37BD465DF8047B704780B483B000AFE2
:100F280078607B68DB6803F04003402B01D1012324
:100F380000E0002318460C37BD465DF8047B704777
:100F480080B483B000AF78607B68DB6843F08002D0
:100F58007B68DA6000BF0C37BD465DF8047B7047DC
:100F680080B483B000AF78607B68DB6823F08002D0
:100F78007B68DA6000BF0C37BD465DF8047B7047BC
:100F880080B483B000AF78607B68DB6803F08003CF
:100F9800802B01D1012300E0002318460C37BD4601
:100FA8005DF8047B704780B582B000AF78600B466F
:100FB8007B807B8803F00103002B0CD07B681B68C7
:100FC8001846FFF7AAFF0346012B04D07B681B686D
:100FD8001846FFF782FF7B8803F00203002B0CD032
:100FE8007B681B681846FFF799FE0346012B04D05F
:100FF8007B681B681846FFF771FE7B8803F00403C3
:10100800002B0CD07B681B681846FFF7BAFE034616
:10101800012B04D07B681B681846FFF792FE7B887B
:1010280003F00803002B0CD07B681B681846FFF7F9
:10103800DBFE0346012B04D07B681B681846FFF7CC
:10104800B3FE7B8803F01003002B0CD07B681B6871
:101058001846FFF7FCFE0346012B04D07B681B688B
:101068001846FFF7D4FE7B8803F02003002B0CD032
:101078007B681B681846FFF71EFE0346012B04D049
:101088007B681B681846FFF7F6FD7B8803F0400372
:10109800002B0CD07B681B681846FFF771FF0346CE
:1010A800012B04D07B681B681846FFF749FF7B8833
:1010B80003F08003002B0CD07B681B681846FFF7F1
:1010C800F9FE0346012B04D07B681B681846FFF71E
:1010D800D1FE00BF0837BD4680BD80B582B000AFE5
:1010E80078600B467B807B8803F00103002B0CD0D3
:1010F8007B681B681846FFF710FF0346012B04D1D5
:101108007B681B681846FFF7F8FE7B8803F002032C
:10111800002B0CD07B681B681846FFF7FFFD0346C1
:10112800012B04D17B681B681846FFF7E7FD7B8815
:1011380003F00403002B0CD07B681B681846FFF7EC
:1011480020FE0346012B04D17B681B681846FFF775
:1011580008FE7B8803F00803002B0CD07B681B6813
:101168001846FFF741FE0346012B04D17B681B6834
:101178001846FFF729FE7B8803F01003002B0CD0DC
:101188007B681B681846FFF762FE0346012B04D1F3
:101198007B681B681846FFF74AFE7B8803F020032C
:1011A800002B0CD07B681B681846FFF784FD0346AC
:1011B800012B04D07B681B681846FFF76CFD7B8801
:1011C80003F04003002B0CD07B681B681846FFF720
:1011D800D7FE0346012B04D17B681B681846FFF72E
:1011E800BFFE7B8803F08003002B0CD07B681B6854
:1011F8001846FFF75FFE0346012B04D17B681B6886
:101208001846FFF747FE00BF0837BD4680BD0000FF
:1012180080B582B000AF78600B46FB70FB78022B7C
:1012280006D17B681B6801211846FFF7F1FC31E005
:101238007B681B68194A934213D07B681B68184A5D
:1012480093420ED07B681B68164A934209D07B688C
:101258001B68154A934204D07B681B68134A934263
:1012680018D1FB78032B06D17B681B68042118462C
:10127800FFF7CEFC0EE0FB78042B0BD17B681B68D4
:1012880001211846FFF7C4FC7B681B680421184637
:10129800FFF7BEFC00BF0837BD4680BD002C0140EB
:1012A8000034014000400140004401400048014032
:1012B80080B582B000AF78600B46FB70FB78022BDC
:1012C80006D17B681B6801211846FFF7B2FC31E0A4
:1012D8007B681B68194A934213D07B681B68184ABD
:1012E80093420ED07B681B68164A934209D07B68EC
:1012F8001B68154A934204D07B681B68134A9342C3
:1013080018D1FB78032B06D17B681B68042118468B
:10131800FFF78FFC0EE0FB78042B0BD17B681B6872
:1013280001211846FFF785FC7B681B6804211846D5
:10133800FFF77FFC00BF0837BD4680BD002C014089
:101348000034014000400140004401400048014091
:1013580080B582B000AF78600B46FB70FB78022B3B
:1013680006D17B681B6810211846FFF751FC31E055
:101378007B681B68194A934213D07B681B68184A1C
:1013880093420ED07B681B68164A934209D07B684B
:101398001B68154A934204D07B681B68134A934222
:1013A80018D1FB78032B06D17B681B6840211846AF
:1013B800FFF72EFC0EE0FB78042B0BD17B681B6833
:1013C80010211846FFF724FC7B681B68402118464B
:1013D800FFF71EFC00BF0837BD4680BD002C01404A
:1013E80000340140004001400044014000480140F1
:1013F80080B582B000AF78600B46FB70FB78022B9B
:1014080006D17B681B6810211846FFF712FC31E0F3
:101418007B681B68194A934213D07B681B68184A7B
:1014280093420ED07B681B68164A934209D07B68AA
:101438001B68154A934204D07B681B68134A934281
:1014480018D1FB78032B06D17B681B68402118460E
:10145800FFF7EFFB0EE0FB78042B0BD17B681B68D2
:1014680010211846FFF7E5FB7B681B6840211846EA
:10147800FFF7DFFB00BF0837BD4680BD002C0140E9
:101488000034014000400140004401400048014050
:1014980080B582B000AF78600B46FB70FB78022BFA
:1014A80007D17B681B684FF480711846FFF7B0FBC3
:1014B80034E07B681B681B4A934213D07B681B6827
:1014C800194A93420ED07B681B68184A934209D088
:1014D8007B681B68164A934204D07B681B68154AD0
:1014E80093421BD1FB78032B07D17B681B684FF411
:1014F80080611846FFF78CFB10E0FB78042B0DD1B8
:101508007B681B684FF480711846FFF781FB7B6886
:101518001B684FF480611846FFF77AFB00BF083755
:10152800BD4680BD002C0140003401400040014010
:10153800004401400048014080B582B000AF7860A7
:101548000B46FB70FB78022B07D17B681B684FF4B6
:1015580080711846FFF76DFB34E07B681B681B4AF7
:10156800934213D07B681B68194A93420ED07B685C
:101578001B68184A934209D07B681B68164A934235
:1015880004D07B681B68154A93421BD1FB78032B58
:1015980007D17B681B684FF480611846FFF749FB49
:1015A80010E0FB78042B0DD17B681B684FF4807129
:1015B8001846FFF73EFB7B681B684FF480611846AE
:1015C800FFF737FB00BF0837BD4680BD002C014040
:1015D80000340140004001400044014000480140FF
:1015E80080B582B000AF78600B46FB70FB78022BA9
:1015F80006D17B681B684FF480511846FFF708FB3B
:1016080000BF0837BD4680BD80B582B000AF7860A6
:101618000B46FB70FB78022B06D17B681B684FF4E6
:1016280080511846FFF705FB00BF0837BD4680BD4F
:1016380080B584B000AF78600023FB607B681B68CE
:10164800304A934201D1304BFB607B681A68FB68D3
:101658001A60FB681B681846FFF7B6FAB860BB68E3
:10166800002B06D0BB68102B03D0FB6801221A712F
:1016780002E0FB6800221A71FB681B68234A934248
:1016880013D0FB681B68224A93420ED0FB681B6884
:10169800204A934209D0FB681B681F4A934204D032
:1016A800FB681B681D4A934204D1FB681B681846F7
:1016B800FFF7D1FAFB681B68144A934213D0FB6802
:1016C8001B68134A93420ED0FB681B68114A934269
:1016D80009D0FB681B68104A934204D0FB681B685A
:1016E8000E4A934208D17B681B681846FFF784FAB4
:1016F8000346DAB2FB685A71FB6818461037BD46D4
:1017080080BD00BF0004004070050020002C01408F
:1017180000340140004001400044014000480140BD
:1017280080B485B000AF786039603B68002B03D186
:101738007B684033FB6001E0044BFB60FB681846A4
:101748001437BD465DF8047B704700BF0C03045096
:1017580080B483B000AF78607B68DB6803F44063D3
:10176800002B01D1012300E0002318460C37BD46A9
:101778005DF8047B704780B483B000AF786039604F
:101788007B681B6B23F00F023B681A437B681A6364
:1017980000BF0C37BD465DF8047B704780B483B04A
:1017A80000AF786039607B68DB6823F003023B6830
:1017B8001A437B68DA6000BF0C37BD465DF8047BCE
:1017C800704780B483B000AF78607B68DB6C03F04F
:1017D800C003002B01D1012300E0002318460C3779
:1017E800BD465DF8047B704780B483B000AF786075
:1017F8007B689B6823F0004323F03F0343F001021A
:101808007B689A6000BF0C37BD465DF8047B704763
:1018180080B483B000AF78607B689B6823F0004396
:1018280023F03F0343F002027B689A6000BF0C3745
:10183800BD465DF8047B704780B483B000AF786024
:101848007B689B6803F00103012B01D1012300E0B1
:10185800002318460C37BD465DF8047B704780B4FA
:1018680083B000AF786039607B689B6823F04043A1
:1018780023F03F033A6802F08042134343F00042EA
:101888007B689A6000BF0C37BD465DF8047B7047E3
:1018980080B483B000AF78607B689B6803F0004336
:1018A800B3F1004F01D1012300E0002318460C37A3
:1018B800BD465DF8047B704780B483B000AF7860A4
:1018C8007B689B6823F0004323F03F0343F0040246
:1018D8007B689A6000BF0C37BD465DF8047B704793
:1018E80080B483B000AF78607B689B6823F00043C6
:1018F80023F03F0343F008027B689A6000BF0C376F
:10190800BD465DF8047B704780B483B000AF786053
:101918007B681B6803F00803082B01D1012300E052
:10192800002318460C37BD465DF8047B704780B429
:1019380083B000AF78607B681B6803F01003102B3E
:1019480001D1012300E0002318460C37BD465DF89D
:10195800047B704780B483B000AF78607B68102246
:101968001A6000BF0C37BD465DF8047B704780B431
:1019780083B000AF78607B685B6843F008027B68DF
:101988005A6000BF0C37BD465DF8047B704780B4D1
:1019980083B000AF78607B685B6843F040027B6887
:1019A8005A6000BF0C37BD465DF8047B704780B4B1
:1019B80083B000AF78607B685B6823F008027B68BF
:1019C8005A6000BF0C37BD465DF8047B704780B491
:1019D80083B000AF78607B685B6823F010027B6897
:1019E8005A6000BF0C37BD465DF8047B704780B471
:1019F80083B000AF78607B685B6823F040027B6847
:101A08005A6000BF0C37BD465DF8047B704780B450
:101A180083B000AF78607B685B6823F080027B68E6
:101A28005A6000BF0C37BD465DF8047B704780B430
:101A380083B000AF78607B685B6803F01003102BFD
:101A480001D1012300E0002318460C37BD465DF89C
:101A5800047B704780B483B000AF78607B685B68B4
:101A680003F08003802B01D1012300E000231846F6
:101A78000C37BD465DF8047B7047000080B485B024
:101A880000AF786039607B68FB600C4A3B681344A0
:101A98001B781A46FB6813441B6808493A680A44CD
:101AA80012781146FA680A4443F00103136000BF34
:101AB8001437BD465DF8047B704700BFD4080108A1
:101AC80080B485B000AF786039607B68FB600C4AF1
:101AD8003B6813441B781A46FB6813441B68084983
:101AE8003A680A4412781146FA680A4423F0010356
:101AF800136000BF1437BD465DF8047B704700BF14
:101B0800D408010880B485B000AF786039607B687C
:101B1800FB60084A3B6813441B781A46FB68134469
:101B28001B6803F0200318461437BD465DF8047B94
:101B3800704700BFD408010880B487B000AFF860D0
:101B4800B9607A60FB687B610D4ABB6813441B78F7
:101B58001A467B6913445B681B0C1B040849BA6866
:101B68000A44127811467A690A4411467A6813437E
:101B78004B6000BF1C37BD465DF8047B704700BF53
:101B8800D408010880B487B000AFF860B9607A6003
:101B98003B60FB687B613B6A102B14D1174ABB681A
:101BA80013441B781A467B6913441A467B68D36032
:101BB800124ABB6813441B781A467B6913441A46B9
:101BC8003B68936013E00D4ABB6813441B781A46C0
:101BD8007B6913441A467B689360084ABB681344C0
:101BE8001B781A467B6913441A463B68D36000BFCA
:101BF8001C37BD465DF8047B704700BFD408010858
:101C080080B487B000AFF860B9607A60FB687B6128
:101C1800074ABB6813441B781A467B6913441A4663
:101C28007B68936000BF1C37BD465DF8047B704736
:101C3800D408010880B483B000AF78607B681B6863
:101C480003F02003202B01D1012300E000231846D4
:101C58000C37BD465DF8047B704780B483B000AF95
:101C680078607B6820225A6000BF0C37BD465DF85B
:101C7800047B704780B485B000AF786039607B68BA
:101C8800FB600C4A3B6813441B781A46FB681344F4
:101C98001B6808493A680A4412781146FA680A44E7
:101CA80043F00203136000BF1437BD465DF8047BA0
:101CB800704700BFD408010880B485B000AF7860D1
:101CC80039607B68FB600C4A3B6813441B781A46F2
:101CD800FB6813441B6808493A680A44127811469D
:101CE800FA680A4443F00803136000BF1437BD467E
:101CF8005DF8047B704700BFD408010880B485B044
:101D080000AF786039607B68FB600C4A3B6813441D
:101D18001B781A46FB6813441B6808493A680A444A
:101D280012781146FA680A4423F00203136000BFD0
:101D38001437BD465DF8047B704700BFD40801081E
:101D480080B485B000AF786039607B68FB600C4A6E
:101D58003B6813441B781A46FB6813441B68084900
:101D68003A680A4412781146FA680A4423F00403D0
:101D7800136000BF1437BD465DF8047B704700BF91
:101D8800D408010880B485B000AF786039607B68FA
:101D9800FB600C4A3B6813441B781A46FB681344E3
:101DA8001B6808493A680A4412781146FA680A44D6
:101DB80023F00803136000BF1437BD465DF8047BA9
:101DC800704700BFD408010880B485B000AF7860C0
:101DD80039607B68FB600A4A3B6813441B781A46E3
:101DE800FB6813441B6803F00203022B01D1012393
:101DF80000E0002318461437BD465DF8047B7047A1
:101E0800D408010880B584B000AF78600123FB8155
:101E18007B681B691846FFF79BFC0346002B2FD0F5
:101E28007B685B7ADBB2022B11D07B685B7ADBB212
:101E3800042B0CD07B685B7ADBB2082B07D07B685D
:101E48001B691846FFF760FD0346012B18D1786817
:101E580000F0F2F80346002B12D17B685B7ADBB204
:101E6800082B03D17B6801225A7202E07B6820228A
:101E78005A727B681B691846FFF71EFD0023FB8119
:101E8800FB8918461037BD4680BD80B586B002AFC5
:101E9800F860B9607A603B600021F868FFF740FCA1
:101EA80003461A467968B868FFF7AAFE0021F86861
:101EB800FFF736FC02463B68002100917968B86854
:101EC800FFF760FEBA697968B868FFF735FE796888
:101ED800B868FFF7CFFE7968B868FFF7EDFE796854
:101EE800B868FFF7CBFD00BF1037BD4680BD80B591
:101EF80084B000AFF860B9607A607968B868FFF7B5
:101F0800DFFD7968B868FFF71BFF7968B868FFF7E5
:101F180039FF7968B868FFF7F1FE00227968B86878
:101F2800FFF70AFE00BF1037BD4680BD80B582B0FE
:101F380000AF786039607B68DB79012B0DD17B6855
:101F4800DA687B681B685B00D1187B681B685B00DC
:101F58001A4638680EF06EFC08E07B68D9687B6822
:101F68001B685B001A4638680EF064FC00BF08372F
:101F7800BD4680BD80B586B000AFF860B9607A60B4
:101F8800FB685A69FB689B7919461046FFF71CFFE6
:101F98000346DBB2012B37D1FB685A69BB68104690
:101FA80098470346012B2FD1FB6804225A72FB681D
:101FB8005A697B6810469847FB685A69FB689B79A1
:101FC80019461046FFF79EFD0346002B19D1FB6802
:101FD8005A69FB689B7919461046FFF771FDFB6843
:101FE8005869FB689B791946FB681B681A46FFF716
:101FF800A3FDFB685A69FB689B7919461046FFF7F1
:102008003DFD0123FB7501E00023FB75FB7D1846B0
:102018001837BD4680BD000080B500AF034A0449AB
:102028000448FFF7A7FF00BF80BD00BF631C00087E
:102038003D1C0008FC05002080B582B000AF786028
:102048007B681B691846FFF772FC0346DBB2012B5D
:1020580007D17B681B691846FFF77CFC7B68102258
:102068005A727B685B7ADBB2102B0CBF012300230A
:10207800DBB218460837BD4680BD80B582B000AFD8
:1020880078600B46FB70FB78012B0DD17B681B69D0
:102098001846FFF75DFB0346012B12D07B681B69CE
:1020A8001846FFF709FC0CE07B681B691846FFF728
:1020B80088FB0346012B04D07B681B691846FFF791
:1020C8000FFC00BF0837BD4680BD000090B589B041
:1020D80002AFF860084611461A4603467B810B4654
:1020E8003B811346FB8000237B61FB681B693C4AEC
:1020F800934201D13B4B7B617B69002B6BD0FB6822
:102108001A697B691A617B690022DA71FB88012BE5
:1021180061D03B89002B47D07B695B7ADBB2082B07
:1021280042D0FB68DA687B69DA60FB681A687B6909
:102138001A60FB685A697B695A61FB689A797B69FE
:102148009A71FB681A797B691A717B691B69B96A8C
:102158001846FFF710FB7B89012B21D07B89042BC4
:1021680016D17B691B6903211846FFF717FB7B69AA
:1021780018697B6959697B699B791C467B69DA68B0
:102188007B691B68009313462246FFF77EFE07E033
:102198007B89022B04D17B691B691846FFF7E7FB93
:1021A8007B6908225A7216E03B89002B13D17B69A0
:1021B8009B7ADBB2082B0ED0FB685A797B695A717F
:1021C8007B89022B04D17B691B691846FFF7DFFB6B
:1021D8007B6908229A727B6918461C37BD4690BDF8
:1021E80000010450FC05002080B582B000AF786083
:1021F8007B681B691846FFF71FFB0346002B04D1B9
:102208007B681B691846FFF7EFFA00BF0837BD4621
:1022180080BD80B586B000AFF8600B467A607B81E0
:102228000123FB82FB681B69002B46D07B89012BAD
:1022380005D1F868FFF7E6FD0346FB823DE07B89A0
:10224800042B1FD1FB681B691846FFF781FA034668
:10225800002B32D0FB6801225A72FB681B691846B2
:10226800FFF72AFB00BFFB685B7ADBB2042BFAD1CD
:102278007968F868FFF75AFEFB6808225A7200234B
:10228800FB821AE07B89022B17D1FB685B7ADBB2F1
:10229800202B09D0FB685B7ADBB2042B04D0FB68E7
:1022A8005B7ADBB2102B08D1FB6808225A72796876
:1022B800F868FFF73BFE0023FB82FB8A18461837B5
:1022C800BD4680BD80B582B000AF78600B467B808C
:1022D80013463B807B681B691846FFF7ADFA034637
:1022E800002B04D07B681B691846FFF791FA7B68BE
:1022F8001B691846FFF7AEFB0346002B04D07B682A
:102308001B691846FFF783FB7B681B691846FFF7B4
:102318008EFB0346002B04D07B681B691846FFF729
:1023280056FB3B88002B35D07B680022DA607B683F
:1023380000221A607B6800225A617B6800229A7129
:102348007B6800221A717B681A697B681B791946B9
:102358001046FFF710FA7B88012B26D07B88022BCA
:1023680005D17B681B691846FFF721FB1DE07B88B8
:10237800042B1AD17B6818697B6859697B689B793B
:102388001A46FFF7B4FD7B681B6900211846FFF762
:1023980005FA0AE07B6800225A717B88022B04D177
:1023A8007B681B691846FFF722FB00BF0837BD464C
:1023B80080BD000080B584B000AF78600B46FB702C
:1023C8007B681B691846FFF737FA0346FB7397F9D2
:1023D8000F30012B04D17B681B691846FFF718FAE8
:1023E800FB78002B0FD17B681B697F211846FFF70C
:1023F80036FA00BF7B681B691846FFF749FA03469F
:10240800012BF7D040E0FB78012B0FD17B681B69CB
:102418002C491846FFF723FA00BF7B681B6918464A
:10242800FFF736FA0346012BF7D02DE07B681B69CE
:102438007F211846FFF713FA00BF7B681B6918460F
:10244800FFF726FA0346012BF7D00023BB8107E0EC
:1024580000BFBB891BB29BB201339BB21BB2BB81CD
:10246800BB891BB29BB2032BF2D97B681B69154948
:102478001846FFF7F4F900BF7B681B691846FFF799
:1024880007FA0346012BF7D00023BB8107E000BF02
:10249800BB891BB29BB201339BB21BB2BB81BB8908
:1024A8001BB29BB2032BF2D997F90F30012B04D141
:1024B8007B681B691846FFF797F900BF1037BD46C0
:1024C80080BD00BF00007F4080B483B000AF78605B
:1024D8007B681B6843F001027B681A6000BF0C37F9
:1024E800BD465DF8047B704780B483B000AF786068
:1024F8007B681B6823F001027B681A6000BF0C37F9
:10250800BD465DF8047B704780B483B000AF786047
:1025180039607B681B6823F004023B681A437B68B8
:102528001A6000BF0C37BD465DF8047B704780B465
:1025380083B000AF78607B681B6803F0040318461B
:102548000C37BD465DF8047B704780B483B000AF9C
:1025580078607B68DB6A18460C37BD465DF8047BFB
:10256800704780B483B000AF786039607B683A68A0
:102578001A6300BF0C37BD465DF8047B704780B412
:1025880083B000AF786039607B683A685A6300BFEF
:102598000C37BD465DF8047B704780B483B000AF4C
:1025A800786039607B683A689A6300BF0C37BD462B
:1025B8005DF8047B704780B483B000AF7860396001
:1025C8007B683A68DA6300BF0C37BD465DF8047B68
:1025D800704780B483B000AF786039607B683A6830
:1025E8001A6400BF0C37BD465DF8047B704780B4A1
:1025F80083B000AF78607B685B6B18460C37BD46CC
:102608005DF8047B704780B483B000AF78607B6866
:102618009B6B18460C37BD465DF8047B704780B449
:1026280083B000AF78607B68DB6B18460C37BD461B
:102638005DF8047B704780B483B000AF78607B6836
:102648001B6C18460C37BD465DF8047B704780B498
:1026580083B000AF78607B685B6943F001027B68F8
:102668005A6100BF0C37BD465DF8047B704780B4E3
:1026780083B000AF78607B681B6918460C37BD468D
:102688005DF8047B704780B483B000AF7860396030
:102698007B683A689A6100BF0C37BD465DF8047BD9
:1026A800704780B483B000AF786039607B683A685F
:1026B8009A6200BF0C37BD465DF8047B7047000086
:1026C80080B584B000AF786087ED000AD7ED007A56
:1026D800F5EEC07AF1EE10FA03D54FF000033B6037
:1026E8000AE0D7ED007A9FED167AF4EEC77AF1EE9C
:1026F80010FA01DD134B3B607B681B681846FFF737
:1027080024FFF8607B681B79002B0CBF0123002392
:10271800DBB21A46FB68134407EE903AB8EE677AC4
:10272800D7ED007A27EE277ADFED056AC7EE267A1D
:10273800FCEEE77A17EE903A18461037BD4680BD92
:102748000000C8420000C84280B582B000AF78607F
:1027580039607B681B681846FFF749FF02463B68EB
:10276800934205D07B681B6839681846FFF707FF56
:1027780000BF0837BD4680BD80B582B000AF786025
:1027880039607B681B681846FFF73DFF02463B68C7
:10279800934205D07B681B6839681846FFF7FDFE31
:1027A80000BF0837BD4680BD80B582B000AF7860F5
:1027B80039607B681B681846FFF731FF02463B68A3
:1027C800934205D07B681B6839681846FFF7F3FE0B
:1027D80000BF0837BD4680BD80B582B000AF7860C5
:1027E80039607B681B681846FFF725FF02463B687F
:1027F800934205D07B681B6839681846FFF7E9FEE5
:1028080000BF0837BD4680BD80B584B000AF786092
:1028180087ED000A97ED000A7868FFF751FFF86026
:10282800F9687868FFF790FF00BF1037BD4680BD94
:1028380080B584B000AF786087ED000A97ED000A94
:102848007868FFF73DFFF860F9687868FFF794FF4C
:1028580000BF1037BD4680BD80B584B000AF78603A
:1028680087ED000A97ED000A7868FFF729FFF860FE
:10287800F9687868FFF798FF00BF1037BD4680BD3C
:1028880080B584B000AF786087ED000A97ED000A44
:102898007868FFF715FFF860F9687868FFF79CFF1C
:1028A80000BF1037BD4680BD80B485B000AF7860EA
:1028B8007B681B689A68074B1340FB60FB68062B14
:1028C8000CBF01230023DBB218461437BD465DF860
:1028D800047B70470700010080B584B000AF7860C2
:1028E8000B46FB707B681B681846FFF720FEF860F4
:1028F800FB78002B1ED07B681B68324A934213D0AA
:102908007B681B68304A93420ED07B681B682F4A4D
:10291800934209D07B681B682D4A934204D07B6898
:102928001B682C4A934205D17B681B680021184616
:10293800FFF717FEFB68042B11D07B681B68042186
:102948001846FFF7E1FD7B681B681846FFF77FFE16
:102958007B681B68F9681846FFF7D6FD04E07B68BA
:102968001B681846FFF773FE7B681B681846FFF75D
:10297800ABFDFB78002B20D07B681B68114A934283
:1029880013D07B681B68104A93420ED07B681B6883
:102998000E4A934209D07B681B680D4A934204D0C3
:1029A8007B681B680B4A934207D17B681A687B686F
:1029B8005B7919461046FFF7D4FD00BF1037BD46B6
:1029C80080BD00BF002C01400034014000400140A0
:1029D800004401400048014080B582B000AF7860F3
:1029E8007B681B681846FFF77FFD00BF0837BD46A8
:1029F80080BD000080B483B000AF7860074B5B797E
:102A0800002B0CBF01230023DAB27B6801331A7054
:102A180000BF0C37BD465DF8047B70472C030020CF
:102A280080B400AF0C4B5B79002B0CBF0123002353
:102A3800DAB2094B9A71084B5A790132D2B25A71FB
:102A4800054B5B79012B02D9034B00225A7100BF59
:102A5800BD465DF8047B70472C03002080B485B028
:102A680000AF786039607B68012283F8D8203B6822
:102A7800D3E900237968C1E902237B6801221A603F
:102A88000023FB600CE07B68D3E902237868F968CF
:102A98000231C9000144C1E90023FB680133FB602E
:102AA800FB68182BEFDD00BF00BF1437BD465DF88B
:102AB800047B704780B586B000AF87ED040BF860E3
:102AC800B9607A60BB68D3E902017B68D3E9002367
:102AD800FDF79AFF0346002B05D17B68D3E9002355
:102AE800B968C1E90223F868BB681033C8221946DF
:102AF8000DF0A0FEF968D7E90423C1E93223FB6889
:102B080003F1D000BB681033C02219460DF092FEC5
:102B1800BB6803F11000FB68C833C82219460DF0E2
:102B280089FE00BF1837BD4680BD80B485B000AFB0
:102B3800786039607B68012283F860203B68D3E9BC
:102B480000237968C1E902237B6801221A60002307
:102B5800FB600CE07B68D3E902237868F9680231EE
:102B6800C9000144C1E90023FB680133FB60FB682D
:102B7800092BEFDD00BF00BF1437BD465DF8047BAD
:102B8800704780B586B000AF87ED040BF860B96078
:102B98007A60BB68D3E902017B68D3E90023FDF7BB
:102BA80033FF0346002B05D17B68D3E90023B968BE
:102BB800C1E90223F868BB681033502219460DF0AA
:102BC80039FEF968D7E90423C1E91423FB6803F146
:102BD8005800BB681033482219460DF02BFEBB681D
:102BE80003F11000FB685033502219460DF022FE05
:102BF80000BF1837BD4680BD80B584B000AF87EDF3
:102C0800000B38687B6823F000414FF000022C4B22
:102C1800FDF704FF0346002B42D04FF00002294B7A
:102C2800D7E90001FDF70EFF0346002B13D04FF044
:102C38000002244BD7E90001FDF7C8FA02460B460B
:102C480043EC172BB0EE470AF0EE670A0DF0C0FB15
:102C580087ED020B28E04FF000021B4BD7E900017B
:102C6800FDF7FAFE0346002B06D04FF000024FF0A6
:102C78000003C7E9022317E04FF00002114BD7E920
:102C88000001FDF7A1FA02460B4643EC172BB0EE04
:102C9800470AF0EE670A0DF01BFB87ED020B03E015
:102CA800D7E90023C7E90223D7E9022343EC172B0E
:102CB800B0EE470AF0EE670A1037BD4680BD00BF88
:102CC800000030430000E03F0000E0BF80B58CB05A
:102CD80002AF78607B6800221A727B6801225A6012
:102CE8000123BB731B4BFB617B6810337B611A4B61
:102CF800BB6100237B730923BB600423FB8404238B
:102D0800BB8408233B6209233B73BA8CF98C07F117
:102D180008003B6A009313460122FFF7D7F90246E1
:102D28007B68DA607B68DB6802211846FFF742FBA4
:102D38007B68DB681846FFF757FA7B68DB68012178
:102D48001846FFF79AF97B6801221A7200BF2837E4
:102D5800BD4680BD000002400001045080B5A6B009
:102D680000AF78607B6801225A60214BBB6000236A
:102D78003B7300237B7307F108031846FEF758FCE2
:102D880002467B68DA607B68DB6800211846FEF73C
:102D98000AF9022387F897307B68DB6897F8972051
:102DA80011461846FEF734FA022387F897307B68F5
:102DB800DB6897F8972011461846FEF7C9FA7B6832
:102DC800DB681846FFF770FD034687F8963097F8DA
:102DD8009630002B05D17B68DB6800211846FFF789
:102DE8007BFD7B6801221A7200BF9837BD4680BD03
:102DF8000004004080B5A6B000AF78607B6801226F
:102E08005A60214BBB6000233B7300237B7307F19F
:102E180008031846FEF70CFC02467B68DA607B68FC
:102E2800DB6800211846FEF7BEF8022387F89730C2
:102E38007B68DB6897F8972011461846FEF728FB51
:102E4800022387F897307B68DB6897F8972011464C
:102E58001846FEF7C5FB7B68DB681846FFF724FDBC
:102E6800034687F8963097F89630002B05D17B6893
:102E7800DB6800211846FFF72FFD7B6801221A72D4
:102E880000BF9837BD4680BD000400400000000028
:102E98002DE9B04FA2B000AFFFF7C2FD00237B655C
:102EA80007E0A34A7B6D1A44002313707B6D01333E
:102EB8007B657B6D072BF4DD9E4A0423A2F8503016
:102EC8009D4BD8689B4BB3F850309C4A1946FFF786
:102ED800A0F99A4BDB89974AA2F84030974B1B8898
:102EE800944AA2F84E30954B9B89924AA2F84230F8
:102EF800924B5B888F4AA2F84C30904B5B898D4A85
:102F0800A2F844308D4B9B888A4AA2F84A308B4BF2
:102F18001B89884AA2F84630884BDB88854AA2F884
:102F28004830854B93F8783003F00403DBB2002B6C
:102F380067D1814A92F8783043F0040382F87830F8
:102F48007C494FF000024FF00003C1E91A23794A87
:102F58000323A2F89830774A0023A2F89A30754ADA
:102F68000023A2F89E30734A0023A2F89C30714ACD
:102F78000023A2F8A030704A0023A2F888306E4AD5
:102F88000023A2F884306C4A0023A2F894306A4ADD
:102F98000023A2F89A30684A0023A2F88A30664AC9
:102FA8000023A2F88630644A0023A2F88C30624AD3
:102FB8000023A2F88E30604A0023A2F890305E4ABF
:102FC8000023A2F896305C4A0023A2F892305A4AAD
:102FD8000023A2F8983057494FF000024FF0000341
:102FE800C1E9162353494FF000024FF00003C1E92D
:102FF800182351494FF000024FF00003C1E91A238A
:103008001BE24C4BB3F8983001333B65494BB3F89E
:1030180098300133B3F5803F02D34FF6FF733B6519
:103028003B6D9BB2434AA2F89830424BB3F89830B4
:10303800042B40D13F4A0023A2F898303D4BD3E9F6
:103048001A014FF000024FF00003FDF7DDFC0346C4
:10305800002B18D0374BB3F84A30374AA2F88A30D9
:10306800344BB3F84430344AA2F88630314BB3F8C5
:103078004E30314AA2F88E302E4BB3F840302E4AEB
:10308800A2F88C3017E02B4BB3F842302A4AA2F84A
:103098009030284BB3F84C30274AA2F89630254B8D
:1030A800B3F84630244AA2F89230224BB3F848309D
:1030B800214AA2F898301F4BB3F89830012B1ED143
:1030C8001C4BD3E91A014FF000024FF00003FDF743
:1030D8009BFC0346002B06D0164BB3F84A30164A21
:1030E800A2F888300BE0134BB3F84830124AA2F824
:1030F8009A30104BB3F846300F4AA2F894300D4B73
:10310800B3F89830022B77D10A4BD3E91A014FF064
:1031180000024FF00003FDF777FC0346002B0FD0A9
:10312800044BB3F84430044AA2F8843064E000BF8A
:103138000822002050060020D81700201422002062
:10314800914BB3F894301A468F4BB3F89230D31A98
:103158003B658D4BB3F894301A463B6D934201D9C9
:1031680000233B653B6D9BB2884AA2F89C30864B96
:10317800B3F89A301A46844BB3F89830D31A3B65A3
:10318800814BB3F89A301A463B6D934201D900231C
:103198003B653B6D9BB27D4AA2F8A0307B4BB3F8F0
:1031A8004C301A46784BB3F89630D31A3B65774BB8
:1031B800B3F84C301A463B6D934201D900233B6566
:1031C8003B6D9BB2714AA2F89E30704BB3F8423007
:1031D8001A466D4BB3F89030D31A3B656B4BB3F876
:1031E80042301A463B6D934201D900233B653B6D43
:1031F8009BB2664AA2F89A30644BB3F89830032B16
:1032080040F0F380614BD3E91A014FF000024FF010
:103218000003FDF7F9FB0346002B00F0E6805A4B4C
:10322800B3F884301A46584BB3F88630D31A3B6546
:10323800554BB3F884301A463B6D934201D90023AD
:103248003B653B6D1846FDF70DF94BA3D3E9002309
:10325800FDF772F902460B4643EC172BB0EE470A0E
:10326800F0EE670AFFF7C8FC53EC102B104619461E
:10327800FDF712FC03467B65434BB3F888301A46CA
:10328800414BB3F88A30D31A3B653F4BB3F88830CB
:103298001A463B6D934201D900233B653A6D1346AC
:1032A800DB009B1A3B653B6DB3F5803F02D34FF6BD
:1032B800FF733B657B6DB3F5803F03DA7B6DA7F841
:1032C8004A3003E04FF6FF73A7F84A30B7F84A20B0
:1032D8003B6DD31A1846FDF7C5F802460B462B4935
:1032E800C1E91623294BB3F840301A46264BB3F8E8
:1032F8008C30D31A3B65254BB3F840301A463B6DEA
:10330800934201D900233B65204BB3F84E301A464F
:103318001D4BB3F88E30D31AFB641C4BB3F84E30F8
:103328001A46FB6C934201D90023FB64FB6C1846D8
:10333800FDF798F812A3D3E90023FDF7FDF802463C
:103348000B4643EC172BB0EE470AF0EE670AFFF77F
:1033580053FC53EC102B10461946FDF79DFB034612
:103368007B657B6DB3F5803F12DA7B6DA7F84A3039
:1033780012E000BFAFF300809A999999999901409A
:10338800CDCCCCCCCCCCFC3FD817002050060020AC
:103398004FF6FF73A7F84A303A6D40F2A3639A429A
:1033A80023DCB7F84A2040F2A3639A421DD89F4B0A
:1033B800D3E91A014FF000029D4BFDF74DFB034680
:1033C800002B12D09B494FF000029B4BC1E91823F8
:1033D80096494FF000024FF00003C1E91A239549BE
:1033E8004FF00002944BC1E91A23904BD3E91A011C
:1033F8004FF00002914BFDF72FFB0346002B0DD039
:103408008C494FF000024FF00003C1E91A238949A3
:103418004FF000024FF00003C1E91823834BD3E9B2
:103428001A014FF00002844BFCF7D0FE02460B460F
:10343800104619467D4BC3E91A01814A00231380BF
:103448007F4A002353807E4A002393807C4A0023CE
:10345800D380784BB3F8A030794A1381754BB3F811
:103468009E30774A5381734BB3F89C30744A9381EA
:10347800704BB3F89A30724AD381724A00231360B2
:10348800714A00231360694BB3F87C30A7F84A30BF
:1034980000237B6510E0674A7B6D203332F81330D8
:1034A8001846FCF7CFFF634A7B6DDB001344C3E982
:1034B80000017B6D01337B657B6D072BEBDD5D4B7D
:1034C80093ED027B614A62496248B0EE470AF0EE2A
:1034D800670AFFF756FB574B03F62853D3E9002337
:1034E800C7E9202300237B651DE07B6D0133514A2A
:1034F80003F2A513DB001344D3E900234D49C1E9C6
:1035080022234C4BD3E92223D7E92001FDF786FA81
:103518000346002B04D0474BD3E92223C7E92023D5
:103528007B6D01337B657B6D082BDEDD4A4A4B4999
:103538004B4897ED200BFFF7BDFA3E4B03F6F873A7
:10354800D3E90023C7E9162300237B651DE07B6DC3
:103558000133384A03F2FF13DB001344D3E9002395
:103568003449C1E92223334BD3E92223D7E9160191
:10357800FDF772FA0346002B04D02E4BD3E9222321
:10358800C7E916237B6D01337B657B6D172BDEDD69
:10359800284B93ED047B334A33493448B0EE470A4D
:1035A800F0EE670AFFF786FA224B03F67803D3E9B1
:1035B8000023C7E9182300237B651DE07B6D0133D9
:1035C8001C4A03F20F13DB001344D3E90023194903
:1035D800C1E92223174BD3E92223D7E91801FDF7C4
:1035E8001DFA0346002B04D0124BD3E92223C7E966
:1035F80018237B6D01337B657B6D172BDEDD0D4B4F
:1036080093ED067B1A4A1B491B48B0EE470AF0EEB9
:10361800670AFFF74FFA074B03F5AB63D3E90023BB
:10362800C7E91A2300237B6545E000BFD8170020AF
:1036380000406540500600200000F03F000059405F
:103648002C0600203C06002010220020F800002054
:10365800781F002078130020100100202821002066
:1036680048160020E0000020D81C0020C80E0020CA
:10367800D0000020181B0020A80B00207B6D013310
:10368800994AAB33DB001344D3E900239649C1E9D7
:103698002223954BD3E92223D7E91A01FDF7BEF976
:1036A8000346002B04D0904BD3E92223C7E91A2301
:1036B8007B6D01337B657B6D172BDFDD8A4B93EDCB
:1036C800087B8A4A8A498B48B0EE470AF0EE670AB7
:1036D800FFF7F0F9844BD3E9F2238349C1E91E23AC
:1036E80000237B651EE07B6D01337F4A7933DB0065
:1036F8001344D3E900237C49C1E922237A4BD3E957
:103708001E01794BD3E92223FDF788F90346002BE4
:1037180005D0754BD3E922237349C1E91E237B6D7C
:1037280001337B657B6D172BDDDD6F4B93ED0A7BDA
:10373800714A72497248B0EE470AF0EE670AFFF71D
:10374800B9F9694BD3E98E236749C1E920230023DE
:103758007B651EE07B6D0133634A4733DB0013440E
:10376800D3E900236049C1E922235F4BD3E9200153
:103778005D4BD3E92223FDF751F90346002B05D011
:10378800594BD3E922235849C1E920237B6D0133E2
:103798007B657B6D172BDDDD534B93ED0C7B594A15
:1037A80059495A48B0EE470AF0EE670AFFF7E9F9B7
:1037B8004D4B03F6C853D3E90023C7E91E23002362
:1037C8007B651DE07B6D0133474A03F2B913DB00CB
:1037D8001344D3E900234449C1E92223424BD3E9E6
:1037E8002223D7E91E01FDF719F90346002B04D05F
:1037F8003D4BD3E92223C7E91E237B6D01337B654B
:103808007B6D082BDEDD424A4249434897ED1E0B8B
:10381800FFF750F9344B03F66863D3E90023C7E98F
:103828001C2300237B651DE07B6D01332E4A03F2C8
:10383800CD13DB001344D3E900232B49C1E922232C
:10384800294BD3E92223D7E91C01FDF705F90346E3
:10385800002B04D0244BD3E92223C7E91C237B6D1A
:1038680001337B657B6D172BDEDD2C4BB3F87E3087
:10387800A7F848302A4AB7F84A30138097ED160B54
:103888000CF0A6FDB0EE407AF0EE607A9FED141BC6
:10389800B0EE470AF0EE670A0CF01EFEB0EE407A72
:1038A800F0EE607A104B83ED227B0F4BD3E92201B7
:1038B8004FF000024FF00003FDF7B0F80346002B6D
:1038C80030D0094BD3E92223144683F00045204623
:1038D8002946FDF709F903469BB25B429BB22AE0F1
:1038E800000000000000F04050060020C800002042
:1038F800381A0020180A0020C0000020581900209B
:103908008808002000010020E01F00201814002073
:103918000801002048200020B8140020D8170020F3
:1039280018060020B84BD3E9222310461946FDF7A4
:10393800DBF803469BB2B54A538097ED180B0CF0A1
:1039480047FDB0EE407AF0EE607A9FEDAD1BB0EE29
:10395800470AF0EE670A0CF0BFFDB0EE407AF0EED1
:10396800607AA94B83ED227BA74BD3E922014FF064
:1039780000024FF00003FDF751F80346002B0ED06C
:10398800A14BD3E92223904683F00049404649469B
:10399800FDF7AAF803469BB25B429BB208E09A4B3C
:1039A800D3E9222310461946FDF79EF803469BB239
:1039B800964A938097ED1A0B0CF00AFDB0EE407A08
:1039C800F0EE607A9FED8E1BB0EE470AF0EE670AC4
:1039D8000CF082FDB0EE407AF0EE607A8A4B83ED0F
:1039E800227B894BD3E922014FF000024FF00003FC
:1039F800FDF714F80346002B0ED0834BD3E922239E
:103A0800924683F0004B50465946FDF76DF8034641
:103A18009BB25B429BB208E07B4BD3E92223104662
:103A28001946FDF761F803469BB2784AD380764B76
:103A380093ED1E7BB0EE470AF0EE670A0CF0C8FC67
:103A4800B0EE407AF0EE607A9FED6D1BB0EE470A5B
:103A5800F0EE670A0CF040FDB0EE407AF0EE607AC6
:103A6800694B83ED227B684BD3E922014FF00002BA
:103A78004FF00003FCF7D2FF0346002B0FD0624B38
:103A8800D3E922233A6483F000437B64D7E9100129
:103A9800FDF72AF803469BB25B429BB208E05A4BFB
:103AA800D3E9222310461946FDF71EF803469BB2B8
:103AB800564A1381544B93ED207BB0EE470AF0EE43
:103AC800670A0CF085FCB0EE407AF0EE607A9FED64
:103AD8004C1BB0EE470AF0EE670A0CF0FDFCB0EEA6
:103AE800407AF0EE607A484B83ED227B464BD3E96F
:103AF80022014FF000024FF00003FCF78FFF03464E
:103B0800002B0FD0404BD3E92223BA6383F0004344
:103B1800FB63D7E90E01FCF7E7FF03469BB25B4264
:103B28009BB208E0384BD3E9222310461946FCF72C
:103B3800DBFF03469BB2354A538197ED1C0B0CF013
:103B480047FCB0EE407AF0EE607A9FED2D1BB0EEA8
:103B5800470AF0EE670A0CF0BFFCB0EE407AF0EED0
:103B6800607A294B83ED227B274BD3E922014FF062
:103B780000024FF00003FCF751FF0346002B0FD063
:103B8800214BD3E922233A6383F000437B63D7E9CF
:103B98000C01FCF7A9FF03469BB25B429BB208E00D
:103BA800194BD3E9222310461946FCF79DFF03461B
:103BB8009BB2164A9381154AB7F84830D381144B03
:103BC800B3F8A630114A1382124BB3F88030A7F825
:103BD8004A300D4B93ED027B0F4A10491048B0EE66
:103BE800470AF0EE670AFEF765FF074B03F69833BE
:103BF800D3E90023C7E9162300237B6530E000BF23
:103C0800000000000000F0405006002018060020C8
:103C180000000020D8170020F0000020981E002087
:103C2800E81100207B6D01336E4A03F27313DB0049
:103C38001344D3E900236B49C1E92223694BD3E933
:103C48002223D7E91601FCF707FF0346002B04D00F
:103C5800644BD3E92223C7E916237B6D01337B65C7
:103C68007B6D172BDEDD5F4B03F67803D3E900236A
:103C7800C7E91C2300237B651DE07B6D0133594A8E
:103C880003F20F13DB001344D3E900235549C1E9BC
:103C98002223544BD3E92223D7E91C01FCF7DCFE8D
:103CA8000346002B04D04F4BD3E92223C7E91C233A
:103CB8007B6D01337B657B6D172BDEDD494B03F58F
:103CC800AB63D3E90023C7E9182300237B651CE015
:103CD8007B6D0133434AAB33DB001344D3E9002344
:103CE8004049C1E922233F4BD3E92223D7E91801F0
:103CF800FCF7B2FE0346002B04D03A4BD3E922234B
:103D0800C7E918237B6D01337B657B6D172BDFDDDE
:103D1800344BD3E9F223C7E91A2300237B651CE05F
:103D28007B6D01332F4A7933DB001344D3E9002339
:103D38002C49C1E922232B4BD3E92223D7E91A01C5
:103D4800FCF78AFE0346002B04D0264BD3E9222336
:103D5800C7E91A237B6D01337B657B6D172BDFDD8C
:103D6800204BD3E98E231F49C1E91E2300237B651D
:103D78001EE07B6D01331B4A4733DB001344D3E954
:103D880000231849C1E92223164BD3E91E01154B1C
:103D9800D3E92223FCF760FE0346002B05D0114B24
:103DA800D3E922230F49C1E91E237B6D01337B65CB
:103DB8007B6D172BDDDD0B4B93ED0C7B0A4A0B4912
:103DC8000B48B0EE470AF0EE670AFEF773FE054BA4
:103DD80003F60823D3E900230249C1E9202300237D
:103DE8007B6527E050060020E8000020B81D002071
:103DF800581000207B6D0133AF4A03F24113DB00FA
:103E08001344D3E90023AC49C1E92223AA4BD3E9DF
:103E18002001A94BD3E92223FCF71EFE0346002B01
:103E280005D0A54BD3E92223A349C1E920237B6D03
:103E380001337B657B6D172BDCDDA04BB3F882303B
:103E4800A7F848309E4AB7F84A30138097ED160B0A
:103E58000CF0BEFAB0EE407AF0EE607A9FED941B5B
:103E6800B0EE470AF0EE670A0CF036FBB0EE407A87
:103E7800F0EE607A904B83ED227B8F4BD3E92201E1
:103E88004FF000024FF00003FCF7C8FD0346002B7B
:103E98000FD0894BD3E92223BA6283F00043FB6237
:103EA800D7E90A01FCF720FE03469BB25B429BB2AE
:103EB80008E0814BD3E9222310461946FCF714FE8B
:103EC80003469BB27E4A538097ED1C0B0CF080FA98
:103ED800B0EE407AF0EE607A9FED751BB0EE470ABF
:103EE800F0EE670A0CF0F8FAB0EE407AF0EE607A7D
:103EF800714B83ED227B704BD3E922014FF0000216
:103F08004FF00003FCF78AFD0346002B0FD06A4BE5
:103F1800D3E922233A6283F000437B62D7E90801A0
:103F2800FCF7E2FD03469BB25B429BB208E0624BA2
:103F3800D3E9222310461946FCF7D6FD03469BB267
:103F48005F4A938097ED180B0CF042FAB0EE407A76
:103F5800F0EE607A9FED561BB0EE470AF0EE670A66
:103F68000CF0BAFAB0EE407AF0EE607A524B83ED7C
:103F7800227B514BD3E922014FF000024FF000039E
:103F8800FCF74CFD0346002B0FD04B4BD3E9222303
:103F9800BA6183F00043FB61D7E90601FCF7A4FD91
:103FA80003469BB25B429BB208E0434BD3E9222312
:103FB80010461946FCF798FD03469BB2404AD38049
:103FC80097ED1A0B0CF004FAB0EE407AF0EE607A36
:103FD8009FED371BB0EE470AF0EE670A0CF07CFA4B
:103FE800B0EE407AF0EE607A334B83ED227B324BB1
:103FF800D3E922014FF000024FF00003FCF70EFD59
:104008000346002B0FD02C4BD3E922233A6183F0CF
:1040180000437B61D7E90401FCF766FD03469BB2C8
:104028005B429BB208E0244BD3E922231046194691
:10403800FCF75AFD03469BB2214A13811E4B93EDB0
:104048001E7BB0EE470AF0EE670A0CF0C1F9B0EE3D
:10405800407AF0EE607A9FED161BB0EE470AF0EE5C
:10406800670A0CF039FAB0EE407AF0EE607A124B3B
:1040780083ED227B104BD3E922014FF000024FF071
:104088000003FCF7CBFC0346002B1BD00A4BD3E9FB
:104098002223BA6083F00043FB60D7E90201FCF7F2
:1040A80023FD03469BB25B429BB214E0AFF3008052
:1040B800000000000000F04050060020D817002043
:1040C80034220020864BD3E9222310461946FCF7F8
:1040D8000BFD03469BB2834A5381814B93ED207BB2
:1040E800B0EE470AF0EE670A0CF072F9B0EE407ACB
:1040F800F0EE607A9FED781BB0EE470AF0EE670AA3
:104108000CF0EAF9B0EE407AF0EE607A744B83ED89
:10411800227B734BD3E922014FF000024FF00003DA
:10412800FCF77CFC0346002B0FD06D4BD3E9222310
:104138003A6083F000437B60D7E90001FCF7D4FCC8
:1041480003469BB25B429BB208E0654BD3E922234E
:1041580010461946FCF7C8FC03469BB2614A938196
:10416800604AB7F84830D3815F4BB3F8AC205D4B59
:104178001A825E4B9B79002B0BD0594BD3E9002355
:104188005B49C1E91623564BD3E90E235849C1E9C7
:104198001823534BD3E91A01534BD3E90823FCF7EF
:1041A8005BFC0346002B06D04F4BD3E902234C4956
:1041B800C1E9222316E04E4B93F89C301A464A4B2D
:1041C8009A5C494B1B799A4206D1474BD3E90423A1
:1041D8004349C1E9222305E0434BD3E9062340497B
:1041E800C1E92223424B93F89C301A463E4B9B5C14
:1041F8007B653D4B5B791A467B6D934205D13A4B03
:10420800D3E90423C7E91C2304E0374BD3E9062389
:10421800C7E91C23324BD3E91A01334BD3E90A23EC
:10422800FCF71AFC0346002B04D0D7E91C23C7E986
:10423800162304E02C4BD3E90223C7E91623284BA5
:10424800D3E91A01284BD3E90C23FCF705FC0346F4
:10425800002B05D0244BD3E90223C7E9182303E038
:10426800D7E91C23C7E918231F4B9B791A467B6D96
:10427800934205D11C4BD3E90423C7E91C2304E06E
:10428800194BD3E90623C7E91C23154BD3E91A01B7
:10429800154BD3E90E23FCF7DFFB0346002B04D0B4
:1042A800D7E91C23C7E91A2304E00F4BD3E90223FB
:1042B800C7E91A230A4B0F4A5A654FF000024FF01C
:1042C8000003D7E91801FCF79FFB0346002B13D125
:1042D8004FF400737B6511E0000000000000F0401F
:1042E8005006002034220020000000202C0300206B
:1042F800D81700200010004800237B65AD4B5B6D8C
:104308007A6D11461846FEF7BEF9AA4B5A6D7B6DB9
:10431800DB4303F4007319461046FEF7C2F9A54BB8
:10432800A54A5A65A34BD3E91A01A44BD3E9102334
:10433800FCF792FB0346002B04D0A04BD3E90223E1
:10434800C7E91C234FF000024FF00003D7E91C0116
:10435800FCF75AFB0346002B03D14FF480437B65DF
:1043680001E000237B65934B5B6D7A6D114618461F
:10437800FEF789F98F4B5A6D7B6DDB4303F480435D
:1043880019461046FEF78DF98A4B8B4A5A654FF04D
:1043980000024FF00003D7E91601FCF735FB03468E
:1043A800002B03D14FF480737B6501E000237B650C
:1043B800804B5B6D7A6D11461846FEF764F97D4BAC
:1043C8005A6D7B6DDB4303F4807319461046FEF784
:1043D80068F9784B784A5A654FF000024FF00003AD
:1043E800D7E91601FCF710FB0346002B03D14FF465
:1043F80000437B6501E000237B656E4B5B6D7A6D46
:1044080011461846FEF73FF96A4B5A6D7B6DDB4340
:1044180003F4004319461046FEF743F9654B664A14
:104428005A654FF000024FF00003D7E91A01FCF774
:10443800EBFA0346002B03D14FF480537B6501E070
:1044480000237B655B4B5B6D7A6D11461846FEF762
:104458001AF9584B5A6D7B6DDB4303F480531946A8
:104468001046FEF71EF9534B554A5A65514BD3E98E
:1044780022014FF000024FF00003FCF7C5FA034693
:10448800002B03D14FF480537B6501E000237B654B
:10449800484B5B6D7A6D11461846FEF7F4F8454BAC
:1044A8005A6D7B6DDB4303F4805319461046FEF7C3
:1044B800F8F8404B404A5A653E4BD3E922014FF089
:1044C80000024FF00003FCF79FFA0346002B03D1CC
:1044D8004FF400537B6501E000237B65354B5B6D32
:1044E8007A6D11461846FEF7CEF8324B5A6D7B6D41
:1044F800DB4303F4005319461046FEF7D2F82D4B60
:104508002D4A5A654FF000024FF00003D7E91A010F
:10451800FCF77AFA0346002B03D14FF400637B655E
:1045280001E000237B65234B5B6D7A6D11461846CD
:10453800FEF7A9F81F4B5A6D7B6DDB4303F400634C
:1045480019461046FEF7ADF81A4B1B4A5A65194B27
:104558005B6D1846FEF78BF838651A4B93F8783080
:1045680003F00803DBB2002B18D1164A92F8783012
:1045780043F0080382F87830124A92F87830012123
:1045880061F3010382F8783000237B6509494FF015
:1045980000024FF00003C1E91C2393E0094B93F894
:1045A8007830C3F30103DBB2012B0DD0022B23D0EB
:1045B80067E000BF500600200010004800000020FF
:1045C80000040048D817002000237B653B6D03F0EA
:1045D8004003002B75D1A74A92F8783043F00303C3
:1045E80082F8783001237B65A3494FF000024FF031
:1045F8000003C1E91C2364E000237B659E4BD3E9DB
:1046080018014FF000024FF00003FCF7FDF90346D4
:10461800002B10D0974A92F8783043F0030382F8C1
:10462800783001237B6594494FF000024FF0000376
:10463800C1E91C2346E08F4BD3E91C014FF000026F
:104648008E4BFCF709FA0346002B0CD08A4BB3F8C3
:104658009A3040F24C42934205D987494FF0000204
:10466800874BC1E91C23834BD3E91C014FF000029F
:10467800834BFBF7ABFD02460B467E49C1E91C2381
:1046880020E001237B657C4BD3E918014FF0000241
:104698007B4BFCF7B9F90346002B00D112E0754AB1
:1046A80092F87830022161F3010382F87830002310
:1046B8007B6570494FF000024FF00003C1E91C23ED
:1046C80000E000BF6C4B6F4A5A657B6D002B02D02F
:1046D80080237B6501E000237B65674B5B6D7A6D0A
:1046E80011461846FDF7CFFF634B5A6D7B6DDB43D0
:1046F80003F0800319461046FDF7D3FF624BD3E958
:1047080016015D4BD3E91623FBF716FF02460B464D
:10471800C7E91C235C4BD3E91401D7E91C23FBF739
:1047280053FD02460B46C7E91623574BD3E9182316
:10473800D7E91601FCF790F90346002B06D0524B37
:10474800D3E912234C49C1E9222304E04A49D7E9B5
:104758001623C1E92223474B1C6C474BD3E922237C
:1047680010461946FCF7E0F907EE900AF0EEE77AF2
:10477800B0EE670A2046FEF747F8434BD3E91A2301
:10478800D7E91601FCF754F90346002B04D03E4B39
:10479800D3E91223C7E91623364B1C6CD7E9160157
:1047A800FCF7C2F9034600EE103A2046FEF740F83F
:1047B800354BD3E91423D7E91C01FBF707FD024663
:1047C8000B46C7E91C23304BD3E91E23D7E91C014C
:1047D800FCF742F90346002B05D02749D7E91C23EB
:1047E800C1E9222305E0284BD3E91C232249C1E96A
:1047F8002223204B1C6D204BD3E922231046194657
:10480800FCF792F9034600EE103A2046FEF724F82A
:104818001D4BD3E92023D7E91C01FCF71DF90346FA
:10482800002B04D0184BD3E91C23C7E91C23114BD8
:104838001C6DD7E91C01FCF777F907EE900AF0EE3A
:10484800E77AB0EE670A2046FEF71AF80A4B0F4AD5
:104858005A65094BD3E91C014FF000024FF00003E1
:10486800FCF7D2F80346002B12D14FF400537B65B6
:1048780010E000BFD8170020500600200000284094
:104888000000F03F000C004800000020000800482D
:1048980000237B653F4B5B6D7A6D11461846FDF72B
:1048A800F2FE3C4B5A6D7B6DDB4303F40053194613
:1048B8001046FDF7F6FE374B374A5A65354B5B6DA8
:1048C80000211846FDF7DFFE324B5B6D4FF4804147
:1048D8001846FDF7E6FE2F4B2F4A5A652D4B5B6DA8
:1048E80000211846FDF7CFFE2A4B5B6D4FF40041BF
:1048F8001846FDF7D6FE274B284A5A65284BD3E9B8
:1049080022014FF000024FF00003FCF77DF8034648
:10491800002B02D108237B6501E000237B651D4B3A
:104928005B6D7A6D11461846FDF7ADFE194B5A6D51
:104938007B6DDB4303F0080319461046FDF7B1FE13
:10494800184B93F89C20164B93F8B7301344DAB2FF
:10495800144B83F89C20134B93F89C20104BDB7965
:104968009A4205D90E4B93F8B5200E4B83F89C203C
:10497800084B0A4A5A65074B5B6D1846FDF777FEE8
:1049880000F0FEFC00F012FE00BF8837BD46BDE80F
:10499800B08F00BF500600200008004800040048FF
:1049A80000000020D8170020B0B590B000AFA04B91
:1049B800D3E91623C7E90A239E4A9F499F4897EDE2
:1049C8000A0BFEF777F89E4B03F5DD63D3E9002366
:1049D800C7E90E2300237B6319E07B6B0133984AF8
:1049E800DD33DB001344D3E90023C7E90823D7E903
:1049F8000823D7E90E01FCF711F80346002B03D072
:104A0800D7E90823C7E90E237B6B01337B637B6BF4
:104A1800172BE2DD97ED0E0B0BF0DAFCB0EE407AC7
:104A2800F0EE607A9FED801BB0EE470AF0EE670A61
:104A38000BF052FD87ED080B4FF000024FF000031A
:104A4800D7E90801FBF7EAFF0346002B0ED03B6AC3
:104A58003B617B6A83F000437B61D7E90401FCF783
:104A680043F803469BB25B429BB205E0D7E90801D5
:104A7800FCF73AF803469BB2FB836D4BD3E9182346
:104A88006F49C1E924236E4B93ED247B6D4A6E492F
:104A98006E48B0EE470AF0EE670AFEF70BF8684B6F
:104AA800D3E92A23C7E90E2300237B6319E07B6B34
:104AB8000133634A1533DB001344D3E90023C7E904
:104AC8000823D7E90823D7E90E01FBF7A7FF034618
:104AD800002B03D0D7E90823C7E90E237B6B0133EA
:104AE8007B637B6B172BE2DD97ED0E0B0BF070FCF5
:104AF800B0EE407AF0EE607A9FED4B1BB0EE470ABD
:104B0800F0EE670A0BF0E8FC87ED080B4FF00002A7
:104B18004FF00003D7E90801FBF780FF0346002B9D
:104B28000ED03B6ABB607B6A83F00043FB60D7E929
:104B38000201FBF7D9FF03469BB25B429BB205E03B
:104B4800D7E90801FBF7D0FF03469BB2BB83384A7D
:104B5800BB8BA2F87E30364AFB8BA2F87C30384BF0
:104B6800D3E92A23C7E90E2300237B6319E07B6B73
:104B78000133334A1533DB001344D3E90023C7E973
:104B88000823D7E90823D7E90E01FBF765FF034699
:104B9800002B03D0D7E90823C7E90E237B6B013329
:104BA8007B637B6B172BE2DD97ED0E0B0BF010FC94
:104BB800B0EE407AF0EE607A9FED1B1BB0EE470A2C
:104BC800F0EE670A0BF088FC87ED080B4FF0000247
:104BD8004FF00003D7E90801FBF720FF0346002B3D
:104BE8000ED03B6A3B607B6A83F000437B60D7E969
:104BF8000001FBF779FF03469BB25B429BB205E0DD
:104C0800D7E90801FBF770FF03469BB2FB830C4B07
:104C180003F5DD63D3E90023C7E90E2300237B6393
:104C280030E000BFAFF30080000000000000F0405B
:104C3800D8170020D8000020F81B0020380D0020CD
:104C480050060020B800002078180020F806002040
:104C58007B6B0133304ADD33DB001344D3E9002397
:104C6800C7E90823D7E90823D7E90E01FBF7F4FEC3
:104C78000346002B03D0D7E90823C7E90E237B6B33
:104C880001337B637B6B172BE2DD97ED0E0B0BF08B
:104C98009FFBB0EE407AF0EE607A9FED1D1BB0EE00
:104CA800470AF0EE670A0BF017FC87ED080B4FF088
:104CB80000024FF00003D7E90801FBF7AFFE0346F7
:104CC800002B0CD03C6A7B6A83F0004520462946BD
:104CD800FBF70AFF03469BB25B429BB205E0D7E9AC
:104CE8000801FBF701FF03469BB2BB830B4AFB8B12
:104CF800A2F88230094ABB8BA2F8803000F040FB52
:104D080000F054FC00BF4037BD46B0BDAFF3008093
:104D1800000000000000F04050060020D8170020D6
:104D280080B582B000AF00237B6011E0654B93F83B
:104D3800B410654A7B6813440A461A70614BB3F88D
:104D4800A010624A7B6822F813107B6801337B60ED
:104D58007B68072BEADD5B4BD3F890305C4A136025
:104D6800584BD3F894305B4A136000237B6017E0FC
:104D7800544BB3F8AE10584A7B6822F81310514BC5
:104D8800B3F8B010554A7B6822F813104D4BB3F8AE
:104D9800B210534A7B6822F813107B6801337B609A
:104DA8007B68082BE4DD474BD3F898304D4A1360F5
:104DB800444BD3F89C304C4A1360424BD3F898309C
:104DC800484A53603F4BD3F89C30474A53603D4BA9
:104DD800D3F89830434A93603A4BD3F89C30424A10
:104DE800936000F061FB374BB3F8A2203F4BA3F868
:104DF8007C20344BB3F8A4203C4BA3F87E20314BE5
:104E0800B3F8A820394BA3F880202E4BB3F8AA207A
:104E1800364BA3F882202B4B93F8B620334B83F8FC
:104E28009C20324B00225A60304B00221A702F48C7
:104E3800FDF74CFF2E492F48FDF777FE2E492F48E6
:104E4800FDF70CFE2E492F48FDF708FE2E492F4886
:104E5800FDF704FE2E492F48FDF700FE2E492F4886
:104E6800FDF7FCFD2E492F48FDF75FFE2E492F4820
:104E7800FDF7F4FD2E492F48FDF7F0FD2E492F4888
:104E8800FDF7ECFD194B00229A63184B002283F8BA
:104E980034202B48FDF762FF144B00229A64134B11
:104EA800002283F844202748FDF7A4FF2649274815
:104EB800FDF7D4FD26492748FDF7D0FD00BF083788
:104EC800BD4680BD00000020082200202C060020DE
:104ED8003C06002010220020142200201806002082
:104EE800342200202822002040060020D817002065
:104EF800F8000020781F0020100100202821002041
:104F0800E0000020D81C0020D0000020181B002042
:104F1800C8000020381A0020C000002058190020BE
:104F280000010020E01F0020080100204820002088
:104F3800F0000020981E0020E8000020B81D002086
:104F48000C1800201C180020D8000020F81B002096
:104F5800B80000207818002080B582B000AF3D4B23
:104F68001B78002B13D13B4B01221A70394B5B681D
:104F7800012B0CD1374B1B7A002B08D00423FB8064
:104F8800344BDB68F98801221846FDF79BF9314B51
:104F980093F83430002B29D12E4B012283F834208A
:104FA8002C4B9B6B012B21D12A4B93F83C30002BC7
:104FB8001CD0284B1B6C1846FDF70EFD254B1B6CAF
:104FC80000211846FCF789F802237B71214B1B6CE2
:104FD8007A7911461846FCF76BF902237B711D4B51
:104FE8001B6C7A7911461846FCF702FA194B93F8AC
:104FF8004430002B29D1174B012283F84420154B4C
:105008009B6C012B21D1134B93F84C30002B1CD0F7
:10501800104B1B6D1846FDF7DFFC0E4B1B6D002176
:105028001846FCF75AF802237B710A4B1B6D7A79F4
:1050380011461846FCF780FA02237B71054B1B6D5D
:105048007A7911461846FCF7DFFA00BF0837BD46E3
:1050580080BD00BFD817002080B489B000AFF860C9
:10506800B9607A60FB68BB610023FB61BB689B0881
:105078007B611B4B1B68B3F5C87F2AD00023FB61FB
:1050880022E0174B1B6817497A6841F82320FB690F
:105098009B00BA691A44124B1B681268114903F540
:1050A800C87341F823200E4B1B680F4A12680D493C
:1050B80003F5487341F82320094B1B680133084A5C
:1050C8001360FB690133FB61FA697B699A42D8D3A3
:1050D80000E000BF2437BD465DF8047B704700BF81
:1050E80034030020502200204C22002080B584B0D8
:1050F80000AF786072B600BF00F0A6FC0346FB6004
:1051080007F10C037A6804211846FFF7A5FF62B679
:1051180000BF00BF1037BD4680BD000080B582B01B
:1051280000AF344B1B785A1CD1B2324A1170002B95
:1051380009D0314B01221A602E4B1B78013BDAB2A1
:105148002C4B1A7053E03B1D1846FDF753FC62B612
:1051580000BF02200BF0A3F8FDF79AFE02200BF027
:10516800A9F872B600BF234B1B78013BDAB2214B7A
:105178001A707B79002B11D0204B5B785A1CD1B266
:105188001E4A5170002B09D01B4B01221A601B4B81
:105198005B78013BDAB2194B5A7028E0174B5B7801
:1051A800002B24D0134B5B78002B1FD1114B5B785D
:1051B8000133DAB20F4B5A7062B600BF03200BF00E
:1051C8006EF8FFF7F1FB03200BF074F800BF72B61E
:1051D80000BF0A4B5B78013BDAB2084B5A70054BAB
:1051E8005B78013BDAB2034B5A7000E000BF083726
:1051F800BD4680BD3C03002038030020400300204A
:1052080080B584B000AF78603960374BFB60374BAE
:10521800BB60374B00221A70364B00221A7001DF30
:1052280006F026FB00F0E0FE00F02EFF00F08EFFF7
:1052380001F054FF01F072FB02F09EF901F0BEFF8D
:1052480002F04AFA01F00EFD02F00EFD02F066FCD3
:10525800294B1B6800221A6001200BF020F8FFF789
:105268005FFD01200BF026F872B600BF97ED030A28
:1052780000F08AFC204B1B681B68002B0CBF012325
:105288000023DBB21A461B4B1A7062B600BF62B627
:1052980000BF15E0184B1B681B68002B14BF0123C7
:1052A8000023DBB21A46124B1A70114B1B78DBB283
:1052B800002B05D0114B1B68104A23F00103136023
:1052C8000C4B1B78DBB2002BE4D104200AF0E7FF7B
:1052D800FFF742FE04200AF0EDFF72B600BF00237C
:1052E80018461037BD4680BDCDCC4C3D0000A042CD
:1052F8001035002048220020DC08010810E000E0FA
:1053080080B485B000AF0346FB80B7F90630002BA8
:1053180002DBFB88FB8101E0FB88FB81B7F90E30DB
:1053280018461437BD465DF8047B704780B588B0D1
:1053380004AF03460A46FB711346BB71FB799BB267
:105348005B009BB2013399B2BB799AB24FF0FF333D
:1053580002930223019307F10C03009301230748EA
:1053680006F078FE3B7B1B021AB27B7B1BB2134311
:105378001BB29BB218461037BD4680BD443500208D
:1053880080B500AF3B216920FFF7D0FF03461846E0
:10539800FFF7B6FF03461A4613469B0013445B000B
:1053A80007EE903AB8EEE77ADFED3B6AC7EE267A69
:1053B8003A4BC3ED007A3D216920FFF7B7FF03465A
:1053C8001846FFF79DFF03461A4613469B001344F1
:1053D8005B0007EE903AB8EEE77ADFED2F6AC7EE8A
:1053E800267A2E4BC3ED017A3F216920FFF79EFFF5
:1053F80003461846FFF784FF03461A4613469B00E8
:1054080013445B0007EE903AB8EEE77ADFED226AC4
:10541800C7EE267A214BC3ED027A43216920FFF7B4
:1054280085FF03461846FFF76BFF034607EE903AE1
:10543800B8EEE77ADFED1A6AC7EE267A194BC3EDA4
:10544800007A45216920FFF771FF03461846FFF7E8
:1054580057FF034607EE903AB8EEE77ADFED106A99
:10546800C7EE267A0F4BC3ED017A47216920FFF773
:105478005DFF03461846FFF743FF034607EE903AE1
:10548800B8EEE77ADFED066AC7EE267A054BC3ED7C
:10549800027A00BF80BD00BF00008046282200209D
:1054A800000003434006002080B586B004AF002307
:1054B800FB714FF0FF33029301230193FB1D00930F
:1054C80001236B22D2211D4806F0B0FC4FF0FF33B8
:1054D8000293012301930723009301231922D22168
:1054E800164806F0A3FC4FF0FF3302930123019303
:1054F8000023009301231C22D221104806F096FCB9
:105508004FF0FF33029301230193002300930123FB
:105518001B22D221094806F089FC4FF0FF33029381
:1055280001230193064B009301237522D3210348DD
:1055380006F090FD00BF0837BD4680BD4435002009
:105548001A35002080B582B000AF00237B600FE0E1
:105558007B68432B08D07B68052B05D07B685BB242
:10556800184607F0E5FA00E000BF7B6801337B606E
:105578007B68EF2BECD900BF00BF0837BD4680BD64
:1055880080B582B000AF00237B6007E07B685BB228
:10559800184607F0BFFA7B6801337B607B68EF2B06
:1055A800F4D900BF00BF0837BD4680BD80B500AF45
:1055B8004021B44806F092FB0346002B14BF012398
:1055C8000023DAB2B04B1A700421B04806F086FB0B
:1055D8000346002B14BF01230023DAB2AA4B5A70EA
:1055E8004FF40051AA4806F079FB0346002B14BF7C
:1055F80001230023DAB2A74B1A704FF48041A44864
:1056080006F06CFB0346002B14BF01230023DAB21B
:10561800A04B5A704FF400419D4806F05FFB0346CB
:10562800002B14BF01230023DAB29A4B9A704FF46F
:105638008051964806F052FB0346002B14BF012305
:105648000023DAB2944B1A704FF480718D4806F03B
:1056580045FB0346002B14BF01230023DAB28E4B0F
:105668005A704FF40071874806F038FB0346002B48
:1056780014BF01230023DAB2874B9A704FF480518C
:10568800804806F02BFB0346002B14BF01230023A0
:10569800DAB2814BDA704FF400617A4806F01EFBEB
:1056A8000346002B14BF01230023DAB27A4B1A7188
:1056B8004FF48041734806F011FB0346002B14BFDA
:1056C80001230023DAB2744B5A714FF400416D483C
:1056D80006F004FB0346002B14BF01230023DAB2B3
:1056E8006D4B9A714FF40051664806F0F7FA03467D
:1056F800002B14BF01230023DAB2674BDA71674B22
:105708005B6B9AB2664B1A80644B9B6B9AB2644B84
:105718005A80624BDB6B9AB2624B1A805F4B1B6CF0
:105728009AB2604B5A80FFF70DFF08E04FF4007102
:105738004FF0904006F0D2FA0346012B07D103211F
:10574800594803F0C1F80346002BEFD10AE000BF27
:1057580008E04FF400714FF0904006F0BFFA03469E
:10576800012B07D10221484803F0AEF80346002B6D
:10577800EFD10AE000BF08E04FF400714FF090400D
:1057880006F0ACFA0346012B07D10321414803F088
:105798009BF80346002BEFD10AE000BF08E04FF466
:1057A80000714FF0904006F099FA0346012B07D19B
:1057B8000C213E4803F088F80346002BEFD10AE09D
:1057C80000BF08E04FF400714FF0904006F086FAF1
:1057D8000346012B07D10C21354803F075F8034621
:1057E800002BEFD10AE000BF08E04FF400714FF042
:1057F800904006F073FA0346012B07D112212D4879
:1058080003F062F80346002BEFD10AE000BF08E07E
:105818004FF400714FF0904006F060FA0346012BF8
:1058280007D11221244803F04FF80346002BEFD18B
:105838000AE000BF08E04FF400714FF0904006F016
:105848004DFA0346012B07D112211C4803F03CF8FE
:105858000346002BEFD10AE000BF08E04FF40071C7
:105868004FF0904006F03AFA0346012B07D1082181
:10587800094803F029F80346002BEFD129E000BFBF
:1058880027E000BF0010004824350020000400482D
:10589800000800483035002028350020000400406A
:1058A8004803002044030020800801082822002023
:1058B8004006002014220020180600203422002070
:1058C8004FF400714FF0904006F008FA0346012BA0
:1058D80007D10421484802F0F7FF0346002BEFD117
:1058E8000AE000BF08E04FF400714FF0904006F066
:1058F800F5F90346012B07D10421404802F0E4FFE3
:105908000346002BEFD10AE000BF08E04FF4007116
:105918004FF0904006F0E2F90346012B07D104212D
:10592800374802F0D1FF0346002BEFD10AE000BF51
:1059380008E04FF400714FF0904006F0CFF90346AD
:10594800012B07D108212F4802F0BEFF0346002B88
:10595800EFD10AE000BF08E04FF400714FF090402B
:1059680006F0BCF90346012B07D11021264802F0A6
:10597800ABFF0346002BEFD10AE000BF08E04FF46D
:1059880000714FF0904006F0A9F90346012B07D1AA
:1059980004211E4802F098FF0346002BEFD10AE0CD
:1059A80000BF08E04FF400714FF0904006F096F900
:1059B8000346012B07D10421154802F085FF034651
:1059C800002BEFD10AE000BF08E04FF400714FF060
:1059D800904006F083F90346012B07D104210D48B6
:1059E80002F072FF0346002BEFD100E000BFFFF783
:1059F800C7FD00BF80BD00BF343500204403002030
:105A080048030020082200202C0600201022002035
:105A18003C0600208408010880B584B000AF786097
:105A280005F052FFF8607B68BB6000BF05F04CFFD3
:105A38000246FB68D31ABA689A42F7D800BF00BF7B
:105A48001037BD4680BD000010B50E4C82B0636AA9
:105A5800019305F039FF0090626A019B9A4207D3CF
:105A68000098019B4FF47A7202FB003002B010BD1F
:105A780005F02AFF636A4FF47A7202FB003002B025
:105A880010BD00BF002C014080B483B000AF0346B6
:105A98003960FB7197F90730002B0ADB3B68DAB2F3
:105AA8000C4997F907301201D2B20B4483F800234E
:105AB8000AE03B68DAB20849FB7903F00F03043BBC
:105AC8001201D2B20B441A7600BF0C37BD465DF8FE
