:020000040800F2
:1000000000800120954B0108EBD20008F1D20008D6
:10001000F7D20008FDD2000803D30008000000005A
:1000200000000000000000000000000031A60008F1
:1000300009D3000800000000EDA500081DA5000878
:10004000E54B0108E54B0108E54B0108E54B0108CC
:10005000E54B0108E54B0108E54B0108E54B0108BC
:10006000E54B0108E54B0108E54B010817D30008F3
:1000700021200008E54B0108E54B0108E54B01088C
:1000800025D3000833D3000841D30008E54B01080D
:10009000E54B0108E54B0108E54B0108E54B01087C
:1000A000E54B010851D30008E54B0108E54B010879
:1000B000E54B0108E54B0108E54B0108E54B01085C
:1000C000E54B0108E54B0108E54B0108E54B01084C
:1000D000E54B0108E54B0108E54B0108E54B01083C
:1000E000E54B0108E54B0108E54B0108E54B01082C
:1000F000E54B0108E54B0108E54B0108E54B01081C
:10010000E54B0108E54B0108E54B0108E54B01080B
:10011000E54B0108E54B0108E54B0108E54B0108FB
:10012000E54B0108E54B0108E54B0108E54B0108EB
:10013000E54B0108E54B0108E54B0108E54B0108DB
:10014000E54B0108E54B0108E54B010865D30008C4
:10015000E54B0108E54B0108E54B0108E54B0108BB
:10016000E54B0108E54B0108E54B0108E54B0108AB
:10017000E54B0108E54B0108E54B010800000000D4
:08018000E54B0108E54B010805
:1001880010B5054C237833B9044B13B10448AFF3C9
:1001980000800123237010BD300300200000000000
:1001A8001052010808B5034B1BB103490348AFF3CC
:1001B800008008BD00000000340300201052010830
:1001C80081F0004102E000BF83F0004330B54FEA00
:1001D80041044FEA430594EA050F08BF90EA020F6D
:1001E8001FBF54EA000C55EA020C7FEA645C7FEA00
:1001F800655C00F0E2804FEA5454D4EB5555B8BF23
:100208006D420CDD2C4480EA020281EA030382EA93
:10021800000083EA010180EA020281EA0303362D25
:1002280088BF30BD11F0004F4FEA01314FF4801CF8
:100238004CEA113102D0404261EB410113F0004F0A
:100248004FEA03334CEA133302D0524263EB4303C1
:1002580094EA050F00F0A780A4F10104D5F1200E5F
:100268000DDB02FA0EFC22FA05F2801841F10001BA
:1002780003FA0EF2801843FA05F359410EE0A5F18E
:1002880020050EF1200E012A03FA0EFC28BF4CF0BF
:10029800020C43FA05F3C01851EBE37101F0004575
:1002A80007D54FF0000EDCF1000C7EEB00006EEB82
:1002B8000101B1F5801F1BD3B1F5001F0CD349080C
:1002C8005FEA30004FEA3C0C04F101044FEA445263
:1002D80012F5800F80F09A80BCF1004F08BF5FEAEA
:1002E800500C50F1000041EB045141EA050130BDCA
:1002F8005FEA4C0C404141EB0101013C28BFB1F5DC
:10030800801FE9D291F0000F04BF01460020B1FA26
:1003180081F308BF2033A3F10B03B3F120020CDAF9
:100328000C3208DD02F1140CC2F10C0201FA0CF0D7
:1003380021FA02F10CE002F11402D8BFC2F1200C3C
:1003480001FA02F120FA0CFCDCBF41EA0C019040F2
:10035800E41AA2BF01EB0451294330BD6FEA04043B
:100368001F3C1CDA0C340EDC04F11404C4F1200226
:1003780020FA04F001FA02F340EA030021FA04F338
:1003880045EA030130BDC4F10C04C4F1200220FA8F
:1003980002F001FA04F340EA0300294630BD21FACD
:1003A80004F0294630BD94F0000F83F4801306BF93
:1003B80081F480110134013D4EE77FEA645C18BF87
:1003C8007FEA655C29D094EA050F08BF90EA020F1E
:1003D80005D054EA000C04BF1946104630BD91EA16
:1003E800030F1EBF0021002030BD5FEA545C05D119
:1003F8004000494128BF41F0004130BD14F5800458
:100408003CBF01F5801130BD01F0004545F0FE41CB
:1004180041F470014FF0000030BD7FEA645C1ABF00
:10042800194610467FEA655C1CBF0B46024650EA37
:10043800013406BF52EA033591EA030F41F4002163
:1004480030BD00BF90F0000F04BF0021704730B5E9
:100458004FF4806404F132044FF000054FF00001BE
:1004680050E700BF90F0000F04BF0021704730B57F
:100478004FF4806404F1320410F0004548BF404254
:100488004FF000013EE700BF42004FEAE2014FEAA9
:1004980031014FEA02701FBF12F07F4393F07F4F84
:1004A80081F06051704732F07F4208BF704793F087
:1004B8007F4F04BF41F40021704730B54FF460749A
:1004C80001F0004521F000411CE700BF50EA01029D
:1004D80008BF704730B54FF000050AE050EA010246
:1004E80008BF704730B511F0004502D5404261EBB6
:1004F80041014FF4806404F132045FEA915C3FF4F7
:10050800D8AE4FF003025FEADC0C18BF03325FEA93
:10051800DC0C18BF033202EBDC02C2F1200300FA44
:1005280003FC20FA02F001FA03FE40EA0E0021FA69
:1005380002F11444BDE600BF70B54FF0FF0C4CF457
:10054800E06C1CEA11541DBF1CEA135594EA0C0F09
:1005580095EA0C0F00F0DEF82C4481EA030621EA44
:100568004C5123EA4C5350EA013518BF52EA03357F
:1005780041F4801143F4801338D0A0FB02CE4FF031
:100588000005E1FB02E506F00042E0FB03E54FF061
:100598000006E1FB03569CF0000F18BF4EF0010E59
:1005A800A4F1FF04B6F5007F64F5407404D25FEA55
:1005B8004E0E6D4146EB060642EAC62141EA555108
:1005C8004FEAC52040EA5E504FEACE2EB4F1FD0C4A
:1005D80088BFBCF5E06F1ED8BEF1004F08BF5FEAC8
:1005E800500E50F1000041EB045170BD06F000467A
:1005F80046EA010140EA020081EA0301B4EB5C0427
:10060800C2BFD4EB0C0541EA045170BD41F480111E
:100618004FF0000E013C00F3AB8014F1360FDEBF43
:10062800002001F0004170BDC4F10004203C35DA1F
:100638000C341BDC04F11404C4F1200500FA05F3A2
:1006480020FA04F001FA05F240EA020001F0004243
:1006580021F0004110EBD37021FA04F642EB0601B9
:100668005EEA430E08BF20EAD37070BDC4F10C04E3
:10067800C4F1200500FA04F320FA05F001FA04F2A7
:1006880040EA020001F0004110EBD37041F1000193
:100698005EEA430E08BF20EAD37070BDC4F120059E
:1006A80000FA05F24EEA020E20FA04F301FA05F206
:1006B80043EA020321FA04F001F0004121FA04F2AE
:1006C80020EA020000EBD3705EEA430E08BF20EA7E
:1006D800D37070BD94F0000F0FD101F000464000B8
:1006E80041EB010111F4801F08BF013CF7D041EA3A
:1006F800060195F0000F18BF704703F0004652003E
:1007080043EB030313F4801F08BF013DF7D043EA0E
:100718000603704794EA0C0F0CEA135518BF95EAC4
:100728000C0F0CD050EA410618BF52EA4306D1D14B
:1007380081EA030101F000414FF0000070BD50EA6A
:10074800410606BF1046194652EA430619D094EAF4
:100758000C0F02D150EA013613D195EA0C0F05D1DE
:1007680052EA03361CBF104619460AD181EA030132
:1007780001F0004141F0FE4141F470014FF00000EA
:1007880070BD41F0FE4141F4780170BD70B54FF085
:10079800FF0C4CF4E06C1CEA11541DBF1CEA135505
:1007A80094EA0C0F95EA0C0F00F0A7F8A4EB0504E7
:1007B80081EA030E52EA03354FEA013100F08880DE
:1007C8004FEA03334FF0805545EA131343EA1263A7
:1007D8004FEA022245EA111545EA10654FEA00265C
:1007E8000EF000419D4208BF964244F1FD0404F515
:1007F800407402D25B084FEA3202B61A65EB030571
:100808005B084FEA32024FF480104FF4002CB6EB2D
:10081800020E75EB030E22BFB61A754640EA0C00AD
:100828005B084FEA3202B6EB020E75EB030E22BFED
:10083800B61A754640EA5C005B084FEA3202B6EB2E
:10084800020E75EB030E22BFB61A754640EA9C00ED
:100858005B084FEA3202B6EB020E75EB030E22BFBD
:10086800B61A754640EADC0055EA060E18D04FEA7B
:10087800051545EA16754FEA06164FEAC30343EA1B
:1008880052734FEAC2025FEA1C1CC0D111F4801FE8
:100898000BD141EA00014FF000004FF0004CB6E7E1
:1008A80011F4801F04BF01430020B4F1FD0C88BF80
:1008B800BCF5E06F3FF6AFAEB5EB030C04BFB6EB8B
:1008C800020C5FEA500C50F1000041EB045170BD7E
:1008D8000EF0004E4EEA113114EB5C04C2BFD4EBAB
:1008E8000C0541EA045170BD41F480114FF0000E2F
:1008F800013C90E645EA060E8DE60CEA135594EAAB
:100908000C0F08BF95EA0C0F3FF43BAF94EA0C0FAD
:100918000AD150EA01347FF434AF95EA0C0F7FF422
:1009280025AF104619462CE795EA0C0F06D152EA76
:1009380003353FF4FDAE1046194622E750EA41065A
:1009480018BF52EA43067FF4C5AE50EA41047FF46B
:100958000DAF52EA43057FF4EBAE12E74FF0FF3CD0
:1009680006E000BF4FF0010C02E000BF4FF0010CA1
:100978004DF804CD4FEA410C7FEA6C5C4FEA430C1A
:1009880018BF7FEA6C5C1BD001B050EA410C0CBF69
:1009980052EA430C91EA030F02BF90EA020F0020CB
:1009A800704710F1000F91EA030F58BF994208BF32
:1009B80090422CBFD8176FEAE37040F001007047EF
:1009C8004FEA410C7FEA6C5C02D150EA013C07D146
:1009D8004FEA430C7FEA6C5CD6D152EA033CD3D091
:1009E8005DF8040B704700BF8446104662468C468B
:1009F8001946634600E000BF01B5FFF7B7FF0028BE
:100A080048BF10F1000F01BD4DF808EDFFF7F4FFE6
:100A18000CBF012000205DF808FB00BF4DF808ED71
:100A2800FFF7EAFF34BF012000205DF808FB00BF94
:100A38004DF808EDFFF7E0FF94BF012000205DF8B6
:100A480008FB00BF4DF808EDFFF7CEFF94BF01206B
:100A580000205DF808FB00BF4DF808EDFFF7C4FF64
:100A680034BF012000205DF808FB00BF4FEA410CAD
:100A78007FEA6C5C02D150EA013C0AD14FEA430C90
:100A88007FEA6C5C02D152EA033C02D14FF00000CD
:100A980070474FF0010070474FEA410212F500120B
:100AA80015D211D56FF47873B3EB625212D94FEAAD
:100AB800C12343F0004343EA505311F0004F23FA97
:100AC80002F018BF404270474FF00000704750EAEC
:100AD800013005D111F0004008BF6FF000407047A9
:100AE8004FF00000704700BF4A0011D212F5001203
:100AF80011D20DD56FF47873B3EB62520ED44FEA6E
:100B0800C12343F0004343EA505323FA02F07047ED
:100B18004FF00000704750EA013002D14FF0FF302B
:100B280070474FF0000070474FEA4102B2F1E043CE
:100B380024BFB3F5001CDCF1FE5C0DD901F0004CBC
:100B48004FEAC0024CEA5070B2F1004F40EB83000C
:100B580008BF20F00100704711F0804F21D113F138
:100B68003872BCBF01F00040704741F480114FEA71
:100B78005252C2F11802C2F1200C10FA0CF320FAFA
:100B880002F018BF40F001004FEAC1234FEAD32317
:100B980003FA0CFC40EA0C0023FA02F34FEA430381
:100BA800CCE77FEA625307D150EA01331EBF4FF00A
:100BB800FE4040F44000704701F0004040F0FE4025
:100BC80040F40000704700BF80B485B000AF786083
:100BD8007B681B6803F06003FB60FB68002B04D193
:100BE8007B681B6803F01003FB60FB68184614372A
:100BF800BD465DF8047B704780B483B000AF786071
:100C08007B681B6B18460C37BD465DF8047B704744
:100C180080B483B000AF786039607B681A6A3B683B
:100C28001A437B681A6200BF0C37BD465DF8047B27
:100C3800704780B483B000AF786039607B681A6A07
:100C48003B68DB431A407B681A6200BF0C37BD461D
:100C58005DF8047B704780B483B000AF78607B6830
:100C68005B6C43F400427B685A6400BF0C37BD4696
:100C78005DF8047B704780B483B000AF78607B6810
:100C8800DB6843F001027B68DA6000BF0C37BD46C1
:100C98005DF8047B704780B483B000AF78607B68F0
:100CA800DB6823F001027B68DA6000BF0C37BD46C1
:100CB8005DF8047B704780B483B000AF78607B68D0
:100CC800DB6803F00103012B01D1012300E00023BD
:100CD80018460C37BD465DF8047B704780B483B076
:100CE80000AF78607B68DB6843F002027B68DA60FB
:100CF80000BF0C37BD465DF8047B704780B483B0F5
:100D080000AF78607B68DB6823F002027B68DA60FA
:100D180000BF0C37BD465DF8047B704780B483B0D4
:100D280000AF78607B68DB6803F00203022B01D117
:100D3800012300E0002318460C37BD465DF8047B0C
:100D4800704780B483B000AF78607B68DB6843F09D
:100D580004027B68DA6000BF0C37BD465DF8047B8F
:100D6800704780B483B000AF78607B68DB6823F09D
:100D780004027B68DA6000BF0C37BD465DF8047B6F
:100D8800704780B483B000AF78607B68DB6803F09D
:100D98000403042B01D1012300E0002318460C377B
:100DA800BD465DF8047B704780B483B000AF7860BF
:100DB8007B68DB6843F008027B68DA6000BF0C37A9
:100DC800BD465DF8047B704780B483B000AF78609F
:100DD8007B68DB6823F008027B68DA6000BF0C37A9
:100DE800BD465DF8047B704780B483B000AF78607F
:100DF8007B68DB6803F00803082B01D1012300E0BE
:100E0800002318460C37BD465DF8047B704780B454
:100E180083B000AF78607B68DB6843F010027B68C2
:100E2800DA6000BF0C37BD465DF8047B704780B4BC
:100E380083B000AF78607B68DB6823F010027B68C2
:100E4800DA6000BF0C37BD465DF8047B704780B49C
:100E580083B000AF78607B68DB6803F01003102B69
:100E680001D1012300E0002318460C37BD465DF888
:100E7800047B704780B483B000AF78607B68DB6820
:100E880043F020027B68DA6000BF0C37BD465DF88E
:100E9800047B704780B483B000AF78607B68DB6800
:100EA80023F020027B68DA6000BF0C37BD465DF88E
:100EB800047B704780B483B000AF78607B68DB68E0
:100EC80003F02003202B01D1012300E00023184662
:100ED8000C37BD465DF8047B704780B483B000AF23
:100EE80078607B68DB6843F040027B68DA6000BFAB
:100EF8000C37BD465DF8047B704780B483B000AF03
:100F080078607B68DB6823F040027B68DA6000BFAA
:100F18000C37BD465DF8047B704780B483B000AFE2
:100F280078607B68DB6803F04003402B01D1012324
:100F380000E0002318460C37BD465DF8047B704777
:100F480080B483B000AF78607B68DB6843F08002D0
:100F58007B68DA6000BF0C37BD465DF8047B7047DC
:100F680080B483B000AF78607B68DB6823F08002D0
:100F78007B68DA6000BF0C37BD465DF8047B7047BC
:100F880080B483B000AF78607B68DB6803F08003CF
:100F9800802B01D1012300E0002318460C37BD4601
:100FA8005DF8047B704780B582B000AF78600B466F
:100FB8007B807B8803F00103002B0CD07B681B68C7
:100FC8001846FFF7AAFF0346012B04D07B681B686D
:100FD8001846FFF782FF7B8803F00203002B0CD032
:100FE8007B681B681846FFF799FE0346012B04D05F
:100FF8007B681B681846FFF771FE7B8803F00403C3
:10100800002B0CD07B681B681846FFF7BAFE034616
:10101800012B04D07B681B681846FFF792FE7B887B
:1010280003F00803002B0CD07B681B681846FFF7F9
:10103800DBFE0346012B04D07B681B681846FFF7CC
:10104800B3FE7B8803F01003002B0CD07B681B6871
:101058001846FFF7FCFE0346012B04D07B681B688B
:101068001846FFF7D4FE7B8803F02003002B0CD032
:101078007B681B681846FFF71EFE0346012B04D049
:101088007B681B681846FFF7F6FD7B8803F0400372
:10109800002B0CD07B681B681846FFF771FF0346CE
:1010A800012B04D07B681B681846FFF749FF7B8833
:1010B80003F08003002B0CD07B681B681846FFF7F1
:1010C800F9FE0346012B04D07B681B681846FFF71E
:1010D800D1FE00BF0837BD4680BD80B582B000AFE5
:1010E80078600B467B807B8803F00103002B0CD0D3
:1010F8007B681B681846FFF710FF0346012B04D1D5
:101108007B681B681846FFF7F8FE7B8803F002032C
:10111800002B0CD07B681B681846FFF7FFFD0346C1
:10112800012B04D17B681B681846FFF7E7FD7B8815
:1011380003F00403002B0CD07B681B681846FFF7EC
:1011480020FE0346012B04D17B681B681846FFF775
:1011580008FE7B8803F00803002B0CD07B681B6813
:101168001846FFF741FE0346012B04D17B681B6834
:101178001846FFF729FE7B8803F01003002B0CD0DC
:101188007B681B681846FFF762FE0346012B04D1F3
:101198007B681B681846FFF74AFE7B8803F020032C
:1011A800002B0CD07B681B681846FFF784FD0346AC
:1011B800012B04D07B681B681846FFF76CFD7B8801
:1011C80003F04003002B0CD07B681B681846FFF720
:1011D800D7FE0346012B04D17B681B681846FFF72E
:1011E800BFFE7B8803F08003002B0CD07B681B6854
:1011F8001846FFF75FFE0346012B04D17B681B6886
:101208001846FFF747FE00BF0837BD4680BD0000FF
:1012180080B582B000AF78600B46FB70FB78022B7C
:1012280006D17B681B6801211846FFF7F1FC31E005
:101238007B681B68194A934213D07B681B68184A5D
:1012480093420ED07B681B68164A934209D07B688C
:101258001B68154A934204D07B681B68134A934263
:1012680018D1FB78032B06D17B681B68042118462C
:10127800FFF7CEFC0EE0FB78042B0BD17B681B68D4
:1012880001211846FFF7C4FC7B681B680421184637
:10129800FFF7BEFC00BF0837BD4680BD002C0140EB
:1012A8000034014000400140004401400048014032
:1012B80080B582B000AF78600B46FB70FB78022BDC
:1012C80006D17B681B6801211846FFF7B2FC31E0A4
:1012D8007B681B68194A934213D07B681B68184ABD
:1012E80093420ED07B681B68164A934209D07B68EC
:1012F8001B68154A934204D07B681B68134A9342C3
:1013080018D1FB78032B06D17B681B68042118468B
:10131800FFF78FFC0EE0FB78042B0BD17B681B6872
:1013280001211846FFF785FC7B681B6804211846D5
:10133800FFF77FFC00BF0837BD4680BD002C014089
:101348000034014000400140004401400048014091
:1013580080B582B000AF78600B46FB70FB78022B3B
:1013680006D17B681B6810211846FFF751FC31E055
:101378007B681B68194A934213D07B681B68184A1C
:1013880093420ED07B681B68164A934209D07B684B
:101398001B68154A934204D07B681B68134A934222
:1013A80018D1FB78032B06D17B681B6840211846AF
:1013B800FFF72EFC0EE0FB78042B0BD17B681B6833
:1013C80010211846FFF724FC7B681B68402118464B
:1013D800FFF71EFC00BF0837BD4680BD002C01404A
:1013E80000340140004001400044014000480140F1
:1013F80080B582B000AF78600B46FB70FB78022B9B
:1014080006D17B681B6810211846FFF712FC31E0F3
:101418007B681B68194A934213D07B681B68184A7B
:1014280093420ED07B681B68164A934209D07B68AA
:101438001B68154A934204D07B681B68134A934281
:1014480018D1FB78032B06D17B681B68402118460E
:10145800FFF7EFFB0EE0FB78042B0BD17B681B68D2
:1014680010211846FFF7E5FB7B681B6840211846EA
:10147800FFF7DFFB00BF0837BD4680BD002C0140E9
:101488000034014000400140004401400048014050
:1014980080B582B000AF78600B46FB70FB78022BFA
:1014A80007D17B681B684FF480711846FFF7B0FBC3
:1014B80034E07B681B681B4A934213D07B681B6827
:1014C800194A93420ED07B681B68184A934209D088
:1014D8007B681B68164A934204D07B681B68154AD0
:1014E80093421BD1FB78032B07D17B681B684FF411
:1014F80080611846FFF78CFB10E0FB78042B0DD1B8
:101508007B681B684FF480711846FFF781FB7B6886
:101518001B684FF480611846FFF77AFB00BF083755
:10152800BD4680BD002C0140003401400040014010
:10153800004401400048014080B582B000AF7860A7
:101548000B46FB70FB78022B07D17B681B684FF4B6
:1015580080711846FFF76DFB34E07B681B681B4AF7
:10156800934213D07B681B68194A93420ED07B685C
:101578001B68184A934209D07B681B68164A934235
:1015880004D07B681B68154A93421BD1FB78032B58
:1015980007D17B681B684FF480611846FFF749FB49
:1015A80010E0FB78042B0DD17B681B684FF4807129
:1015B8001846FFF73EFB7B681B684FF480611846AE
:1015C800FFF737FB00BF0837BD4680BD002C014040
:1015D80000340140004001400044014000480140FF
:1015E80080B582B000AF78600B46FB70FB78022BA9
:1015F80006D17B681B684FF480511846FFF708FB3B
:1016080000BF0837BD4680BD80B582B000AF7860A6
:101618000B46FB70FB78022B06D17B681B684FF4E6
:1016280080511846FFF705FB00BF0837BD4680BD4F
:1016380080B584B000AF78600023FB607B681B68CE
:10164800304A934201D1304BFB607B681A68FB68D3
:101658001A60FB681B681846FFF7B6FAB860BB68E3
:10166800002B06D0BB68102B03D0FB6801221A712F
:1016780002E0FB6800221A71FB681B68234A934248
:1016880013D0FB681B68224A93420ED0FB681B6884
:10169800204A934209D0FB681B681F4A934204D032
:1016A800FB681B681D4A934204D1FB681B681846F7
:1016B800FFF7D1FAFB681B68144A934213D0FB6802
:1016C8001B68134A93420ED0FB681B68114A934269
:1016D80009D0FB681B68104A934204D0FB681B685A
:1016E8000E4A934208D17B681B681846FFF784FAB4
:1016F8000346DAB2FB685A71FB6818461037BD46D4
:1017080080BD00BF0004004090050020002C01406F
:1017180000340140004001400044014000480140BD
:1017280080B485B000AF786039603B68002B03D186
:101738007B684033FB6001E0044BFB60FB681846A4
:101748001437BD465DF8047B704700BF0C03045096
:1017580080B483B000AF78607B68DB6803F44063D3
:10176800002B01D1012300E0002318460C37BD46A9
:101778005DF8047B704780B483B000AF786039604F
:101788007B681B6B23F00F023B681A437B681A6364
:1017980000BF0C37BD465DF8047B704780B483B04A
:1017A80000AF786039607B68DB6823F003023B6830
:1017B8001A437B68DA6000BF0C37BD465DF8047BCE
:1017C800704780B483B000AF78607B68DB6C03F04F
:1017D800C003002B01D1012300E0002318460C3779
:1017E800BD465DF8047B704780B483B000AF786075
:1017F8007B689B6823F0004323F03F0343F001021A
:101808007B689A6000BF0C37BD465DF8047B704763
:1018180080B483B000AF78607B689B6823F0004396
:1018280023F03F0343F002027B689A6000BF0C3745
:10183800BD465DF8047B704780B483B000AF786024
:101848007B689B6803F00103012B01D1012300E0B1
:10185800002318460C37BD465DF8047B704780B4FA
:1018680083B000AF786039607B689B6823F04043A1
:1018780023F03F033A6802F08042134343F00042EA
:101888007B689A6000BF0C37BD465DF8047B7047E3
:1018980080B483B000AF78607B689B6803F0004336
:1018A800B3F1004F01D1012300E0002318460C37A3
:1018B800BD465DF8047B704780B483B000AF7860A4
:1018C8007B689B6823F0004323F03F0343F0040246
:1018D8007B689A6000BF0C37BD465DF8047B704793
:1018E80080B483B000AF78607B689B6823F00043C6
:1018F80023F03F0343F008027B689A6000BF0C376F
:10190800BD465DF8047B704780B483B000AF786053
:101918007B681B6803F00803082B01D1012300E052
:10192800002318460C37BD465DF8047B704780B429
:1019380083B000AF78607B681B6803F01003102B3E
:1019480001D1012300E0002318460C37BD465DF89D
:10195800047B704780B483B000AF78607B68102246
:101968001A6000BF0C37BD465DF8047B704780B431
:1019780083B000AF78607B685B6843F008027B68DF
:101988005A6000BF0C37BD465DF8047B704780B4D1
:1019980083B000AF78607B685B6843F040027B6887
:1019A8005A6000BF0C37BD465DF8047B704780B4B1
:1019B80083B000AF78607B685B6823F008027B68BF
:1019C8005A6000BF0C37BD465DF8047B704780B491
:1019D80083B000AF78607B685B6823F010027B6897
:1019E8005A6000BF0C37BD465DF8047B704780B471
:1019F80083B000AF78607B685B6823F040027B6847
:101A08005A6000BF0C37BD465DF8047B704780B450
:101A180083B000AF78607B685B6823F080027B68E6
:101A28005A6000BF0C37BD465DF8047B704780B430
:101A380083B000AF78607B685B6803F01003102BFD
:101A480001D1012300E0002318460C37BD465DF89C
:101A5800047B704780B483B000AF78607B685B68B4
:101A680003F08003802B01D1012300E000231846F6
:101A78000C37BD465DF8047B7047000080B485B024
:101A880000AF786039607B68FB600C4A3B681344A0
:101A98001B781A46FB6813441B6808493A680A44CD
:101AA80012781146FA680A4443F00103136000BF34
:101AB8001437BD465DF8047B704700BF7C520108AF
:101AC80080B485B000AF786039607B68FB600C4AF1
:101AD8003B6813441B781A46FB6813441B68084983
:101AE8003A680A4412781146FA680A4423F0010356
:101AF800136000BF1437BD465DF8047B704700BF14
:101B08007C52010880B485B000AF786039607B688A
:101B1800FB60084A3B6813441B781A46FB68134469
:101B28001B6803F0200318461437BD465DF8047B94
:101B3800704700BF7C52010880B487B000AFF860DE
:101B4800B9607A60FB687B610D4ABB6813441B78F7
:101B58001A467B6913445B681B0C1B040849BA6866
:101B68000A44127811467A690A4411467A6813437E
:101B78004B6000BF1C37BD465DF8047B704700BF53
:101B88007C52010880B487B000AFF860B9607A6011
:101B98003B60FB687B613B6A102B14D1174ABB681A
:101BA80013441B781A467B6913441A467B68D36032
:101BB800124ABB6813441B781A467B6913441A46B9
:101BC8003B68936013E00D4ABB6813441B781A46C0
:101BD8007B6913441A467B689360084ABB681344C0
:101BE8001B781A467B6913441A463B68D36000BFCA
:101BF8001C37BD465DF8047B704700BF7C52010866
:101C080080B487B000AFF860B9607A60FB687B6128
:101C1800074ABB6813441B781A467B6913441A4663
:101C28007B68936000BF1C37BD465DF8047B704736
:101C38007C52010880B483B000AF78607B681B6871
:101C480003F02003202B01D1012300E000231846D4
:101C58000C37BD465DF8047B704780B483B000AF95
:101C680078607B6820225A6000BF0C37BD465DF85B
:101C7800047B704780B485B000AF786039607B68BA
:101C8800FB600C4A3B6813441B781A46FB681344F4
:101C98001B6808493A680A4412781146FA680A44E7
:101CA80043F00203136000BF1437BD465DF8047BA0
:101CB800704700BF7C52010880B485B000AF7860DF
:101CC80039607B68FB600C4A3B6813441B781A46F2
:101CD800FB6813441B6808493A680A44127811469D
:101CE800FA680A4443F00803136000BF1437BD467E
:101CF8005DF8047B704700BF7C52010880B485B052
:101D080000AF786039607B68FB600C4A3B6813441D
:101D18001B781A46FB6813441B6808493A680A444A
:101D280012781146FA680A4423F00203136000BFD0
:101D38001437BD465DF8047B704700BF7C5201082C
:101D480080B485B000AF786039607B68FB600C4A6E
:101D58003B6813441B781A46FB6813441B68084900
:101D68003A680A4412781146FA680A4423F00403D0
:101D7800136000BF1437BD465DF8047B704700BF91
:101D88007C52010880B485B000AF786039607B6808
:101D9800FB600C4A3B6813441B781A46FB681344E3
:101DA8001B6808493A680A4412781146FA680A44D6
:101DB80023F00803136000BF1437BD465DF8047BA9
:101DC800704700BF7C52010880B485B000AF7860CE
:101DD80039607B68FB600A4A3B6813441B781A46E3
:101DE800FB6813441B6803F00203022B01D1012393
:101DF80000E0002318461437BD465DF8047B7047A1
:101E08007C52010880B584B000AF78600123FB8163
:101E18007B681B691846FFF79BFC0346002B2FD0F5
:101E28007B685B7ADBB2022B11D07B685B7ADBB212
:101E3800042B0CD07B685B7ADBB2082B07D07B685D
:101E48001B691846FFF760FD0346012B18D1786817
:101E580000F0F2F80346002B12D17B685B7ADBB204
:101E6800082B03D17B6801225A7202E07B6820228A
:101E78005A727B681B691846FFF71EFD0023FB8119
:101E8800FB8918461037BD4680BD80B586B002AFC5
:101E9800F860B9607A603B600021F868FFF740FCA1
:101EA80003461A467968B868FFF7AAFE0021F86861
:101EB800FFF736FC02463B68002100917968B86854
:101EC800FFF760FEBA697968B868FFF735FE796888
:101ED800B868FFF7CFFE7968B868FFF7EDFE796854
:101EE800B868FFF7CBFD00BF1037BD4680BD80B591
:101EF80084B000AFF860B9607A607968B868FFF7B5
:101F0800DFFD7968B868FFF71BFF7968B868FFF7E5
:101F180039FF7968B868FFF7F1FE00227968B86878
:101F2800FFF70AFE00BF1037BD4680BD80B582B0FE
:101F380000AF786039607B68DB79012B0DD17B6855
:101F4800DA687B681B685B00D1187B681B685B00DC
:101F58001A46386813F042F908E07B68D9687B684C
:101F68001B685B001A46386813F038F900BF083759
:101F7800BD4680BD80B586B000AFF860B9607A60B4
:101F8800FB685A69FB689B7919461046FFF71CFFE6
:101F98000346DBB2012B37D1FB685A69BB68104690
:101FA80098470346012B2FD1FB6804225A72FB681D
:101FB8005A697B6810469847FB685A69FB689B79A1
:101FC80019461046FFF79EFD0346002B19D1FB6802
:101FD8005A69FB689B7919461046FFF771FDFB6843
:101FE8005869FB689B791946FB681B681A46FFF716
:101FF800A3FDFB685A69FB689B7919461046FFF7F1
:102008003DFD0123FB7501E00023FB75FB7D1846B0
:102018001837BD4680BD000080B500AF034A0449AB
:102028000448FFF7A7FF00BF80BD00BF631C00087E
:102038003D1C00081C06002080B582B000AF786007
:102048007B681B691846FFF772FC0346DBB2012B5D
:1020580007D17B681B691846FFF77CFC7B68102258
:102068005A727B685B7ADBB2102B0CBF012300230A
:10207800DBB218460837BD4680BD80B582B000AFD8
:1020880078600B46FB70FB78012B0DD17B681B69D0
:102098001846FFF75DFB0346012B12D07B681B69CE
:1020A8001846FFF709FC0CE07B681B691846FFF728
:1020B80088FB0346012B04D07B681B691846FFF791
:1020C8000FFC00BF0837BD4680BD000090B589B041
:1020D80002AFF860084611461A4603467B810B4654
:1020E8003B811346FB8000237B61FB681B693C4AEC
:1020F800934201D13B4B7B617B69002B6BD0FB6822
:102108001A697B691A617B690022DA71FB88012BE5
:1021180061D03B89002B47D07B695B7ADBB2082B07
:1021280042D0FB68DA687B69DA60FB681A687B6909
:102138001A60FB685A697B695A61FB689A797B69FE
:102148009A71FB681A797B691A717B691B69B96A8C
:102158001846FFF710FB7B89012B21D07B89042BC4
:1021680016D17B691B6903211846FFF717FB7B69AA
:1021780018697B6959697B699B791C467B69DA68B0
:102188007B691B68009313462246FFF77EFE07E033
:102198007B89022B04D17B691B691846FFF7E7FB93
:1021A8007B6908225A7216E03B89002B13D17B69A0
:1021B8009B7ADBB2082B0ED0FB685A797B695A717F
:1021C8007B89022B04D17B691B691846FFF7DFFB6B
:1021D8007B6908229A727B6918461C37BD4690BDF8
:1021E800000104501C06002080B582B000AF786062
:1021F8007B681B691846FFF71FFB0346002B04D1B9
:102208007B681B691846FFF7EFFA00BF0837BD4621
:1022180080BD80B586B000AFF8600B467A607B81E0
:102228000123FB82FB681B69002B46D07B89012BAD
:1022380005D1F868FFF7E6FD0346FB823DE07B89A0
:10224800042B1FD1FB681B691846FFF781FA034668
:10225800002B32D0FB6801225A72FB681B691846B2
:10226800FFF72AFB00BFFB685B7ADBB2042BFAD1CD
:102278007968F868FFF75AFEFB6808225A7200234B
:10228800FB821AE07B89022B17D1FB685B7ADBB2F1
:10229800202B09D0FB685B7ADBB2042B04D0FB68E7
:1022A8005B7ADBB2102B08D1FB6808225A72796876
:1022B800F868FFF73BFE0023FB82FB8A18461837B5
:1022C800BD4680BD80B582B000AF78600B467B808C
:1022D80013463B807B681B691846FFF7ADFA034637
:1022E800002B04D07B681B691846FFF791FA7B68BE
:1022F8001B691846FFF7AEFB0346002B04D07B682A
:102308001B691846FFF783FB7B681B691846FFF7B4
:102318008EFB0346002B04D07B681B691846FFF729
:1023280056FB3B88002B35D07B680022DA607B683F
:1023380000221A607B6800225A617B6800229A7129
:102348007B6800221A717B681A697B681B791946B9
:102358001046FFF710FA7B88012B26D07B88022BCA
:1023680005D17B681B691846FFF721FB1DE07B88B8
:10237800042B1AD17B6818697B6859697B689B793B
:102388001A46FFF7B4FD7B681B6900211846FFF762
:1023980005FA0AE07B6800225A717B88022B04D177
:1023A8007B681B691846FFF722FB00BF0837BD464C
:1023B80080BD000080B584B000AF78600B46FB702C
:1023C8007B681B691846FFF737FA0346FB7397F9D2
:1023D8000F30012B04D17B681B691846FFF718FAE8
:1023E800FB78002B0FD17B681B697F211846FFF70C
:1023F80036FA00BF7B681B691846FFF749FA03469F
:10240800012BF7D040E0FB78012B0FD17B681B69CB
:102418002C491846FFF723FA00BF7B681B6918464A
:10242800FFF736FA0346012BF7D02DE07B681B69CE
:102438007F211846FFF713FA00BF7B681B6918460F
:10244800FFF726FA0346012BF7D00023BB8107E0EC
:1024580000BFBB891BB29BB201339BB21BB2BB81CD
:10246800BB891BB29BB2032BF2D97B681B69154948
:102478001846FFF7F4F900BF7B681B691846FFF799
:1024880007FA0346012BF7D00023BB8107E000BF02
:10249800BB891BB29BB201339BB21BB2BB81BB8908
:1024A8001BB29BB2032BF2D997F90F30012B04D141
:1024B8007B681B691846FFF797F900BF1037BD46C0
:1024C80080BD00BF00007F4080B483B000AF78605B
:1024D8007B681B6843F001027B681A6000BF0C37F9
:1024E800BD465DF8047B704780B483B000AF786068
:1024F8007B681B6823F001027B681A6000BF0C37F9
:10250800BD465DF8047B704780B483B000AF786047
:1025180039607B681B6823F004023B681A437B68B8
:102528001A6000BF0C37BD465DF8047B704780B465
:1025380083B000AF78607B681B6803F0040318461B
:102548000C37BD465DF8047B704780B483B000AF9C
:1025580078607B68DB6A18460C37BD465DF8047BFB
:10256800704780B483B000AF786039607B683A68A0
:102578001A6300BF0C37BD465DF8047B704780B412
:1025880083B000AF786039607B683A685A6300BFEF
:102598000C37BD465DF8047B704780B483B000AF4C
:1025A800786039607B683A689A6300BF0C37BD462B
:1025B8005DF8047B704780B483B000AF7860396001
:1025C8007B683A68DA6300BF0C37BD465DF8047B68
:1025D800704780B483B000AF786039607B683A6830
:1025E8001A6400BF0C37BD465DF8047B704780B4A1
:1025F80083B000AF78607B685B6B18460C37BD46CC
:102608005DF8047B704780B483B000AF78607B6866
:102618009B6B18460C37BD465DF8047B704780B449
:1026280083B000AF78607B68DB6B18460C37BD461B
:102638005DF8047B704780B483B000AF78607B6836
:102648001B6C18460C37BD465DF8047B704780B498
:1026580083B000AF78607B685B6943F001027B68F8
:102668005A6100BF0C37BD465DF8047B704780B4E3
:1026780083B000AF78607B681B6918460C37BD468D
:102688005DF8047B704780B483B000AF7860396030
:102698007B683A689A6100BF0C37BD465DF8047BD9
:1026A800704780B483B000AF786039607B683A685F
:1026B8009A6200BF0C37BD465DF8047B7047000086
:1026C80080B584B000AF786087ED000AD7ED007A56
:1026D800F5EEC07AF1EE10FA03D54FF000033B6037
:1026E8000AE0D7ED007A9FED167AF4EEC77AF1EE9C
:1026F80010FA01DD134B3B607B681B681846FFF737
:1027080024FFF8607B681B79002B0CBF0123002392
:10271800DBB21A46FB68134407EE903AB8EE677AC4
:10272800D7ED007A27EE277ADFED056AC7EE267A1D
:10273800FCEEE77A17EE903A18461037BD4680BD92
:102748000000C8420000C84280B582B000AF78607F
:1027580039607B681B681846FFF749FF02463B68EB
:10276800934205D07B681B6839681846FFF707FF56
:1027780000BF0837BD4680BD80B582B000AF786025
:1027880039607B681B681846FFF73DFF02463B68C7
:10279800934205D07B681B6839681846FFF7FDFE31
:1027A80000BF0837BD4680BD80B582B000AF7860F5
:1027B80039607B681B681846FFF731FF02463B68A3
:1027C800934205D07B681B6839681846FFF7F3FE0B
:1027D80000BF0837BD4680BD80B582B000AF7860C5
:1027E80039607B681B681846FFF725FF02463B687F
:1027F800934205D07B681B6839681846FFF7E9FEE5
:1028080000BF0837BD4680BD80B584B000AF786092
:1028180087ED000A97ED000A7868FFF751FFF86026
:10282800F9687868FFF790FF00BF1037BD4680BD94
:1028380080B584B000AF786087ED000A97ED000A94
:102848007868FFF73DFFF860F9687868FFF794FF4C
:1028580000BF1037BD4680BD80B584B000AF78603A
:1028680087ED000A97ED000A7868FFF729FFF860FE
:10287800F9687868FFF798FF00BF1037BD4680BD3C
:1028880080B584B000AF786087ED000A97ED000A44
:102898007868FFF715FFF860F9687868FFF79CFF1C
:1028A80000BF1037BD4680BD80B485B000AF7860EA
:1028B8007B681B689A68074B1340FB60FB68062B14
:1028C8000CBF01230023DBB218461437BD465DF860
:1028D800047B70470700010080B584B000AF7860C2
:1028E8000B46FB707B681B681846FFF720FEF860F4
:1028F800FB78002B1ED07B681B68324A934213D0AA
:102908007B681B68304A93420ED07B681B682F4A4D
:10291800934209D07B681B682D4A934204D07B6898
:102928001B682C4A934205D17B681B680021184616
:10293800FFF717FEFB68042B11D07B681B68042186
:102948001846FFF7E1FD7B681B681846FFF77FFE16
:102958007B681B68F9681846FFF7D6FD04E07B68BA
:102968001B681846FFF773FE7B681B681846FFF75D
:10297800ABFDFB78002B20D07B681B68114A934283
:1029880013D07B681B68104A93420ED07B681B6883
:102998000E4A934209D07B681B680D4A934204D0C3
:1029A8007B681B680B4A934207D17B681A687B686F
:1029B8005B7919461046FFF7D4FD00BF1037BD46B6
:1029C80080BD00BF002C01400034014000400140A0
:1029D800004401400048014080B582B000AF7860F3
:1029E8007B681B681846FFF77FFD00BF0837BD46A8
:1029F80080BD000080B483B000AF7860074B5B797E
:102A0800002B0CBF01230023DAB27B6801331A7054
:102A180000BF0C37BD465DF8047B70474C030020AF
:102A280080B400AF0C4B5B79002B0CBF0123002353
:102A3800DAB2094B9A71084B5A790132D2B25A71FB
:102A4800054B5B79092B02D9034B00225A7100BF51
:102A5800BD465DF8047B70474C03002080B485B008
:102A680000AF786039607B68012283F8D8203B6822
:102A7800D3E900237968C1E902237B6801221A603F
:102A88000023FB600CE07B68D3E902237868F968CF
:102A98000231C9000144C1E90023FB680133FB602E
:102AA800FB68182BEFDD00BF00BF1437BD465DF88B
:102AB800047B704780B586B000AF87ED040BF860E3
:102AC800B9607A60BB68D3E902017B68D3E9002367
:102AD800FDF79AFF0346002B05D17B68D3E9002355
:102AE800B968C1E90223F868BB681033C8221946DF
:102AF80012F074FBF968D7E90423C1E93223FB68B3
:102B080003F1D000BB681033C022194612F066FBEF
:102B1800BB6803F11000FB68C833C822194612F0DD
:102B28005DFB00BF1837BD4680BD80B485B000AFDF
:102B3800786039607B68012283F860203B68D3E9BC
:102B480000237968C1E902237B6801221A60002307
:102B5800FB600CE07B68D3E902237868F9680231EE
:102B6800C9000144C1E90023FB680133FB60FB682D
:102B7800092BEFDD00BF00BF1437BD465DF8047BAD
:102B8800704780B586B000AF87ED040BF860B96078
:102B98007A60BB68D3E902017B68D3E90023FDF7BB
:102BA80033FF0346002B05D17B68D3E90023B968BE
:102BB800C1E90223F868BB6810335022194612F0A5
:102BC8000DFBF968D7E90423C1E91423FB6803F175
:102BD8005800BB6810334822194612F0FFFABB6848
:102BE80003F11000FB6850335022194612F0F6FA30
:102BF80000BF1837BD4680BD90B585B000AF002333
:102C0800FB601FE0FB685B0001337B600023BB6057
:102C180012E0BB685B005A1C13461B019A1A7B68BA
:102C280013443F4ADB00D1184FF000023D4BC1E985
:102C38000023BB680133BB60BB68062BE9DDFB687A
:102C48000133FB60FB68062BDCDD354B03F668239C
:102C5800D3E9000102460B46FDF7B8FA02460B46D7
:102C68004FF000003049FDF7AFFA02460B46104618
:102C78001946FDF711FF0446294B03F52663D3E9EE
:102C8800000102460B46FDF7A1FA02460B46104624
:102C98001946FDF701FF03465A1E13461B019B1AEE
:102CA8002344013B1E4ADB00D1184FF000024FF0CD
:102CB8000003C1E900230023FB600CE01B4BD3E9B0
:102CC80000231748F968E131C9000144C1E900232C
:102CD800FB680133FB60FB68632BEFDD104B03F5EA
:102CE8002663D3E900230E4901F5E161C1E9002318
:102CF8000B4B03F66823D3E90023094901F5E26188
:102D0800C1E90023064B03F530614FF000024FF094
:102D18008043C1E9002300BF1437BD4690BD00BF02
:102D28004819002000005940000030404841002068
:102D380080B586B000AFC34B03F67823D3E9000112
:102D480002460B46FDF742FA02460B464FF00000DA
:102D5800BD49FDF739FA02460B4610461946FDF7FC
:102D68009BFE03467B60B74B03F52763D3E900015D
:102D780002460B46FDF72AFA02460B46104619464C
:102D8800FDF78AFE03465A1E13461B019B1A3B6039
:102D98003A687B681344013BAA4ADB001344D3E931
:102DA8000023AA49C1E97223A64B03F52763D3E997
:102DB800000102460B46FDF709FA02460B4610468B
:102DC80019464FF00002A24BFDF700FA02460B46E7
:102DD80010461946FDF760FE03465A1E13461B01AE
:102DE8009A1A7B681344013B964ADB001344D3E9E3
:102DF80000014FF00002964BFDF706FE0346002B3C
:102E080006D092494FF00002924BC1E9742327E0A3
:102E18008C4B03F52763D3E900014FF000028C4B7C
:102E2800FDF7D4F902460B461046194602460B46F2
:102E3800FDF7CCF902460B4610461946FDF72CFE65
:102E480003465A1E13461B019A1A7B681344013B1A
:102E58007C4ADB001344D3E900237C49C1E974238D
:102E6800784B03F52763D3E9000102460B46FDF7CB
:102E7800ADF902460B46104619464FF00002744B56
:102E8800FDF7A2F902460B4610461946FDF704FE67
:102E980003465A1E13461B019A1A7B681344013BCA
:102EA800684ADB001344D3E900014FF00002684B85
:102EB800FDF7AAFD0346002B05D04FF00002654B35
:102EC800C7E9022326E05F4B03F52763D3E9000136
:102ED8004FF000025E4BFDF777F902460B461046AD
:102EE800194602460B46FDF771F902460B46104695
:102EF8001946FDF7D1FD03465A1E13461B019A1ABF
:102F08007B681344013B4F4ADB001344D3E9002399
:102F1800C7E902234B4B03F67823D3E900010246A5
:102F28000B46FDF753F902460B46104619464FF07B
:102F38000002474BFDF748F902460B464FF00000E8
:102F48004149FDF741F902460B4610461946FDF77F
:102F5800A3FD02463B681344013B3A4ADB00134495
:102F6800D3E900014FF00002394BFDF74DFD034650
:102F7800002B05D04FF00002364BC7E9042329E0A7
:102F8800304B03F67823D3E900014FF00002304BB1
:102F9800FDF71AF902460B461046194602460B463B
:102FA800FDF714F902460B464FF000002649FDF7DD
:102FB8000BF902460B4610461946FDF76DFD024611
:102FC8003B681344013B1F4ADB001344D3E9002349
:102FD800C7E904231B4B03F67823D3E90001024613
:102FE8000B46FDF7F3F802460B46104619464FF01C
:102FF8000002174BFDF7EAF802460B464FF00000B7
:103008001149FDF7E1F802460B4610461946FDF74F
:1030180043FD02463B681344013B0A4ADB00134464
:10302800D3E900014FF00002094BFDF7EDFC034620
:10303800002B11D005494FF00002064BC1E9762359
:1030480035E000BF4819002000003040700600201D
:103058000000F03F00005940B14B03F67823D3E954
:1030680000014FF00002AF4BFDF7B0F802460B46E7
:103078001046194602460B46FDF7A8F802460B46CD
:103088004FF00000A849FDF79FF802460B4610468E
:103098001946FDF701FD02463B681344013BA04A6F
:1030A800DB001344D3E90023A049C1E976234FF09C
:1030B800FF337B609A4B03F52D614FF000029C4B68
:1030C800C1E90023994BD3E97601984BD3E97223E0
:1030D800FDF7A4FC0346002B07D0944BD3E97623D5
:1030E8009249C1E9722300237B60904BD3E9722394
:1030F800D7E90401FDF792FC0346002B06D08B4963
:10310800D7E90423C1E9722302237B60874BD3E903
:103118007401864BD3E97223FDF780FC0346002B2C
:1031280007D0824BD3E974238049C1E97223012374
:103138007B607E4BD3E97223D7E90201FDF76EFC71
:103148000346002B01D003237B607B68002B71D1E1
:10315800734B03F67823D3E900014FF00002714B5B
:10316800FDF734F802460B466D4901F67821C1E9AE
:1031780000236B4B03F60833D3E900014FF000023C
:103188004FF00003FDF740FC0346002B07D0644BCB
:1031980003F52D614FF00002624BC1E90023604B3B
:1031A80003F60833D3E900014FF000025D4BFDF749
:1031B8002BFC0346002B08D0594B03F52D614FF02B
:1031C80000024FF00003C1E90023554B03F6083312
:1031D800D3E900014FF000024FF08043FDF714FCE3
:1031E8000346002B07D04E4B03F52D614FF000022C
:1031F800504BC1E900234A4B03F60833D3E90001D9
:103208004FF000024B4BFDF7FFFB0346002B08D0A5
:10321800434B03F52D614FF000024FF08043C1E9A5
:1032280000233F4B03F608314FF000024FF0000334
:10323800C1E900237B68012B7ED1394B03F5276355
:10324800D3E900014FF00002364BFCF7BFFF0246FE
:103258000B46334901F52761C1E90023304B03F6DA
:103268000833D3E900014FF000024FF00003FDF7E7
:10327800CBFB0346002B08D0294B03F52D614FF0FB
:1032880000024FF08043C1E90023254B03F60833C1
:10329800D3E900014FF00002224BFDF7B5FB0346CE
:1032A800002B07D01E4B03F52D614FF000021D4B7C
:1032B800C1E900231A4B03F60833D3E900014FF0A4
:1032C80000024FF08043FDF79FFB0346002B08D018
:1032D800134B03F52D614FF000024FF00003C1E9D5
:1032E80000230F4B03F60833D3E900014FF0000227
:1032F800104BFDF789FB0346002B07D0084B03F55D
:103308002D614FF000020B4BC1E90023044B03F67B
:1033180008314FF00002034BC1E900230CE000BF65
:10332800481900200000F03F0000304070060020DF
:103338000000F0BF000008407B68022B71D1754B7C
:1033480003F67823D3E900014FF00002724BFCF733
:103358003BFF02460B466F4901F67821C1E900237D
:103368006C4B03F60833D3E900014FF000024FF02D
:103378000003FDF749FB0346002B07D0654B03F517
:103388002D614FF00002654BC1E90023614B03F644
:103398000833D3E900014FF000025F4BFDF734FB1F
:1033A8000346002B08D05B4B03F52D614FF000025C
:1033B8004FF08043C1E90023564B03F60833D3E9A5
:1033C80000014FF000024FF08043FDF71DFB03465C
:1033D800002B07D04F4B03F52D614FF000024E4BE9
:1033E800C1E900234B4B03F60833D3E900014FF042
:1033F80000024A4BFDF708FB0346002B08D0454B5B
:1034080003F52D614FF000024FF00003C1E90023DE
:10341800404B03F608314FF000024FF08043C1E9FA
:1034280000237B68032B70D13A4B03F52763D3E95C
:1034380000014FF00002384BFCF7C6FE02460B466F
:10344800344901F52761C1E90023324B03F60833FB
:10345800D3E900014FF000024FF00003FDF7D4FA62
:103468000346002B08D02B4B03F52D614FF00002CB
:103478004FF00003C1E90023264B03F60833D3E9D4
:1034880000014FF00002244BFDF7BEFA0346002B63
:1034980007D0204B03F52D614FF000021F4BC1E907
:1034A80000231C4B03F60833D3E900014FF0000258
:1034B8004FF08043FDF7A8FA0346002B08D0154BC0
:1034C80003F52D614FF000024FF08043C1E900235E
:1034D800104B03F60833D3E900014FF000020F4BFD
:1034E800FDF792FA0346002B07D00A4B03F52D612E
:1034F8004FF00002084BC1E90023064B03F60831E0
:103508004FF00002054BC1E9002300BF1837BD4644
:1035180080BD00BF481900200000F03F00000840AF
:1035280090B58DB000AF2D4B93F8203B03F04003CE
:10353800DBB2002B08D0294A92F8203B102161F316
:10354800040382F8203B71E3244B03F5E163D3E9DC
:103558000023C7E90623214B03F5E263D3E90023DF
:10356800C7E904231D4B03F5E263D3E900010246D2
:103578000B46FCF72BFE02460B464FF0000018499D
:10358800FCF722FE02460B46C7E90223134B03F55C
:10359800E163D3E9000102460B46FCF717FE024639
:1035A8000B4610461946FDF777FA03465A1E13468E
:1035B8001B019B1AFB62D7E90201FDF76DFA02466F
:1035C800FB6A1344013B054ADB001344D3E900239B
:1035D8000449C1E978230023BB622DE04819002083
:1035E8000000304070060020BB6A01335B007B603E
:1035F800BB6A5B003B60BB4A7B68E133DB0013447A
:10360800D3E90023B7483968E131C9000144C1E969
:1036180000237B6801333A68511CB24AE133DB006E
:103628001344D3E90023AF48E131C9000144C1E99B
:103638000023BB6A0133BB62BB6A302BD4DDAA4BC3
:10364800D3E90023A74901F61821C1E90023A64BB5
:10365800D3E90023A34901F52261C1E90023A14B65
:1036680003F53063D3E900014FF000029F4BFCF7EC
:10367800ABFD02460B469B4901F53061C1E90023C9
:10368800D7E9060102460B46FCF7A0FD02460B46A9
:10369800104619464FF00002944BFCF795FD024680
:1036A8000B4610461946FDF7F7F903465A1E13460E
:1036B8001B019C1AD7E90201FDF7EEF903462344E2
:1036C800013B884ADB001344D3E900014FF00002B4
:1036D800864BFDF799F90346002B77D14FF000028E
:1036E800824BD7E90601FCF76FFD02460B461046F0
:1036F800194602460B46FCF769FD02460B46104682
:103708001946FDF7C9F903465A1E13461B019C1AB0
:10371800D7E90201FDF7C0F903462344013BBB6228
:10372800704ABB6ADB001344D3E900014FF0000282
:103738006F4BFDF769F90346002B47D0694B03F53A
:103748003063D3E9002310461946FDF7A5F903466F
:10375800013B5B007B604FF00002644BD7E9060138
:10376800FCF732FD02460B465E487968E131C90034
:103778000144C1E900237B6801335A4AE133DB0085
:10378800D118D7E90423C1E90023564B03F5306368
:10379800D3E900014FF00002544BFCF717FD024635
:1037A8000B46504901F53061C1E90023514BD3E97B
:1037B80078014FF000024D4BFCF708FD02460B461E
:1037C8004848B96AC9000144C1E90023D7E906019C
:1037D80002460B46FCF7FAFC02460B461046194611
:1037E8004FF00002414BFCF7F1FC02460B46104635
:1037F8001946FDF751F903465A1E13461B019C1A38
:10380800D7E90201FDF748F903462344013B354A4D
:10381800DB001344D3E900014FF00002334BFDF7FE
:10382800F3F80346002B40F083804FF000022F4B43
:10383800D7E90601FCF7CAFC02460B4610461946B2
:1038480002460B46FCF7C2FC02460B4610461946D8
:10385800FDF722F903465A1E13461B019C1AD7E9A5
:103868000201FDF719F903462344013BBB621D4AD7
:10387800BB6ADB001344D3E900014FF000021C4B84
:10388800FDF7C2F80346002B52D0164B03F5306300
:10389800D3E9002310461946FDF7FEF80346013B1D
:1038A8005B007B604FF00002104BD7E90601FCF784
:1038B8008DFC02460B460B487968E131C90001448A
:1038C800C1E900237B680133064AE133DB00D118E4
:1038D800D7E90423C1E90023024B03F53063D3E998
:1038E800000109E048190020484100200000F03F8D
:1038F80000005940700600204FF00002B84BFCF75A
:1039080065FC02460B46B74901F53061C1E9002361
:10391800B54BD3E978014FF00002B14BFCF756FCE8
:1039280002460B46AF48B96AC9000144C1E9002301
:103938004FF00002AA4BD7E90201FCF745FC02460A
:103948000B4610461946FDF7A7F80246FB6A1344D2
:10395800013BA44ADB001344D3E900014FF0000205
:103968009F4BFDF751F80346002B77D14FF000022B
:103978009B4BD7E90401FCF729FC02460B4610468D
:10398800194602460B46FCF721FC02460B464FF04F
:1039980000009649FCF718FC02460B4610461946EB
:1039A800FDF77AF80246FB6A1344013BBB628D4A75
:1039B800BB6ADB001344D3E900014FF000028C4BD3
:1039C800FDF722F80346002B48D0864B03F53063F9
:1039D800D3E9002310461946FDF75EF80346013B7C
:1039E8005B007B607F4A7B68E133DB00D118D7E955
:1039F8000623C1E900237B685C1C4FF00002784B6A
:103A0800D7E90401FCF7E2FB02460B46754804F1CE
:103A1800E101C9000144C1E90023724B03F5306399
:103A2800D3E900014FF000026D4BFCF7CFFB0246D3
:103A38000B466C4901F53061C1E900236A4BD3E9B3
:103A480078014FF00002664BFCF7C0FB02460B46BC
:103A58006448B96AC9000144C1E900234FF0000273
:103A68005F4BD7E90201FCF7B1FB02460B46104653
:103A78001946FDF711F80246FB6A1344013B594AFF
:103A8800DB001344D3E900014FF00002544BFCF76C
:103A9800BBFF0346002B77D14FF00002504BD7E90C
:103AA8000401FCF791FB02460B46104619460246F4
:103AB8000B46FCF78BFB02460B464FF000004B49C8
:103AC800FCF782FB02460B4610461946FCF7E4FF5A
:103AD8000246FB6A1344013BBB62424ABB6ADB00F5
:103AE8001344D3E900014FF00002414BFCF78CFF6F
:103AF8000346002B48D03B4B03F53063D3E9002342
:103B080010461946FCF7C8FF0346013B5B007B6083
:103B1800344A7B68E133DB00D118D7E90623C1E9D1
:103B280000237B685C1C4FF000022D4BD7E9040191
:103B3800FCF74AFB02460B462A4804F1E101C9009A
:103B48000144C1E90023274B03F53063D3E90001A1
:103B58004FF00002224BFCF739FB02460B46214985
:103B680001F53061C1E900231F4BD3E978014FF01B
:103B780000021B4BFCF72AFB02460B461948B96AA0
:103B8800C9000144C1E900230023FB6217E0154A7C
:103B9800FB6AE133DB00134493ED007BB0EE470A88
:103BA800F0EE670A06F030F8034619460E4AFB6A3B
:103BB800134464330A461A70FB6A0133FB62FB6ADA
:103BC800632BE4DD074A92F8203B43F0400382F878
:103BD800203B0023FB62002387F827301FE000BF4B
:103BE8000000F03F48190020700600200000304017
:103BF800000059400F4AFB6A134464331B78002BBA
:103C08000AD10D4A92F8203B6FF3861382F8203BC5
:103C1800012387F8273002E0FB6A0133FB6297F83B
:103C28002730002B02D1FB6A632BE3DD00BF34375A
:103C3800BD4690BD700600204819002090B587B099
:103C480000AF314B93F8203B03F04003DBB2002B6D
:103C58000AD02D4A92F8203B032161F3040382F82D
:103C6800203BFFF765F88EE3274B03F5E163D3E9C3
:103C780000232649C1E96C23234B03F5E263D3E90A
:103C880000232249C1E96E231F4B03F5E263D3E900
:103C9800000102460B46FCF799FA02460B464FF024
:103CA80000001B49FCF790FA02460B461749C1E988
:103CB8007023154B03F5E163D3E9000102460B4677
:103CC800FCF784FA02460B4610461946FCF7E4FE58
:103CD80003465A1E13461B019B1A7B610B4BD3E903
:103CE800702310461946FCF7D7FE02467B69134439
:103CF800013B054ADB001344D3E900230349C1E92A
:103D08006A2300233B612DE048190020700600203B
:103D1800000030403B6901335B00BB603B695B00DE
:103D28007B60BB4ABB68E133DB001344D3E9002363
:103D3800B7487968E131C9000144C1E90023BB688B
:103D480001337A68511CB24AE133DB001344D3E9EA
:103D58000023AF48E131C9000144C1E900233B69B0
:103D680001333B613B69302BD4DDAA4BD3E90023F7
:103D7800A74901F61821C1E90023A64BD3E900237E
:103D8800A34901F52261C1E90023A14B03F5306382
:103D9800D3E900014FF000029F4BFCF715FA0246E9
:103DA8000B469B4901F53061C1E900239B4BD3E9E0
:103DB8006C0102460B46FCF709FA02460B46104610
:103DC80019464FF00002944BFCF7FEF902460B46E9
:103DD80010461946FCF760FE03465A1E13461B019F
:103DE8009C1A8E4BD3E9702310461946FCF754FEF3
:103DF80003462344013B864ADB001344D3E9000110
:103E08004FF00002844BFCF7FFFD0346002B7DD1E9
:103E1800824BD3E96C014FF000027F4BFCF7D4F9D9
:103E280002460B461046194602460B46FCF7CEF9E9
:103E380002460B4610461946FCF72EFE03465A1E4C
:103E480013461B019C1A754BD3E97023104619467B
:103E5800FCF722FE03462344013B3B616C4A3B6965
:103E6800DB001344D3E900014FF000026C4BFCF770
:103E7800CBFD0346002B49D0654B03F53063D3E9EE
:103E8800002310461946FCF707FE0346013B5B007A
:103E9800BB60624BD3E96C014FF000025E4BFCF74C
:103EA80093F902460B465A48B968E131C900014402
:103EB800C1E90023BB68591C584BD3E96E23544809
:103EC800E131C9000144C1E90023514B03F53063D6
:103ED800D3E900014FF000024F4BFCF777F9024697
:103EE8000B464B4901F53061C1E900234B4BD3E93F
:103EF8006A014FF00002484BFCF768F902460B468E
:103F080043483969C9000144C1E90023434BD3E957
:103F18006C0102460B46FCF759F902460B4610465F
:103F280019464FF000023C4BFCF750F902460B468D
:103F380010461946FCF7B0FD03465A1E13461B01EE
:103F48009C1A364BD3E9702310461946FCF7A4FD9A
:103F580003462344013B2E4ADB001344D3E9000106
:103F68004FF000022C4BFCF74FFD0346002B40F0AE
:103F780089802A4BD3E96C014FF00002264BFCF7ED
:103F880025F902460B461046194602460B46FCF731
:103F98001DF902460B4610461946FCF77DFD0346FF
:103FA8005A1E13461B019C1A1C4BD3E9702310465A
:103FB8001946FCF771FD03462344013B3B61144A53
:103FC8003B69DB001344D3E900014FF00002144BB6
:103FD800FCF71AFD0346002B54D00D4B03F5306354
:103FE800D3E9002310461946FCF756FD0346013B6A
:103FF8005B00BB60094BD3E96C014FF00002064B34
:10400800FCF7E4F802460B460148B968E13109E0DB
:1040180048190020484100200000F03F70060020A9
:1040280000005940C9000144C1E90023BB68591C7C
:10403800B04BD3E96E23B048E131C9000144C1E96E
:104048000023AD4B03F53063D3E900014FF00002C4
:10405800AA4BFCF7BBF802460B46A74901F53061AD
:10406800C1E90023A34BD3E96A014FF00002A34B37
:10407800FCF7ACF802460B469F483969C900014471
:10408800C1E900239B4BD3E970014FF000029B4B21
:10409800FCF79AF802460B4610461946FCF7FCFC5A
:1040A80002467B691344013B934ADB001344D3E97E
:1040B80000014FF00002914BFCF7A6FC0346002BD1
:1040C8007AD18C4BD3E96E014FF000028B4BFCF791
:1040D8007DF802460B461046194602460B46FCF789
:1040E80075F802460B464FF000008549FCF76CF85E
:1040F80002460B4610461946FCF7CEFC02467B6981
:104108001344013B3B617C4A3B69DB001344D3E920
:1041180000014FF000027B4BFCF776FC0346002BB6
:104128004AD0754B03F53063D3E90023104619468E
:10413800FCF7B2FC0346013B5B00BB606D4BD3E967
:104148006C236D48B968E131C9000144C1E9002315
:10415800684BD3E96E01BB685C1C4FF00002674BEB
:10416800FCF734F802460B46634804F1E101C90044
:104178000144C1E90023604B03F53063D3E9000132
:104188004FF000025D4BFCF721F802460B465A49F6
:1041980001F53061C1E90023564BD3E96A014FF0BC
:1041A8000002564BFCF712F802460B465248396992
:1041B800C9000144C1E900234E4BD3E970014FF017
:1041C80000024E4BFCF702F802460B461046194611
:1041D800FCF762FC02467B691344013B464ADB005C
:1041E8001344D3E900014FF00002444BFCF70CFCE8
:1041F8000346002B7AD13F4BD3E96E014FF0000202
:104208003E4BFBF7E1FF02460B46104619460246B5
:104218000B46FBF7DBFF02460B464FF00000384920
:10422800FBF7D2FF02460B4610461946FCF734FC52
:1042380002467B691344013B3B612F4A3B69DB0023
:104248001344D3E900014FF000022E4BFCF7DCFBCE
:104258000346002B4AD0284B03F53063D3E90023EB
:1042680010461946FCF718FC0346013B5B00BB608F
:10427800204BD3E96C232048B968E131C9000144D7
:10428800C1E900231B4BD3E96E01BB685C1C4FF0EE
:1042980000021A4BFBF798FF02460B46164804F13A
:1042A800E101C9000144C1E90023134B03F5306360
:1042B800D3E900014FF00002104BFBF787FF0246DD
:1042C8000B460D4901F53061C1E90023094BD3E9DB
:1042D8006A014FF00002094BFBF778FF02460B46D4
:1042E80005483969C9000144C1E9002300237B61FD
:1042F80021E000BF70060020481900200000F03FB0
:104308000000304000005940214A7B69E133DB005E
:10431800134493ED007BB0EE470AF0EE670A05F010
:1043280073FC034619461B4A7B6913440A461A70F4
:104338007B6901337B617B69632BE5DD144A92F865
:10434800203B43F0400382F8203B00237B6100239D
:10435800FB7312E00F4A7B6913441B78002B09D1C9
:104368000B4A92F8203B6FF3861382F8203B012317
:10437800FB7302E07B6901337B61FB7B002B02D17D
:104388007B69632BE6DD00BF1C37BD4690BD00BFCF
:10439800481900207006002090B585B000AF7A4B10
:1043A80003F52C63D3E900014FF00002774BFCF7CB
:1043B80053FB0346002B00F06984734A92F8203BB4
:1043C8000F2161F3040382F8203B00237B60002364
:1043D800BB600023FB606E494FF000024FF0000302
:1043E800C1E948236A494FF000024FF00003C1E9D0
:1043F8004A2367494FF000024FF00003C1E95223F6
:1044080063494FF000024FF00003C1E954235E4BAB
:10441800B3F83E3B1A465C4BB3F83C3BD31A3B60BF
:10442800594BB3F83E3B1A463B68934201D90023E7
:104438003B603B689AB2564BA3F8F221524BB3F853
:104448003A3B1A46504BB3F8383BD31A3B604E4BB5
:10445800B3F83A3B1A463B68934201D900233B60C4
:104468003B689AB24A4BA3F8F621474BB3F8403B56
:104478001A46454BB3F8423BD31A3B60424BB3F85C
:10448800403B1A463B68934201D900233B603B6896
:104498009AB23F4BA3F8F0213B4BB3F8443B1A4682
:1044A800394BB3F8463BD31A3B60374BB3F8443B20
:1044B8001A463B68934201D900233B603B689AB295
:1044C800334BA3F8F421324BB3F8F2311846FBF71B
:1044D800C9FF2D4B03F52E63D3E90023FCF7BCFA83
:1044E8000346002B07D00123BB6029494FF0000287
:1044F800284BC1E94A23264BB3F8F6311846FBF797
:10450800B1FF214B03F6E823D3E90023FCF7A4FA13
:104518000346002B07D001237B601D494FF00002A2
:104528001C4BC1E954231A4BB3F8F0311846FBF77A
:1045380099FF154B03F6D823D3E90023FCF78CFA2F
:104548000346002B07D00123FB6011494FF00002FE
:10455800104BC1E952230C4B03F60833D3E900236F
:1045680010461946FCF798FA0346032B00F2178405
:1045780001A252F823F000BFA145000861470008D6
:1045880021490008E14A00084819002000805140EC
:10459800700600200000F03F6C4B93F8213B03F0BD
:1045A8000403DBB2002B3FD0684B03F67823D3E932
:1045B800000102460B46FBF709FE02460B464FF088
:1045C80000006349FBF700FE02460B4610461946F9
:1045D800FCF762FA04465D4B03F52763D3E9000153
:1045E80002460B46FBF7F2FD02460B4610461946FB
:1045F8004FF00002574BFBF7E7FD02460B4610460B
:104608001946FCF749FA03465A1E13461B019B1A22
:1046180023445C1EB868FBF725FF02460B464B484F
:10462800E1000144C1E90023484B93F8203B23F003
:104638007F03DBB2002B3FD0444B03F67823D3E94A
:10464800000102460B46FBF7C1FD02460B464FF040
:1046580000003F49FBF7B8FD02460B4610461946D5
:10466800FCF71AFA0446394B03F52763D3E900012E
:1046780002460B46FBF7AAFD02460B4610461946B2
:104688004FF00002334BFBF7A1FD02460B461046E4
:104698001946FCF701FA03465A1E13461B019B1ADA
:1046A80023445C1E7868FBF7DDFE02460B4627486C
:1046B800E1000144C1E90023244B93F8213B03F0B6
:1046C8000103DBB2002B00F06383204B03F6782351
:1046D800D3E9000102460B46FBF778FD02460B467C
:1046E800104619464FF000021A4BFBF76FFD0246C1
:1046F8000B464FF000001649FBF766FD02460B46D5
:1047080010461946FCF7C8F90446104B03F5276311
:10471800D3E9000102460B46FBF758FD02460B465B
:1047280010461946FCF7B8F903465A1E13461B01F2
:104738009B1A23445C1EF868FBF794FE02460B465E
:104748000248E1000144C1E9002321E3481900209F
:10475800000030400000F03F6C4B93F8203B23F002
:104768007F03DBB2002B3FD0684B03F67823D3E9F5
:10477800000102460B46FBF729FD02460B464FF0A7
:1047880000006349FBF720FD02460B461046194618
:10479800FCF782F904465D4B03F52763D3E9000172
:1047A80002460B46FBF712FD02460B461046194619
:1047B8004FF00002574BFBF709FD02460B46104627
:1047C8001946FCF769F903465A1E13461B019B1A42
:1047D80023445C1EF868FBF745FE02460B464B482F
:1047E800E1000144C1E90023484B93F8213B03F061
:1047F8000103DBB2002B3FD0444B03F67823D3E907
:10480800000102460B46FBF7E1FC02460B46104648
:1048180019464FF000023F4BFBF7D8FC02460B4607
:104828004FF000003A49FBF7CFFC02460B46104612
:104838001946FCF731F90446344B03F52763D3E9ED
:10484800000102460B46FBF7C1FC02460B46104628
:104858001946FCF721F903465A1E13461B019B1AF9
:1048680023445C1EB868FBF7FDFD02460B4627484B
:10487800E1000144C1E90023244B93F8213B03F0F4
:104888000203DBB2002B00F08582204B03F678236D
:10489800D3E9000102460B46FBF798FC02460B469B
:1048A800104619464FF000021A4BFBF78DFC0246E2
:1048B8000B464FF000001649FBF786FC02460B46F4
:1048C80010461946FCF7E8F80446104B03F5276331
:1048D800D3E9000102460B46FBF778FC02460B467B
:1048E80010461946FCF7D8F803465A1E13461B0112
:1048F8009B1A23445C1E7868FBF7B4FD02460B46FE
:104908000248E1000144C1E9002343E248190020BC
:10491800000030400000F03F6C4B93F8213B03F05F
:104928000203DBB2002B3FD0684B03F67823D3E9B0
:10493800000102460B46FBF749FC02460B461046AF
:1049480019464FF00002624BFBF73EFC02460B464D
:104958004FF000005F49FBF737FC02460B46104654
:104968001946FCF799F80446584B03F52763D3E931
:10497800000102460B46FBF729FC02460B4610468F
:104988001946FCF789F803465A1E13461B019B1A61
:1049980023445C1EF868FBF765FD02460B464B484E
:1049A800E1000144C1E90023484B93F8203B23F080
:1049B8007F03DBB2002B3FD0444B03F67823D3E9C7
:1049C800000102460B46FBF701FC02460B464FF07E
:1049D80000004049FBF7F8FB02460B461046194613
:1049E800FCF75AF80446394B03F52763D3E900016D
:1049F80002460B46FBF7EAFB02460B4610461946F1
:104A08004FF00002324BFBF7E1FB02460B46104623
:104A18001946FCF741F803465A1E13461B019B1A18
:104A280023445C1EB868FBF71DFD02460B46274869
:104A3800E1000144C1E90023244B93F8213B03F032
:104A48000403DBB2002B00F0A781204B03F6782388
:104A5800D3E9000102460B46FBF7B8FB02460B46BA
:104A68004FF000001B49FBF7AFFB02460B46104610
:104A78001946FCF711F80446144B03F52763D3E9EC
:104A8800000102460B46FBF7A1FB02460B46104607
:104A980019464FF000020E4BFBF796FB02460B46F9
:104AA80010461946FBF7F8FF03465A1E13461B012A
:104AB8009B1A23445C1E7868FBF7D4FC02460B461D
:104AC8000248E1000144C1E9002365E148190020DA
:104AD8000000F03F00003040B34B93F8213B03F057
:104AE8000403DBB2002B3FD0AF4B03F67823D3E9A6
:104AF800000102460B46FBF769FB02460B464FF0E6
:104B08000000AA49FBF760FB02460B46104619460F
:104B1800FBF7C2FF0446A44B03F52763D3E9000162
:104B280002460B46FBF752FB02460B461046194657
:104B38004FF000029E4BFBF747FB02460B46104620
:104B48001946FBF7A9FF03465A1E13461B019B1A79
:104B580023445C1EF868FBF785FC02460B46924826
:104B6800E1000144C1E900238F4B93F8213B03F096
:104B78000103DBB2002B3FD08B4B03F67823D3E93C
:104B8800000102460B46FBF721FB02460B46104686
:104B980019464FF00002864BFBF718FB02460B46FE
:104BA8004FF000008149FBF70FFB02460B46104609
:104BB8001946FBF771FF04467B4B03F52763D3E9DE
:104BC800000102460B46FBF701FB02460B46104666
:104BD8001946FBF761FF03465A1E13461B019B1A31
:104BE80023445C1E7868FBF73DFC02460B466E4882
:104BF800E1000144C1E900236B4B93F8213B03F02A
:104C08000203DBB2002B00F0C980674B03F6782360
:104C1800D3E9000102460B46FBF7D8FA02460B46D9
:104C2800104619464FF00002614BFBF7CDFA0246D9
:104C38000B464FF000005D49FBF7C6FA02460B46EB
:104C480010461946FBF728FF0446574B03F5276320
:104C5800D3E9000102460B46FBF7B8FA02460B46B9
:104C680010461946FBF718FF03465A1E13461B0148
:104C78009B1A23445C1EB868FBF7F4FB02460B46FC
:104C88004948E1000144C1E9002387E0494BB3F8F2
:104C98000E21454BB3F83E3B9A4205D3454BB3F83A
:104CA8000E21414BA3F83E2B424BB3F810213E4B4B
:104CB800B3F83A3B9A4205D33E4BB3F810213A4B2E
:104CC800A3F83A2B3B4BB3F80E21374BB3F83C3BD8
:104CD8009A4205D8374BB3F80E21334BA3F83C2B37
:104CE800344BB3F81021304BB3F8383B9A4205D80F
:104CF800304BB3F810212C4BA3F8382B2D4BB3F8BD
:104D08000A21294BB3F8403B9A4205D3294BB3F803
:104D18000A21254BA3F8402B264BB3F81421224B2C
:104D2800B3F8443B9A4205D3224BB3F814211E4BE7
:104D3800A3F8442B1F4BB3F80A211B4BB3F8423B93
:104D48009A4205D81B4BB3F80A21174BA3F8422BFC
:104D5800184BB3F81421144BB3F8463B9A4205D8C4
:104D6800144BB3F81421104BA3F8462B0E4B03F544
:104D78002C63D3E900014FF000020D4BFBF726FA34
:104D880002460B46084901F52C61C1E9002306E0FB
:104D980000BF04E000BF02E000BF00E000BF00BFAA
:104DA8001437BD4690BD00BF4819002000003040B0
:104DB8000000F03F7006002080B584B000AF87ED9A
:104DC800000B38687B6823F000414FF000022F4B3E
:104DD800FBF724FE0346002B48D04FF000022C4B73
:104DE800D7E90001FBF72EFE0346002B13D04FF046
:104DF8000002274BD7E90001FBF7E8F902460B460A
:104E080043EC172BB0EE470AF0EE670A0FF0B4FF39
:104E180087ED020B2EE04FF000021E4BD7E9000190
:104E2800FBF71AFE0346002B0CD04FF000024FF0A0
:104E38000003D7E90001FBF77FFB02460B46C7E9F1
:104E4800022317E04FF00002114BD7E90001FBF7EE
:104E5800BBF902460B4643EC172BB0EE470AF0EEBF
:104E6800670A0FF009FF87ED020B03E0D7E900237B
:104E7800C7E90223D7E9022343EC172BB0EE470A10
:104E8800F0EE670A1037BD4680BD00BF0000304312
:104E98000000E03F0000E0BFB0B586B000AF78602A
:104EA800B34B03F6C823D3E900014FF00002B14B1E
:104EB800FBF7AAFD0346002B00F06481AC4A92F888
:104EC800203B062161F3040382F8203BAA494FF0F6
:104ED80000024FF00003C1E95023A54B03F53161EF
:104EE8004FF000024FF00003C1E90023A04A92F8F6
:104EF800203B6FF3C71382F8203B9D4A92F8213B71
:104F08006FF3820382F8213B994A92F8213B6FF3B1
:104F1800000382F8213B964A92F8213B6FF3410344
:104F280082F8213B924B03F67823D3E9000102462D
:104F38000B46FBF74BF902460B464FF000008F4932
:104F4800FBF742F902460B4610461946FBF7A4FD4B
:104F58000346BB60864B03F52763D3E9000102468D
:104F68000B46FBF733F902460B46104619464FF03D
:104F78000002804BFBF728F902460B4610461946FB
:104F8800FBF78AFD03465A1E13461B019A1ABB6893
:104F98001344013B764ADB001344D3E900014FF088
:104FA8000002774BFBF730FD0346002B0ED0704A0A
:104FB80092F8213B43F0040382F8213B6C4B03F544
:104FC80031614FF000026B4BC1E90023684B03F5D8
:104FD8002763D3E9000102460B46FBF7F7F80246C0
:104FE8000B46104619464FF00002624BFBF7EEF8ED
:104FF80002460B4610461946FBF74EFD03465A1E5D
:1050080013461B019A1ABB681344013B584ADB003C
:105018001344D3E900014FF00002594BFBF7F4FCAD
:105028000346002B0ED0524A92F8203B43F08003EF
:1050380082F8203B4E4B03F531614FF000024D4B97
:10504800C1E900234A4B03F52763D3E9000102466F
:105058000B46FBF7BBF802460B4610461946FBF712
:105068001BFD03465A1E13461B019B1ABB60404B8F
:1050780003F67823D3E9000102460B46FBF7A6F8AE
:1050880002460B46104619464FF00002394BFBF713
:105098009DF802460B464FF000003849FBF794F89C
:1050A80002460B4610461946FBF7F6FC0246BB685B
:1050B8001344013B2E4ADB001344D3E900014FF0AF
:1050C80000022F4BFBF7A0FC0346002B0ED0284A0A
:1050D80092F8213B43F0010382F8213B244B03F56E
:1050E80031614FF00002234BC1E90023204B03F646
:1050F8007823D3E9000102460B46FBF767F802461E
:105108000B46104619464FF000021A4BFBF75CF8A5
:1051180002460B464FF000001849FBF755F80246C7
:105128000B4610461946FBF7B7FC0246BB6813440A
:10513800013B0F4ADB001344D3E900014FF00002A2
:105148000F4BFBF761FC0346002B00D133E1084A03
:1051580092F8213B43F0020382F8213B044B03F50C
:1051680031614FF00002034BC1E9002323E100BF86
:10517800481900200000F03F700600200000304071
:105188000000F0BF7B681B88012B17D1944BB3F844
:105198001221944BA3F8322B914BB3F80C21914B6D
:1051A800A3F82E2B8E4BB3F816218E4BA3F8362B73
:1051B8008B4BB3F808218B4BA3F8342B7B681B88E7
:1051C800022B05D1864BB3F81221864BA3F8302B5E
:1051D8007B681B88032B05D1814BB3F80C21814BCD
:1051E800A3F82C2B7B681B88002B40F0D3807D4BC9
:1051F800B3F82C3B1A467B4BB3F82E3BD31A7B6192
:10520800784BB3F82C3B1A467B69934201D90023AB
:105218007B61744BB3F8303B1A46724BB3F8323BA0
:10522800D31A3B616F4BB3F8303B1A463B69934244
:1052380001D900233B613B691846FBF713F960A3CA
:10524800D3E90023FBF778F902460B4643EC172B0A
:10525800B0EE470AF0EE670AFFF7AEFD53EC102BED
:1052680010461946FBF718FC0346BB60BB68B3F54C
:10527800803F02DABB68FB8102E04FF6FF73FB81D7
:105288007A69FB89D31A1846FBF7ECF84EA3D3E9E1
:105298000023FBF751F902460B4614461D46504BB6
:1052A800D3E950014AA3D3E90023FBF745F90246A5
:1052B8000B4620462946FAF789FF02460B4648491D
:1052C800C1E95023464BB3F808311A46454BB3F8A9
:1052D800343BD31A7B61424BB3F808311A467B69D9
:1052E800934201D900237B613D4BB3F816311A462E
:1052F8003C4BB3F8363BD31A3B61394BB3F8163104
:105308001A463B69934201D900233B613B69184621
:10531800FBF7A8F830A3D3E90023FBF70DF9024601
:105328000B4643EC172BB0EE470AF0EE670AFFF77F
:1053380043FD53EC102B10461946FBF7ADFB034613
:10534800BB60BB68B3F5803F02DABB68FB8102E053
:105358004FF6FF73FB817B6940F2A362934219DC2D
:10536800FB8940F2A362934214D81E4B03F6B8237C
:10537800D3E900014FF000021B4BFBF76DFB03461E
:10538800002B07D0174B03F6C8214FF00002174B2C
:10539800C1E90023134B03F6B823D3E900014FF00A
:1053A8000002124BFAF712FF02460B460D4901F6AE
:1053B800B821C1E9002300BF1837BD46B0BD00BF02
:1053C800666666666666FE3F9A9999999999A93FB5
:1053D800666666666666EE3FCDCCCCCCCCCCFC3F30
:1053E800700600204819002000003E400000F03FF1
:1053F80080B500AF404B93F84A3B132B51D93E4B35
:1054080003F6F823D3E900014FF000024FF0000340
:10541800FBF7FAFA0346002B43D0374A92F8203BB1
:10542800122161F3040382F8203B34494FF0000253
:105438004FF00003C1E94E2330494FF000024FF00E
:105448000003C1E94C232C4B03F52C614FF00002FB
:105458004FF00003C1E90023274B4FF47A62A3F809
:105468003C2B254B0022A3F83E2B234B4FF47A62AA
:10547800A3F8382B204B0022A3F83A2B1E4B4FF4ED
:105488007A62A3F8422B1C4B0022A3F8402B1A4B3C
:105498004FF47A62A3F8462B174B0022A3F8442B4B
:1054A80028E0154B03F6F823D3E900014FF000027A
:1054B800134BFBF7A9FA0346002B00D11AE00E4B59
:1054C80093F84A3B132B15D90B4A92F8203B142129
:1054D80061F3040382F8203B08494FF000024FF0C3
:1054E8000003C1E94E2305494FF000024FF00003C5
:1054F800C1E94C2300BF80BD481900207006002078
:105508000000F03F0000000080B586B000AFF860F2
:10551800B9607A603B60F9684FF00002BD4BC1E9A1
:105528000023BD4B93F8203BC3F30403DBB2013BDC
:105538001A2B00F2888501A252F823F0B155000811
:105548000F56000853560008E3570008FB57000899
:1055580045580008D7580008DF580008E7580008E1
:105568001B590008555900088F590008C7590008E9
:10557800015A00083B5A0008515A0008A95A000865
:10558800E35A0008015B0008315D0008655E000809
:105598007B5E00089B5F0008D95F0008196000085F
:1055A80021600008276000089B4B93F84A3B092BB1
:1055B8001AD9994A92F8203B182161F3040382F81A
:1055C800203B954B002283F84A2B94494FF0000268
:1055D8004FF00003C1E94A2390494FF000028D4B78
:1055E800C1E9522300F08BBD8C494FF00002894B72
:1055F800C1E94A2389494FF000024FF00003C1E98D
:10560800542300F07CBD844B93F84A3B012B40F2B5
:105618004A85814A92F8203B1A2161F3040382F8F3
:10562800203B7D4B002283F84A2B7C494FF0000237
:105638004FF00003C1E94C2378494FF000024FF0C6
:105648000003C1E94E2300F02EBD734B03F52D6313
:10565800D3E900014FF00002714BFBF7D5F903467F
:10566800002B1AD06C4A92F8203B162161F30403F0
:1056780082F8203B684B03F61833D3E900014FF05A
:105688000002644BFAF7A2FD02460B46624901F696
:105698001831C1E9002300F032BD5F4B03F52D63DB
:1056A800D3E900014FF000025E4BFBF7ADF903466A
:1056B800002B19D0584A92F8203B0B2161F30403C0
:1056C80082F8203B544B002283F84A2B53494FF071
:1056D8000002554BC1E94C2350494FF00002534B8F
:1056E800C1E94E2300F00BBD4B4B03F52D63D3E905
:1056F80000014FF000024FF00003FBF785F9034665
:10570800002B19D0444A92F8203B0D2161F3040381
:1057180082F8203B404B002283F84A2B3F494FF048
:105728000002424BC1E94C233C494FF00002404B78
:10573800C1E94E2300F0E3BC374B03F52D63D3E9F1
:1057480000014FF00002334BFBF75EF90346002BD4
:1057580019D0314A92F8203B092161F3040382F8F9
:10576800203B2D4B002283F84A2B2C494FF0000296
:10577800304BC1E94C2329494FF000022D4BC1E9B8
:105788004E2300F0BCBC244B03F52D63D3E9000184
:105798004FF000024FF08043FBF736F90346002B29
:1057A80001D100F0ACBC1C4A92F8203B0E2161F3F9
:1057B800040382F8203B184B002283F84A2B174930
:1057C8004FF000021C4BC1E94C2314494FF0000272
:1057D800164BC1E94E2300F092BC0F4A92F8203BC9
:1057E800052161F3040382F8203BFDF705FA00F078
:1057F80086BC094A92F8203B082161F3040382F829
:10580800203B054A92F8203B6FF3861382F8203B31
:1058180000F075BC0000F03F481900207006002019
:105828000000F0BF00000840000059C000005940C7
:10583800000054C000805640008053C0A84B03F5B8
:105848003163D3E900014FF00002A64BFBF7DCF807
:105858000346002B1FD0A24A92F8203B022161F395
:10586800040382F8203B9E4B002283F84A2B9E4972
:105878004FF000029D4BC1E94E239B494FF00002B7
:105888009B4BC1E94C2398494FF00002954BC1E965
:10589800482300F034BC924B03F53163D3E900018F
:1058A8004FF000024FF00003FBF7AEF80346002B61
:1058B80001D100F024BC8A4A92F8203B032161F30D
:1058C800040382F8203BFDF733FA00F018BCFDF71B
:1058D80027FE00F014BCFEF7B1F900F010BC804BB5
:1058E80093F84A3B092B40F2E0837D4A92F8203B2B
:1058F8001C2161F3040382F8203B794B002283F8D2
:105908004A2B79494FF000024FF00003C1E94823C0
:10591800CBE3734B93F84A3B3E2B40F2C883704A63
:1059280092F8203B1B2161F3040382F8203B6E4967
:105938004FF000024FF00003C1E94E236A494FF0CF
:1059480000024FF00003C1E94C23B0E3644B93F825
:105958004A3B432B40F2C283614A92F8203B1B2109
:1059680061F3040382F8203B5F494FF000024FF0D7
:105978000003C1E94E235C494FF000024FF00003D9
:10598800C1E94C23AAE37B681B78002B00F0A883AD
:10599800534A92F8203B1B2161F3040382F8203B11
:1059A80051494FF000024FF00003C1E94E234E4920
:1059B8004FF000024FF00003C1E94C2390E3484B3D
:1059C80093F84A3B312B40F28D83454A92F8203BAD
:1059D8001B2161F3040382F8203B43494FF0000286
:1059E8004FF00003C1E94E233F494FF000024FF04A
:1059F8000003C1E94C2375E3394B93F84A3B332B39
:105A080040F27283364A92F8203B1B2161F304036B
:105A180082F8203B34494FF000024FF00003C1E9FF
:105A28004E2331494FF000024FF00003C1E94C23E7
:105A38005AE32B4A92F8203B052161F3040382F8CC
:105A4800203BFDF7D9F85AE33B681B78002B00F0A0
:105A58004D83234A92F8203B192161F3040382F80D
:105A6800203B21494FF00002224BC1E94E231E4939
:105A78004FF000021F4BC1E94C23194B03F6B82124
:105A88004FF000024FF00003C1E90023144B03F666
:105A9800C8214FF000024FF00003C1E9002325E3BD
:105AA8000F4B93F84A3B442B40F222830C4A92F85E
:105AB800203B0C2161F3040382F8203B0A494FF094
:105AC80000024FF00003C1E94E2307494FF00002DE
