:020000040800F2
:1000000000800120A1080108F78F0008FD8F00087B
:1000100003900008099000080F90000800000000FD
:100020000000000000000000000000003D63000828
:100030001590000800000000F9620008296200081D
:10004000F1080108F1080108F1080108F1080108A8
:10005000F1080108F1080108F1080108F108010898
:10006000F1080108F1080108F108010823900008CF
:1000700021200008F1080108F1080108F108010831
:10008000319000083F9000084D900008F1080108E9
:10009000F1080108F1080108F1080108F108010858
:1000A000F10801085D900008F1080108F108010855
:1000B000F1080108F1080108F1080108F108010838
:1000C000F1080108F1080108F1080108F108010828
:1000D000F1080108F1080108F1080108F108010818
:1000E000F1080108F1080108F1080108F108010808
:1000F000F1080108F1080108F1080108F1080108F8
:10010000F1080108F1080108F1080108F1080108E7
:10011000F1080108F1080108F1080108F1080108D7
:10012000F1080108F1080108F1080108F1080108C7
:10013000F1080108F1080108F1080108F1080108B7
:10014000F1080108F1080108F108010871900008A0
:10015000F1080108F1080108F1080108F108010897
:10016000F1080108F1080108F1080108F108010887
:10017000F1080108F1080108F10801080000000079
:08018000F1080108F108010873
:1001880010B5054C237833B9044B13B10448AFF3C9
:1001980000800123237010BD200300200000000010
:1001A800200F010808B5034B1BB103490348AFF3FF
:1001B800008008BD0000000024030020200F010873
:1001C80081F0004102E000BF83F0004330B54FEA00
:1001D80041044FEA430594EA050F08BF90EA020F6D
:1001E8001FBF54EA000C55EA020C7FEA645C7FEA00
:1001F800655C00F0E2804FEA5454D4EB5555B8BF23
:100208006D420CDD2C4480EA020281EA030382EA93
:10021800000083EA010180EA020281EA0303362D25
:1002280088BF30BD11F0004F4FEA01314FF4801CF8
:100238004CEA113102D0404261EB410113F0004F0A
:100248004FEA03334CEA133302D0524263EB4303C1
:1002580094EA050F00F0A780A4F10104D5F1200E5F
:100268000DDB02FA0EFC22FA05F2801841F10001BA
:1002780003FA0EF2801843FA05F359410EE0A5F18E
:1002880020050EF1200E012A03FA0EFC28BF4CF0BF
:10029800020C43FA05F3C01851EBE37101F0004575
:1002A80007D54FF0000EDCF1000C7EEB00006EEB82
:1002B8000101B1F5801F1BD3B1F5001F0CD349080C
:1002C8005FEA30004FEA3C0C04F101044FEA445263
:1002D80012F5800F80F09A80BCF1004F08BF5FEAEA
:1002E800500C50F1000041EB045141EA050130BDCA
:1002F8005FEA4C0C404141EB0101013C28BFB1F5DC
:10030800801FE9D291F0000F04BF01460020B1FA26
:1003180081F308BF2033A3F10B03B3F120020CDAF9
:100328000C3208DD02F1140CC2F10C0201FA0CF0D7
:1003380021FA02F10CE002F11402D8BFC2F1200C3C
:1003480001FA02F120FA0CFCDCBF41EA0C019040F2
:10035800E41AA2BF01EB0451294330BD6FEA04043B
:100368001F3C1CDA0C340EDC04F11404C4F1200226
:1003780020FA04F001FA02F340EA030021FA04F338
:1003880045EA030130BDC4F10C04C4F1200220FA8F
:1003980002F001FA04F340EA0300294630BD21FACD
:1003A80004F0294630BD94F0000F83F4801306BF93
:1003B80081F480110134013D4EE77FEA645C18BF87
:1003C8007FEA655C29D094EA050F08BF90EA020F1E
:1003D80005D054EA000C04BF1946104630BD91EA16
:1003E800030F1EBF0021002030BD5FEA545C05D119
:1003F8004000494128BF41F0004130BD14F5800458
:100408003CBF01F5801130BD01F0004545F0FE41CB
:1004180041F470014FF0000030BD7FEA645C1ABF00
:10042800194610467FEA655C1CBF0B46024650EA37
:10043800013406BF52EA033591EA030F41F4002163
:1004480030BD00BF90F0000F04BF0021704730B5E9
:100458004FF4806404F132044FF000054FF00001BE
:1004680050E700BF90F0000F04BF0021704730B57F
:100478004FF4806404F1320410F0004548BF404254
:100488004FF000013EE700BF42004FEAE2014FEAA9
:1004980031014FEA02701FBF12F07F4393F07F4F84
:1004A80081F06051704732F07F4208BF704793F087
:1004B8007F4F04BF41F40021704730B54FF460749A
:1004C80001F0004521F000411CE700BF50EA01029D
:1004D80008BF704730B54FF000050AE050EA010246
:1004E80008BF704730B511F0004502D5404261EBB6
:1004F80041014FF4806404F132045FEA915C3FF4F7
:10050800D8AE4FF003025FEADC0C18BF03325FEA93
:10051800DC0C18BF033202EBDC02C2F1200300FA44
:1005280003FC20FA02F001FA03FE40EA0E0021FA69
:1005380002F11444BDE600BF70B54FF0FF0C4CF457
:10054800E06C1CEA11541DBF1CEA135594EA0C0F09
:1005580095EA0C0F00F0DEF82C4481EA030621EA44
:100568004C5123EA4C5350EA013518BF52EA03357F
:1005780041F4801143F4801338D0A0FB02CE4FF031
:100588000005E1FB02E506F00042E0FB03E54FF061
:100598000006E1FB03569CF0000F18BF4EF0010E59
:1005A800A4F1FF04B6F5007F64F5407404D25FEA55
:1005B8004E0E6D4146EB060642EAC62141EA555108
:1005C8004FEAC52040EA5E504FEACE2EB4F1FD0C4A
:1005D80088BFBCF5E06F1ED8BEF1004F08BF5FEAC8
:1005E800500E50F1000041EB045170BD06F000467A
:1005F80046EA010140EA020081EA0301B4EB5C0427
:10060800C2BFD4EB0C0541EA045170BD41F480111E
:100618004FF0000E013C00F3AB8014F1360FDEBF43
:10062800002001F0004170BDC4F10004203C35DA1F
:100638000C341BDC04F11404C4F1200500FA05F3A2
:1006480020FA04F001FA05F240EA020001F0004243
:1006580021F0004110EBD37021FA04F642EB0601B9
:100668005EEA430E08BF20EAD37070BDC4F10C04E3
:10067800C4F1200500FA04F320FA05F001FA04F2A7
:1006880040EA020001F0004110EBD37041F1000193
:100698005EEA430E08BF20EAD37070BDC4F120059E
:1006A80000FA05F24EEA020E20FA04F301FA05F206
:1006B80043EA020321FA04F001F0004121FA04F2AE
:1006C80020EA020000EBD3705EEA430E08BF20EA7E
:1006D800D37070BD94F0000F0FD101F000464000B8
:1006E80041EB010111F4801F08BF013CF7D041EA3A
:1006F800060195F0000F18BF704703F0004652003E
:1007080043EB030313F4801F08BF013DF7D043EA0E
:100718000603704794EA0C0F0CEA135518BF95EAC4
:100728000C0F0CD050EA410618BF52EA4306D1D14B
:1007380081EA030101F000414FF0000070BD50EA6A
:10074800410606BF1046194652EA430619D094EAF4
:100758000C0F02D150EA013613D195EA0C0F05D1DE
:1007680052EA03361CBF104619460AD181EA030132
:1007780001F0004141F0FE4141F470014FF00000EA
:1007880070BD41F0FE4141F4780170BD70B54FF085
:10079800FF0C4CF4E06C1CEA11541DBF1CEA135505
:1007A80094EA0C0F95EA0C0F00F0A7F8A4EB0504E7
:1007B80081EA030E52EA03354FEA013100F08880DE
:1007C8004FEA03334FF0805545EA131343EA1263A7
:1007D8004FEA022245EA111545EA10654FEA00265C
:1007E8000EF000419D4208BF964244F1FD0404F515
:1007F800407402D25B084FEA3202B61A65EB030571
:100808005B084FEA32024FF480104FF4002CB6EB2D
:10081800020E75EB030E22BFB61A754640EA0C00AD
:100828005B084FEA3202B6EB020E75EB030E22BFED
:10083800B61A754640EA5C005B084FEA3202B6EB2E
:10084800020E75EB030E22BFB61A754640EA9C00ED
:100858005B084FEA3202B6EB020E75EB030E22BFBD
:10086800B61A754640EADC0055EA060E18D04FEA7B
:10087800051545EA16754FEA06164FEAC30343EA1B
:1008880052734FEAC2025FEA1C1CC0D111F4801FE8
:100898000BD141EA00014FF000004FF0004CB6E7E1
:1008A80011F4801F04BF01430020B4F1FD0C88BF80
:1008B800BCF5E06F3FF6AFAEB5EB030C04BFB6EB8B
:1008C800020C5FEA500C50F1000041EB045170BD7E
:1008D8000EF0004E4EEA113114EB5C04C2BFD4EBAB
:1008E8000C0541EA045170BD41F480114FF0000E2F
:1008F800013C90E645EA060E8DE60CEA135594EAAB
:100908000C0F08BF95EA0C0F3FF43BAF94EA0C0FAD
:100918000AD150EA01347FF434AF95EA0C0F7FF422
:1009280025AF104619462CE795EA0C0F06D152EA76
:1009380003353FF4FDAE1046194622E750EA41065A
:1009480018BF52EA43067FF4C5AE50EA41047FF46B
:100958000DAF52EA43057FF4EBAE12E74FF0FF3CD0
:1009680006E000BF4FF0010C02E000BF4FF0010CA1
:100978004DF804CD4FEA410C7FEA6C5C4FEA430C1A
:1009880018BF7FEA6C5C1BD001B050EA410C0CBF69
:1009980052EA430C91EA030F02BF90EA020F0020CB
:1009A800704710F1000F91EA030F58BF994208BF32
:1009B80090422CBFD8176FEAE37040F001007047EF
:1009C8004FEA410C7FEA6C5C02D150EA013C07D146
:1009D8004FEA430C7FEA6C5CD6D152EA033CD3D091
:1009E8005DF8040B704700BF8446104662468C468B
:1009F8001946634600E000BF01B5FFF7B7FF0028BE
:100A080048BF10F1000F01BD4DF808EDFFF7F4FFE6
:100A18000CBF012000205DF808FB00BF4DF808ED71
:100A2800FFF7EAFF34BF012000205DF808FB00BF94
:100A38004DF808EDFFF7E0FF94BF012000205DF8B6
:100A480008FB00BF4DF808EDFFF7CEFF94BF01206B
:100A580000205DF808FB00BF4DF808EDFFF7C4FF64
:100A680034BF012000205DF808FB00BF4FEA410CAD
:100A78007FEA6C5C02D150EA013C0AD14FEA430C90
:100A88007FEA6C5C02D152EA033C02D14FF00000CD
:100A980070474FF0010070474FEA410212F500120B
:100AA80015D211D56FF47873B3EB625212D94FEAAD
:100AB800C12343F0004343EA505311F0004F23FA97
:100AC80002F018BF404270474FF00000704750EAEC
:100AD800013005D111F0004008BF6FF000407047A9
:100AE8004FF00000704700BF4A0011D212F5001203
:100AF80011D20DD56FF47873B3EB62520ED44FEA6E
:100B0800C12343F0004343EA505323FA02F07047ED
:100B18004FF00000704750EA013002D14FF0FF302B
:100B280070474FF0000070474FEA4102B2F1E043CE
:100B380024BFB3F5001CDCF1FE5C0DD901F0004CBC
:100B48004FEAC0024CEA5070B2F1004F40EB83000C
:100B580008BF20F00100704711F0804F21D113F138
:100B68003872BCBF01F00040704741F480114FEA71
:100B78005252C2F11802C2F1200C10FA0CF320FAFA
:100B880002F018BF40F001004FEAC1234FEAD32317
:100B980003FA0CFC40EA0C0023FA02F34FEA430381
:100BA800CCE77FEA625307D150EA01331EBF4FF00A
:100BB800FE4040F44000704701F0004040F0FE4025
:100BC80040F40000704700BF80B485B000AF786083
:100BD8007B681B6803F06003FB60FB68002B04D193
:100BE8007B681B6803F01003FB60FB68184614372A
:100BF800BD465DF8047B704780B483B000AF786071
:100C08007B681B6B18460C37BD465DF8047B704744
:100C180080B483B000AF786039607B681A6A3B683B
:100C28001A437B681A6200BF0C37BD465DF8047B27
:100C3800704780B483B000AF786039607B681A6A07
:100C48003B68DB431A407B681A6200BF0C37BD461D
:100C58005DF8047B704780B483B000AF78607B6830
:100C68005B6C43F400427B685A6400BF0C37BD4696
:100C78005DF8047B704780B483B000AF78607B6810
:100C8800DB6843F001027B68DA6000BF0C37BD46C1
:100C98005DF8047B704780B483B000AF78607B68F0
:100CA800DB6823F001027B68DA6000BF0C37BD46C1
:100CB8005DF8047B704780B483B000AF78607B68D0
:100CC800DB6803F00103012B01D1012300E00023BD
:100CD80018460C37BD465DF8047B704780B483B076
:100CE80000AF78607B68DB6843F002027B68DA60FB
:100CF80000BF0C37BD465DF8047B704780B483B0F5
:100D080000AF78607B68DB6823F002027B68DA60FA
:100D180000BF0C37BD465DF8047B704780B483B0D4
:100D280000AF78607B68DB6803F00203022B01D117
:100D3800012300E0002318460C37BD465DF8047B0C
:100D4800704780B483B000AF78607B68DB6843F09D
:100D580004027B68DA6000BF0C37BD465DF8047B8F
:100D6800704780B483B000AF78607B68DB6823F09D
:100D780004027B68DA6000BF0C37BD465DF8047B6F
:100D8800704780B483B000AF78607B68DB6803F09D
:100D98000403042B01D1012300E0002318460C377B
:100DA800BD465DF8047B704780B483B000AF7860BF
:100DB8007B68DB6843F008027B68DA6000BF0C37A9
:100DC800BD465DF8047B704780B483B000AF78609F
:100DD8007B68DB6823F008027B68DA6000BF0C37A9
:100DE800BD465DF8047B704780B483B000AF78607F
:100DF8007B68DB6803F00803082B01D1012300E0BE
:100E0800002318460C37BD465DF8047B704780B454
:100E180083B000AF78607B68DB6843F010027B68C2
:100E2800DA6000BF0C37BD465DF8047B704780B4BC
:100E380083B000AF78607B68DB6823F010027B68C2
:100E4800DA6000BF0C37BD465DF8047B704780B49C
:100E580083B000AF78607B68DB6803F01003102B69
:100E680001D1012300E0002318460C37BD465DF888
:100E7800047B704780B483B000AF78607B68DB6820
:100E880043F020027B68DA6000BF0C37BD465DF88E
:100E9800047B704780B483B000AF78607B68DB6800
:100EA80023F020027B68DA6000BF0C37BD465DF88E
:100EB800047B704780B483B000AF78607B68DB68E0
:100EC80003F02003202B01D1012300E00023184662
:100ED8000C37BD465DF8047B704780B483B000AF23
:100EE80078607B68DB6843F040027B68DA6000BFAB
:100EF8000C37BD465DF8047B704780B483B000AF03
:100F080078607B68DB6823F040027B68DA6000BFAA
:100F18000C37BD465DF8047B704780B483B000AFE2
:100F280078607B68DB6803F04003402B01D1012324
:100F380000E0002318460C37BD465DF8047B704777
:100F480080B483B000AF78607B68DB6843F08002D0
:100F58007B68DA6000BF0C37BD465DF8047B7047DC
:100F680080B483B000AF78607B68DB6823F08002D0
:100F78007B68DA6000BF0C37BD465DF8047B7047BC
:100F880080B483B000AF78607B68DB6803F08003CF
:100F9800802B01D1012300E0002318460C37BD4601
:100FA8005DF8047B704780B582B000AF78600B466F
:100FB8007B807B8803F00103002B0CD07B681B68C7
:100FC8001846FFF7AAFF0346012B04D07B681B686D
:100FD8001846FFF782FF7B8803F00203002B0CD032
:100FE8007B681B681846FFF799FE0346012B04D05F
:100FF8007B681B681846FFF771FE7B8803F00403C3
:10100800002B0CD07B681B681846FFF7BAFE034616
:10101800012B04D07B681B681846FFF792FE7B887B
:1010280003F00803002B0CD07B681B681846FFF7F9
:10103800DBFE0346012B04D07B681B681846FFF7CC
:10104800B3FE7B8803F01003002B0CD07B681B6871
:101058001846FFF7FCFE0346012B04D07B681B688B
:101068001846FFF7D4FE7B8803F02003002B0CD032
:101078007B681B681846FFF71EFE0346012B04D049
:101088007B681B681846FFF7F6FD7B8803F0400372
:10109800002B0CD07B681B681846FFF771FF0346CE
:1010A800012B04D07B681B681846FFF749FF7B8833
:1010B80003F08003002B0CD07B681B681846FFF7F1
:1010C800F9FE0346012B04D07B681B681846FFF71E
:1010D800D1FE00BF0837BD4680BD80B582B000AFE5
:1010E80078600B467B807B8803F00103002B0CD0D3
:1010F8007B681B681846FFF710FF0346012B04D1D5
:101108007B681B681846FFF7F8FE7B8803F002032C
:10111800002B0CD07B681B681846FFF7FFFD0346C1
:10112800012B04D17B681B681846FFF7E7FD7B8815
:1011380003F00403002B0CD07B681B681846FFF7EC
:1011480020FE0346012B04D17B681B681846FFF775
:1011580008FE7B8803F00803002B0CD07B681B6813
:101168001846FFF741FE0346012B04D17B681B6834
:101178001846FFF729FE7B8803F01003002B0CD0DC
:101188007B681B681846FFF762FE0346012B04D1F3
:101198007B681B681846FFF74AFE7B8803F020032C
:1011A800002B0CD07B681B681846FFF784FD0346AC
:1011B800012B04D07B681B681846FFF76CFD7B8801
:1011C80003F04003002B0CD07B681B681846FFF720
:1011D800D7FE0346012B04D17B681B681846FFF72E
:1011E800BFFE7B8803F08003002B0CD07B681B6854
:1011F8001846FFF75FFE0346012B04D17B681B6886
:101208001846FFF747FE00BF0837BD4680BD0000FF
:1012180080B582B000AF78600B46FB70FB78022B7C
:1012280006D17B681B6801211846FFF7F1FC31E005
:101238007B681B68194A934213D07B681B68184A5D
:1012480093420ED07B681B68164A934209D07B688C
:101258001B68154A934204D07B681B68134A934263
:1012680018D1FB78032B06D17B681B68042118462C
:10127800FFF7CEFC0EE0FB78042B0BD17B681B68D4
:1012880001211846FFF7C4FC7B681B680421184637
:10129800FFF7BEFC00BF0837BD4680BD002C0140EB
:1012A8000034014000400140004401400048014032
:1012B80080B582B000AF78600B46FB70FB78022BDC
:1012C80006D17B681B6801211846FFF7B2FC31E0A4
:1012D8007B681B68194A934213D07B681B68184ABD
:1012E80093420ED07B681B68164A934209D07B68EC
:1012F8001B68154A934204D07B681B68134A9342C3
:1013080018D1FB78032B06D17B681B68042118468B
:10131800FFF78FFC0EE0FB78042B0BD17B681B6872
:1013280001211846FFF785FC7B681B6804211846D5
:10133800FFF77FFC00BF0837BD4680BD002C014089
:101348000034014000400140004401400048014091
:1013580080B582B000AF78600B46FB70FB78022B3B
:1013680006D17B681B6810211846FFF751FC31E055
:101378007B681B68194A934213D07B681B68184A1C
:1013880093420ED07B681B68164A934209D07B684B
:101398001B68154A934204D07B681B68134A934222
:1013A80018D1FB78032B06D17B681B6840211846AF
:1013B800FFF72EFC0EE0FB78042B0BD17B681B6833
:1013C80010211846FFF724FC7B681B68402118464B
:1013D800FFF71EFC00BF0837BD4680BD002C01404A
:1013E80000340140004001400044014000480140F1
:1013F80080B582B000AF78600B46FB70FB78022B9B
:1014080006D17B681B6810211846FFF712FC31E0F3
:101418007B681B68194A934213D07B681B68184A7B
:1014280093420ED07B681B68164A934209D07B68AA
:101438001B68154A934204D07B681B68134A934281
:1014480018D1FB78032B06D17B681B68402118460E
:10145800FFF7EFFB0EE0FB78042B0BD17B681B68D2
:1014680010211846FFF7E5FB7B681B6840211846EA
:10147800FFF7DFFB00BF0837BD4680BD002C0140E9
:101488000034014000400140004401400048014050
:1014980080B582B000AF78600B46FB70FB78022BFA
:1014A80007D17B681B684FF480711846FFF7B0FBC3
:1014B80034E07B681B681B4A934213D07B681B6827
:1014C800194A93420ED07B681B68184A934209D088
:1014D8007B681B68164A934204D07B681B68154AD0
:1014E80093421BD1FB78032B07D17B681B684FF411
:1014F80080611846FFF78CFB10E0FB78042B0DD1B8
:101508007B681B684FF480711846FFF781FB7B6886
:101518001B684FF480611846FFF77AFB00BF083755
:10152800BD4680BD002C0140003401400040014010
:10153800004401400048014080B582B000AF7860A7
:101548000B46FB70FB78022B07D17B681B684FF4B6
:1015580080711846FFF76DFB34E07B681B681B4AF7
:10156800934213D07B681B68194A93420ED07B685C
:101578001B68184A934209D07B681B68164A934235
:1015880004D07B681B68154A93421BD1FB78032B58
:1015980007D17B681B684FF480611846FFF749FB49
:1015A80010E0FB78042B0DD17B681B684FF4807129
:1015B8001846FFF73EFB7B681B684FF480611846AE
:1015C800FFF737FB00BF0837BD4680BD002C014040
:1015D80000340140004001400044014000480140FF
:1015E80080B582B000AF78600B46FB70FB78022BA9
:1015F80006D17B681B684FF480511846FFF708FB3B
:1016080000BF0837BD4680BD80B582B000AF7860A6
:101618000B46FB70FB78022B06D17B681B684FF4E6
:1016280080511846FFF705FB00BF0837BD4680BD4F
:1016380080B584B000AF78600023FB607B681B68CE
:10164800304A934201D1304BFB607B681A68FB68D3
:101658001A60FB681B681846FFF7B6FAB860BB68E3
:10166800002B06D0BB68102B03D0FB6801221A712F
:1016780002E0FB6800221A71FB681B68234A934248
:1016880013D0FB681B68224A93420ED0FB681B6884
:10169800204A934209D0FB681B681F4A934204D032
:1016A800FB681B681D4A934204D1FB681B681846F7
:1016B800FFF7D1FAFB681B68144A934213D0FB6802
:1016C8001B68134A93420ED0FB681B68114A934269
:1016D80009D0FB681B68104A934204D0FB681B685A
:1016E8000E4A934208D17B681B681846FFF784FAB4
:1016F8000346DAB2FB685A71FB6818461037BD46D4
:1017080080BD00BF0004004080050020002C01407F
:1017180000340140004001400044014000480140BD
:1017280080B485B000AF786039603B68002B03D186
:101738007B684033FB6001E0044BFB60FB681846A4
:101748001437BD465DF8047B704700BF0C03045096
:1017580080B483B000AF78607B68DB6803F44063D3
:10176800002B01D1012300E0002318460C37BD46A9
:101778005DF8047B704780B483B000AF786039604F
:101788007B681B6B23F00F023B681A437B681A6364
:1017980000BF0C37BD465DF8047B704780B483B04A
:1017A80000AF786039607B68DB6823F003023B6830
:1017B8001A437B68DA6000BF0C37BD465DF8047BCE
:1017C800704780B483B000AF78607B68DB6C03F04F
:1017D800C003002B01D1012300E0002318460C3779
:1017E800BD465DF8047B704780B483B000AF786075
:1017F8007B689B6823F0004323F03F0343F001021A
:101808007B689A6000BF0C37BD465DF8047B704763
:1018180080B483B000AF78607B689B6823F0004396
:1018280023F03F0343F002027B689A6000BF0C3745
:10183800BD465DF8047B704780B483B000AF786024
:101848007B689B6803F00103012B01D1012300E0B1
:10185800002318460C37BD465DF8047B704780B4FA
:1018680083B000AF786039607B689B6823F04043A1
:1018780023F03F033A6802F08042134343F00042EA
:101888007B689A6000BF0C37BD465DF8047B7047E3
:1018980080B483B000AF78607B689B6803F0004336
:1018A800B3F1004F01D1012300E0002318460C37A3
:1018B800BD465DF8047B704780B483B000AF7860A4
:1018C8007B689B6823F0004323F03F0343F0040246
:1018D8007B689A6000BF0C37BD465DF8047B704793
:1018E80080B483B000AF78607B689B6823F00043C6
:1018F80023F03F0343F008027B689A6000BF0C376F
:10190800BD465DF8047B704780B483B000AF786053
:101918007B681B6803F00803082B01D1012300E052
:10192800002318460C37BD465DF8047B704780B429
:1019380083B000AF78607B681B6803F01003102B3E
:1019480001D1012300E0002318460C37BD465DF89D
:10195800047B704780B483B000AF78607B68102246
:101968001A6000BF0C37BD465DF8047B704780B431
:1019780083B000AF78607B685B6843F008027B68DF
:101988005A6000BF0C37BD465DF8047B704780B4D1
:1019980083B000AF78607B685B6843F040027B6887
:1019A8005A6000BF0C37BD465DF8047B704780B4B1
:1019B80083B000AF78607B685B6823F008027B68BF
:1019C8005A6000BF0C37BD465DF8047B704780B491
:1019D80083B000AF78607B685B6823F010027B6897
:1019E8005A6000BF0C37BD465DF8047B704780B471
:1019F80083B000AF78607B685B6823F040027B6847
:101A08005A6000BF0C37BD465DF8047B704780B450
:101A180083B000AF78607B685B6823F080027B68E6
:101A28005A6000BF0C37BD465DF8047B704780B430
:101A380083B000AF78607B685B6803F01003102BFD
:101A480001D1012300E0002318460C37BD465DF89C
:101A5800047B704780B483B000AF78607B685B68B4
:101A680003F08003802B01D1012300E000231846F6
:101A78000C37BD465DF8047B7047000080B485B024
:101A880000AF786039607B68FB600C4A3B681344A0
:101A98001B781A46FB6813441B6808493A680A44CD
:101AA80012781146FA680A4443F00103136000BF34
:101AB8001437BD465DF8047B704700BF8C0F0108E2
:101AC80080B485B000AF786039607B68FB600C4AF1
:101AD8003B6813441B781A46FB6813441B68084983
:101AE8003A680A4412781146FA680A4423F0010356
:101AF800136000BF1437BD465DF8047B704700BF14
:101B08008C0F010880B485B000AF786039607B68BD
:101B1800FB60084A3B6813441B781A46FB68134469
:101B28001B6803F0200318461437BD465DF8047B94
:101B3800704700BF8C0F010880B487B000AFF86011
:101B4800B9607A60FB687B610D4ABB6813441B78F7
:101B58001A467B6913445B681B0C1B040849BA6866
:101B68000A44127811467A690A4411467A6813437E
:101B78004B6000BF1C37BD465DF8047B704700BF53
:101B88008C0F010880B487B000AFF860B9607A6044
:101B98003B60FB687B613B6A102B14D1174ABB681A
:101BA80013441B781A467B6913441A467B68D36032
:101BB800124ABB6813441B781A467B6913441A46B9
:101BC8003B68936013E00D4ABB6813441B781A46C0
:101BD8007B6913441A467B689360084ABB681344C0
:101BE8001B781A467B6913441A463B68D36000BFCA
:101BF8001C37BD465DF8047B704700BF8C0F010899
:101C080080B487B000AFF860B9607A60FB687B6128
:101C1800074ABB6813441B781A467B6913441A4663
:101C28007B68936000BF1C37BD465DF8047B704736
:101C38008C0F010880B483B000AF78607B681B68A4
:101C480003F02003202B01D1012300E000231846D4
:101C58000C37BD465DF8047B704780B483B000AF95
:101C680078607B6820225A6000BF0C37BD465DF85B
:101C7800047B704780B485B000AF786039607B68BA
:101C8800FB600C4A3B6813441B781A46FB681344F4
:101C98001B6808493A680A4412781146FA680A44E7
:101CA80043F00203136000BF1437BD465DF8047BA0
:101CB800704700BF8C0F010880B485B000AF786012
:101CC80039607B68FB600C4A3B6813441B781A46F2
:101CD800FB6813441B6808493A680A44127811469D
:101CE800FA680A4443F00803136000BF1437BD467E
:101CF8005DF8047B704700BF8C0F010880B485B085
:101D080000AF786039607B68FB600C4A3B6813441D
:101D18001B781A46FB6813441B6808493A680A444A
:101D280012781146FA680A4423F00203136000BFD0
:101D38001437BD465DF8047B704700BF8C0F01085F
:101D480080B485B000AF786039607B68FB600C4A6E
:101D58003B6813441B781A46FB6813441B68084900
:101D68003A680A4412781146FA680A4423F00403D0
:101D7800136000BF1437BD465DF8047B704700BF91
:101D88008C0F010880B485B000AF786039607B683B
:101D9800FB600C4A3B6813441B781A46FB681344E3
:101DA8001B6808493A680A4412781146FA680A44D6
:101DB80023F00803136000BF1437BD465DF8047BA9
:101DC800704700BF8C0F010880B485B000AF786001
:101DD80039607B68FB600A4A3B6813441B781A46E3
:101DE800FB6813441B6803F00203022B01D1012393
:101DF80000E0002318461437BD465DF8047B7047A1
:101E08008C0F010880B584B000AF78600123FB8196
:101E18007B681B691846FFF79BFC0346002B2FD0F5
:101E28007B685B7ADBB2022B11D07B685B7ADBB212
:101E3800042B0CD07B685B7ADBB2082B07D07B685D
:101E48001B691846FFF760FD0346012B18D1786817
:101E580000F0F2F80346002B12D17B685B7ADBB204
:101E6800082B03D17B6801225A7202E07B6820228A
:101E78005A727B681B691846FFF71EFD0023FB8119
:101E8800FB8918461037BD4680BD80B586B002AFC5
:101E9800F860B9607A603B600021F868FFF740FCA1
:101EA80003461A467968B868FFF7AAFE0021F86861
:101EB800FFF736FC02463B68002100917968B86854
:101EC800FFF760FEBA697968B868FFF735FE796888
:101ED800B868FFF7CFFE7968B868FFF7EDFE796854
:101EE800B868FFF7CBFD00BF1037BD4680BD80B591
:101EF80084B000AFF860B9607A607968B868FFF7B5
:101F0800DFFD7968B868FFF71BFF7968B868FFF7E5
:101F180039FF7968B868FFF7F1FE00227968B86878
:101F2800FFF70AFE00BF1037BD4680BD80B582B0FE
:101F380000AF786039607B68DB79012B0DD17B6855
:101F4800DA687B681B685B00D1187B681B685B00DC
:101F58001A4638680EF0CAFF08E07B68D9687B68C3
:101F68001B685B001A4638680EF0C0FF00BF0837D0
:101F7800BD4680BD80B586B000AFF860B9607A60B4
:101F8800FB685A69FB689B7919461046FFF71CFFE6
:101F98000346DBB2012B37D1FB685A69BB68104690
:101FA80098470346012B2FD1FB6804225A72FB681D
:101FB8005A697B6810469847FB685A69FB689B79A1
:101FC80019461046FFF79EFD0346002B19D1FB6802
:101FD8005A69FB689B7919461046FFF771FDFB6843
:101FE8005869FB689B791946FB681B681A46FFF716
:101FF800A3FDFB685A69FB689B7919461046FFF7F1
:102008003DFD0123FB7501E00023FB75FB7D1846B0
:102018001837BD4680BD000080B500AF034A0449AB
:102028000448FFF7A7FF00BF80BD00BF631C00087E
:102038003D1C00080C06002080B582B000AF786017
:102048007B681B691846FFF772FC0346DBB2012B5D
:1020580007D17B681B691846FFF77CFC7B68102258
:102068005A727B685B7ADBB2102B0CBF012300230A
:10207800DBB218460837BD4680BD80B582B000AFD8
:1020880078600B46FB70FB78012B0DD17B681B69D0
:102098001846FFF75DFB0346012B12D07B681B69CE
:1020A8001846FFF709FC0CE07B681B691846FFF728
:1020B80088FB0346012B04D07B681B691846FFF791
:1020C8000FFC00BF0837BD4680BD000090B589B041
:1020D80002AFF860084611461A4603467B810B4654
:1020E8003B811346FB8000237B61FB681B693C4AEC
:1020F800934201D13B4B7B617B69002B6BD0FB6822
:102108001A697B691A617B690022DA71FB88012BE5
:1021180061D03B89002B47D07B695B7ADBB2082B07
:1021280042D0FB68DA687B69DA60FB681A687B6909
:102138001A60FB685A697B695A61FB689A797B69FE
:102148009A71FB681A797B691A717B691B69B96A8C
:102158001846FFF710FB7B89012B21D07B89042BC4
:1021680016D17B691B6903211846FFF717FB7B69AA
:1021780018697B6959697B699B791C467B69DA68B0
:102188007B691B68009313462246FFF77EFE07E033
:102198007B89022B04D17B691B691846FFF7E7FB93
:1021A8007B6908225A7216E03B89002B13D17B69A0
:1021B8009B7ADBB2082B0ED0FB685A797B695A717F
:1021C8007B89022B04D17B691B691846FFF7DFFB6B
:1021D8007B6908229A727B6918461C37BD4690BDF8
:1021E800000104500C06002080B582B000AF786072
:1021F8007B681B691846FFF71FFB0346002B04D1B9
:102208007B681B691846FFF7EFFA00BF0837BD4621
:1022180080BD80B586B000AFF8600B467A607B81E0
:102228000123FB82FB681B69002B46D07B89012BAD
:1022380005D1F868FFF7E6FD0346FB823DE07B89A0
:10224800042B1FD1FB681B691846FFF781FA034668
:10225800002B32D0FB6801225A72FB681B691846B2
:10226800FFF72AFB00BFFB685B7ADBB2042BFAD1CD
:102278007968F868FFF75AFEFB6808225A7200234B
:10228800FB821AE07B89022B17D1FB685B7ADBB2F1
:10229800202B09D0FB685B7ADBB2042B04D0FB68E7
:1022A8005B7ADBB2102B08D1FB6808225A72796876
:1022B800F868FFF73BFE0023FB82FB8A18461837B5
:1022C800BD4680BD80B582B000AF78600B467B808C
:1022D80013463B807B681B691846FFF7ADFA034637
:1022E800002B04D07B681B691846FFF791FA7B68BE
:1022F8001B691846FFF7AEFB0346002B04D07B682A
:102308001B691846FFF783FB7B681B691846FFF7B4
:102318008EFB0346002B04D07B681B691846FFF729
:1023280056FB3B88002B35D07B680022DA607B683F
:1023380000221A607B6800225A617B6800229A7129
:102348007B6800221A717B681A697B681B791946B9
:102358001046FFF710FA7B88012B26D07B88022BCA
:1023680005D17B681B691846FFF721FB1DE07B88B8
:10237800042B1AD17B6818697B6859697B689B793B
:102388001A46FFF7B4FD7B681B6900211846FFF762
:1023980005FA0AE07B6800225A717B88022B04D177
:1023A8007B681B691846FFF722FB00BF0837BD464C
:1023B80080BD000080B584B000AF78600B46FB702C
:1023C8007B681B691846FFF737FA0346FB7397F9D2
:1023D8000F30012B04D17B681B691846FFF718FAE8
:1023E800FB78002B0FD17B681B697F211846FFF70C
:1023F80036FA00BF7B681B691846FFF749FA03469F
:10240800012BF7D040E0FB78012B0FD17B681B69CB
:102418002C491846FFF723FA00BF7B681B6918464A
:10242800FFF736FA0346012BF7D02DE07B681B69CE
:102438007F211846FFF713FA00BF7B681B6918460F
:10244800FFF726FA0346012BF7D00023BB8107E0EC
:1024580000BFBB891BB29BB201339BB21BB2BB81CD
:10246800BB891BB29BB2032BF2D97B681B69154948
:102478001846FFF7F4F900BF7B681B691846FFF799
:1024880007FA0346012BF7D00023BB8107E000BF02
:10249800BB891BB29BB201339BB21BB2BB81BB8908
:1024A8001BB29BB2032BF2D997F90F30012B04D141
:1024B8007B681B691846FFF797F900BF1037BD46C0
:1024C80080BD00BF00007F4080B483B000AF78605B
:1024D8007B681B6843F001027B681A6000BF0C37F9
:1024E800BD465DF8047B704780B483B000AF786068
:1024F8007B681B6823F001027B681A6000BF0C37F9
:10250800BD465DF8047B704780B483B000AF786047
:1025180039607B681B6823F004023B681A437B68B8
:102528001A6000BF0C37BD465DF8047B704780B465
:1025380083B000AF78607B681B6803F0040318461B
:102548000C37BD465DF8047B704780B483B000AF9C
:1025580078607B68DB6A18460C37BD465DF8047BFB
:10256800704780B483B000AF786039607B683A68A0
:102578001A6300BF0C37BD465DF8047B704780B412
:1025880083B000AF786039607B683A685A6300BFEF
:102598000C37BD465DF8047B704780B483B000AF4C
:1025A800786039607B683A689A6300BF0C37BD462B
:1025B8005DF8047B704780B483B000AF7860396001
:1025C8007B683A68DA6300BF0C37BD465DF8047B68
:1025D800704780B483B000AF786039607B683A6830
:1025E8001A6400BF0C37BD465DF8047B704780B4A1
:1025F80083B000AF78607B685B6B18460C37BD46CC
:102608005DF8047B704780B483B000AF78607B6866
:102618009B6B18460C37BD465DF8047B704780B449
:1026280083B000AF78607B68DB6B18460C37BD461B
:102638005DF8047B704780B483B000AF78607B6836
:102648001B6C18460C37BD465DF8047B704780B498
:1026580083B000AF78607B685B6943F001027B68F8
:102668005A6100BF0C37BD465DF8047B704780B4E3
:1026780083B000AF78607B681B6918460C37BD468D
:102688005DF8047B704780B483B000AF7860396030
:102698007B683A689A6100BF0C37BD465DF8047BD9
:1026A800704780B483B000AF786039607B683A685F
:1026B8009A6200BF0C37BD465DF8047B7047000086
:1026C80080B584B000AF786087ED000AD7ED007A56
:1026D800F5EEC07AF1EE10FA03D54FF000033B6037
:1026E8000AE0D7ED007A9FED167AF4EEC77AF1EE9C
:1026F80010FA01DD134B3B607B681B681846FFF737
:1027080024FFF8607B681B79002B0CBF0123002392
:10271800DBB21A46FB68134407EE903AB8EE677AC4
:10272800D7ED007A27EE277ADFED056AC7EE267A1D
:10273800FCEEE77A17EE903A18461037BD4680BD92
:102748000000C8420000C84280B582B000AF78607F
:1027580039607B681B681846FFF749FF02463B68EB
:10276800934205D07B681B6839681846FFF707FF56
:1027780000BF0837BD4680BD80B582B000AF786025
:1027880039607B681B681846FFF73DFF02463B68C7
:10279800934205D07B681B6839681846FFF7FDFE31
:1027A80000BF0837BD4680BD80B582B000AF7860F5
:1027B80039607B681B681846FFF731FF02463B68A3
:1027C800934205D07B681B6839681846FFF7F3FE0B
:1027D80000BF0837BD4680BD80B582B000AF7860C5
:1027E80039607B681B681846FFF725FF02463B687F
:1027F800934205D07B681B6839681846FFF7E9FEE5
:1028080000BF0837BD4680BD80B584B000AF786092
:1028180087ED000A97ED000A7868FFF751FFF86026
:10282800F9687868FFF790FF00BF1037BD4680BD94
:1028380080B584B000AF786087ED000A97ED000A94
:102848007868FFF73DFFF860F9687868FFF794FF4C
:1028580000BF1037BD4680BD80B584B000AF78603A
:1028680087ED000A97ED000A7868FFF729FFF860FE
:10287800F9687868FFF798FF00BF1037BD4680BD3C
:1028880080B584B000AF786087ED000A97ED000A44
:102898007868FFF715FFF860F9687868FFF79CFF1C
:1028A80000BF1037BD4680BD80B485B000AF7860EA
:1028B8007B681B689A68074B1340FB60FB68062B14
:1028C8000CBF01230023DBB218461437BD465DF860
:1028D800047B70470700010080B584B000AF7860C2
:1028E8000B46FB707B681B681846FFF720FEF860F4
:1028F800FB78002B1ED07B681B68324A934213D0AA
:102908007B681B68304A93420ED07B681B682F4A4D
:10291800934209D07B681B682D4A934204D07B6898
:102928001B682C4A934205D17B681B680021184616
:10293800FFF717FEFB68042B11D07B681B68042186
:102948001846FFF7E1FD7B681B681846FFF77FFE16
:102958007B681B68F9681846FFF7D6FD04E07B68BA
:102968001B681846FFF773FE7B681B681846FFF75D
:10297800ABFDFB78002B20D07B681B68114A934283
:1029880013D07B681B68104A93420ED07B681B6883
:102998000E4A934209D07B681B680D4A934204D0C3
:1029A8007B681B680B4A934207D17B681A687B686F
:1029B8005B7919461046FFF7D4FD00BF1037BD46B6
:1029C80080BD00BF002C01400034014000400140A0
:1029D800004401400048014080B582B000AF7860F3
:1029E8007B681B681846FFF77FFD00BF0837BD46A8
:1029F80080BD000080B483B000AF78600C4B5B7979
:102A0800002B0CBF01230023DAB27B6801331A7054
:102A1800074B9B79002B0CBF01230023DAB27B689C
:102A280002331A7000BF0C37BD465DF8047B70474F
:102A38003C03002080B400AF124B9B79002B0CBFE5
:102A480001230023DAB20F4BDA710E4B5A790132A7
:102A5800D2B25A710B4B5B79012B02D9094B002278
:102A68005A71084B9A790132D2B29A71054B9B7907
:102A7800092B02D9034B00229A7100BFBD465DF8AD
:102A8800047B70473C03002080B485B000AF7860B9
:102A980039607B68012283F8D8203B68D3E900239A
:102AA8007968C1E902237B6801221A600023FB6070
:102AB8000CE07B68D3E902237868F9680231C90021
:102AC8000144C1E90023FB680133FB60FB68182B54
:102AD800EFDD00BF00BF1437BD465DF8047B7047CB
:102AE80080B586B000AF87ED040BF860B9607A60F6
:102AF800BB68D3E902017B68D3E90023FDF784FFB3
:102B08000346002B05D17B68D3E90023B968C1E9E6
:102B18000223F868BB681033C82219460EF0E6F99C
:102B2800F968D7E90423C1E93223FB6803F1D0002F
:102B3800BB681033C02219460EF0D8F9BB6803F100
:102B48001000FB68C833C82219460EF0CFF900BF41
:102B58001837BD4680BD80B485B000AF7860396055
:102B68007B68012283F860203B68D3E900237968F9
:102B7800C1E902237B6801221A600023FB600CE094
:102B88007B68D3E902237868F9680231C9000144F7
:102B9800C1E90023FB680133FB60FB68092BEFDD0B
:102BA80000BF00BF1437BD465DF8047B704780B591
:102BB80086B000AF87ED040BF860B9607A60BB6837
:102BC800D3E902017B68D3E90023FDF71DFF034623
:102BD800002B05D17B68D3E90023B968C1E902233A
:102BE800F868BB681033502219460EF07FF9F9686F
:102BF800D7E90423C1E91423FB6803F15800BB6833
:102C08001033482219460EF071F9BB6803F1100021
:102C1800FB685033502219460EF068F900BF183788
:102C2800BD4680BD80B584B000AF87ED000B386825
:102C38007B6823F000414FF000022C4BFDF7EEFEBD
:102C48000346002B42D04FF00002294BD7E9000180
:102C5800FDF7F8FE0346002B13D04FF00002244B7B
:102C6800D7E90001FDF7B2FA02460B4643EC172BF1
:102C7800B0EE470AF0EE670A0DF006FF87ED020B8B
:102C880028E04FF000021B4BD7E90001FDF7E4FEF6
:102C98000346002B06D04FF000024FF00003C7E9AF
:102CA800022317E04FF00002114BD7E90001FDF7AE
:102CB8008BFA02460B4643EC172BB0EE470AF0EEB0
:102CC800670A0DF061FE87ED020B03E0D7E90023E8
:102CD800C7E90223D7E9022343EC172BB0EE470AD2
:102CE800F0EE670A1037BD4680BD00BF00003043D4
:102CF8000000E03F0000E0BF80B58CB002AF786014
:102D08007B6800221A727B6801225A600123BB7318
:102D18001B4BFB617B6810337B611A4BBB61002343
:102D28007B730923BB600423FB840423BB8408232F
:102D38003B6209233B73BA8CF98C07F108003B6AA4
:102D4800009313460122FFF7C1F902467B68DA6057
:102D58007B68DB6802211846FFF72CFB7B68DB6881
:102D68001846FFF741FA7B68DB6801211846FFF730
:102D780084F97B6801221A7200BF2837BD4680BDDE
:102D8800000002400001045080B5A6B000AF786092
:102D98007B6801225A60214BBB6000233B730023F0
:102DA8007B7307F108031846FEF742FC02467B686E
:102DB800DA607B68DB6800211846FEF7F4F8022326
:102DC80087F897307B68DB6897F897201146184694
:102DD800FEF71EFA022387F897307B68DB6897F8BE
:102DE800972011461846FEF7B3FA7B68DB68184649
:102DF800FFF75AFD034687F8963097F89630002B70
:102E080005D17B68DB6800211846FFF765FD7B6804
:102E180001221A7200BF9837BD4680BD00040040E9
:102E280080B5A6B000AF78607B6801225A60214B5C
:102E3800BB6000233B7300237B7307F1080318462C
:102E4800FEF7F6FB02467B68DA607B68DB680021E8
:102E58001846FEF7A8F8022387F897307B68DB68E6
:102E680097F8972011461846FEF712FB022387F8B9
:102E780097307B68DB6897F8972011461846FEF76D
:102E8800AFFB7B68DB681846FFF70EFD034687F843
:102E9800963097F89630002B05D17B68DB680021C7
:102EA8001846FFF719FD7B6801221A7200BF983790
:102EB800BD4680BD000400402DE9B04FA4B000AF6E
:102EC800FFF7B8FD0023BB6607E0B84ABB6E1A449B
:102ED80000231370BB6E0133BB66BB6E072BF4DD9A
:102EE800B34AB44B1364B24B1B6C1846FFF7BFFBD5
:102EF8003866AF4AB04B1364AD4B1B6C1846FFF7EE
:102F0800B6FBAE4B93F8B8301A46AD4B13441B7A58
:102F1800A7F85A30A64A0423A2F84430A74BD86829
:102F2800A34BB3F84430A74A1946FFF772F9A54BEB
:102F3800DB899F4AA2F88030A24B1B889C4AA2F8E2
:102F48008E30A04B9B899A4AA2F882309D4B5B88B1
:102F5800974AA2F88C309B4B5B89954AA2F884303B
:102F6800984B9B88924AA2F88A30964B1B89904AC4
:102F7800A2F88630934BDB888D4AA2F888308F4BB5
:102F880093F8BB307E2B07D88C4B93F8BB300133BA
:102F9800DBB28A4A82F8BB30884B93F8903003F052
:102FA8001003DBB2002B70D1844A92F8903043F0C2
:102FB800100382F890307E494FF000024FF0000372
:102FC800C1E918237A494FF000024FF00003C1E924
:102FD800162377494FF000024FF00003C1E912238E
:102FE800734A0023A2F8C030714A0023A2F8C43003
:102FF8006F4A0023A2F8C2306D4A0023A2F8C630F7
:103008006E4A0023A2F8A0306C4A0023A2F89C3034
:103018006A4A0023A2F8A230684A0023A2F89E3028
:10302800664A0023A2F8A430644A0023A2F8A63016
:103038005F494FF000024FF00003C1E914235C49D7
:103048004FF000024FF00003C1E91C2358494FF02C
:1030580000024FF00003C1E91E2355494FF000025A
:103068004FF00003C1E91A2354494FF000024FF012
:103078000003C1E92023514991F89030042262F3FA
:10308800030381F8903000F010BD4C4B93F890305A
:10309800C3F30303DBB2013B092B00F2CD8401A289
:1030A80052F823F0D530000867310008E1320008F3
:1030B8001733000869330008AB330008ED33000804
:1030C8002F3400089D340008713700083B4B93F8F3
:1030D800BB30042B40F2DC84384991F89030092247
:1030E80062F3030381F8903031494FF000024FF04A
:1030F8000003C1E918232E494FF000024FF00003E6
:10310800C1E916232D494FF000024FF00003C1E931
:103118001E232A4A4FF47A63A2F8AC30274A0023C8
:10312800A2F8AE30254A4FF47A63A2F8A830234AB1
:103138000023A2F8AA30214A4FF47A63A2F8B230E9
:103148001E4A0023A2F8B0301C4A4FF47A63A2F852
:10315800B6301A4A0023A2F8B43000F099BC174BD5
:10316800D3E922014FF000024FF00003FDF74CFCB9
:103178000346002B2CD0114991F89030072262F3B6
:10318800030381F890300D4A002382F8BB300849C8
:103198004FF000020C4BC1E9162305494FF000021D
:1031A8000A4BC1E9182300F080BC00BF5822002058
:1031B800600600200010004800040048081800209D
:1031C800000000206422002000005940008053C005
:1031D800A74BD3E922014FF00002A64BFDF714FCE0
:1031E8000346002B19D0A24991F89030082262F3C7
:1031F800030381F890309E4A002382F8BB309E4931
:103208004FF000029D4BC1E916239B494FF0000285
:103218009B4BC1E9182300F048BC954BD3E9220128
:103228004FF000024FF08043FDF7EEFB0346002B02
:1032380019D08F4991F89030052262F3030381F881
:1032480090308B4A002382F8BB308B4986A3D3E9A0
:103258000023C1E91623884983A3D3E90023C1E9E0
:10326800182300F022BC824BD3E922014FF0000260
:10327800844BFDF7C9FB0346002B18D07C4991F815
:103288009030062262F3030381F89030784A0023D5
:1032980082F8BB3078494FF000027B4BC1E9162316
:1032A80075494FF00002764BC1E91823FDE3704BD6
:1032B800D3E922014FF00002744BFDF7A5FB03464A
:1032C800002B00D1F1E36A4991F89030032262F3B0
:1032D800030381F89030E8E3654991F890300B22B8
:1032E80062F3030381F89030614A002382F8BB300F
:1032F80061494FF000024FF00003C1E918235E490D
:103308004FF000024FF00003C1E91623CDE33B6EF6
:1033180003F04003002B40F0BD83554991F89030ED
:103328000A2262F3030381F8903053494FF00002F8
:10333800574BC1E9182350494FF00002544BC1E9DB
:1033480016234B494FF000024FF00003C1E91C233C
:1033580047494FF000024FF00003C1E9202399E3E9
:10336800434B93F8BB30092B40F29683404991F8C0
:1033780090300B2262F3030381F890303C4A00231B
:1033880082F8BB303C494FF000024FF00003C1E91E
:10339800182339494FF000024FF00003C1E9162302
:1033A8007AE3334B93F8BB30482B40F277833049AC
:1033B80091F890300B2262F3030381F890302C4A85
:1033C800002382F8BB302C494FF000024FF0000375
:1033D800C1E9182328494FF000024FF00003C1E962
:1033E80016235BE3224B93F8BB30362B40F258830D
:1033F8001F4991F890300B2262F3030381F8903053
:103408001B4A002382F8BB301B494FF000024FF0E3
:103418000003C1E9182318494FF000024FF00003D8
:10342800C1E916233CE3124B93F8BB302C2B40F236
:1034380039830F4991F890300B2262F3030381F826
:1034480090300B4A002382F8BB300B494FF0000242
:103458004FF00003C1E9182307494FF000024FF06D
:103468000003C1E916231DE30000000000C052401C
:10347800081800200000F03F60060020008054C0BB
:103488000000594000000840000059C000001040EA
:1034980000005440AF4BD3E91E014FF00002AE4B81
:1034A800FDF7DAFA0346002B00F0D480A94991F819
:1034B8009030022262F3030381F890300023BB6648
:1034C80000237B660023FB66A4494FF000024FF0FF
:1034D8000003C1E91223A1494FF000024FF0000395
:1034E800C1E914239D494FF000024FF00003C1E9E0
:1034F8001C239A494FF000024FF00003C1E91E2334
:10350800944BB3F8AE301A46924BB3F8AC30D31A9A
:103518003B66904BB3F8AE301A463B6E934201D9E6
:1035280000233B663B6E9BB28C4AA2F8C230894BA3
:10353800B3F8AA301A46874BB3F8A830D31A3B66BB
:10354800844BB3F8AA301A463B6E934201D9002344
:103558003B663B6E9BB2814AA2F8C6307D4BB3F8FE
:10356800B0301A467B4BB3F8B230D31A3B66794B6E
:10357800B3F8B0301A463B6E934201D900233B663C
:103588003B6E9BB2754AA2F8C030724BB3F8B430A8
:103598001A46704BB3F8B630D31A3B666D4BB3F886
:1035A800B4301A463B6E934201D900233B663B6E0A
:1035B8009BB26A4AA2F8C430684BB3F8C230282BD1
:1035C80007D966494FF00002654BC1E9142301236E
:1035D8007B66624BB3F8C630912B07D95F494FF031
:1035E80000025F4BC1E91E230123BB665B4BB3F8A6
:1035F800C030962B07D959494FF00002584BC1E902
:103608001C230123FB667B6E002B07D151494FF029
:1036180000024FF00003C1E9222346E2FB6E002BB3
:1036280007D14C494FF000024FF08043C1E92223F3
:103638003BE2BB6E002B06D146494FF00002484BD7
:10364800C1E9222331E243494FF00002454BC1E969
:1036580022232AE2414BB3F886203E4BB3F8AE3022
:103668009A4205D33D4BB3F886303A4AA2F8AE30B9
:103678003A4BB3F88820374BB3F8AA309A4205D3AF
:10368800364BB3F88830334AA2F8AA30334BB3F834
:103698008620304BB3F8AC309A4205D82F4BB3F89C
:1036A80086302C4AA2F8AC302C4BB3F88820294B32
:1036B800B3F8A8309A4205D8284BB3F88830254A81
:1036C800A2F8A830254BB3F88220224BB3F8B030CB
:1036D8009A4205D3214BB3F882301E4AA2F8B03083
:1036E8001E4BB3F88C201B4BB3F8B4309A4205D369
:1036F8001A4BB3F88C30174AA2F8B430174BB3F80A
:103708008220144BB3F8B2309A4205D8134BB3F861
:103718008230104AA2F8B230104BB3F88C200D4B0F
:10372800B3F8B6309A4205D80C4BB3F88C30094A36
:10373800A2F8B630074BD3E91E014FF00002084B40
:10374800FCF744FD02460B4610461946014BC3E9F7
:103758001E01AAE1081800200080414060060020F0
:103768000000F03F00000840AD4BD3E920014FF0C6
:103778000002AC4BFDF748F90346002B25D0A849B9
:1037880091F89030012262F3030381F89030A44A43
:10379800002382F8BB30A4494FF000024FF0000329
:1037A800C1E91A23A0494FF000029E4BC1E9122338
:1037B8009D494FF000029D4BC1E918239A494FF0EB
:1037C80000029A4BC1E916236FE1B7F85A30012B72
:1037D80017D1954BB3F88A30914AA2F8A230924B90
:1037E800B3F884308E4AA2F89E308F4BB3F88E30EF
:1037F8008B4AA2F8A6308C4BB3F88030884AA2F8DE
:10380800A430B7F85A30022B05D1874BB3F88A3069
:10381800834AA2F8A030B7F85A30032B05D1824B5F
:10382800B3F884307E4AA2F89C30B7F85A30002B9F
:1038380040F0D7807A4BB3F89C301A46784BB3F8EF
:103848009E30D31A3B66764BB3F89C301A463B6ED3
:10385800934201D900233B66714BB3F8A0301A4656
:103868006F4BB3F8A230D31AFB656D4BB3F8A03099
:103878001A46FB6D934201D90023FB65FB6D184680
:10388800FCF7F0FD4FF00002694BFCF755FE0246CD
:103898000B4643EC172BB0EE470AF0EE670AFFF72A
:1038A800C1F953EC102B10461946FDF7F5F80346FD
:1038B800BB66BB6EB3F5803F03DABB6EA7F85A3020
:1038C80003E04FF6FF73A7F85A303A6EB7F85A304C
:1038D800D31A1846FCF7C6FD4BA3D3E90023FCF71F
:1038E8002BFE02460B4614461D464F4BD3E91A01E0
:1038F80047A3D3E90023FCF71FFE02460B462046E8
:103908002946FCF763FC02460B4610461946464B0F
:10391800C3E91A01444BB3F880301A46404BB3F858
:10392800A430D31A3B66404BB3F880301A463B6E3E
:10393800934201D900233B663B4BB3F88E301A46BD
:10394800374BB3F8A630D31AFB65374BB3F88E3034
:103958001A46FB6D934201D90023FB65FB6D18469F
:10396800FCF780FD2CA3D3E90023FCF7E5FD024614
:103978000B4643EC172BB0EE470AF0EE670AFFF749
:1039880051F953EC102B10461946FDF785F80346FC
:10399800BB66BB6EB3F5803F03DABB6EA7F85A303F
:1039A80003E04FF6FF73A7F85A303A6E40F2A3636C
:1039B8009A4216DCB7F85A2040F2A3639A4210D80C
:1039C800174BD3E91C014FF000021A4BFDF744F8DE
:1039D8000346002B05D012494FF00002114BC1E9F4
:1039E80020230F4BD3E91C014FF000020D4BFCF7CD
:1039F800EDFB02460B4610461946094BC3E91C016C
:103A080053E000BFAFF300809A9999999999A93F1B
:103A1800666666666666EE3FCDCCCCCCCCCCFC3F09
:103A2800081800200000F03F60060020008051C008
:103A38000000124000003E40994B93F8BB30092B20
:103A480032D9B7F85A30012B2ED1954991F89030D8
:103A58000A2262F3030381F8903092494FF0000282
:103A6800914BC1E918238F494FF000028E4BC1E9F1
:103A780016238B494FF000024FF00003C1E91C23C5
:103A880087494FF000024FF00003C1E920230BE003
:103A980000BF0AE000BF08E000BF06E000BF04E086
:103AA80000BF02E000BF00E000BF7E4BB3F8C630A5
:103AB8007E4A13807B4BB3F8C4307C4A5380794BE1
:103AC800B3F8C030794A9380764BB3F8C230774A5E
:103AD800D380764A00231381744A00235381734AA2
:103AE80000239381714A0023D381714A0023136014
:103AF800704A002313606A4BB3F89430A7F85A3021
:103B08000023BB6610E0674ABB6E403332F81330BF
:103B18001846FCF797FC634ABB6EDB001344C3E905
:103B28000001BB6E0133BB66BB6E072BEBDD5D4B43
:103B380093ED027B604A61496148B0EE470AF0EEB6
:103B4800670AFFF734F8574B03F64853D3E90023C5
:103B5800C7E922230023BB661DE0BB6E0133514A2F
:103B680003F2A913DB001344D3E900234D49C1E94B
:103B78002A234C4BD3E92A23D7E92201FCF74EFF2D
:103B88000346002B04D0474BD3E92A23C7E9222355
:103B9800BB6E0133BB66BB6E082BDEDD494A4A4962
:103BA8004A4897ED220BFEF79BFF3E4B03F58053E7
:103BB8001833D3E90023C7E91E230023BB661DE0A1
:103BC800BB6E0133374A03F20323DB001344D3E906
:103BD80000233449C1E92A23324BD3E92A23D7E900
:103BE8001E01FCF739FF0346002B04D02D4BD3E907
:103BF8002A23C7E91E23BB6E0133BB66BB6E172B96
:103C0800DEDD284B93ED047B314A32493248B0EE71
:103C1800470AF0EE670AFEF763FF224B03F69803A4
:103C2800D3E90023C7E91C230023BB661DE0BB6E54
:103C380001331C4A03F21313DB001344D3E90023B6
:103C48001849C1E92A23174BD3E92A23D7E91C01CC
:103C5800FCF7E4FE0346002B04D0124BD3E92A23D9
:103C6800C7E91C23BB6E0133BB66BB6E172BDEDDB9
:103C78000C4B93ED067B194A19491A48B0EE470ACE
:103C8800F0EE670AFEF72CFF064B03F5AF63D3E9A6
:103C980000230449C1E924230023BB6643E000BF95
:103CA8000818002060060020000054403C06002050
:103CB8004C0600206022002008010020C81F0020B8
:103CC800A813002020010020782100207816002069
:103CD800F0000020281D0020F80E0020E000002041
:103CE800681B0020D80B0020BB6E01339C4AAF3301
:103CF800DB001344D3E900239949C1E92A23984BEF
:103D0800D3E92401964BD3E92A23FCF787FE03461F
:103D1800002B05D0924BD3E92A239149C1E92423EA
:103D2800BB6E0133BB66BB6E172BDDDD8C4B93ED91
:103D3800087B8C4A8C498D48B0EE470AF0EE670A3A
:103D4800FEF7CEFE864BD3E9FA238549C1E926233F
:103D58000023BB661EE0BB6E0133814A7D33DB0066
:103D68001344D3E900237E49C1E92A237C4BD3E9D4
:103D780026017B4BD3E92A23FCF750FE0346002B90
:103D880005D0774BD3E92A237549C1E92623BB6EB1
:103D98000133BB66BB6E172BDDDD714B93ED0A7BE0
:103DA800734A74497448B0EE470AF0EE670AFEF7A2
:103DB80097FE6B4BD3E996236949C1E92823002371
:103DC800BB661EE0BB6E0133654A4B33DB00134410
:103DD800D3E900236249C1E92A23614BD3E92801C9
:103DE8005F4BD3E92A23FCF719FE0346002B05D0C5
:103DF8005B4BD3E92A235A49C1E92823BB6E013317
:103E0800BB66BB6E172BDDDD554B93ED0C7B5B4A18
:103E18005B495C48B0EE470AF0EE670AFEF7C7FE5A
:103E28004F4B03F6E853D3E90023C7E920230023C7
:103E3800BB661DE0BB6E0133494A03F2BD13DB00CC
:103E48001344D3E900234649C1E92A23444BD3E963
:103E58002A23D7E92001FCF7E1FD0346002B04D013
:103E68003F4BD3E92A23C7E92023BB6E0133BB6646
:103E7800BB6E082BDEDD444A4449454897ED200BCC
:103E8800FEF72EFE364B03F68863D3E90023344948
:103E9800C1E92C230023BB661FE0BB6E0133304A07
:103EA80003F2D113DB001344D3E900232C49C1E901
:103EB8002A232B4BD3E92C01294BD3E92A23FCF7DE
:103EC800CBFD0346002B05D0254BD3E92A232449F3
:103ED800C1E92C23BB6E0133BB66BB6E172BDCDD3F
:103EE8002C4BB3F89630A7F858302B4AB7F85A300D
:103EF800138097ED1E0B0CF0C7FDB0EE407AF0EE84
:103F0800607A9FED151BB0EE470AF0EE670A0CF0D9
:103F18003FFEB0EE407AF0EE607A114B83ED2A7BDB
:103F28000F4BD3E92A014FF000024FF00003FCF7D2
:103F380075FD0346002B31D0094BD3E92A2390465F
:103F480083F0004940464946FCF7CEFD03469BB244
:103F58005B429BB22BE000BF000000000000F04075
:103F680060060020D8000020881A0020480A002097
:103F7800D0000020A8190020B80800201001002057
:103F8800302000204814002018010020982000202C
:103F9800E81400200818002028060020A64BD3E9C2
:103FA8002A2310461946FCF79FFD03469BB2A34AF5
:103FB800538097ED1C0B0CF067FDB0EE407AF0EEE5
:103FC800607A9FED9B1BB0EE470AF0EE670A0CF093
:103FD800DFFDB0EE407AF0EE607A974B83ED2A7BF6
:103FE800954BD3E92A014FF000024FF00003FCF78C
:103FF80015FD0346002B0ED08F4BD3E92A2392469A
:1040080083F0004B50465946FCF76EFD03469BB2C1
:104018005B429BB208E0884BD3E92A231046194635
:10402800FCF762FD03469BB2844A9380824B93ED72
:10403800247BB0EE470AF0EE670A0CF025FDB0EEDF
:10404800407AF0EE607A9FED7A1BB0EE470AF0EE08
:10405800670A0CF09DFDB0EE407AF0EE607A764B80
:1040680083ED2A7B744BD3E92A014FF000024FF00D
:104078000003FCF7D3FC0346002B0FD06E4BD3E9AB
:104088002A23BA6483F00043FB64D7E91201FCF7E2
:104098002BFD03469BB25B429BB208E0664BD3E91B
:1040A8002A2310461946FCF71FFD03469BB2634AB4
:1040B800D380614B93ED267BB0EE470AF0EE670A9A
:1040C8000CF0E2FCB0EE407AF0EE607A9FED581BFF
:1040D800B0EE470AF0EE670A0CF05AFDB0EE407AEF
:1040E800F0EE607A544B83ED2A7B534BD3E92A01D7
:1040F8004FF000024FF00003FCF790FC0346002B42
:104108000FD04D4BD3E92A233A6483F000437B64F4
:10411800D7E91001FCF7E8FC03469BB25B429BB26F
:1041280008E0454BD3E92A2310461946FCF7DCFC86
:1041380003469BB2414A13813F4B93ED287BB0EE77
:10414800470AF0EE670A0CF09FFCB0EE407AF0EEFA
:10415800607A9FED371BB0EE470AF0EE670A0CF065
:1041680017FDB0EE407AF0EE607A334B83ED2A7B90
:10417800314BD3E92A014FF000024FF00003FCF75E
:104188004DFC0346002B0FD02B4BD3E92A23BA63EF
:1041980083F00043FB63D7E90E01FCF7A5FC034657
:1041A8009BB25B429BB208E0234BD3E92A2310461B
:1041B8001946FCF799FC03469BB2204A53811E4BD3
:1041C80093ED2C7BB0EE470AF0EE670A0CF05CFC2E
:1041D800B0EE407AF0EE607A9FED151BB0EE470A1C
:1041E800F0EE670A0CF0D4FCB0EE407AF0EE607A9C
:1041F800114B83ED2A7B104BD3E92A014FF00002C3
:104208004FF00003FCF70AFC0346002B18D00A4BBA
:10421800D3E92A233A6383F000437B63D7E90C018F
:10422800FCF762FC03469BB25B429BB211E000BF05
:10423800000000000000F040600600202806002072
:104248008A4BD3E92A2310461946FCF74DFC03464E
:104258009BB2874A9381864AB7F85830D381854BF9
:10426800B3F8AE30824A1382834BB3F89830A7F87C
:104278005A307E4B93ED027B804A81498148B0EEEB
:10428800470AF0EE670AFEF72BFC784B03F6B833C3
:10429800D3E90023C7E91E230023BB661DE0BB6EDC
:1042A8000133724A03F27713DB001344D3E9002386
:1042B8006E49C1E92A236D4BD3E92A23D7E91E01A8
:1042C800FCF7CAFB0346002B04D0684BD3E92A232A
:1042D800C7E91E23BB6E0133BB66BB6E172BDEDD41
:1042E800624B03F69803D3E900236049C1E92C2304
:1042F8000023BB661FE0BB6E01335C4A03F2131355
:10430800DB001344D3E900235849C1E92A23574B5A
:10431800D3E92C01554BD3E92A23FCF79DFB03462F
:10432800002B05D0514BD3E92A235049C1E92C234E
:10433800BB6E0133BB66BB6E172BDCDD4B4B03F545
:10434800AF63D3E90023C7E91C230023BB661CE045
:10435800BB6E0133454AAF33DB001344D3E9002376
:104368004249C1E92A23414BD3E92A23D7E91C0151
:10437800FCF772FB0346002B04D03C4BD3E92A23FD
:10438800C7E91C23BB6E0133BB66BB6E172BDFDD91
:10439800364BD3E9FA233549C1E924230023BB6608
:1043A8001EE0BB6E0133314A7D33DB001344D3E991
:1043B80000232E49C1E92A232C4BD3E924012B4B96
:1043C800D3E92A23FCF748FB0346002B05D0274BEB
:1043D800D3E92A232549C1E92423BB6E0133BB66EF
:1043E800BB6E172BDDDD214BD3E996231F49C1E9AD
:1043F80026230023BB661EE0BB6E01331B4A4B33EA
:10440800DB001344D3E900231849C1E92A23174BD9
:10441800D3E92601154BD3E92A23FCF71DFB0346F4
:10442800002B05D0114BD3E92A231049C1E92623D3
:10443800BB6E0133BB66BB6E172BDDDD0B4B93EDFB
:104448000C7B114A11491248B0EE470AF0EE670A90
:10445800FEF746FB054B03F62823D3E9002303495F
:10446800C1E928230023BB6634E000BF60060020B2
:104478002806002000000020081800200001002065
:10448800E81E002018120020F8000020081E002056
:1044980088100020BB6E0133B34A03F24513DB00DA
:1044A8001344D3E90023B049C1E92A23AE4BD3E929
:1044B8002801AD4BD3E92A23FCF7CEFA0346002B9B
:1044C80005D0A94BD3E92A23A749C1E92823BB6E04
:1044D8000133BB66BB6E172BDCDDA44BB3F89A30F7
:1044E800A7F85830A24AB7F85A30138097ED1E0B38
:1044F8000CF0CAFAB0EE407AF0EE607A9FED981BA5
:10450800B0EE470AF0EE670A0CF042FBB0EE407AD4
:10451800F0EE607A944B83ED2A7B934BD3E92A0122
:104528004FF000024FF00003FCF778FA0346002B27
:104538000FD08D4BD3E92A23BA6283F00043FB6284
:10454800D7E90A01FCF7D0FA03469BB25B429BB25B
:1045580008E0854BD3E92A2310461946FCF7C4FA2C
:1045680003469BB2824A53807F4B93ED2C7BB0EE7F
:10457800470AF0EE670A0CF087FAB0EE407AF0EEE0
:10458800607A9FED771BB0EE470AF0EE670A0CF0F1
:10459800FFFAB0EE407AF0EE607A734B83ED2A7B37
:1045A800714BD3E92A014FF000024FF00003FCF7EA
:1045B80035FA0346002B0FD06B4BD3E92A233A6216
:1045C80083F000437B62D7E90801FCF78DFA0346C4
:1045D8009BB25B429BB208E0634BD3E92A231046A7
:1045E8001946FCF781FA03469BB2614A938097ED1E
:1045F8001C0B0CF049FAB0EE407AF0EE607A9FEDB1
:10460800581BB0EE470AF0EE670A0CF0C1FAB0EE9C
:10461800407AF0EE607A544B83ED2A7B524BD3E913
:104628002A014FF000024FF00003FCF7F7F90346A8
:10463800002B0FD04C4BD3E92A23BA6183F00043F7
:10464800FB61D7E90601FCF74FFA03469BB25B42D0
:104658009BB208E0444BD3E92A2310461946FCF7DD
:1046680043FA03469BB2424AD3803F4B93ED247BE7
:10467800B0EE470AF0EE670A0CF006FAB0EE407AA0
:10468800F0EE607A9FED361BB0EE470AF0EE670A4F
:104698000CF07EFAB0EE407AF0EE607A324B83EDA1
:1046A8002A7B314BD3E92A014FF000024FF0000377
:1046B800FCF7B4F90346002B0FD02B4BD3E92A2380
:1046C8003A6183F000437B61D7E90401FCF70CFAF7
:1046D80003469BB25B429BB208E0234BD3E92A23F3
:1046E80010461946FCF700FA03469BB2204A13818C
:1046F8001D4B93ED267BB0EE470AF0EE670A0CF0EF
:10470800C3F9B0EE407AF0EE607A9FED151BB0EE7B
:10471800470AF0EE670A0CF03BFAB0EE407AF0EE8A
:10472800607A114B83ED2A7B0F4BD3E92A014FF0B6
:1047380000024FF00003FCF771F90346002B19D073
:10474800094BD3E92A23BA6083F00043FB60D7E919
:104758000201FCF7C9F903469BB25B429BB212E027
:10476800000000000000F04060060020081800204B
:10477800842200209E4BD3E92A2310461946FCF7D1
:10478800B3F903469BB29B4A5381994B93ED287B1F
:10479800B0EE470AF0EE670A0CF076F9B0EE407A10
:1047A800F0EE607A9FED901BB0EE470AF0EE670AD4
:1047B8000CF0EEF9B0EE407AF0EE607A8C4B83EDB7
:1047C8002A7B8B4BD3E92A014FF000024FF00003FC
:1047D800FCF724F90346002B0FD0854BD3E92A2395
:1047E8003A6083F000437B60D7E90001FCF77CF96D
:1047F80003469BB25B429BB208E07D4BD3E92A2378
:1048080010461946FCF770F903469BB2794A938122
:10481800784AB7F85830D381774BB3F8B420754B42
:104828001A82764BDB79002B0BD0714BD3E900232E
:104838007349C1E918236E4BD3E90E237049C1E9C6
:104848001A236B4BD3E912016B4BD3E90C23FCF70A
:1048580003F90346002B06D0674BD3E906236449C6
:10486800C1E92A2317E0664B93F8B8301A46624B21
:1048780013441A7A604B9B7B9A4206D15E4BD3E96C
:1048880008235B49C1E92A2305E05B4BD3E90A23E6
:104898005749C1E92A235A4B93F8BA3087F8573059
:1048A800534BD3E91201544BD3E90E23FCF7D4F848
:1048B8000346002B0AD097F857301846FBF7C2FD7D
:1048C80002460B464A49C1E92C2305E04A4BD3E985
:1048D80006234749C1E92C23454BD3E91201464B2E
:1048E800D3E91023FCF7B8F80346002B05D0424B58
:1048F800D3E90623C7E91E2315E0414B93F8B830E6
:104908001A463D4B13441A7A3B4BDB7B9A4205D13E
:10491800394BD3E90823C7E91E2304E0364BD3E912
:104928000A23C7E91E23324BD3E91201324BD3E9DC
:104938001223FCF791F80346002B05D02E4BD3E940
:104948000623C7E91C2315E02D4B93F8B8301A4607
:10495800294B13441A7A284B1B7C9A4205D1264BC3
:10496800D3E90823C7E91C2304E0234BD3E90A232E
:10497800C7E91C231E4B234A1A644FF000024FF06C
:104988000003D7E91E01FCF73FF80346002B03D1CB
:104998004FF40073BB6601E00023BB66144B1B6C2D
:1049A800BA6E11461846FDF76EFE114B1A6CBB6EB7
:1049B800DB4303F4007319461046FDF772FE0C4BF7
:1049C800104A1A644FF000024FF00003D7E91C01A7
:1049D800FCF71AF80346002B16D14FF48043BB6648
:1049E80014E000BFAFF30080000000000000F040BA
:1049F8006006002084220020000000203C030020E4
:104A080008180020001000480023BB66A54B1B6C4B
:104A1800BA6E11461846FDF736FEA24B1A6CBB6EED
:104A2800DB4303F4804319461046FDF73AFE9D4BDD
:104A38009D4A1A649B4BD3E92C014FF000024FF0BA
:104A48000003FBF7E1FF0346002B03D14FF480730B
:104A5800BB6601E00023BB66924B1B6CBA6E114625
:104A68001846FDF710FE8F4B1A6CBB6EDB4303F440
:104A7800807319461046FDF714FE8A4B8A4A1A6459
:104A8800884BD3E92C014FF000024FF00003FBF7ED
:104A9800BBFF0346002B03D14FF40043BB6601E084
:104AA8000023BB667F4B1B6CBA6E11461846FDF798
:104AB800EAFD7C4B1A6CBB6EDB4303F400431946DA
:104AC8001046FDF7EEFD774B774A1A64754BD3E92C
:104AD8002C014FF000024FF00003FBF795FF03464F
:104AE800002B03D14FF48053BB6601E00023BB6663
:104AF8006C4B1B6CBA6E11461846FDF7C4FD694B2A
:104B08001A6CBB6EDB4303F4805319461046FDF75D
:104B1800C8FD644B654A1A64624BD3E92A014FF019
:104B280000024FF00003FBF76FFF0346002B03D191
:104B38004FF48053BB6601E00023BB66594B1B6CE6
:104B4800BA6E11461846FDF79EFD564B1A6CBB6EA1
:104B5800DB4303F4805319461046FDF7A2FD514B81
:104B6800514A1A644F4BD3E92A014FF000024FF023
:104B78000003FBF749FF0346002B03D14FF4005312
:104B8800BB6601E00023BB66464B1B6CBA6E114640
:104B98001846FDF778FD434B1A6CBB6EDB4303F4F4
:104BA800005319461046FDF77CFD3E4B3E4A1A64F9
:104BB8003C4BD3E92C014FF000024FF00003FBF708
:104BC80023FF0346002B03D14FF40063BB6601E0CB
:104BD8000023BB66334B1B6CBA6E11461846FDF7B3
:104BE80052FD304B1A6CBB6EDB4303F4006319466D
:104BF8001046FDF756FD2B4B2D4A1A64294B1B6CAA
:104C080080211846FDF73FFD264B1B6C00211846F6
:104C1800FDF747FD234BD3E91A01264BD3E91823A7
:104C2800FBF78AFC02460B461E49C1E92C23214B9F
:104C3800D3E916011B4BD3E91A23FBF77DFC024687
:104C48000B4614461D46174BD3E92C011A4BD3E9E2
:104C58001623FBF7B9FA02460B4620462946FBF70E
:104C6800B5FA02460B46C7E91E230E4BD3E91601D7
:104C7800D7E91E23FBF7A8FA02460B46C7E91C230F
:104C88000C4BD3E91A23D7E91C01FBF7E5FE0346D1
:104C9800002B13D0074BD3E914230249C1E92A2377
:104CA80011E000BF60060020001000480004004822
:104CB800000C004800000020081800209E49D7E991
:104CC8001C23C1E92A239D4B1C6C9B4BD3E92A2347
:104CD80010461946FBF728FF07EE900AF0EEE77A30
:104CE800B0EE670A2046FDF78FFD954BD3E91C23EC
:104CF800D7E91C01FBF79CFE0346002B04D0904B20
:104D0800D3E91423C7E91C238C4B1C6CD7E91C017D
:104D1800FBF70AFF034600EE103A2046FDF788FD30
:104D2800854BD3E91823D7E91E01FBF74FFA024652
:104D38000B46C7E91E23824BD3E92023D7E91E017E
:104D4800FBF78AFE0346002B05D07B49D7E91E23D3
:104D5800C1E92A2305E07A4BD3E91E237649C1E944
:104D68002A23764B1C6D744BD3E92A231046194627
:104D7800FBF7DAFE034600EE103A2046FDF76CFD1D
:104D88006F4BD3E92223D7E91E01FBF765FE0346E3
:104D9800002B04D06A4BD3E91E23C7E91E23674BB7
:104DA8001C6DD7E91E01FBF7BFFE07EE900AF0EE77
:104DB800E77AB0EE670A2046FDF762FD5E4B614A6E
:104DC8001A645D4BD3E914014FF000024FF0000361
:104DD800FBF71AFE0346002B03D14FF40053BB66C2
:104DE80001E00023BB66544B1B6CBA6E1146184693
:104DF800FDF749FC504B1A6CBB6EDB4303F40053C0
:104E080019461046FDF74DFC4B4B4E4A1A644A4B67
:104E1800D3E91C014FF000024FF00003FBF7F4FD4B
:104E28000346002B03D14FF48043BB6601E0002307
:104E3800BB66414B1B6CBA6E11461846FDF723FC46
:104E48003D4B1A6CBB6EDB4303F480431946104696
:104E5800FDF727FC384B3B4A1A64374BD3E91E0150
:104E68004FF000024FF00003FBF7CEFD0346002B86
:104E780003D14FF40043BB6601E00023BB662E4B11
:104E88001B6CBA6E11461846FDF7FDFB2A4B1A6CCF
:104E9800BB6EDB4303F4004319461046FDF701FCE3
:104EA800254B294A1A64264BD3E924014FF0000206
:104EB8004FF00003FBF7A8FD0346002B02D108239F
:104EC800BB6601E00023BB661B4B1B6CBA6E114628
:104ED8001846FDF7D8FB184B1A6CBB6EDB4303F082
:104EE800080319461046FDF7DCFB144B93F8B8206D
:104EF800134B93F8C1301344DAB2104B83F8B8203F
:104F08000E4B93F8B8200E4B5B7C9A4205D90C4B9C
:104F180093F8BD20094B83F8B82000F08DFD00F010
:104F2800A1FE054BD3E92C230449C1E9162300BF90
:104F38009037BD46BDE8B08F6006002008180020F5
:104F480000000020000800480004004880B582B036
:104F580000AF164B93F8B930FB71144B93F8B92096
:104F6800134B93F8C2301344DAB2104B83F8B920CC
:104F78000E4B93F8B9200E4B9B7C9A4205D90C4BEB
:104F880093F8BE20094B83F8B920FB79084A1344EB
:104F98001B7BFB71054AFB7982F8BA3000F04CFDA7
:104FA80000F060FE00BF0837BD4680BD081800202D
:104FB8000000002000000000B0B590B000AFA04B8A
:104FC800D3E91823C7E90A239E4A9F499F4897EDCA
:104FD8000A0BFDF785FD9E4B03F5E163D3E900233A
:104FE800C7E90E2300237B6319E07B6B0133984AE2
:104FF800E133DB001344D3E90023C7E90823D7E9E9
:105008000823D7E90E01FBF709FD0346002B03D05F
:10501800D7E90823C7E90E237B6B01337B637B6BDE
:10502800172BE2DD97ED0E0B0BF02EFDB0EE407A5C
:10503800F0EE607A9FED801BB0EE470AF0EE670A4B
:105048000BF0A6FD87ED080B4FF000024FF00003B0
:10505800D7E90801FBF7E2FC0346002B0ED03B6AB8
:105068003B617B6A83F000437B61D7E90401FBF76E
:105078003BFD03469BB25B429BB205E0D7E90801C2
:10508800FBF732FD03469BB2FB836D4BD3E91A2332
:105098006F49C1E92E236E4B93ED2E7B6D4A6E4905
:1050A8006E48B0EE470AF0EE670AFDF719FD684B47
:1050B800D3E93223C7E90E2300237B6319E07B6B16
:1050C8000133634A1933DB001344D3E90023C7E9EA
:1050D8000823D7E90823D7E90E01FBF79FFC03460D
:1050E800002B03D0D7E90823C7E90E237B6B0133D4
:1050F8007B637B6B172BE2DD97ED0E0B0BF0C4FC8B
:10510800B0EE407AF0EE607A9FED4B1BB0EE470AA6
:10511800F0EE670A0BF03CFD87ED080B4FF000023C
:105128004FF00003D7E90801FBF778FC0346002B92
:105138000ED03B6ABB607B6A83F00043FB60D7E913
:105148000201FBF7D1FC03469BB25B429BB205E030
:10515800D7E90801FBF7C8FC03469BB2BB83384A72
:10516800BB8BA2F89630364AFB8BA2F89430384BAA
:10517800D3E93223C7E90E2300237B6319E07B6B55
:105188000133334A1933DB001344D3E90023C7E959
:105198000823D7E90823D7E90E01FBF75DFC03468E
:1051A800002B03D0D7E90823C7E90E237B6B013313
:1051B8007B637B6B172BE2DD97ED0E0B0BF064FC2A
:1051C800B0EE407AF0EE607A9FED1B1BB0EE470A16
:1051D800F0EE670A0BF0DCFC87ED080B4FF00002DD
:1051E8004FF00003D7E90801FBF718FC0346002B32
:1051F8000ED03B6A3B607B6A83F000437B60D7E953
:105208000001FBF771FC03469BB25B429BB205E0D1
:10521800D7E90801FBF768FC03469BB2FB830C4BFC
:1052280003F5E163D3E90023C7E90E2300237B6379
:1052380030E000BFAFF30080000000000000F04045
:1052480008180020E8000020481C0020680D0020F5
:1052580060060020C8000020C81800202807002089
:105268007B6B0133304AE133DB001344D3E900237D
:10527800C7E90823D7E90823D7E90E01FBF7ECFBB8
:105288000346002B03D0D7E90823C7E90E237B6B1D
:1052980001337B637B6B172BE2DD97ED0E0B0BF075
:1052A800F3FBB0EE407AF0EE607A9FED1D1BB0EE96
:1052B800470AF0EE670A0BF06BFC87ED080B4FF01E
:1052C80000024FF00003D7E90801FBF7A7FB0346EC
:1052D800002B0CD03C6A7B6A83F0004520462946A7
:1052E800FBF702FC03469BB25B429BB205E0D7E9A1
:1052F8000801FBF7F9FB03469BB2BB830B4AFB8B08
:10530800A2F89A30094ABB8BA2F8983000F094FBB7
:1053180000F0A8FC00BF4037BD46B0BDAFF3008029
:10532800000000000000F04060060020081800207F
:1053380080B582B000AF00237B6011E06E4B93F81C
:10534800BC106E4A7B6813440A461A706A4BB3F85D
:10535800A8106B4A7B6822F813107B6801337B60C6
:105368007B68072BEADD644BD3F89830654A1360F5
:10537800614BD3F89C30644A136000237B6017E0CC
:105388005D4BB3F8B610614A7B6822F813105A4B8C
:10539800B3F8B8105E4A7B6822F81310564BB3F87E
:1053A800BA105C4A7B6822F813107B6801337B6073
:1053B8007B68082BE4DD504BD3F8A030564A1360C5
:1053C8004D4BD3F8A430554A13604B4BD3F8A0305B
:1053D800514A5360484BD3F8A430504A5360464B67
:1053E800D3F8A0304C4A9360434BD3F8A4304B4ACF
:1053F800936000F0B5FB404B93F8BF20484B83F80F
:10540800B8203D4BB3F8AA20454BA3F894203A4B5B
:10541800B3F8AC20424BA3F89620374BB3F8B02032
:105428003F4BA3F89820344BB3F8B2203C4BA3F879
:105438009A20314B93F8C020394B83F8BA202E4B71
:10544800D3E900233649C1E916232B4B93F8C3202F
:10545800334B83F8B920324B00225A60304B00227C
:105468001A702F48FDF748FC2E492F48FDF773FBAB
:105478002E492F48FDF708FB2E492F48FDF704FB5E
:105488002E492F48FDF700FB2E492F48FDF7FCFA5F
:105498002E492F48FDF7F8FA2E492F48FDF75BFBF8
:1054A8002E492F48FDF7F0FA2E492F48FDF7ECFA60
:1054B8002E492F48FDF7E8FA194B00229A63184B3A
:1054C800002283F834202B48FDF75EFC144B0022A1
:1054D8009A64134B002283F844202748FDF7A0FC68
:1054E80026492748FDF7D0FA26492748FDF7CCFA80
:1054F80000BF0837BD4680BD0000002058220020AC
:105508003C0600204C060020602200206422002077
:10551800280600208422002078220020500600203F
:105528000818002008010020C81F002020010020C2
:1055380078210020F0000020281D0020E000002035
:10554800681B0020D8000020881A0020D000002006
:10555800A819002010010020302000201801002088
:105568009820002000010020E81E0020F8000020FC
:10557800081E00203C1800204C180020E8000020DD
:10558800481C0020C8000020C818002080B582B040
:1055980000AF3D4B1B78002B13D13B4B01221A70F7
:1055A800394B5B68012B0CD1374B1B7A002B08D089
:1055B8000423FB80344BDB68F98801221846FCF78A
:1055C80081FE314B93F83430002B29D12E4B012228
:1055D80083F834202C4B9B6B012B21D12A4B93F859
:1055E8003C30002B1CD0284B1B6C1846FDF7F4F9F7
:1055F800254B1B6C00211846FBF76FFD02237B71BE
:10560800214B1B6C7A7911461846FBF751FE022391
:105618007B711D4B1B6C7A7911461846FBF7E8FE27
:10562800194B93F84430002B29D1174B012283F8EA
:105638004420154B9B6C012B21D1134B93F84C3014
:10564800002B1CD0104B1B6D1846FDF7C5F90E4BEF
:105658001B6D00211846FBF740FD02237B710A4BA6
:105668001B6D7A7911461846FBF766FF02237B719A
:10567800054B1B6D7A7911461846FBF7C5FF00BF2D
:105688000837BD4680BD00BF0818002080B489B027
:1056980000AFF860B9607A60FB68BB610023FB610A
:1056A800BB689B087B611B4B1B68B3F5C87F2AD07E
:1056B8000023FB6122E0174B1B6817497A6841F801
:1056C8002320FB699B00BA691A44124B1B681268B5
:1056D800114903F5C87341F823200E4B1B680F4A84
:1056E80012680D4903F5487341F82320094B1B68DC
:1056F8000133084A1360FB690133FB61FA697B696E
:105708009A42D8D300E000BF2437BD465DF8047B39
:10571800704700BF44030020A02200209C220020E4
:1057280080B584B000AF786072B600BF00F0E8FCC6
:105738000346FB6007F10C037A6804211846FFF75B
:10574800A5FF62B600BF00BF1037BD4680BD000090
:1057580080B582B000AF554B1B785A1CD1B2534A62
:105768001170002B09D0524B01221A604F4B1B7845
:10577800013BDAB24D4B1A7095E03B461846FDF7EF
:1057880039F962B600BF02200BF0E5F8FDF794FB8B
:1057980002200BF0EBF872B600BF444B1B78013BBC
:1057A800DAB2424B1A7001237B6024E03A467B68E8
:1057B80013441B78002B1BD03E4A7B6813441B788C
:1057C8005A1CD0B23B497A680A4401461170002B32
:1057D8000ED0374B01221A60364A7B6813441B7877
:1057E800013BD9B2334A7B6813440A461A7005E074
:1057F8007B6801337B607B68022BD7DD01237B60EC
:105808004CE02A4A7B6813441B78002B4AD1294A6A
:105818007B6813441B78002B3DD0244A7B681344D3
:105828001B780133D9B2214A7B6813440A461A709F
:1058380062B600BF7B68012B03D07B68022B09D0BE
:1058480011E003200BF087F8FFF780FB03200BF033
:105858008DF808E004200BF07EF8FFF7ADFB04207C
:105868000BF084F800BF72B600BF124A7B6813447D
:105878001B78013BD9B20F4A7B6813440A461A7059
:105888000A4A7B6813441B78013BD9B2074A7B68F4
:1058980013440A461A707B6801337B607B68022BCD
:1058A800AFDD00E000BF0837BD4680BD4C030020D7
:1058B800480300205003002080B584B000AF786012
:1058C8003960374BFB60374BBB60374B00221A708F
:1058D800364B00221A7001DF06F026FB00F0E0FECE
:1058E80000F02EFF00F08EFF01F054FF01F072FB74
:1058F80002F09EF901F0BEFF02F04AFA01F00EFD37
:1059080002F00EFD02F066FC294B1B6800221A60AB
:1059180001200BF020F8FFF70BFD01200BF026F813
:1059280072B600BF97ED030A00F08AFC204B1B6893
:105938001B68002B0CBF01230023DBB21A461B4B4C
:105948001A7062B600BF62B600BF15E0184B1B683C
:105958001B68002B14BF01230023DBB21A46124B2D
:105968001A70114B1B78DBB2002B05D0114B1B684A
:10597800104A23F0010313600C4B1B78DBB2002B99
:10598800E4D105200AF0E7FFFFF700FE05200AF042
:10599800EDFF72B600BF002318461037BD4680BD24
:1059A8000AD7233C0000A04260350020982200203E
:1059B800940F010810E000E080B485B000AF034602
:1059C800FB80B7F90630002B02DBFB88FB8101E086
:1059D800FB88FB81B7F90E3018461437BD465DF8D1
:1059E800047B704780B588B004AF03460A46FB7154
:1059F8001346BB71FB799BB25B009BB2013399B232
:105A0800BB799AB24FF0FF3302930223019307F157
:105A18000C0300930123074806F078FE3B7B1B022A
:105A28001AB27B7B1BB213431BB29BB218461037CA
:105A3800BD4680BD9435002080B500AF3B2169206C
:105A4800FFF7D0FF03461846FFF7B6FF03461A468E
:105A580013469B0013445B0007EE903AB8EEE77AD2
:105A6800DFED3B6AC7EE267A3A4BC3ED007A3D215B
:105A78006920FFF7B7FF03461846FFF79DFF034667
:105A88001A4613469B0013445B0007EE903AB8EEA3
:105A9800E77ADFED2F6AC7EE267A2E4BC3ED017A3F
:105AA8003F216920FFF79EFF03461846FFF784FF52
:105AB80003461A4613469B0013445B0007EE903AD0
:105AC800B8EEE77ADFED226AC7EE267A214BC3EDFE
